:040000001FEF00F0FE
:100008005E820E0133BB0BEF00F00DEF00F014EF32
:1000180000F08EB412EF00F014EF00F01DEF00F0C6
:100028000101F44BF52BDB0ED36E0B0ED46E0E01D3
:0A003800339B5E921100FAEF1AF0FC
:100E00000025642025642025642025642025642095
:0F0E10000D0A0054455354494E47200D0A000067
:100E2000DBEC19F0000E026E140E016E42EC1BF0AA
:100E300033EC1CF008EC1CF0BCEC1BF018EC1CF0C4
:100E4000000E0101DE6F000EDF6FA30EE06F0F0ECC
:100E5000E16F7D0EE26F0F0EE36F040EE46F000E84
:100E6000E66FC70EE56F000EE76F000EE86FA00E8D
:100E7000E96F0F0EEA6F7F0EEB6F0F0EEC6F060E31
:100E8000ED6F000EEF6FC70EEE6FDE0E0F6E010EF0
:100E9000106EB6EC10F0E70E0F6E010E106EB6EC91
:100EA00010F022EEBAF010EEE7F0090EDBCFE3FF10
:100EB000E806FCE222EEB0F010EEF1F0090EDBCF16
:100EC000E3FFE806FCE28EB668EF07F06AEF07F092
:100ED00063EF07F0000E0101CB6F000ECA6F808632
:100EE000CE0E0C6E010E0D6E7BEC16F0CAC17BF0BF
:100EF000CBC17CF00001D8907B377C37D8907B3712
:100F00007C37D8907B377C37700E7B25D96E020EEC
:100F10007C21DA6ECEC1DEFFCFC1DDFFCAC17BF01E
:100F2000CBC17CF0D8907B377C37D8907B377C372F
:100F3000D8907B377C37020E7B27000E7C23700E07
:100F40007B25D96E020E7C21DA6ED0C1DEFFD1C1C5
:100F5000DDFFCAC17BF0CBC17CF0D8907B377C37FA
:100F6000D8907B377C37D8907B377C37040E7B2733
:100F7000000E7C23700E7B25D96E020E7C21DA6E6A
:100F8000D2C1DEFFD3C1DDFFCAC17BF0CBC17CF093
:100F9000D8907B377C37D8907B377C37D8907B379D
:100FA0007C37060E7B27000E7C23700E7B25D96EC6
:100FB000020E7C21DA6ED4C1DEFFD5C1DDFF7A0ED0
:100FC00000017C6FC10E7B6F810EE82EFED77B2F58
:100FD000FCD77C2FFAD700D08096520E00017C6F90
:100FE0002B0E7B6F000EE82EFED77B2FFCD77C2FBD
:100FF000FAD700F00101CA4BCB2BCBBF09EF08F0A9
:10100000CB5109E1080ECA5DD8A009EF08F00BEF3B
:1010100008F06FEF07F0000ECD6F000ECC6F830E5F
:101020000001606F000E616F010E626F0E0E636F44
:10103000010E0101CC250001646F000E0101CD21DC
:101040000001656FCCC17BF0CDC17CF0D8907B37BF
:101050007C37D8907B377C37D8907B377C37700EC5
:101060007B25D96E020E7C21DA6EDECF66F0DDCFF5
:1010700067F0CCC17DF0CDC17EF0D8907D377E3752
:10108000D8907D377E37D8907D377E37020E7D270A
:10109000000E7E23700E7D25D96E020E7E21DA6E43
:1010A000DECF68F0DDCF69F0CCC17FF0CDC180F03C
:1010B000D8907F378037D8907F378037D8907F3768
:1010C0008037040E7F27000E8023700E7F25D96E97
:1010D000020E8021DA6EDECF6AF0DDCF6BF0CCC17C
:1010E00081F0CDC182F0D89081378237D890813796
:1010F0008237D89081378237060E8127000E8223EF
:10110000700E8125D96E020E8221DA6EDECF6CF070
:10111000DDCF6DF008EC1AF0830E026E000E036E48
:10112000A4EC1BF0290E00017C6F960E7B6F7F0EE6
:10113000E82EFED77B2FFCD77C2FFAD70101CC4BB2
:10114000CD2BCDBFADEF08F0CD5109E1080ECC5D40
:10115000D8A0ADEF08F0AFEF08F00FEF08F0330EB6
:10116000136E330E146E730E156E3F0E166E22EE56
:1011700080F0DECF01F0DDCF02F0000E02BEFF0EE8
:10118000036E046E010EA0EC11F001C00FF002C05E
:1011900010F003C011F004C012F095EC0BF00FC07A
:1011A00028F010C029F011C02AF012C02BF031EC49
:1011B00015F028C0FBF029C0FCF0A8C2FDF0A9C2C0
:1011C000FEF0010E8EA6000E8EA4000EE8B0EBEF2E
:1011D00008F0F0EF08F000017B6B7B2BF2EF08F0DA
:1011E00000017B6B7B51D8A4F8EF08F0FAEF08F010
:1011F000E1EF08F08EB4FFEF08F001EF09F004EF23
:1012000009F07C8E05EF09F08086000E606F010EFC
:10121000616F130E626F0E0E636F08EC1AF0000E12
:10122000026E010E036EA4EC1BF0D60E0C6E010EC6
:101230000D6E7BEC16F0050E00017C6F0F0E7B6FC0
:10124000F10EE82EFED77B2FFCD77C2FFAD7D60ED7
:10125000016E010E026E700E036E020E046E5EECE5
:101260001CF001C0C8F102C0C9F1050E00017C6F7D
:101270000F0E7B6FF10EE82EFED77B2FFCD77C2F55
:10128000FAD7640E0001606F010E616F0D0E626F80
:101290000E0E636FC8C164F0C9C165F008EC1AF0A6
:1012A000640E026E010E036EA4EC1BF015EF09F044
:1012B0001FEF00F062EF0BF024C01AF025C01BF006
:1012C00026C01CF027C01DF007EC19F024C01AF04E
:1012D00025C01BF026C01CF027C01DF057EC19F0EC
:1012E000290E296E960E286E7F0EE82EFED7282E28
:1012F000FCD7292EFAD700F024C01AF025C01BF025
:1013000026C01CF027C01DF0CEEC16F024C01AF049
:1013100025C01BF026C01CF027C01DF057EC19F0AB
:10132000290E296E960E286E7F0EE82EFED7282EE7
:10133000FCD7292EFAD700F024C01AF025C01BF0E4
:1013400026C01CF027C01DF0CEEC16F024C01AF009
:1013500025C01BF026C01CF027C01DF057EC19F06B
:1013600094EF0BF024C01AF025C01BF026C01CF02F
:1013700027C01DF007EC19F024C01AF025C01BF09F
:1013800026C01CF027C01DF057EC19F0290E296E5D
:10139000960E286E7F0EE82EFED7282EFCD7292E1B
:1013A000FAD700F024C01AF025C01BF026C01CF0AC
:1013B00027C01DF020EC17F024C01AF025C01BF048
:1013C00026C01CF027C01DF057EC19F094EF0BF06D
:1013D00024C01AF025C01BF026C01CF027C01DF049
:1013E00007EC19F024C01AF025C01BF026C01CF031
:1013F00027C01DF057EC19F0290E296E960E286EA5
:101400007F0EE82EFED7282EFCD7292EFAD700F023
:1014100024C01AF025C01BF026C01CF027C01DF008
:1014200020EC17F024C01AF025C01BF026C01CF0D9
:1014300027C01DF057EC19F0290E296E960E286E64
:101440007F0EE82EFED7282EFCD7292EFAD700F0E3
:1014500024C01AF025C01BF026C01CF027C01DF0C8
:1014600020EC17F024C01AF025C01BF026C01CF099
:1014700027C01DF057EC19F094EF0BF024C01AF0C0
:1014800025C01BF026C01CF027C01DF014EC18F07E
:1014900024C01AF025C01BF026C01CF027C01DF088
:1014A00057EC19F070EF09F024C01AF025C01BF0BA
:1014B00026C01CF027C01DF014EC18F024C01AF050
:1014C00025C01BF026C01CF027C01DF057EC19F0FA
:1014D000C6EF09F024C01AF025C01BF026C01CF08E
:1014E00027C01DF007EC19F024C01AF025C01BF02E
:1014F00026C01CF027C01DF057EC19F0290E296EEC
:10150000960E286E7F0EE82EFED7282EFCD7292EA9
:10151000FAD700F024C01AF025C01BF026C01CF03A
:1015200027C01DF0C3EC17F024C01AF025C01BF033
:1015300026C01CF027C01DF057EC19F0290E296EAB
:10154000960E286E7F0EE82EFED7282EFCD7292E69
:10155000FAD700F024C01AF025C01BF026C01CF0FA
:1015600027C01DF0C3EC17F024C01AF025C01BF0F3
:1015700026C01CF027C01DF057EC19F094EF0BF0BB
:1015800024C01AF025C01BF026C01CF027C01DF097
:1015900007EC19F024C01AF025C01BF026C01CF07F
:1015A00027C01DF057EC19F0290E296E960E286EF3
:1015B0007F0EE82EFED7282EFCD7292EFAD700F072
:1015C00024C01AF025C01BF026C01CF027C01DF057
:1015D00065EC18F0DCEF09F024C01AF025C01BF010
:1015E00026C01CF027C01DF007EC19F024C01AF02B
:1015F00025C01BF026C01CF027C01DF057EC19F0C9
:10160000290E296E960E286E7F0EE82EFED7282E04
:10161000FCD7292EFAD700F024C01AF025C01BF001
:1016200026C01CF027C01DF020EC17F024C01AF0D3
:1016300025C01BF026C01CF027C01DF057EC19F088
:10164000410E296EF00E286E330EE82EFED7282E9E
:10165000FCD7292EFAD700F024C01AF025C01BF0C1
:1016600026C01CF027C01DF020EC17F024C01AF093
:1016700025C01BF026C01CF027C01DF057EC19F048
:1016800024C01AF025C01BF026C01CF027C01DF096
:1016900057EC19F024C01AF025C01BF026C01CF02E
:1016A00027C01DF0B6EC18F0210E296E780E286EBA
:1016B000980EE82EFED7282EFCD7292EFAD700D078
:1016C000DCEF09F022C028F023C029F02950000ADD
:1016D000D8B46DEF0BF094EF0BF02850000AD8B49B
:1016E00040EF0BF0010AD8B45CEF09F0030AD8B45C
:1016F000B2EF09F0010AD8B4E8EF09F0070AD8B44C
:101700003EEF0AF0010AD8B454EF0AF0030AD8B445
:101710006AEF0AF0010AD8B4C0EF0AF00F0AD8B491
:10172000ECEF0AF094EF0BF012001250800B1B6EDE
:1017300012501224216E11AEA0EF0BF0A2EF0BF0AD
:10174000A3EF0BF021802150D8B4A9EF0BF0ABEF41
:101750000BF0BEEF0BF02128D8A4B1EF0BF0B3EFE4
:101760000BF0BBEF0BF0000E0F6E000E106E000EB4
:10177000116E000E126E118EC6EF0BF0000E0F6E82
:10178000000E106E000E116E000E126E1650800BC1
:101790001B1A16501624206E15AED1EF0BF0D3EFA6
:1017A0000BF0D4EF0BF020802050D8B4DAEF0BF020
:1017B000DCEF0BF0EFEF0BF02028D8A4E2EF0BF0FA
:1017C000E4EF0BF0ECEF0BF0000E136E000E146E56
:1017D000000E156E000E166E158EF7EF0BF0000E54
:1017E000136E000E146E000E156E000E166E205055
:1017F000D8B4FDEF0BF0FFEF0BF007EF0CF021502A
:10180000D8A405EF0CF007EF0CF011EF0CF0000E70
:101810000F6E000E106E000E116E000E126EA9EF0C
:101820000DF015500F02F3CF26F0F4CF27F026501D
:101830001C6E1D6A1E6A1F6A2750226E236A246A64
:10184000256A14501002F3CF26F0F4CF27F026506B
:101850001C26000E1D221E221F2227502226000EAB
:1018600023222422252213501102F3CF26F0F4CF95
:1018700027F026501C26000E1D221E221F22275054
:101880002226000E2322242225221EC01FF01DC066
:101890001EF01CC01DF01C6A13501002F3CF26F07E
:1018A000F4CF27F026501C2627501D22000E1E22A2
:1018B000000E1F2214500F02F3CF26F0F4CF27F0B2
:1018C00026501C2627501D22000E1E22000E1F220D
:1018D0001EC01FF01DC01EF01CC01DF01C6A13505E
:1018E0000F02F3CF26F0F4CF27F026501C26275006
:1018F0001D22000E1E22000E1F2215501002F3CFD3
:1019000026F0F4CF27F02650222627502322000E5F
:101910002422000E252214501102F3CF26F0F4CF1A
:1019200027F02650222627502322000E2422000EC4
:10193000252215501102F3CF26F0F4CF27F02650C0
:10194000176E2750186E196A1A6A19C01AF018C053
:1019500019F017C018F0176A1750222618502322C2
:10196000195024221A5025221CC017F01DC018F04F
:101970001EC019F01FC01AF0190EC4EF0CF0D89059
:101980001A32193218321732E82EBFEF0CF0175006
:10199000222618502322195024221A5025221EC014
:1019A0001FF01DC01EF01CC01DF01C6A205021C07D
:1019B00017F0186A1726000E1822820E1724266EBA
:1019C000FF0E1820276EFAEF0CF0D890223623363F
:1019D000243625361FAEEFEF0CF0F1EF0CF0F2EFEE
:1019E0000CF02280D8901C361D361E361F36260677
:1019F000D8A0270624AEFFEF0CF001EF0DF0E5EFC5
:101A00000CF0000E206E1FAE08EF0DF00AEF0DF087
:101A10002EEF0DF0FF0E1C14176EFF0E1D14186E26
:101A2000FF0E1E14196E7F0E1F141A6E1750181019
:101A300019101A10D8B41FEF0DF021EF0DF025EF9B
:101A40000DF0010E206E2EEF0DF022A02AEF0DF00A
:101A50002CEF0DF02EEF0DF021EF0DF02050D8B44B
:101A600034EF0DF036EF0DF05AEF0DF0010E222697
:101A7000000E23222422252225A041EF0DF043EF62
:101A80000DF05AEF0DF022C017F023C018F024C05B
:101A900019F025C01AF01A341A32193218321732D6
:101AA00017C022F018C023F019C024F01AC025F086
:101AB000264A272A27BE65EF0DF0275008E1262881
:101AC000D8A065EF0DF067EF0DF071EF0DF0000E8F
:101AD000226E000E236E800E246E7F0E256E9FEF09
:101AE0000DF027BE7EEF0DF0275006E12604D8B09A
:101AF0007CEF0DF07EEF0DF08AEF0DF0000E226E00
:101B0000000E236E000E246E000E256E000E1B6E5E
:101B10009FEF0DF026C021F0FF0E2216FF0E2316B8
:101B20007F0E2416000E251621A099EF0DF09BEFD5
:101B30000DF09CEF0DF0248ED8902130256E1B50B7
:101B4000251222C00FF023C010F024C011F025C0D0
:101B500012F0120048EF0FF024C01AF025C01BF05D
:101B600026C01CF027C01DF007EC19F024C01AF0A5
:101B700025C01BF026C01CF027C01DF057EC19F043
:101B8000290E296E960E286E7F0EE82EFED7282E7F
:101B9000FCD7292EFAD700F024C01AF025C01BF07C
:101BA00026C01CF027C01DF020EC17F024C01AF04E
:101BB00025C01BF026C01CF027C01DF057EC19F003
:101BC00076EF0FF024C01AF025C01BF026C01CF0E1
:101BD00027C01DF007EC19F024C01AF025C01BF037
:101BE00026C01CF027C01DF057EC19F0290E296EF5
:101BF000960E286E7F0EE82EFED7282EFCD7292EB3
:101C0000FAD700F024C01AF025C01BF026C01CF043
:101C100027C01DF0CEEC16F024C01AF025C01BF032
:101C200026C01CF027C01DF057EC19F0290E296EB4
:101C3000960E286E7F0EE82EFED7282EFCD7292E72
:101C4000FAD700F024C01AF025C01BF026C01CF003
:101C500027C01DF0CEEC16F024C01AF025C01BF0F2
:101C600026C01CF027C01DF057EC19F076EF0FF0DE
:101C700024C01AF025C01BF026C01CF027C01DF0A0
:101C800007EC19F024C01AF025C01BF026C01CF088
:101C900027C01DF057EC19F0290E296E960E286EFC
:101CA0007F0EE82EFED7282EFCD7292EFAD700F07B
:101CB00024C01AF025C01BF026C01CF027C01DF060
:101CC00072EC17F0D6EF0DF024C01AF025C01BF00F
:101CD00026C01CF027C01DF0B6EC18F024C01AF086
:101CE00025C01BF026C01CF027C01DF0CEEC16F05E
:101CF00024C01AF025C01BF026C01CF027C01DF020
:101D0000B6EC18F024C01AF025C01BF026C01CF059
:101D100027C01DF057EC19F076EF0FF024C01AF031
:101D200025C01BF026C01CF027C01DF057EC19F091
:101D300024C01AF025C01BF026C01CF027C01DF0DF
:101D400020EC17F024C01AF025C01BF026C01CF0B0
:101D500027C01DF0B6EC18F024C01AF025C01BF007
:101D600026C01CF027C01DF057EC19F076EF0FF0DD
:101D700024C01AF025C01BF026C01CF027C01DF09F
:101D800057EC19F0290E296E960E286E7F0EE82E5C
:101D9000FED7282EFCD7292EFAD700F024C01AF03F
:101DA00025C01BF026C01CF027C01DF065EC18F004
:101DB000D6EF0DF024C01AF025C01BF026C01CF091
:101DC00027C01DF057EC19F0290E296E960E286ECB
:101DD0007F0EE82EFED7282EFCD7292EFAD700F04A
:101DE00024C01AF025C01BF026C01CF027C01DF02F
:101DF000C3EC17F024C01AF025C01BF026C01CF05D
:101E000027C01DF057EC19F0290E296E960E286E8A
:101E10007F0EE82EFED7282EFCD7292EFAD700F009
:101E200024C01AF025C01BF026C01CF027C01DF0EE
:101E3000C3EC17F024C01AF025C01BF026C01CF01C
:101E400027C01DF057EC19F076EF0FF024C01AF000
:101E500025C01BF026C01CF027C01DF057EC19F060
:101E600024C01AF025C01BF026C01CF027C01DF0AE
:101E700014EC18F0290E296E960E286E7F0EE82EAF
:101E8000FED7282EFCD7292EFAD700F0D6EF0DF07A
:101E900022C028F023C029F02950000AD8B453EFFB
:101EA0000FF076EF0FF02850000AD8B426EF0FF0AD
:101EB000010AD8B4ACEF0DF0030AD8B4E2EF0DF08C
:101EC000010AD8B438EF0EF0070AD8B464EF0EF068
:101ED000010AD8B48EEF0EF0030AD8B4B8EF0EF0B2
:101EE000010AD8B4DAEF0EF076EF0FF012001EC040
:101EF00034F01FC035F020C036F021C037F022C0CA
:101F000038F023C039F024C03AF025C03BF03BBE86
:101F10008CEF0FF08FEF0FF0010E90EF0FF0000E2F
:101F20003E6E3E50D8B497EF0FF099EF0FF0A9EF47
:101F30000FF03B1E3A1E391E381E371E361E351E48
:101F4000346C000E352236223722382239223A22CA
:101F50003B220101F3BFB7EF0FF0F35106E1F205A9
:101F6000D8B0B5EF0FF0B7EF0FF0BDEF0FF0000EE8
:101F7000316E010E306EC1EF0FF0F2C130F0F3C1DF
:101F800031F0F0C132F0F1C133F03E50D8B4CBEFB4
:101F90000FF0CDEF0FF0E4EF0FF03206D8A03306CC
:101FA0003E50D8A4D6EF0FF0D8EF0FF0DEEF0FF0D1
:101FB000000E2F6E2B0E2E6EE2EF0FF0000E2F6E26
:101FC0002D0E2E6E2EC03EF0000E3D6E1F0E3C6E8E
:101FD000000E02016F6F69EF10F03C06D8A03D06BD
:101FE000500E3C24D96E020E3D20DA6E34C001F052
:101FF00035C002F036C003F037C004F038C005F039
:1020000039C006F03AC007F03BC008F00A0E096E6E
:10201000000E0A6E000E0B6E000E0C6E000E0D6EA2
:10202000000E0E6E000E0F6E000E106E3EEC13F0E2
:1020300001C026F002C027F003C028F004C029F038
:1020400005C02AF006C02BF007C02CF008C02DF008
:1020500026C013F027C014F084EC1BF01350300F8F
:10206000DF6E3006D8A031063206D8A0330634C061
:1020700001F035C002F036C003F037C004F038C0BC
:1020800005F039C006F03AC007F03BC008F00A0E70
:10209000096E000E0A6E000E0B6E000E0C6E000E26
:1020A0000D6E000E0E6E000E0F6E000E106E7AECAE
:1020B00012F001C034F002C035F003C036F004C0A5
:1020C00037F005C038F006C039F007C03AF008C054
:1020D0003BF03DBE74EF10F03D5008E13C04D8A049
:1020E00074EF10F076EF10F092EF10F034503510DE
:1020F00036103710381039103A103B10D8A483EF3F
:1021000010F085EF10F0EDEF0FF031BE92EF10F010
:10211000315006E13004D8B090EF10F092EF10F09B
:10212000EDEF0FF03E50D8B498EF10F09AEF10F0AA
:10213000A5EF10F03C06D8A03D06500E3C24D96E09
:10214000020E3D20DA6E3EC0DFFF1CC011F01DC044
:1021500012F0500E3C24136E020E3D20146E32C05D
:1021600015F033C016F09EEC19F0120020EE01F0CD
:102170000F50D9261050DA22DF50D8B4C2EF10F039
:10218000C4EF10F0F5EF10F00FC0D9FF10C0DAFF68
:10219000DF50116E1150016E026A20EE07F00F50F1
:1021A000D9261050DA22DECF03F0DDCF04F0E5ECC3
:1021B0001BF001C007F002C008F0000E0A6E640EAA
:1021C000096E19EC16F020EE07F00F50D9261050CA
:1021D000DA22DECF12F0DDCF13F00750125C186E5A
:1021E00008501358196E18EF11F00FC0D9FF10C026
:1021F000DAFFDF50116E1150016E026A20EE07F017
:102200000F50D9261050DA22DECF03F0DDCF04F0D4
:10221000E5EC1BF001C007F002C008F0000E0A6EEA
:10222000640E096E19EC16F007C018F008C019F01A
:1022300020EE02F00F50D9261050DA22DECF11F036
:10224000DDCF12F011C0D9FF12C0DAFF18C0DFFFD6
:1022500020EE01F00F50D9261050DA22DF50D8B40A
:1022600034EF11F036EF11F06BEF11F020EE04F0C7
:102270000F50D9261050DA22DECF11F0DDCF12F048
:1022800011C0D9FF12C0DAFF10EE04F00F50E126A2
:102290001050E222E6CF13F0E5CF14F013C0E1FFB7
:1022A00014C0E2FFE750156E10EE06F00F50E12665
:1022B0001050E222E750166E010E176E162A63EFD9
:1022C00011F0D8901736162E61EF11F01750151037
:1022D000DF6E9FEF11F020EE04F00F50D926105062
:1022E000DA22DECF11F0DDCF12F011C0D9FF12C01B
:1022F000DAFF10EE04F00F50E1261050E222E6CF94
:1023000013F0E5CF14F013C0E1FF14C0E2FFE75073
:10231000156E10EE06F00F50E1261050E222E75045
:10232000166E010E176E162A98EF11F0D890173618
:10233000162E96EF11F01750FF0A1514DF6E1200DB
:10234000096E0950D8B4A7EF11F0A9EF11F0CBEF47
:1023500011F004BEB0EF11F0AEEF11F0CBEF11F0C1
:1023600001C005F002C006F003C007F004C008F089
:10237000051E061E071E081E052A000E062207223D
:10238000082205C00BF006C00CF007C00DF008C015
:102390000EF0D3EF11F001C00BF002C00CF003C03F
:1023A0000DF004C00EF00150021003100410D8A468
:1023B000DCEF11F0DEEF11F0E8EF11F0000E016E2E
:1023C000000E026E000E036E000E046E79EF12F026
:1023D000960E0A6EF2EF11F00A2AD8900E320D32E4
:1023E0000C320B32000E0B14056E000E0C14066E30
:1023F000000E0D14076EFE0E0E14086E055006102A
:1024000007100810D8A407EF12F009EF12F0ECEF54
:1024100011F017EF12F00A2A010E0B26000E0C2203
:102420000D220E22D8900E320D320C320B32000EDD
:102430000B14056E000E0C14066E000E0D14076EC4
:10244000FF0E0E14086E0550061007100810D8A4D1
:102450002CEF12F02EEF12F00BEF12F036EF12F01D
:102460000A06D8900B360C360D360E360DBE3BEFF5
:1024700012F03DEF12F045EF12F0020E0A6043EF4A
:1024800012F045EF12F030EF12F00AB04AEF12F0FE
:102490004CEF12F04DEF12F00D9ED8900A320AC0A8
:1024A00005F0066A076A086A05C008F0076A066A46
:1024B000056A05500B1206500C1207500D120850F9
:1024C0000E120950D8B467EF12F069EF12F071EFF5
:1024D00012F004BE70EF12F06EEF12F071EF12F016
:1024E0000E8E0BC001F00CC002F00DC003F00EC048
:1024F00004F01200000E126E10BE83EF12F081EF96
:1025000012F095EF12F0101E0F1E0E1E0D1E0C1E67
:102510000B1E0A1E096C000E0A220B220C220D2231
:102520000E220F221022010E126E08BE9CEF12F036
:102530009AEF12F0AEEF12F0081E071E061E051EDF
:10254000041E031E021E016C000E0222032204223E
:102550000522062207220822010E121A20EE13F08D
:10256000070EDE6AE806FDE209500A100B100C1097
:102570000D100E100F101010D8B4C1EF12F0C3EFF1
:1025800012F015EF13F0010E116ED1EF12F0D8908A
:1025900009360A360B360C360D360E360F36103627
:1025A000112A10AED6EF12F0D8EF12F0C7EF12F0EA
:1025B000D89013361436153616361736183619369F
:1025C0001A360950015C0A5002580B5003580C503F
:1025D00004580D5005580E5006580F50075810500B
:1025E0000858D8A0F6EF12F0F8EF12F009EF13F048
:1025F0000950015E0A50025A0B50035A0C50045AFB
:102600000D50055A0E50065A0F50075A1050085ACE
:102610001380D89010320F320E320D320C320B3242
:102620000A320932112ED8EF12F01250D8B41BEF33
:1026300013F01DEF13F02DEF13F01A1E191E181EC4
:10264000171E161E151E141E136C000E14221522C2
:1026500016221722182219221A2213C001F014C0C0
:1026600002F015C003F016C004F017C005F018C042
:1026700006F019C007F01AC008F01200000E126E22
:1026800008BE47EF13F045EF13F059EF13F0081EA3
:10269000071E061E051E041E031E021E016C000EF0
:1026A0000222032204220522062207220822010E0A
:1026B000126E10BE60EF13F05EEF13F070EF13F0C8
:1026C000101E0F1E0E1E0D1E0C1E0B1E0A1E096C68
:1026D000000E0A220B220C220D220E220F221022A3
:1026E00009500A100B100C100D100E100F101010C6
:1026F000D8B47DEF13F07FEF13F0C7EF13F0010EA6
:10270000116E8DEF13F0D89009360A360B360C3661
:102710000D360E360F361036112A10AE92EF13F02A
:1027200094EF13F083EF13F00950015C0A50025844
:102730000B5003580C5004580D5005580E500658B5
:102740000F50075810500858D8A0A9EF13F0ABEF5E
:1027500013F0BBEF13F00950015E0A50025A0B5000
:10276000035A0C50045A0D50055A0E50065A0F5079
:10277000075A1050085AD89010320F320E320D32CC
:102780000C320B320A320932112E94EF13F0125030
:10279000D8B4CDEF13F0CFEF13F0DFEF13F0081E36
:1027A000071E061E051E041E031E021E016C000EDF
:1027B000022203220422052206220722082201C047
:1027C00001F002C002F003C003F004C004F005C031
:1027D00005F006C006F007C007F008C008F01200B8
:1027E00041C0D9FF42C0DAFFDECFF6FFDDCFF7FFF1
:1027F000000EF86E0800F550250AD8A402EF14F078
:1028000004EF14F088EF14F041C0D9FF42C0DAFFA2
:10281000DE2A000EDD22000E0101F16F000EF06FC6
:10282000F0C159F0F269F36941C0D9FF42C0DAFF43
:10283000DECF4FF0DDCF50F04FC0F6FF50C0F7FFB6
:10284000000EF86E0800F550640AD8B42AEF14F0B0
:102850002CEF14F03CEF14F04FC0F6FF50C0F7FF20
:10286000000EF86E0800F550690AD8A43AEF14F08B
:102870003CEF14F07FEF14F043C0D9FF44C0DAFFFF
:10288000DFCF45F0020EDE26DFCF46F0000EDD2260
:1028900045C0D9FF46C0DAFFDECF47F0DDCF48F0B4
:1028A000000E48BEFF0E496E4A6E4B6E4C6E4D6E6A
:1028B0004E6E010E4F24456E000E5020466E41C0F4
:1028C000D9FF42C0DAFF45C0DEFF46C0DDFF3FC092
:1028D0001CF040C01DF047C01EF048C01FF049C0AA
:1028E00020F04AC021F04BC022F04CC023F04DC074
:1028F00024F04EC025F077EC0FF09EEF14F041C0AD
:10290000D9FF42C0DAFFDE2A000EDD229EEF14F06E
:1029100041C0D9FF42C0DAFFDECFF6FFDDCFF7FFBF
:10292000000EF86E0800F550016E026A3FC003F019
:1029300040C004F0B4EC15F07FEF14F0120001C0B9
:10294000D9FF02C0DAFFDECF09F0DDCF0AF020EEBA
:1029500002F00150D9260250DA22DECF0BF0DDCF93
:102960000CF020EE04F00150D9260250DA22DECF1E
:102970000DF0DDCF0EF020EE06F00150D92602500A
:10298000DA22DECF0FF0DDCF10F020EE38F003506A
:10299000D9260450DA22DECF05F0DDCF06F0640E32
:1029A0000526000E06220550095C06500A58D8B0CC
:1029B000DCEF14F0DEEF14F0FFEF14F020EE38F04F
:1029C0000350D9260450DA22DECF05F0DDCF06F021
:1029D0009C0E0524076EFF0E0620086E0950075C4A
:1029E0000A500858D8B0F7EF14F0F9EF14F0FFEFE1
:1029F00014F0000E026E080E016E30EF15F00B5051
:102A00000D5C0C500E58D8B008EF15F00AEF15F019
:102A10002CEF15F00B500F5C0C501058D8B013EF82
:102A200015F015EF15F02CEF15F00D500F5C0E5052
:102A30001058D8B01EEF15F020EF15F026EF15F066
:102A4000000E026E020E016E30EF15F0000E026EE7
:102A5000010E016E30EF15F0000E026E030E016ED6
:102A600012002A342B34316E3150D8A43AEF15F0CD
:102A70003CEF15F046EF15F0000E286E000E296EA3
:102A8000000E2A6E000E2B6EB3EF15F028C02CF04E
:102A900029C02DF02AC02EF02BC02FF0200E56EFAB
:102AA00015F0D8902F322E322D322C32E82E51EFE5
:102AB00015F02C50306E2A8EFF0E2816FF0E2916A8
:102AC000FF0E2A16000E2B16960E315E31BE6DEFEC
:102AD00015F06BEF15F083EF15F03150800A970F6A
:102AE000D8B075EF15F077EF15F079EF15F03CEFF2
:102AF00015F0D8902B322A3229322832313E79EF24
:102B000015F09BEF15F01F0E316489EF15F08BEF78
:102B100015F093EF15F03CEF15F0D89028362936D4
:102B20002A362B3631063150D8A499EF15F09BEF99
:102B300015F08DEF15F03050D8B4A1EF15F0A3EFDC
:102B400015F0ABEF15F02B1E2A1E291E286C000E67
:102B500029222A222B2228C028F029C029F02AC0A5
:102B60002AF02BC02BF0120003500410D8B4BBEF96
:102B700015F0BDEF15F0C6EF15F003500410D8A402
:102B8000C4EF15F0C6EF15F0CBEF15F001505DEC7A
:102B90001CF018EF16F020EE09F00350D92604506F
:102BA000DA22DE50DE10D8B4D8EF15F0DAEF15F0E7
:102BB000F5EF15F020EE09F00350D9260450DA2283
:102BC00010EE03F00350E1260450E222DE50E65CF2
:102BD000E650800A096EDE50800A0958D8B0F3EF3B
:102BE00015F0F5EF15F018EF16F020EE03F0035096
:102BF000D9260450DA22DECF05F0DDCF06F003C07F
:102C0000D9FF04C0DAFFDECF07F0DDCF08F00550B2
:102C10000724D96E06500820DA6E01C0DFFF20EECF
:102C200003F00350D9260450DA22DE2A000EDD22FA
:102C30001200000E0C6E0ABE22EF16F020EF16F006
:102C400028EF16F0096C0A1ED8B00A2A010E0C6E85
:102C500008BE2FEF16F02DEF16F035EF16F0076CCB
:102C6000081ED8B0082A010E0C1A000E0E6E000EB7
:102C70000D6E09500A10D8B440EF16F042EF16F06E
:102C80006AEF16F0010E0B6E4AEF16F0D890093677
:102C90000A360B2A0AAE4FEF16F051EF16F046EF48
:102CA00016F0D8900D360E360950075C0A500858B9
:102CB000D8A05DEF16F05FEF16F064EF16F0095044
:102CC000075E0A50085A0D80D8900A3209320B2E3E
:102CD00051EF16F00C50D8B470EF16F072EF16F0FA
:102CE00076EF16F00D6C0E1ED8B00E2A0DC007F050
:102CF0000EC008F0120082EC1AF00CC0D9FF0DC013
:102D0000DAFF05C0DEFF06C0DDFF090E0F6E1E0EE6
:102D10000E6EE40EE82EFED70E2EFCD70F2EFAD73D
:102D200000D05AEC1AF020EE02F00C50D9260D50CB
:102D3000DA2205C0DEFF06C0DDFF090E0F6E1E0E93
:102D40000E6EE40EE82EFED70E2EFCD70F2EFAD70D
:102D500000D0AAEC1AF020EE04F00C50D9260D5049
:102D6000DA2205C0DEFF06C0DDFF090E0F6E1E0E63
:102D70000E6EE40EE82EFED70E2EFCD70F2EFAD7DD
:102D800000D0D2EC1AF020EE06F00C50D9260D50EF
:102D9000DA2205C0DEFF06C0DDFF120020EE01F0E2
:102DA0001A50D9261B50DA22010EDF6E20EE01F0F8
:102DB0001C50D9261D50DA22000EDF6E000E216E47
:102DC000000E206E1AC0D9FF1BC0DAFF20C0DFFF43
:102DD0002050320F1CC0D9FF1DC0DAFFDF6E1AC0B1
:102DE0000FF01BC010F0B6EC10F01CC00FF01DC0AF
:102DF00010F0B6EC10F0350EE82EFED700F0020E03
:102E00002024206E000E2120216E21BE11EF17F02C
:102E1000215009E1FB0E205CD8A011EF17F013EF51
:102E200017F0E2EF16F00E0E1F6E650E1E6E870E87
:102E3000E82EFED71E2EFCD71F2EFAD700F0120068
:102E400020EE01F01A50D9261B50DA22000EDF6E58
:102E500020EE01F01C50D9261D50DA22010EDF6E43
:102E6000000E216E000E206E2050320F1AC0D9FFC6
:102E70001BC0DAFFDF6E1CC0D9FF1DC0DAFF20C007
:102E8000DFFF1AC00FF01BC010F0B6EC10F01CC032
:102E90000FF01DC010F0B6EC10F0350EE82EFED786
:102EA00000F0020E2024206E000E2120216E21BE93
:102EB00063EF17F02D0E205C010E2158D8A063EFB0
:102EC00017F065EF17F034EF17F0100E1F6ED40EE9
:102ED0001E6EE60EE82EFED71E2EFCD71F2EFAD74A
:102EE00000D0120020EE01F01A50D9261B50DA2231
:102EF000010EDF6E20EE01F01C50D9261D50DA22A3
:102F0000000EDF6E000E216E000E206E1AC0D9FF7B
:102F10001BC0DAFF20C0DFFF2050320F1CC0D9FFDA
:102F20001DC0DAFFDF6E1AC00FF01BC010F0B6EC48
:102F300010F01CC00FF01DC010F0B6EC10F0350EF4
:102F4000E82EFED700F0020E2024206E000E212075
:102F5000216E21BEB5EF17F0215009E1320E205C41
:102F6000D8A0B5EF17F0B7EF17F086EF17F0180EEF
:102F70001F6E8A0E1E6EE80EE82EFED71E2EFCD7A0
:102F80001F2EFAD7120020EE01F01A50D9261B503E
:102F9000DA22010EDF6E20EE01F01C50D9261D5002
:102FA000DA22000EDF6E000E216E000E206E1AC0B7
:102FB000D9FF1BC0DAFF20C0DFFF2050320F1CC03A
:102FC000D9FF1DC0DAFFDF6E1AC00FF01BC010F072
:102FD000B6EC10F01CC00FF01DC010F0B6EC10F0F5
:102FE000350EE82EFED700F0020E2024206E000ED3
:102FF0002120216E21BE06EF18F02C0E205C010E60
:103000002158D8A006EF18F008EF18F0D7EF17F006
:10301000130E1F6EAC0E1E6E2A0EE82EFED71E2E4D
:10302000FCD71F2EFAD7120020EE01F01A50D92635
:103030001B50DA22000EDF6E20EE01F01C50D92664
:103040001D50DA22000EDF6E000E216E000E206E83
:103050001AC0D9FF1BC0DAFF20C0DFFF1CC0D9FF98
:103060001DC0DAFF20C0DFFF1AC00FF01BC010F038
:10307000B6EC10F01CC00FF01DC010F0B6EC10F054
:10308000350EE82EFED700F0020E2024206E000E32
:103090002120216E21BE56EF18F0215009E1090EC2
:1030A000205CD8A056EF18F058EF18F028EF18F071
:1030B0005A0E1F6E490E1E6EE70EE82EFED71E2E0C
:1030C000FCD71F2EFAD700F0120020EE01F01A50A4
:1030D000D9261B50DA22000EDF6E20EE01F01C50C4
:1030E000D9261D50DA22010EDF6E000E216E000E71
:1030F000206E2050320F1AC0D9FF1BC0DAFFDF6EDE
:103100001CC0D9FF1DC0DAFF20C0DFFF1AC00FF0BE
:103110001BC010F0B6EC10F01CC00FF01DC010F07A
:10312000B6EC10F0350EE82EFED700F0020E20248B
:10313000206E000E2120216E21BEA8EF18F02C0E6B
:10314000205C010E2158D8A0A8EF18F0AAEF18F0C3
:1031500079EF18F0180E1F6E8A0E1E6EE80EE82E1C
:10316000FED71E2EFCD71F2EFAD7120020EE01F03C
:103170001A50D9261B50DA22010EDF6E20EE01F024
:103180001C50D9261D50DA22010EDF6E000E216E72
:10319000000E206E1AC0D9FF1BC0DAFF20C0DFFF6F
:1031A0001CC0D9FF1DC0DAFF20C0DFFF1AC00FF01E
:1031B0001BC010F0B6EC10F01CC00FF01DC010F0DA
:1031C000B6EC10F0350EE82EFED700F0020E2024EB
:1031D000206E000E2120216E21BEF8EF18F0215044
:1031E00009E1650E205CD8A0F8EF18F0FAEF18F0AE
:1031F000CAEF18F0090E1F6E1E0E1E6EE40EE82EAA
:10320000FED71E2EFCD71F2EFAD700D0120020EEBC
:1032100001F01A50D9261B50DA22000EDF6E20EE84
:1032200001F01C50D9261D50DA22000EDF6E000E70
:10323000216E000E206E1AC0D9FF1BC0DAFF20C01D
:10324000DFFF1CC0D9FF1DC0DAFF20C0DFFF1AC09E
:103250000FF01BC010F0B6EC10F01CC00FF01DC03A
:1032600010F0B6EC10F0350EE82EFED700F0020E8E
:103270002024206E000E2120216E21BE49EF19F07E
:10328000215009E1090E205CD8A049EF19F04BEF5D
:1032900019F01BEF19F0190E1F6E5A0E1E6EB20EAA
:1032A000E82EFED71E2EFCD71F2EFAD7120020EED6
:1032B00001F01A50D9261B50DA22000EDF6E20EEE4
:1032C00001F01C50D9261D50DA22000EDF6E000ED0
:1032D000206E050E1F6E1AC0D9FF1BC0DAFF1FC07B
:1032E000DFFF1CC0D9FF1DC0DAFF1FC0DFFF1AC0FF
:1032F0000FF01BC010F0B6EC10F01CC00FF01DC09A
:1033000010F0B6EC10F0D00E1E6ECA0EE82EFED7EE
:103310001E2EFCD7FF0E1F241F6EFF0E2020206ED6
:1033200020BE9DEF19F0205006E11F04D8B09BEF9E
:1033300019F09DEF19F06BEF19F0120016BEA3EF14
:1033400019F0A5EF19F0ABEF19F015C01AF016C07F
:103350001BF0AFEF19F0000E1B6E000E1A6E000E80
:10336000196E000E186EC1EF19F0000E026E200EDD
:10337000016E11C003F012C004F0B4EC15F0184A4D
:10338000192A1A50185C1950800A176E1B50800AAF
:103390001758D8A0CEEF19F0D0EF19F0B5EF19F00B
:1033A00013C00AF014C00BF011C00CF012C00DF0E5
:1033B00020EC1BF01200BCEC1BF0010E036E000EA3
:1033C000F8EC1BF03F0E056E550EE82EFED7052ECD
:1033D000FCD700F0030E036E000EF8EC1BF0D50EC8
:1033E000036E010EF8EC1BF0889284968498889006
:1033F000869080827C867C9880907E907C9E809651
:10340000849E889686840E01B4958686B4971200B1
:10341000640E00016E6F000E6F6F60C070F061C0CF
:1034200071F0000E746F000E736F000E7A6F000E55
:10343000796F700E516E000E526E62C053F063C011
:1034400054F06E0E556E000E566E31EC1AF00001FF
:1034500073516025D96E74516121DA6E000EDF6EF2
:10346000120053C057F054C058F045EF1AF051C045
:103470003FF052C040F0570E416E000E426E55C0F4
:1034800043F056C044F0F0EC13F057C0F6FF58C0BC
:10349000F7FF000EF86E0800F5500009D8A453EFAE
:1034A0001AF055EF1AF037EF1AF0000E526E000EB8
:1034B000516E120058EC1CF0520E48EC1CF0B60E87
:1034C00048EC1CF04EEC1CF0530E48EC1CF0010EC6
:1034D00063EC1BF0076E07500A6E0B6A000E63EC7C
:1034E0001BF0076E0750096E086A0A5008100A6E32
:1034F0000B5009100B6E53EC1CF00AC005F00BC00A
:1035000006F0120058EC1CF0520E48EC1CF0B40E01
:1035100048EC1CF04EEC1CF0530E48EC1CF0010E75
:1035200063EC1BF0076E07500A6E0B6A000E63EC2B
:103530001BF0076E0750096E086A0A5008100A6EE1
:103540000B5009100B6E53EC1CF00AC005F00BC0B9
:1035500006F0120058EC1CF0520E48EC1CF0B80EAD
:1035600048EC1CF04EEC1CF0530E48EC1CF0010E25
:1035700063EC1BF0076E07500A6E0B6A000E63ECDB
:103580001BF0076E0750096E086A0A5008100A6E91
:103590000B5009100B6E53EC1CF00AC005F00BC069
:1035A00006F0120058EC1CF0520E48EC1CF0BA0E5B
:1035B00048EC1CF04EEC1CF0530E48EC1CF0010ED5
:1035C00063EC1BF0076E07500A6E0B6A000E63EC8B
:1035D0001BF0076E0750096E086A0A5008100A6E41
:1035E0000B5009100B6E53EC1CF00AC005F00BC019
:1035F00006F012007C0EF66E380EF76E000EF86EB6
:1036000002EEB0F010EE14F00900F5CFEEFFE55039
:10361000E150FAE102EE00F0700EEE6AE806FDE11C
:1036200001EEF0F00A0EEE6AE806FDE15D6A5C6A02
:103630005B6A5A6A596A5E905E92000110EF07F069
:10364000000E106E000E0F6E31EF1BF00EC001F079
:10365000026A0CC003F00DC004F0B4EC15F00F4A80
:10366000102A0F500A24D96E10500B20DA6EDF504A
:103670000E6E0E50D8A43FEF1BF041EF1BF026EF6B
:103680001BF0120085948598839E879C7D947D987D
:103690007B9E7F9CBD508F0B3009BD6EE00EBE1629
:1036A000BF50F00B0109BF6E01C0BCFFBD8E0A0EFA
:1036B0000E01746F0B0E696F000EA36E000EA06EEC
:1036C000A48EA18E1200036ED1EC1BF00E01DA87DE
:1036D000D1EC1BF0D5CE04F0D1EC1BF00350D8B4E4
:1036E00074EF1BF078EF1BF0026A022A79EF1BF0EF
:1036F000026A023A02460E01DA510218DF0B021882
:10370000DA6FDA890450120014BE91EF1BF01450E6
:1037100006E11304D8B08FEF1BF091EF1BF09FEF81
:103720001BF013C015F014C016F0151E161E154A16
:10373000162A15C013F016C014F0A3EF1BF013C027
:1037400013F014C014F01200AFEF1BF002C0D9FF49
:1037500003C0DAFFDF5027EC1CF0024A032A02C044
:10376000D9FF03C0DAFFDF50D8A4B9EF1BF0BBEFDD
:103770001BF0A6EF1BF012000E01D951F00B080947
:10378000D96FD98B9F0ED66F848A848CA79BA79DF7
:103790001D0E1D6F1E0E1C6F1C0E6F6F1B0E706FAB
:1037A00012000E01D8B5D7EF1BF0D9EF1BF0D1EF07
:1037B0001BF0DACE01F01F0E0116D8A4E2EF1BF0C9
:1037C000E4EF1BF0D1EF1BF0120001500302F3CF26
:1037D00005F0F4CF06F001500402F3500626025023
:1037E0000302F350062605C001F006C002F01200E5
:1037F000046E58EC1CF0520E48EC1CF0045080098A
:1038000048EC1CF0035048EC1CF053EC1CF0120088
:10381000D6501F0B4009D66ED688D650F00B07093C
:10382000D66ED588F60ED46E3B0ED36ED58E1200B2
:10383000120E0E01626F110E156FE997E895670E73
:10384000E56F000EE66FE789E88BE78F1200016EE7
:103850000E0137A52EEF1CF030EF1CF028EF1CF006
:1038600001C0E4FE1200F28AF28C0E01298B1F8B3C
:10387000339B2B8121913591F28E120001000100C2
:10388000010001000100010000000200000003002F
:10389000026ED1EC1BF002C0D5FE1200D1EC1BF081
:1038A0000E01DA831200D1EC1BF00E01DA85120052
:0E38B000D1EC1BF00E01DA81120012001200A2
:020000040020DA
:10000000FF0FFF0FFF0FFF0FFF0FFF0FFF0FFF0F80
:020000040030CA
:0C000000AAFFFFFF9FFFFFFFFFFFFFFFB5
:00000001FF
