:040000002AEF00F0F3
:100008005D820E0133AB0BEF00F00DEF00F026EF31
:1000180000F07DA412EF00F014EF00F01EEF00F0E6
:100028000001F51D016EF61D026EF2EC0EF07D94D6
:1000380026EF00F00001F71D016EF81D026EF2ECCC
:100048000EF07D840E01339B5D9211005CEF0EF083
:100E0000002564202564202564202564200D0A0027
:010E100000E1
:100E120020C036F021C037F022C038F023C039F0AC
:100E220024C03AF025C03BF026C03CF027C03DF07C
:100E32003DBE1EEF07F021EF07F0010E22EF07F093
:100E4200000E406E4050D8B429EF07F02BEF07F0A8
:100E52003BEF07F03D1E3C1E3B1E3A1E391E381E5C
:100E6200371E366C000E3722382239223A223B22B4
:100E72003C223D220001F4BF49EF07F0F45106E1A4
:100E8200F305D8B047EF07F049EF07F04FEF07F04F
:100E9200000E336E010E326E53EF07F0F3C032F0E4
:100EA200F4C033F0F1C034F0F2C035F04050D8B4A1
:100EB2005DEF07F05FEF07F076EF07F03406D8A09A
:100EC20035064050D8A468EF07F06AEF07F070EFDC
:100ED20007F0000E316E2B0E306E74EF07F0000E2D
:100EE200316E2D0E306E30C040F0000E3F6E1F0E80
:100EF2003E6E000E01016F6FFBEF07F03E06D8A0B9
:100F02003F06500E3E24D96E010E3F20DA6E36C0E7
:100F120003F037C004F038C005F039C006F03AC01B
:100F220007F03BC008F03CC009F03DC00AF00A0ED1
:100F32000B6E000E0C6E000E0D6E000E0E6E000E8D
:100F42000F6E000E106E000E116E000E126EFDEC92
:100F520009F003C028F004C029F005C02AF006C039
:100F62002BF007C02CF008C02DF009C02EF00AC0EB
:100F72002FF028C015F029C016F024EC0EF0155001
:100F8200300FDF6E3206D8A033063406D8A03506FD
:100F920036C003F037C004F038C005F039C006F09F
:100FA2003AC007F03BC008F03CC009F03DC00AF06F
:100FB2000A0E0B6E000E0C6E000E0D6E000E0E6E03
:100FC200000E0F6E000E106E000E116E000E126EED
:100FD20039EC09F003C036F004C037F005C038F030
:100FE20006C039F007C03AF008C03BF009C03CF037
:100FF2000AC03DF03FBE06EF08F03F5008E13E0454
:10100200D8A006EF08F008EF08F024EF08F03650F9
:101012003710381039103A103B103C103D10D8A44C
:1010220015EF08F017EF08F07FEF07F033BE24EF5B
:1010320008F0335006E13204D8B022EF08F024EF72
:1010420008F07FEF07F04050D8B42AEF08F02CEFF9
:1010520008F037EF08F03E06D8A03F06500E3E24B7
:10106200D96E010E3F20DA6E40C0DFFF1EC013F0C2
:101072001FC014F0500E3E24156E010E3F20166E56
:1010820034C017F035C018F06DEC0CF012007C9EE5
:101092008096849E889686840E01B4958686B4973F
:1010A2009AEC0DF0000E046E140E036EBEEC0DF001
:1010B200DDEC0EF0ACEC0EF073EC0EF0BCEC0EF0CE
:1010C200E90E0E6E000E0F6E1AEC0CF07B0E000194
:1010D200606F000E616F010E626F0E0E636FE9C0EA
:1010E20064F0EAC065F0EBC066F0ECC067F0EDC0FA
:1010F20068F0EEC069F0EFC06AF0F0C06BF0AAECE5
:101102000CF07B0E046E000E056E44EC0EF0010E28
:101112008EA6000E8EA4000EE8B092EF08F097EFB4
:1011220008F00001796B792B99EF08F00001796BD7
:101132007951D8A49FEF08F0A1EF08F088EF08F0EA
:101142008EB4A6EF08F0A8EF08F0BCEF08F07CAE72
:10115200ADEF08F0B1EF08F0796B792BB3EF08F03F
:101162000001796B793379337C5079197F0B7919C6
:101172007C6ED6EF08F08EB6C1EF08F0C3EF08F030
:10118200D6EF08F080A6C8EF08F0CCEF08F0796B34
:10119200792BCEEF08F00001796B794779477947CF
:1011A20080507919F70B7919806E7CAEDBEF08F06D
:1011B200DDEF08F01CEF09F00001DF51E011D8B4B7
:1011C200E5EF08F0E7EF08F029EF09F0E10E0E6E07
:1011D200000E0F6E1AEC0CF0E10E036E000E046EA0
:1011E200BBEC0BF0E90E0E6E000E0F6E1AEC0CF05B
:1011F200AD0E0001606F000E616F010E626F0E0E88
:10120200636FE9C064F0EAC065F0EBC066F0ECC061
:1012120067F0EDC068F0EEC069F0EFC06AF0F0C0B0
:101222006BF0AAEC0CF0AD0E046E000E056E44ECF1
:101232000EF029EF09F080A621EF09F023EF09F063
:1012420029EF09F0E10E0E6E000E0F6E1AEC0CF093
:10125200110E00017A6F3C0E796FCB0EE82EFED78D
:10126200792FFCD77A2FFAD7D6EF08F02AEF00F0C1
:10127200000E146E12BE42EF09F040EF09F054EF77
:1012820009F0121E111E101E0F1E0E1E0D1E0C1E28
:101292000B6C000E0C220D220E220F2210221122A4
:1012A2001222010E146E0ABE5BEF09F059EF09F02B
:1012B2006DEF09F00A1E091E081E071E061E051EF6
:1012C200041E036C000E04220522062207220822B5
:1012D20009220A22010E141A20EE15F0070EDE6A08
:1012E200E806FDE20B500C100D100E100F1010103E
:1012F20011101210D8B480EF09F082EF09F0D4EF88
:1013020009F0010E136E90EF09F0D8900B360C36EF
:101312000D360E360F36103611361236132A12AE2D
:1013220095EF09F097EF09F086EF09F0D89015369E
:1013320016361736183619361A361B361C360B5027
:10134200035C0C5004580D5005580E5006580F50AF
:101352000758105008581150095812500A58D8A06E
:10136200B5EF09F0B7EF09F0C8EF09F00B50035ED3
:101372000C50045A0D50055A0E50065A0F50075A77
:101382001050085A1150095A12500A5A1580D89012
:101392001232113210320F320E320D320C320B3247
:1013A200132E97EF09F01450D8B4DAEF09F0DCEFFE
:1013B20009F0ECEF09F01C1E1B1E1A1E191E181E46
:1013C200171E161E156C000E16221722182219223D
:1013D2001A221B221C2215C003F016C004F017C0EB
:1013E20005F018C006F019C007F01AC008F01BC0BB
:1013F20009F01CC00AF01200000E146E0ABE06EFBD
:101402000AF004EF0AF018EF0AF00A1E091E081E7D
:10141200071E061E051E041E036C000E0422052272
:1014220006220722082209220A22010E146E12BE87
:101432001FEF0AF01DEF0AF02FEF0AF0121E111E25
:10144200101E0F1E0E1E0D1E0C1E0B6C000E0C220B
:101452000D220E220F221022112212220B500C10EA
:101462000D100E100F10101011101210D8B43CEF06
:101472000AF03EEF0AF086EF0AF0010E136E4CEF0F
:101482000AF0D8900B360C360D360E360F36103663
:1014920011361236132A12AE51EF0AF053EF0AF048
:1014A20042EF0AF00B50035C0C5004580D500558E3
:1014B2000E5006580F50075810500858115009582E
:1014C20012500A58D8A068EF0AF06AEF0AF07AEFD1
:1014D2000AF00B50035E0C50045A0D50055A0E5080
:1014E200065A0F50075A1050085A1150095A1250F2
:1014F2000A5AD8901232113210320F320E320D3295
:101502000C320B32132E53EF0AF01450D8B48CEF76
:101512000AF08EEF0AF09EEF0AF00A1E091E081E5C
:10152200071E061E051E041E036C000E0422052261
:1015320006220722082209220A2203C003F004C05D
:1015420004F005C005F006C006F007C007F008C0A9
:1015520008F009C009F00AC00AF0120043C0D9FF1E
:1015620044C0DAFFDECFF6FFDDCFF7FF0800F5500B
:10157200250AD8A4BFEF0AF0C1EF0AF041EF0BF041
:1015820043C0D9FF44C0DAFFDE2A000EDD22000E7E
:101592000001F26F000EF16FF1C0F9F0F369F46926
:1015A20043C0D9FF44C0DAFFDECF51F0DDCF52F0A5
:1015B20051C0F6FF52C0F7FF0800F550640AD8B4D4
:1015C200E5EF0AF0E7EF0AF0F5EF0AF051C0F6FF97
:1015D20052C0F7FF0800F550690AD8A4F3EF0AF0E9
:1015E200F5EF0AF038EF0BF045C0D9FF46C0DAFF3D
:1015F200DFCF47F0020EDE26DFCF48F0000EDD22FD
:1016020047C0D9FF48C0DAFFDECF49F0DDCF4AF04C
:10161200000E4ABEFF0E4B6E4C6E4D6E4E6E4F6EFE
:10162200506E010E5124476E000E5220486E43C088
:10163200D9FF44C0DAFF47C0DEFF48C0DDFF41C02A
:101642001EF042C01FF049C020F04AC021F04BC03A
:1016520022F04CC023F04DC024F04EC025F04FC004
:1016620026F050C027F009EC07F055EF0BF043C00D
:10167200D9FF44C0DAFFDE2A000EDD2255EF0BF05F
:1016820043C0D9FF44C0DAFFDECFF6FFDDCFF7FF5C
:101692000800F550036E046A41C005F042C006F02E
:1016A20056EC0BF038EF0BF0120005500610D8B4D0
:1016B2005DEF0BF05FEF0BF068EF0BF005500610DB
:1016C200D8A466EF0BF068EF0BF06DEF0BF0035050
:1016D200F7EC0EF0BAEF0BF020EE09F00550D92628
:1016E2000650DA22DE50DE10D8B47AEF0BF07CEF2F
:1016F2000BF097EF0BF020EE09F00550D9260650BB
:10170200DA2210EE03F00550E1260650E222DE5006
:10171200E65CE650800A0B6EDE50800A0B58D8B0A9
:1017220095EF0BF097EF0BF0BAEF0BF020EE03F012
:101732000550D9260650DA22DECF07F0DDCF08F0B9
:1017420005C0D9FF06C0DAFFDECF09F0DDCF0AF00F
:1017520007500924D96E08500A20DA6E03C0DFFF51
:1017620020EE03F00550D9260650DA22DE2A000EBA
:10177200DD22120020EE02F00350D9260450DA22B4
:10178200DECF09F0DDCF0AF020EE04F00350D926B7
:101792000450DA22DECF0BF0DDCF0CF020EE06F0A3
:1017A2000350D9260450DA22DECF07F0DDCF08F04D
:1017B2000B50095C0C500A58D8A0E2EF0BF0E4EF92
:1017C2000BF0F5EF0BF00750095C08500A58D8A04F
:1017D200EDEF0BF0EFEF0BF0F5EF0BF0000E066EF6
:1017E200010E056E15EF0CF009500B5C0A500C58F7
:1017F200D8A0FEEF0BF000EF0CF011EF0CF0075049
:101802000B5C08500C58D8A009EF0CF00BEF0CF051
:1018120011EF0CF0000E066E020E056E15EF0CF0C5
:10182200000E066E030E056E05C003F006C004F03E
:101832001200FBEC0CF00EC0D9FF0FC0DAFF07C09C
:10184200DEFF08C0DDFF090E116E1E0E106EE40EE3
:10185200E82EFED7102EFCD7112EFAD700D0D3ECEB
:101862000CF020EE02F00E50D9260F50DA2207C0FB
:10187200DEFF08C0DDFF090E116E1E0E106EE40EB3
:10188200E82EFED7102EFCD7112EFAD700D023EC6B
:101892000DF020EE04F00E50D9260F50DA2207C0C8
:1018A200DEFF08C0DDFF090E116E1E0E106EE40E83
:1018B200E82EFED7102EFCD7112EFAD700D04BEC13
:1018C2000DF020EE06F00E50D9260F50DA2207C096
:1018D200DEFF08C0DDFF120018BE72EF0CF074EFDD
:1018E2000CF07AEF0CF017C01CF018C01DF07EEF60
:1018F2000CF0000E1D6E000E1C6E000E1B6E000E14
:101902001A6E90EF0CF0000E046E200E036E13C0E0
:1019120005F014C006F056EC0BF01A4A1B2A1C50B4
:101922001A5C1B50800A196E1D50800A1958D8A0E3
:101932009DEF0CF09FEF0CF084EF0CF015C00CF053
:1019420016C00DF013C00EF014C00FF0E1EC0DF054
:101952001200640E00016C6F000E6D6F60C06EF0BD
:1019620061C06FF0000E726F000E716F000E786F23
:10197200000E776F6E0E536E000E546E62C055F0FD
:1019820063C056F06C0E576E000E586E73EC0DF07D
:10199200000171516025D96E72516121DA6E000E1B
:1019A200DF6E1200EDEC0EF0520ED7EC0EF0B60E1A
:1019B200D7EC0EF0E3EC0EF0530ED7EC0EF0010E66
:1019C20003EC0EF0096E09500C6E0D6A000E03EC6A
:1019D2000EF0096E09500B6E0A6A0C500A100C6E5A
:1019E2000D500B100D6EE8EC0EF00CC007F00DC0A0
:1019F20008F01200EDEC0EF0520ED7EC0EF0B40E21
:101A0200D7EC0EF0E3EC0EF0530ED7EC0EF0010E15
:101A120003EC0EF0096E09500C6E0D6A000E03EC19
:101A22000EF0096E09500B6E0A6A0C500A100C6E09
:101A32000D500B100D6EE8EC0EF00CC007F00DC04F
:101A420008F01200EDEC0EF0520ED7EC0EF0B80ECC
:101A5200D7EC0EF0E3EC0EF0530ED7EC0EF0010EC5
:101A620003EC0EF0096E09500C6E0D6A000E03ECC9
:101A72000EF0096E09500B6E0A6A0C500A100C6EB9
:101A82000D500B100D6EE8EC0EF00CC007F00DC0FF
:101A920008F01200EDEC0EF0520ED7EC0EF0BA0E7A
:101AA200D7EC0EF0E3EC0EF0530ED7EC0EF0010E75
:101AB20003EC0EF0096E09500C6E0D6A000E03EC79
:101AC2000EF0096E09500B6E0A6A0C500A100C6E69
:101AD2000D500B100D6EE8EC0EF00CC007F00DC0AF
:101AE20008F0120055C059F056C05AF087EF0DF0B9
:101AF20053C041F054C042F0590E436E000E446E82
:101B020057C045F058C046F0AFEC0AF059C0F6FF96
:101B12005AC0F7FF0800F5500009D8A493EF0DF062
:101B220095EF0DF079EF0DF0000E546E000E536E2E
:101B3200120073EC0EF0010E056E000E9CEC0EF01E
:101B42003F0E076E550EE82EFED7072EFCD700F08B
:101B5200030E056E000E9CEC0EF0D50E056E010E06
:101B62009CEC0EF08892849684988890869080826D
:101B72007C867C8880807E80120085948598839EF6
:101B8200879C7D947D987B9E7F9CBD508F0B3009F6
:101B9200BD6EE00EBE16BF50F00B0109BF6E0350C2
:101BA200800DF304BC6EBD8E0A0E0E01746F0B0E17
:101BB200696F000EA36E000EA06EA48EA18E12009D
:101BC200000E126E000E116EF2EF0DF010C003F057
:101BD200046A0EC005F00FC006F056EC0BF0114A75
:101BE200122A11500C24D96E12500D20DA6EDF50D9
:101BF200106E1050D8A400EF0EF002EF0EF0E7EFD7
:101C02000DF01200056E88EC0EF00E01DA8788ECFA
:101C12000EF0D5CE06F088EC0EF00550D8B414EFD5
:101C22000EF018EF0EF0046A042A19EF0EF0046A9F
:101C3200043A04460E01DA510418DF0B0418DA6F75
:101C4200DA890650120016BE31EF0EF0165006E188
:101C52001504D8B02FEF0EF031EF0EF03FEF0EF07B
:101C620015C017F016C018F0171E181E174A182AAA
:101C720017C015F018C016F043EF0EF015C015F09E
:101C820016C016F012004FEF0EF004C0D9FF05C0C7
:101C9200DAFFDF50CBEC0EF0044A052A04C0D9FF6C
:101CA20005C0DAFFDF50D8A459EF0EF05BEF0EF05B
:101CB20046EF0EF0120001EE00F0700EEE6AE8063A
:101CC200FDE100EEF1F00B0EEE6AE806FDE15C6A62
:101CD2005B6A5D905D92000EF86E0E0EF76E00016B
:101CE20048EF08F00E01D951F00B0809D96FD98BD2
:101CF2009F0ED66F848A848CA79BA79D1D0E1D6F95
:101D02001E0E1C6F1C0E6F6F1B0E706F12000E01E9
:101D1200D8B58EEF0EF090EF0EF088EF0EF0DACE1F
:101D220003F01F0E0316D8A499EF0EF09BEF0EF0EE
:101D320088EF0EF01200066EEDEC0EF0520ED7ECAC
:101D42000EF006508009D7EC0EF00550D7EC0EF0DD
:101D5200E8EC0EF01200D6501F0B4009D66ED68862
:101D6200D650F00B0709D66ED588F60ED46E3B0E10
:101D7200D36ED58E1200120E0E01626F110E156F08
:101D8200E997E895670EE56F000EE66FE789E88B45
:101D9200E78F1200036E0E0137A5D2EF0EF0D4EFDB
:101DA2000EF0CCEF0EF003C0E4FE1200046E88ECDD
:101DB2000EF004C0D5FE12000E01298BF28CF29AAD
:101DC200F28E120088EC0EF00E01DA83120088EC1B
:101DD2000EF00E01DA85120088EC0EF00E01DA81A7
:0E1DE20012000250D46E01C0D3FF1200120096
:020000040020DA
:10000000FF0FFF0FFF0FFF0FFF0FFF0FFF0FFF0F80
:020000040030CA
:0C000000AAFFFFFF9FFFFFFFFFFFFFFFB5
:00000001FF
