:040000001FEF00F0FE
:100008005F820E0133BB0BEF00F00DEF00F014EF31
:1000180000F08EB412EF00F014EF00F01DEF00F0C6
:100028000201504B512BDB0ED36E0B0ED46E0E011A
:0A003800339B5F921100F9EF1BF0FB
:100E000000636F6C6F72206E616D65202564202514
:100E100064202564202564200D0A002564202564B3
:100E2000202564202564202564200D0A000056EC4E
:100E30001AF0000E026E140E016E97EC1BF0A3EC7C
:100E40001CF078EC1CF02CEC1CF088EC1CF0000E74
:100E50000201D06F000ED16FA30ED26F0F0ED36FB1
:100E60007D0ED46F0F0ED56F040ED66F000ED86FA7
:100E7000C70ED76F000ED96F000EDA6FA00EDB6FB2
:100E80000F0EDC6F7F0EDD6F0F0EDE6F060EDF6F55
:100E9000000EE16FC70EE06FD00E0F6E020E106EE7
:100EA00031EC11F0D90E0F6E020E106E31EC11F014
:100EB000000E0001F46F000EF36F21EEC8F01D0E5E
:100EC000DE6AE806FDE222EE72F01D0EDE6AE8063A
:100ED000FDE28EB66EEF07F070EF07F069EF07F0F6
:100EE000000E0101E76F000EE66FEA0E0C6E010EB8
:100EF0000D6EF6EC16F0E6C17BF0E7C17CF0000168
:100F0000D8907B377C37D8907B377C37D8907B372D
:100F10007C37900E7B25D96E020E7C21DA6EEAC1F9
:100F2000DEFFEBC1DDFFE6C17BF0E7C17CF0D890CE
:100F30007B377C37D8907B377C37D8907B377C37B2
:100F4000020E7B27000E7C23900E7B25D96E020EAD
:100F50007C21DA6EECC1DEFFEDC1DDFFE6C17BF086
:100F6000E7C17CF0D8907B377C37D8907B377C37D3
:100F7000D8907B377C37040E7B27000E7C23900EA5
:100F80007B25D96E020E7C21DA6EEEC1DEFFEFC149
:100F9000DDFFE6C17BF0E7C17CF0D8907B377C3782
:100FA000D8907B377C37D8907B377C37060E7B27F1
:100FB000000E7C23900E7B25D96E020E7C21DA6E0A
:100FC000F0C1DEFFF1C1DDFF8086830E606F000E91
:100FD000616F1E0E626F0E0E636FEAC164F0EBC1AB
:100FE00065F0ECC166F0EDC167F0EEC168F0EFC1ED
:100FF00069F0F0C16AF0F1C16BF083EC1AF0830E76
:10100000026E000E036E14EC1CF0A30E00017C6F48
:10101000570E7B6F020EE82EFED77B2FFCD77C2F5E
:10102000FAD700F08096520E00017C6F2B0E7B6F7A
:10103000000EE82EFED77B2FFCD77C2FFAD700F0CE
:101040000101E64BE72BE7BF2FEF08F0E75109E17D
:10105000080EE65DD8A02FEF08F031EF08F075EF2D
:1010600007F0000EE96F000EE86F000E0001606FE0
:10107000010E616F1B0E626F0E0E636F010E010198
:10108000E8250001646F000E0101E9210001656F90
:10109000E8C17BF0E9C17CF0D8907B377C37D890F1
:1010A0007B377C37D8907B377C37900E7B25D96E89
:1010B000020E7C21DA6EDECF66F0DDCF67F0E8C18C
:1010C0007DF0E9C17EF0D8907D377E37D8907D37AE
:1010D0007E37D8907D377E37020E7D27000E7E2327
:1010E000900E7D25D96E020E7E21DA6EDECF68F07D
:1010F000DDCF69F0E8C17FF0E9C180F0D8907F379B
:101100008037D8907F378037D8907F378037040E6C
:101110007F27000E8023900E7F25D96E020E80213E
:10112000DA6EDECF6AF0DDCF6BF0E8C181F0E9C1A5
:1011300082F0D89081378237D89081378237D89023
:1011400081378237060E8127000E8223900E81257B
:10115000D96E020E8221DA6EDECF6CF0DDCF6DF03B
:1011600083EC1AF0000E026E010E036E14EC1CF0FC
:10117000290E00017C6F960E7B6F7F0EE82EFED746
:101180007B2FFCD77C2FFAD70101E84BE92BE9BF75
:10119000D3EF08F0E95109E1080EE85DD8A0D3EFDC
:1011A00008F0D5EF08F035EF08F0330E136E330E6C
:1011B000146E730E156E3F0E166E22EEA0F0DECF8B
:1011C00001F0DDCF02F0000E02BEFF0E036E046ED2
:1011D000010E1BEC12F001C00FF002C010F003C0B2
:1011E00011F004C012F0EBEC0CF00FC028F010C0AE
:1011F00029F011C02AF012C02BF0ACEC15F028C079
:10120000E7F029C0E8F0C8C2E9F0C9C2EAF0010E6F
:101210008EA6000E8EA4000EE8B011EF09F016EFB6
:1012200009F000017B6B7B2B18EF09F000017B6B51
:101230007B51D8A41EEF09F020EF09F007EF09F069
:101240008EB425EF09F027EF09F02AEF09F07C8E24
:1012500014EF0AF0808614EF0AF0000E0201516FBD
:10126000000E506F000E236E000E226ED00E246E04
:10127000020E256ED90E266E020E276EC6EC0AF0FF
:10128000290E00017C6F960E7B6F7F0EE82EFED735
:101290007B2FFCD77C2FFAD7F20E0C6E010E0D6E51
:1012A000F6EC16F00001E9510101F25D0001EA518E
:1012B0000101F359D8B05FEF09F061EF09F073EF66
:1012C00009F0F2510001E75D0101F3510001E85915
:1012D000D8B06DEF09F06FEF09F073EF09F0000E71
:1012E0005A6E010E596E59505A10D8B47AEF09F05F
:1012F0007CEF09F008EF0AF07C8ED00E1A6E020E19
:101300001B6ED90E1C6E020E1D6ED2EC19F0F20E81
:101310000C6E010E0D6EF6EC16F07CAE92EF09F03D
:1013200094EF09F0A4EF09F0F20E016E010E026EC7
:10133000900E036E020E046E1AEC15F001C0F3F06D
:1013400002C0F4F0B2EF09F0F20E016E010E026E6F
:10135000900E036E020E046E3FEC10F001C0F3F02D
:1013600002C0F4F0D8900001ED35D96EEE35DA6E9A
:10137000C80ED926010EDA22F3C0DEFFF4C0DDFF6D
:10138000D890ED35D96EEE35DA6E720ED926020E92
:10139000DA2250C2DEFF51C2DDFF640E606F010E23
:1013A000616F010E626F0E0E636FF3C064F0F4C0E4
:1013B00065F0F4C166F0F5C167F0F6C168F0F7C1F9
:1013C00069F0F8C16AF0F9C16BF083EC1AF0640EB1
:1013D000026E010E036E14EC1CF0F3C022F0F4C098
:1013E00023F0D00E246E020E256ED90E266E020E4C
:1013F000276EC6EC0AF00001ED4BEE2B000E020149
:10140000516F000E506F000E5A6E000E596E7C9E8A
:10141000110E00017C6F3C0E7B6FCB0EE82EFED7C9
:101420007B2FFCD77C2FFAD7080E0001F319F4119B
:10143000D8A41DEF0AF01FEF0AF02DEF09F0D00E2F
:101440001A6E020E1B6ED90E1C6E020E1D6EEDEC96
:1014500017F0000E0001F06F000EEF6FF0BF3CEFD1
:101460000AF0F05107E10D0EEF5DD8B03AEF0AF047
:101470003CEF0AF03EEF0AF055EF0AF080A643EF8A
:101480000AF047EF0AF07B6B7B2B49EF0AF0000173
:101490007B6B7B477B477B4780507B19F70B7B1926
:1014A000806EEF4BF02B2EEF0AF0000EF26F0F0E56
:1014B000F16FF2BF66EF0AF0F25106E1F105D8B024
:1014C00064EF0AF066EF0AF068EF0AF069EF07F0E0
:1014D000F29E000EEC6F000EEB6FD890F135D96ED6
:1014E000F235DA6EC80ED926010EDA22DECF22F0EE
:1014F000DDCF23F0D00E246E020E256ED90E266E9F
:10150000020E276EC6EC0AF0D00E1A6E020E1B6E8B
:10151000D90E1C6E020E1D6E31EC19F09FEF0AF011
:10152000050E00017C6F0F0E7B6FF10EE82EFED7CB
:101530007B2FFCD77C2FFAD70001EB4BEC2BD890FC
:101540000001F135D96EF235DA6E720ED926020E2F
:10155000DA22DE50EB5DDE50EC59D8A0B2EF0AF093
:10156000B4EF0AF090EF0AF0D00E1A6E020E1B6E66
:10157000D90E1C6E020E1D6ED2EC19F00001F1079F
:10158000D8A0F20759EF0AF01FEF00F0B8EF0CF007
:1015900024C01AF025C01BF026C01CF027C01DF087
:1015A00082EC19F024C01AF025C01BF026C01CF0F4
:1015B00027C01DF0D2EC19F0290E296E960E286E68
:1015C0007F0EE82EFED7282EFCD7292EFAD700F062
:1015D00024C01AF025C01BF026C01CF027C01DF047
:1015E00049EC17F024C01AF025C01BF026C01CF0EF
:1015F00027C01DF0D2EC19F0290E296E960E286E28
:101600007F0EE82EFED7282EFCD7292EFAD700F021
:1016100024C01AF025C01BF026C01CF027C01DF006
:1016200049EC17F024C01AF025C01BF026C01CF0AE
:1016300027C01DF0D2EC19F0EAEF0CF024C01AF02C
:1016400025C01BF026C01CF027C01DF082EC19F04D
:1016500024C01AF025C01BF026C01CF027C01DF0C6
:10166000D2EC19F0290E296E960E286E7F0EE82E08
:10167000FED7282EFCD7292EFAD700F024C01AF066
:1016800025C01BF026C01CF027C01DF09BEC17F0F6
:1016900024C01AF025C01BF026C01CF027C01DF086
:1016A000D2EC19F0290E296E960E286E7F0EE82EC8
:1016B000FED7282EFCD7292EFAD700F024C01AF026
:1016C00025C01BF026C01CF027C01DF09BEC17F0B6
:1016D00024C01AF025C01BF026C01CF027C01DF046
:1016E000D2EC19F0EAEF0CF024C01AF025C01BF080
:1016F00026C01CF027C01DF08FEC18F024C01AF093
:1017000025C01BF026C01CF027C01DF0D2EC19F03C
:10171000DCEF0AF024C01AF025C01BF026C01CF034
:1017200027C01DF08FEC18F024C01AF025C01BF064
:1017300026C01CF027C01DF0D2EC19F0290E296E2E
:10174000960E286E7F0EE82EFED7282EFCD7292E67
:10175000FAD700F024C01AF025C01BF026C01CF0F8
:1017600027C01DF09BEC17F024C01AF025C01BF019
:1017700026C01CF027C01DF0D2EC19F0EAEF0CF0E7
:1017800024C01AF025C01BF026C01CF027C01DF095
:1017900082EC19F024C01AF025C01BF026C01CF002
:1017A00027C01DF0D2EC19F0290E296E960E286E76
:1017B0007F0EE82EFED7282EFCD7292EFAD700F070
:1017C00024C01AF025C01BF026C01CF027C01DF055
:1017D0003EEC18F024C01AF025C01BF026C01CF007
:1017E00027C01DF0D2EC19F0290E296E960E286E36
:1017F0007F0EE82EFED7282EFCD7292EFAD700F030
:1018000024C01AF025C01BF026C01CF027C01DF014
:101810003EEC18F024C01AF025C01BF026C01CF0C6
:1018200027C01DF0D2EC19F0EAEF0CF024C01AF03A
:1018300025C01BF026C01CF027C01DF082EC19F05B
:1018400024C01AF025C01BF026C01CF027C01DF0D4
:10185000D2EC19F0290E296E960E286E7F0EE82E16
:10186000FED7282EFCD7292EFAD700F024C01AF074
:1018700025C01BF026C01CF027C01DF0E0EC18F0BE
:10188000B4EF0BF024C01AF025C01BF026C01CF0EA
:1018900027C01DF082EC19F024C01AF025C01BF0FF
:1018A00026C01CF027C01DF0D2EC19F0290E296EBD
:1018B000960E286E7F0EE82EFED7282EFCD7292EF6
:1018C000FAD700F024C01AF025C01BF026C01CF087
:1018D00027C01DF09BEC17F024C01AF025C01BF0A8
:1018E00026C01CF027C01DF0D2EC19F0410E296E65
:1018F000F00E286E330EE82EFED7282EFCD7292EA8
:10190000FAD700F024C01AF025C01BF026C01CF046
:1019100027C01DF09BEC17F024C01AF025C01BF067
:1019200026C01CF027C01DF0D2EC19F024C01AF01C
:1019300025C01BF026C01CF027C01DF0D2EC19F00A
:1019400024C01AF025C01BF026C01CF027C01DF0D3
:1019500031EC19F0290E296E960E286E7F0EE82EB6
:10196000FED7282EFCD7292EFAD700F0B4EF0BF0C3
:1019700022C028F023C029F02950000AD8B4C3EFB0
:101980000CF0EAEF0CF02850000AD8B496EF0CF0F7
:10199000010AD8B4C8EF0AF0030AD8B41EEF0BF05E
:1019A000010AD8B41EEF0BF0070AD8B474EF0BF09D
:1019B000010AD8B48AEF0BF0030AD8B4C0EF0BF0D9
:1019C000010AD8B416EF0CF00F0AD8B442EF0CF0AD
:1019D000EAEF0CF012001250800B1B6E1250122412
:1019E000216E11AEF6EF0CF0F8EF0CF0F9EF0CF001
:1019F00021802150D8B4FFEF0CF001EF0DF014EF6F
:101A00000DF02128D8A407EF0DF009EF0DF011EF2C
:101A10000DF0000E0F6E000E106E000E116E000E17
:101A2000126E118E1CEF0DF0000E0F6E000E106E78
:101A3000000E116E000E126E1650800B1B1A1650FF
:101A40001624206E15AE27EF0DF029EF0DF02AEFCA
:101A50000DF020802050D8B430EF0DF032EF0DF0B3
:101A600045EF0DF02028D8A438EF0DF03AEF0DF037
:101A700042EF0DF0000E136E000E146E000E156E88
:101A8000000E166E158E4DEF0DF0000E136E000E4B
:101A9000146E000E156E000E166E2050D8B453EF63
:101AA0000DF055EF0DF05DEF0DF02150D8A45BEF78
:101AB0000DF05DEF0DF067EF0DF0000E0F6E000EF4
:101AC000106E000E116E000E126EFFEF0EF015502C
:101AD0000F02F3CF26F0F4CF27F026501C6E1D6ABC
:101AE0001E6A1F6A2750226E236A246A256A1450D0
:101AF0001002F3CF26F0F4CF27F026501C26000E5C
:101B00001D221E221F2227502226000E23222422BD
:101B1000252213501102F3CF26F0F4CF27F02650E0
:101B20001C26000E1D221E221F2227502226000ED8
:101B30002322242225221EC01FF01DC01EF01CC01F
:101B40001DF01C6A13501002F3CF26F0F4CF27F0DB
:101B500026501C2627501D22000E1E22000E1F227A
:101B600014500F02F3CF26F0F4CF27F026501C2696
:101B700027501D22000E1E22000E1F221EC01FF025
:101B80001DC01EF01CC01DF01C6A13500F02F3CFC5
:101B900026F0F4CF27F026501C2627501D22000ED9
:101BA0001E22000E1F2215501002F3CF26F0F4CF94
:101BB00027F02650222627502322000E2422000E32
:101BC000252214501102F3CF26F0F4CF27F026502F
:101BD000222627502322000E2422000E25221550F3
:101BE0001102F3CF26F0F4CF27F02650176E2750BE
:101BF000186E196A1A6A19C01AF018C019F017C0BD
:101C000018F0176A17502226185023221950242240
:101C10001A5025221CC017F01DC018F01EC019F064
:101C20001FC01AF0190E1AEF0EF0D8901A3219329E
:101C300018321732E82E15EF0EF0175022261850E2
:101C40002322195024221A5025221EC01FF01DC025
:101C50001EF01CC01DF01C6A205021C017F0186A2D
:101C60001726000E1822820E1724266EFF0E18204B
:101C7000276E50EF0EF0D8902236233624362536C4
:101C80001FAE45EF0EF047EF0EF048EF0EF022804A
:101C9000D8901C361D361E361F362606D8A02706BD
:101CA00024AE55EF0EF057EF0EF03BEF0EF0000EA6
:101CB000206E1FAE5EEF0EF060EF0EF084EF0EF0C0
:101CC000FF0E1C14176EFF0E1D14186EFF0E1E144F
:101CD000196E7F0E1F141A6E1750181019101A1053
:101CE000D8B475EF0EF077EF0EF07BEF0EF0010E2B
:101CF000206E84EF0EF022A080EF0EF082EF0EF047
:101D000084EF0EF077EF0EF02050D8B48AEF0EF08B
:101D10008CEF0EF0B0EF0EF0010E2226000E232203
:101D20002422252225A097EF0EF099EF0EF0B0EFB8
:101D30000EF022C017F023C018F024C019F025C0FF
:101D40001AF01A341A3219321832173217C022F028
:101D500018C023F019C024F01AC025F0264A272AFB
:101D600027BEBBEF0EF0275008E12628D8A0BBEF16
:101D70000EF0BDEF0EF0C7EF0EF0000E226E000E5B
:101D8000236E800E246E7F0E256EF5EF0EF027BEBB
:101D9000D4EF0EF0275006E12604D8B0D2EF0EF0B3
:101DA000D4EF0EF0E0EF0EF0000E226E000E236E68
:101DB000000E246E000E256E000E1B6EF5EF0EF069
:101DC00026C021F0FF0E2216FF0E23167F0E2416CA
:101DD000000E251621A0EFEF0EF0F1EF0EF0F2EF5E
:101DE0000EF0248ED8902130256E1B50251222C073
:101DF0000FF023C010F024C011F025C012F0120023
:101E00001EC034F01FC035F020C036F021C037F0BE
:101E100022C038F023C039F024C03AF025C03BF08E
:101E20003BBE15EF0FF018EF0FF0010E19EF0FF09A
:101E3000000E3E6E3E50D8B420EF0FF022EF0FF0B0
:101E400032EF0FF03B1E3A1E391E381E371E361E6B
:101E5000351E346C000E35223622372238223922C4
:101E60003A223B220001F8BF40EF0FF0F85106E1A3
:101E7000F705D8B03EEF0FF040EF0FF046EF0FF050
:101E8000000E316E010E306E4AEF0FF0F7C030F0E9
:101E9000F8C031F0F5C032F0F6C033F03E50D8B49F
:101EA00054EF0FF056EF0FF06DEF0FF03206D8A0A1
:101EB00033063E50D8A45FEF0FF061EF0FF067EFED
:101EC0000FF0000E2F6E2B0E2E6E6BEF0FF0000E2C
:101ED0002F6E2D0E2E6E2EC03EF0000E3D6E1F0E8C
:101EE0003C6E000E0201716FF2EF0FF03C06D8A0BD
:101EF0003D06520E3C24D96E020E3D20DA6E34C0EF
:101F000001F035C002F036C003F037C004F038C02D
:101F100005F039C006F03AC007F03BC008F00A0EE1
:101F2000096E000E0A6E000E0B6E000E0C6E000E97
:101F30000D6E000E0E6E000E0F6E000E106EB9ECE0
:101F400013F001C026F002C027F003C028F004C03F
:101F500029F005C02AF006C02BF007C02CF008C0FD
:101F60002DF026C013F027C014F0D9EC1BF013504D
:101F7000300FDF6E3006D8A031063206D8A0330607
:101F800034C001F035C002F036C003F037C004F0B1
:101F900038C005F039C006F03AC007F03BC008F081
:101FA0000A0E096E000E0A6E000E0B6E000E0C6E0D
:101FB000000E0D6E000E0E6E000E0F6E000E106EF7
:101FC000F5EC12F001C034F002C035F003C036F079
:101FD00004C037F005C038F006C039F007C03AF049
:101FE00008C03BF03DBEFDEF0FF03D5008E13C0462
:101FF000D8A0FDEF0FF0FFEF0FF01BEF10F0345003
:10200000351036103710381039103A103B10D8A45C
:102010000CEF10F00EEF10F076EF0FF031BE1BEF6B
:1020200010F0315006E13004D8B019EF10F01BEF7A
:1020300010F076EF0FF03E50D8B421EF10F023EF00
:1020400010F02EEF10F03C06D8A03D06520E3C24B6
:10205000D96E020E3D20DA6E3EC0DFFF1CC011F0CB
:102060001DC012F0520E3C24136E020E3D20146E61
:1020700032C015F033C016F019EC1AF0120020EE41
:1020800002F00150D9260250DA22DECF0DF0DDCF6A
:102090000EF020EE04F00150D9260250DA22DECFF5
:1020A0000FF0DDCF10F020EE06F00150D9260250DF
:1020B000DA22DECF11F0DDCF12F020EE02F0035075
:1020C000D9260450DA22DECF13F0DDCF14F020EE53
:1020D00004F00350D9260450DA22DECF15F0DDCF0C
:1020E00016F020EE06F00350D9260450DA22DECF97
:1020F00017F0DDCF18F0000E0A6ED80E1324056E0F
:10210000FF0E1420066E0D50055C0E500658D8B018
:102110008CEF10F08EEF10F0A1EF10F0280E1324CA
:10212000056E000E1420066E05500D5C06500E580C
:10213000D8B09DEF10F09FEF10F0A1EF10F0010E5E
:102140000A6E0A50D8A4A7EF10F0AAEF10F0010E03
:10215000ABEF10F0000E076E000E0B6ED80E1724BA
:10216000056EFF0E1820066E1150055C12500658C1
:10217000D8B0BDEF10F0BFEF10F0D2EF10F0280E86
:102180001724056E000E1820066E0550115C0650CF
:102190001258D8B0CEEF10F0D0EF10F0D2EF10F010
:1021A000010E0B6E0B50D8A4D8EF10F0DBEF10F03F
:1021B000010EDCEF10F0000E086E000E0C6ED80E53
:1021C0001524056EFF0E1620066E0F50055C10508C
:1021D0000658D8B0EEEF10F0F0EF10F003EF11F06A
:1021E000280E1524056E000E1620066E05500F5C95
:1021F00006501058D8B0FFEF10F001EF11F003EFC8
:1022000011F0010E0C6E0C50D8A409EF11F00CEF78
:1022100011F0010E0DEF11F0000E096E0750D8B449
:1022200014EF11F016EF11F02CEF11F00850D8B4A4
:102230001CEF11F01EEF11F02CEF11F00950D8B483
:1022400024EF11F026EF11F02CEF11F0000E026ECA
:10225000010E016E30EF11F0000E026E000E016EE5
:10226000120020EE01F00F50D9261050DA22DF5074
:10227000D8B43DEF11F03FEF11F070EF11F00FC047
:10228000D9FF10C0DAFFDF50116E1150016E026AE3
:1022900020EE07F00F50D9261050DA22DECF03F0DF
:1022A000DDCF04F055EC1CF001C007F002C008F0CF
:1022B000000E0A6E640E096E94EC16F020EE07F024
:1022C0000F50D9261050DA22DECF12F0DDCF13F0F6
:1022D0000750125C186E08501358196E93EF11F0E6
:1022E0000FC0D9FF10C0DAFFDF50116E1150016E20
:1022F000026A20EE07F00F50D9261050DA22DECF06
:1023000003F0DDCF04F055EC1CF001C007F002C073
:1023100008F0000E0A6E640E096E94EC16F007C009
:1023200018F008C019F020EE02F00F50D926105016
:10233000DA22DECF11F0DDCF12F011C0D9FF12C0CA
:10234000DAFF18C0DFFF20EE01F00F50D926105041
:10235000DA22DF50D8B4AFEF11F0B1EF11F0E6EFB1
:1023600011F020EE04F00F50D9261050DA22DECF03
:1023700011F0DDCF12F011C0D9FF12C0DAFF10EE5C
:1023800004F00F50E1261050E222E6CF13F0E5CF23
:1023900014F013C0E1FF14C0E2FFE750156E10EE19
:1023A00006F00F50E1261050E222E750166E010EA3
:1023B000176E162ADEEF11F0D8901736162EDCEFC6
:1023C00011F017501510DF6E1AEF12F020EE04F026
:1023D0000F50D9261050DA22DECF11F0DDCF12F0E7
:1023E00011C0D9FF12C0DAFF10EE04F00F50E12641
:1023F0001050E222E6CF13F0E5CF14F013C0E1FF56
:1024000014C0E2FFE750156E10EE06F00F50E12603
:102410001050E222E750166E010E176E162A13EFC7
:1024200012F0D8901736162E11EF12F01750FF0A3F
:102430001514DF6E1200096E0950D8B422EF12F0A5
:1024400024EF12F046EF12F004BE2BEF12F029EF4A
:1024500012F046EF12F001C005F002C006F003C012
:1024600007F004C008F0051E061E071E081E052AF8
:10247000000E06220722082205C00BF006C00CF051
:1024800007C00DF008C00EF04EEF12F001C00BF0C7
:1024900002C00CF003C00DF004C00EF00150021099
:1024A00003100410D8A457EF12F059EF12F063EFA5
:1024B00012F0000E016E000E026E000E036E000E92
:1024C000046EF4EF12F0960E0A6E6DEF12F00A2A07
:1024D000D8900E320D320C320B32000E0B14056EFA
:1024E000000E0C14066E000E0D14076EFE0E0E1478
:1024F000086E0550061007100810D8A482EF12F0DD
:1025000084EF12F067EF12F092EF12F00A2A010E38
:102510000B26000E0C220D220E22D8900E320D3208
:102520000C320B32000E0B14056E000E0C14066EEE
:10253000000E0D14076EFF0E0E14086E05500610E7
:1025400007100810D8A4A7EF12F0A9EF12F086EF39
:1025500012F0B1EF12F00A06D8900B360C360D3699
:102560000E360DBEB6EF12F0B8EF12F0C0EF12F05B
:10257000020E0A60BEEF12F0C0EF12F0ABEF12F0E5
:102580000AB0C5EF12F0C7EF12F0C8EF12F00D9EBF
:10259000D8900A320AC005F0066A076A086A05C0C0
:1025A00008F0076A066A056A05500B1206500C12FD
:1025B00007500D1208500E120950D8B4E2EF12F075
:1025C000E4EF12F0ECEF12F004BEEBEF12F0E9EFE3
:1025D00012F0ECEF12F00E8E0BC001F00CC002F006
:1025E0000DC003F00EC004F01200000E126E10BEFB
:1025F000FEEF12F0FCEF12F010EF13F0101E0F1EA2
:102600000E1E0D1E0C1E0B1E0A1E096C000E0A2249
:102610000B220C220D220E220F221022010E126E0E
:1026200008BE17EF13F015EF13F029EF13F0081E93
:10263000071E061E051E041E031E021E016C000E50
:102640000222032204220522062207220822010E6A
:10265000121A20EE13F0070EDE6AE806FDE20950BA
:102660000A100B100C100D100E100F101010D8B413
:102670003CEF13F03EEF13F090EF13F0010E116EEC
:102680004CEF13F0D89009360A360B360C360D365F
:102690000E360F361036112A10AE51EF13F053EFED
:1026A00013F042EF13F0D890133614361536163661
:1026B0001736183619361A360950015C0A50025876
:1026C0000B5003580C5004580D5005580E50065826
:1026D0000F50075810500858D8A071EF13F073EF3F
:1026E00013F084EF13F00950015E0A50025A0B50A8
:1026F000035A0C50045A0D50055A0E50065A0F50EA
:10270000075A1050085A1380D89010320F320E32E8
:102710000D320C320B320A320932112E53EF13F004
:102720001250D8B496EF13F098EF13F0A8EF13F00F
:102730001A1E191E181E171E161E151E141E136CA7
:10274000000E1422152216221722182219221A22EC
:1027500013C001F014C002F015C003F016C004F05D
:1027600017C005F018C006F019C007F01AC008F02D
:102770001200000E126E08BEC2EF13F0C0EF13F08D
:10278000D4EF13F0081E071E061E051E041E031EAE
:10279000021E016C000E02220322042205220622E0
:1027A00007220822010E126E10BEDBEF13F0D9EFE4
:1027B00013F0EBEF13F0101E0F1E0E1E0D1E0C1E5D
:1027C0000B1E0A1E096C000E0A220B220C220D227F
:1027D0000E220F22102209500A100B100C100D109F
:1027E0000E100F101010D8B4F8EF13F0FAEF13F02A
:1027F00042EF14F0010E116E08EF14F0D890093674
:102800000A360B360C360D360E360F361036112AB8
:1028100010AE0DEF14F00FEF14F0FEEF13F00950AF
:10282000015C0A5002580B5003580C5004580D50CC
:1028300005580E5006580F50075810500858D8A089
:1028400024EF14F026EF14F036EF14F00950015E77
:102850000A50025A0B50035A0C50045A0D50055A94
:102860000E50065A0F50075A1050085AD89010327E
:102870000F320E320D320C320B320A320932112E67
:102880000FEF14F01250D8B448EF14F04AEF14F0E0
:102890005AEF14F0081E071E061E051E041E031E16
:1028A000021E016C000E02220322042205220622CF
:1028B0000722082201C001F002C002F003C003F0A9
:1028C00004C004F005C005F006C006F007C007F01C
:1028D00008C008F0120041C0D9FF42C0DAFFDECFC5
:1028E000F6FFDDCFF7FF000EF86E0800F550250A61
:1028F000D8A47DEF14F07FEF14F003EF15F041C082
:10290000D9FF42C0DAFFDE2A000EDD22000E0001F0
:10291000F66F000EF56FF5C0FDF0F769F86941C07C
:10292000D9FF42C0DAFFDECF4FF0DDCF50F04FC00D
:10293000F6FF50C0F7FF000EF86E0800F550640A6D
:10294000D8B4A5EF14F0A7EF14F0B7EF14F04FC010
:10295000F6FF50C0F7FF000EF86E0800F550690A48
:10296000D8A4B5EF14F0B7EF14F0FAEF14F043C0A9
:10297000D9FF44C0DAFFDFCF45F0020EDE26DFCFFD
:1029800046F0000EDD2245C0D9FF46C0DAFFDECF9B
:1029900047F0DDCF48F0000E48BEFF0E496E4A6E8C
:1029A0004B6E4C6E4D6E4E6E010E4F24456E000EFA
:1029B0005020466E41C0D9FF42C0DAFF45C0DEFF5D
:1029C00046C0DDFF3FC01CF040C01DF047C01EF0F8
:1029D00048C01FF049C020F04AC021F04BC022F08F
:1029E0004CC023F04DC024F04EC025F000EC0FF099
:1029F00019EF15F041C0D9FF42C0DAFFDE2A000E00
:102A0000DD2219EF15F041C0D9FF42C0DAFFDECF59
:102A1000F6FFDDCFF7FF000EF86E0800F550016EEF
:102A2000026A3FC003F040C004F02FEC16F0FAEF4A
:102A300014F0120001C0D9FF02C0DAFFDECF09F0A6
:102A4000DDCF0AF020EE02F00150D9260250DA2242
:102A5000DECF0BF0DDCF0CF020EE04F00150D926D4
:102A60000250DA22DECF0DF0DDCF0EF020EE06F0C0
:102A70000150D9260250DA22DECF0FF0DDCF10F060
:102A800020EE38F00350D9260450DA22DECF05F0CC
:102A9000DDCF06F0640E0526000E06220550095C07
:102AA00006500A58D8B057EF15F059EF15F07AEFE5
:102AB00015F020EE38F00350D9260450DA22DECF8C
:102AC00005F0DDCF06F09C0E0524076EFF0E0620F4
:102AD000086E0950075C0A500858D8B072EF15F01C
:102AE00074EF15F07AEF15F0000E026E080E016E0D
:102AF000ABEF15F00B500D5C0C500E58D8B083EFB7
:102B000015F085EF15F0A7EF15F00B500F5C0C508A
:102B10001058D8B08EEF15F090EF15F0A7EF15F024
:102B20000D500F5C0E501058D8B099EF15F09BEF78
:102B300015F0A1EF15F0000E026E020E016EABEF64
:102B400015F0000E026E010E016EABEF15F0000ED7
:102B5000026E030E016E12002A342B34316E315096
:102B6000D8A4B5EF15F0B7EF15F0C1EF15F0000ED2
:102B7000286E000E296E000E2A6E000E2B6E2EEFB0
:102B800016F028C02CF029C02DF02AC02EF02BC042
:102B90002FF0200ED1EF15F0D8902F322E322D329B
:102BA0002C32E82ECCEF15F02C50306E2A8EFF0E12
:102BB0002816FF0E2916FF0E2A16000E2B16960E4B
:102BC000315E31BEE8EF15F0E6EF15F0FEEF15F0DF
:102BD0003150800A970FD8B0F0EF15F0F2EF15F0F2
:102BE000F4EF15F0B7EF15F0D8902B322A322932D6
:102BF0002832313EF4EF15F016EF16F01F0E316457
:102C000004EF16F006EF16F00EEF16F0B7EF15F022
:102C1000D890283629362A362B3631063150D8A49A
:102C200014EF16F016EF16F008EF16F03050D8B487
:102C30001CEF16F01EEF16F026EF16F02B1E2A1EC4
:102C4000291E286C000E29222A222B2228C028F0B7
:102C500029C029F02AC02AF02BC02BF01200035003
:102C60000410D8B436EF16F038EF16F041EF16F036
:102C700003500410D8A43FEF16F041EF16F046EFD2
:102C800016F00150C3EC1CF093EF16F020EE09F0A3
:102C90000350D9260450DA22DE50DE10D8B453EFA8
:102CA00016F055EF16F070EF16F020EE09F0035015
:102CB000D9260450DA2210EE03F00350E126045026
:102CC000E222DE50E65CE650800A096EDE50800AA1
:102CD0000958D8B06EEF16F070EF16F093EF16F0BB
:102CE00020EE03F00350D9260450DA22DECF05F09F
:102CF000DDCF06F003C0D9FF04C0DAFFDECF07F056
:102D0000DDCF08F005500724D96E06500820DA6E92
:102D100001C0DFFF20EE03F00350D9260450DA2271
:102D2000DE2A000EDD221200000E0C6E0ABE9DEFA0
:102D300016F09BEF16F0A3EF16F0096C0A1ED8B040
:102D40000A2A010E0C6E08BEAAEF16F0A8EF16F0C4
:102D5000B0EF16F0076C081ED8B0082A010E0C1A46
:102D6000000E0E6E000E0D6E09500A10D8B4BBEFA7
:102D700016F0BDEF16F0E5EF16F0010E0B6EC5EF85
:102D800016F0D89009360A360B2A0AAECAEF16F0AA
:102D9000CCEF16F0C1EF16F0D8900D360E36095074
:102DA000075C0A500858D8A0D8EF16F0DAEF16F0F2
:102DB000DFEF16F00950075E0A50085A0D80D890D0
:102DC0000A3209320B2ECCEF16F00C50D8B4EBEFD0
:102DD00016F0EDEF16F0F1EF16F00D6C0E1ED8B0F8
:102DE0000E2A0DC007F00EC008F01200FDEC1AF01C
:102DF0000CC0D9FF0DC0DAFF05C0DEFF06C0DDFF45
:102E0000090E0F6E1E0E0E6EE40EE82EFED70E2E6D
:102E1000FCD70F2EFAD700D0D5EC1AF020EE02F036
:102E20000C50D9260D50DA2205C0DEFF06C0DDFFAA
:102E3000090E0F6E1E0E0E6EE40EE82EFED70E2E3D
:102E4000FCD70F2EFAD700D025EC1BF020EE04F0B3
:102E50000C50D9260D50DA2205C0DEFF06C0DDFF7A
:102E6000090E0F6E1E0E0E6EE40EE82EFED70E2E0D
:102E7000FCD70F2EFAD700D04DEC1BF020EE06F059
:102E80000C50D9260D50DA2205C0DEFF06C0DDFF4A
:102E9000120020EE01F01A50D9261B50DA22010E42
:102EA000DF6E20EE01F01C50D9261D50DA22000EF4
:102EB000DF6E000E216E000E206E1AC0D9FF1BC0FF
:102EC000DAFF20C0DFFF2050320F1CC0D9FF1DC029
:102ED000DAFFDF6E1AC00FF01BC010F031EC11F0FA
:102EE0001CC00FF01DC010F031EC11F0350EE82EB3
:102EF000FED700F0020E2024206E000E2120216E4D
:102F000021BE8CEF17F0215009E1FB0E205CD8A008
:102F10008CEF17F08EEF17F05DEF17F00E0E1F6EAF
:102F2000650E1E6E870EE82EFED71E2EFCD71F2EB6
:102F3000FAD700F0120020EE01F01A50D9261B50EB
:102F4000DA22000EDF6E20EE01F01C50D9261D5053
:102F5000DA22010EDF6E000E216E000E206E205070
:102F6000320F1AC0D9FF1BC0DAFFDF6E1CC0D9FFB9
:102F70001DC0DAFF20C0DFFF1AC00FF01BC010F029
:102F800031EC11F01CC00FF01DC010F031EC11F04D
:102F9000350EE82EFED700F0020E2024206E000E23
:102FA0002120216E21BEDEEF17F02D0E205C010ED8
:102FB0002158D8A0DEEF17F0E0EF17F0AFEF17F0D1
:102FC000100E1F6ED40E1E6EE60EE82EFED71E2EBD
:102FD000FCD71F2EFAD700D0120020EE01F01A50B5
:102FE000D9261B50DA22010EDF6E20EE01F01C50B4
:102FF000D9261D50DA22000EDF6E000E216E000E63
:10300000206E1AC0D9FF1BC0DAFF20C0DFFF20509E
:10301000320F1CC0D9FF1DC0DAFFDF6E1AC00FF0DF
:103020001BC010F031EC11F01CC00FF01DC010F0EF
:1030300031EC11F0350EE82EFED700F0020E202400
:10304000206E000E2120216E21BE30EF18F021509D
:1030500009E1320E205CD8A030EF18F032EF18F002
:1030600001EF18F0180E1F6E8A0E1E6EE80EE82E85
:10307000FED71E2EFCD71F2EFAD7120020EE01F02D
:103080001A50D9261B50DA22010EDF6E20EE01F015
:103090001C50D9261D50DA22000EDF6E000E216E64
:1030A000000E206E1AC0D9FF1BC0DAFF20C0DFFF60
:1030B0002050320F1CC0D9FF1DC0DAFFDF6E1AC0CE
:1030C0000FF01BC010F031EC11F01CC00FF01DC050
:1030D00010F031EC11F0350EE82EFED700F0020EA4
:1030E0002024206E000E2120216E21BE81EF18F0D9
:1030F0002C0E205C010E2158D8A081EF18F083EF30
:1031000018F052EF18F0130E1F6EAC0E1E6E2A0E42
:10311000E82EFED71E2EFCD71F2EFAD7120020EE67
:1031200001F01A50D9261B50DA22000EDF6E20EE75
:1031300001F01C50D9261D50DA22000EDF6E000E61
:10314000216E000E206E1AC0D9FF1BC0DAFF20C00E
:10315000DFFF1CC0D9FF1DC0DAFF20C0DFFF1AC08F
:103160000FF01BC010F031EC11F01CC00FF01DC0AF
:1031700010F031EC11F0350EE82EFED700F0020E03
:103180002024206E000E2120216E21BED1EF18F0E8
:10319000215009E1090E205CD8A0D1EF18F0D3EF3F
:1031A00018F0A3EF18F05A0E1F6E490E1E6EE70EB0
:1031B000E82EFED71E2EFCD71F2EFAD700F01200E5
:1031C00020EE01F01A50D9261B50DA22000EDF6ED5
:1031D00020EE01F01C50D9261D50DA22010EDF6EC0
:1031E000000E216E000E206E2050320F1AC0D9FF43
:1031F0001BC0DAFFDF6E1CC0D9FF1DC0DAFF20C084
:10320000DFFF1AC00FF01BC010F031EC11F01CC032
:103210000FF01DC010F031EC11F0350EE82EFED786
:1032200000F0020E2024206E000E2120216E21BE0F
:1032300023EF19F02C0E205C010E2158D8A023EFAB
:1032400019F025EF19F0F4EF18F0180E1F6E8A0E22
:103250001E6EE80EE82EFED71E2EFCD71F2EFAD7C4
:10326000120020EE01F01A50D9261B50DA22010E6E
:10327000DF6E20EE01F01C50D9261D50DA22010E1F
:10328000DF6E000E216E000E206E1AC0D9FF1BC02B
:10329000DAFF20C0DFFF1CC0D9FF1DC0DAFF20C04D
:1032A000DFFF1AC00FF01BC010F031EC11F01CC092
:1032B0000FF01DC010F031EC11F0350EE82EFED7E6
:1032C00000F0020E2024206E000E2120216E21BE6F
:1032D00073EF19F0215009E1650E205CD8A073EF5F
:1032E00019F075EF19F045EF19F0290E1F6E960EC3
:1032F0001E6E7F0EE82EFED71E2EFCD71F2EFAD78D
:1033000000F0120020EE01F01A50D9261B50DA22EC
:10331000000EDF6E20EE01F01C50D9261D50DA227F
:10332000000EDF6E000E216E000E206E1AC0D9FF57
:103330001BC0DAFF20C0DFFF1CC0D9FF1DC0DAFFB1
:1033400020C0DFFF1AC00FF01BC010F031EC11F0ED
:103350001CC00FF01DC010F031EC11F0350EE82E3E
:10336000FED700F0020E2024206E000E2120216ED8
:1033700021BEC4EF19F0215009E1090E205CD8A04C
:10338000C4EF19F0C6EF19F096EF19F0190E1F6E81
:103390005A0E1E6EB20EE82EFED71E2EFCD71F2E22
:1033A000FAD7120020EE01F01A50D9261B50DA226B
:1033B000000EDF6E20EE01F01C50D9261D50DA22DF
:1033C000000EDF6E000E206E050E1F6E1AC0D9FFB4
:1033D0001BC0DAFF1FC0DFFF1CC0D9FF1DC0DAFF12
:1033E0001FC0DFFF1AC00FF01BC010F031EC11F04E
:1033F0001CC00FF01DC010F031EC11F0D00E1E6E8D
:10340000CA0EE82EFED71E2EFCD7FF0E1F241F6EFD
:10341000FF0E2020206E20BE18EF1AF0205006E18B
:103420001F04D8B016EF1AF018EF1AF0E6EF19F0F3
:10343000120016BE1EEF1AF020EF1AF026EF1AF057
:1034400015C01AF016C01BF02AEF1AF0000E1B6E02
:10345000000E1A6E000E196E000E186E3CEF1AF078
:10346000000E026E200E016E11C003F012C004F0B7
:103470002FEC16F0184A192A1A50185C1950800AB5
:10348000176E1B50800A1758D8A049EF1AF04BEF5F
:103490001AF030EF1AF013C00AF014C00BF011C08C
:1034A0000CF012C00DF075EC1BF012002CEC1CF0AF
:1034B000010E036E000E68EC1CF03F0E056E550EFB
:1034C000E82EFED7052EFCD700F0030E036E000E8B
:1034D00068EC1CF0D50E036E010E68EC1CF08892AF
:1034E000849684988890869080827C867C98809050
:1034F0007E907C9E8096849E889686840E01B495EC
:103500008686B4971200640E00016E6F000E6F6F16
:1035100060C070F061C071F0000E746F000E736FC8
:10352000000E7A6F000E796F700E516E000E526EA3
:1035300062C053F063C054F06E0E556E000E566EAE
:10354000ACEC1AF0000173516025D96E7451612101
:10355000DA6E000EDF6E120053C057F054C058F000
:10356000C0EF1AF051C03FF052C040F0570E416E0C
:10357000000E426E55C043F056C044F06BEC14F0A0
:1035800057C0F6FF58C0F7FF000EF86E0800F55060
:103590000009D8A4CEEF1AF0D0EF1AF0B2EF1AF06B
:1035A000000E526E000E516E1200BEEC1CF0520E58
:1035B000AEEC1CF0B60EAEEC1CF0B4EC1CF0530EEE
:1035C000AEEC1CF0010EB8EC1BF0076E07500A6E53
:1035D0000B6A000EB8EC1BF0076E0750096E086A04
:1035E0000A5008100A6E0B5009100B6EB9EC1CF053
:1035F0000AC005F00BC006F01200BEEC1CF0520E23
:10360000AEEC1CF0B40EAEEC1CF0B4EC1CF0530E9F
:10361000AEEC1CF0010EB8EC1BF0076E07500A6E02
:103620000B6A000EB8EC1BF0076E0750096E086AB3
:103630000A5008100A6E0B5009100B6EB9EC1CF002
:103640000AC005F00BC006F01200BEEC1CF0520ED2
:10365000AEEC1CF0B80EAEEC1CF0B4EC1CF0530E4B
:10366000AEEC1CF0010EB8EC1BF0076E07500A6EB2
:103670000B6A000EB8EC1BF0076E0750096E086A63
:103680000A5008100A6E0B5009100B6EB9EC1CF0B2
:103690000AC005F00BC006F01200BEEC1CF0520E82
:1036A000AEEC1CF0BA0EAEEC1CF0B4EC1CF0530EF9
:1036B000AEEC1CF0010EB8EC1BF0076E07500A6E62
:1036C0000B6A000EB8EC1BF0076E0750096E086A13
:1036D0000A5008100A6E0B5009100B6EB9EC1CF062
:1036E0000AC005F00BC006F01200000E106E000EAE
:1036F0000F6E86EF1BF00EC001F0026A0CC003F0E3
:103700000DC004F02FEC16F00F4A102A0F500A24B7
:10371000D96E10500B20DA6EDF500E6E0E50D8A40A
:1037200094EF1BF096EF1BF07BEF1BF012008594DB
:103730008598839E879C7D947D987B9E7F9CBD50C1
:103740008F0B3009BD6EE00EBE16BF50F00B0109A5
:10375000BF6E01C0BCFFBD8E0A0E0E01746F0B0E52
:10376000696F000EA36E000EA06EA48EA18E1200D3
:10377000036E41EC1CF00E01DA8741EC1CF0D5CE53
:1037800004F041EC1CF00350D8B4C9EF1BF0CDEFAE
:103790001BF0026A022ACEEF1BF0026A023A0246CE
:1037A0000E01DA510218DF0B0218DA6FDA890450C1
:1037B000120014BEE6EF1BF0145006E11304D8B05B
:1037C000E4EF1BF0E6EF1BF0F4EF1BF013C015F075
:1037D00014C016F0151E161E154A162A15C013F031
:1037E00016C014F0F8EF1BF013C013F014C014F05F
:1037F000120003EE00F03C0EEE6AE806FDE102EE78
:1038000000F0720EEE6AE806FDE100EEF5F0090E3A
:10381000EE6AE806FDE15E6A5D6A5C6A5B6A5F907B
:103820005F92000117EF07F01FEF1CF002C0D9FFF5
:1038300003C0DAFFDF5097EC1CF0024A032A02C0F3
:10384000D9FF03C0DAFFDF50D8A429EF1CF02BEF1B
:103850001CF016EF1CF012000E01D951F00B0809F4
:10386000D96FD98B9F0ED66F848A848CA79BA79D16
:103870001D0E1D6F1E0E1C6F1C0E6F6F1B0E706FCA
:1038800012000E01D8B547EF1CF049EF1CF041EFD4
:103890001CF0DACE01F01F0E0116D8A452EF1CF076
:1038A00054EF1CF041EF1CF0120001500302F3CF63
:1038B00005F0F4CF06F001500402F3500626025042
:1038C0000302F350062605C001F006C002F0120004
:1038D000046EBEEC1CF0520EAEEC1CF004508009DD
:1038E000AEEC1CF00350AEEC1CF0B9EC1CF0120076
:1038F000D6501F0B4009D66ED688D650F00B07095C
:10390000D66ED588F60ED46E3B0ED36ED58E1200D1
:10391000120E0E01626F110E156FE997E895670E92
:10392000E56F000EE66FE789E88BE78F1200016E06
:103930000E0137A59EEF1CF0A0EF1CF098EF1CF0D5
:1039400001C0E4FE1200F28AF28C0E01298B1F8B5B
:10395000339B2B8121913591F28E1200026E41EC46
:103960001CF002C0D5FE120041EC1CF00E01DA83FF
:10397000120041EC1CF00E01DA85120041EC1CF043
:083980000E01DA8112001200B1
:020000040020DA
:10000000FF0FFF0FFF0FFF0FFF0FFF0FFF0FFF0F80
:020000040030CA
:0C000000AAFFFFFF9FFFFFFFFFFFFFFFB5
:00000001FF
