:040000001FEF00F0FE
:100008005F820E0133BB0BEF00F00DEF00F014EF31
:1000180000F08EB412EF00F014EF00F01DEF00F0C6
:100028000101F44BF52BDB0ED36E0B0ED46E0E01D3
:0A003800339B5F9211003EEF16F0BB
:100E00000025642025642025642025642025642095
:100E10000D0A000083EC14F0000E026E140E016E39
:100E2000C4EC15F0CAEC16F09FEC16F053EC16F07B
:100E3000AFEC16F0000E0101E76F000EE86FA30E95
:100E4000E96F0F0EEA6F7D0EEB6F0F0EEC6F040E65
:100E5000ED6F000EEF6FC80EEE6F000EDE6F000E2E
:100E6000DF6FA00EE06F0F0EE16F7F0EE26F0F0ECF
:100E7000E36F060EE46F000EE66FC80EE56FE70E37
:100E80000F6E010E106EF9EC0CF0DE0E0F6E010EFF
:100E9000106EF9EC0CF020EEDFF01D0EDE6AE806B5
:100EA000FDE221EE64F01D0EDE6AE806FDE28EB67C
:100EB0005CEF07F05EEF07F057EF07F0000E01015F
:100EC000CD6F000ECC6FCE0E0C6E010E0D6E2EECA3
:100ED00011F0CCC159F0CDC15AF0D89059365A36DC
:100EE000D89059365A36D89059365A36820E5924E7
:100EF000D96E010E5A20DA6ECEC1DEFFCFC1DDFF02
:100F0000CCC159F0CDC15AF0D89059365A36D89044
:100F100059365A36D89059365A36020E5926000E8E
:100F20005A22820E5924D96E010E5A20DA6ED0C18F
:100F3000DEFFD1C1DDFFCCC159F0CDC15AF0D89050
:100F400059365A36D89059365A36D89059365A3674
:100F5000040E5926000E5A22820E5924D96E010E13
:100F60005A20DA6ED2C1DEFFD3C1DDFFCCC159F009
:100F7000CDC15AF0D89059365A36D89059365A368B
:100F8000D89059365A36060E5926000E5A22820E2D
:100F90005924D96E010E5A20DA6ED4C1DEFFD5C1B4
:100FA000DDFF80867B0E0001606F000E616F040E16
:100FB000626F0E0E636FCEC164F0CFC165F0D0C119
:100FC00066F0D1C167F0D2C168F0D3C169F0D4C175
:100FD0006AF0D5C16BF0B0EC14F07B0E026E000E1F
:100FE000036E26EC16F0A30E5A6E570E596E020EC3
:100FF000E82EFED7592EFCD75A2EFAD700D080966D
:10100000A30E5A6E570E596E020EE82EFED7592EB9
:10101000FCD75A2EFAD700D00101CC4BCD2BCDBF37
:101020001BEF08F0CD5109E1080ECC5DD8A01BEFF5
:1010300008F01DEF08F063EF07F092C1FDF093C1D7
:10104000FEF0BAC1C2F1BBC1C3F1010E8EA6000E03
:101050008EA4000EE8B02FEF08F033EF08F0596AC5
:10106000592A34EF08F0596A5950D8A43AEF08F0D9
:101070003CEF08F025EF08F08EB441EF08F043EFA5
:1010800008F046EF08F07C8E1AEF09F080861AEF20
:1010900009F0000EF56F000EF46FE70E1A6E010EE8
:1010A0001B6EDE0E1C6E010E1D6E01EC14F0D60ED2
:1010B0000C6E010E0D6E2EEC11F00101C251D65DC9
:1010C000C351D759D8B067EF08F069EF08F07BEF4C
:1010D00008F0D6510001FD5D0101D7510001FE5914
:1010E000D8B075EF08F077EF08F07BEF08F0000E4E
:1010F0005C6E010E5B6E5B505C10D8B482EF08F042
:1011000084EF08F00EEF09F0E70E1A6E010E1B6E69
:10111000DE0E1C6E010E1D6EBAEC13F0D60E0C6EB8
:10112000010E0D6E2EEC11F07CAE99EF08F09BEFE6
:1011300008F0A7EF08F0D60E016E010E026ECFEC9C
:1011400010F001C0C8F102C0C9F1B5EF08F0D60E29
:10115000016E010E026E820E036E010E046E07EC2C
:101160000CF001C0C8F102C0C9F1D8900101C63528
:10117000D96EC735DA6EDF0ED926000EDA22C8C165
:10118000DEFFC9C1DDFFD890C635D96EC735DA6E2E
:10119000640ED926010EDA22F4C1DEFFF5C1DDFFAF
:1011A000000E0001606F010E616F010E626F0E0E86
:1011B000636FC8C164F0C9C165F0D6C166F0D7C11C
:1011C00067F0D8C168F0D9C169F0DAC16AF0DBC153
:1011D0006BF0DCC16CF0DDC16DF0B0EC14F0000E12
:1011E000026E010E036E26EC16F0C8C122F0C9C1D2
:1011F00023F0E70E246E010E256EDE0E266E010E24
:10120000276EE0EC0AF00101C64BC72B000EF56F0C
:10121000000EF46F000E5C6E000E5B6E110E5A6EC7
:101220003C0E596ECB0EE82EFED7592EFCD75A2E07
:10123000FAD700F0080E0101C819C911D8A423EF8C
:1012400009F025EF09F049EF08F0E70E1A6E010EDC
:101250001B6EDE0E1C6E010E1D6E25EC12F0000ED4
:101260000101CB6F0F0ECA6FCBBF41EF09F0CB511D
:1012700006E1CA05D8B03FEF09F041EF09F043EFAE
:1012800009F057EF07F0F29E000EC56F000EC46F15
:10129000D890CA35D96ECB35DA6EDF0ED926000E5E
:1012A000DA22DECF22F0DDCF23F0E70E246E010E2E
:1012B000256EDE0E266E010E276EE0EC0AF0E70EBC
:1012C0001A6E010E1B6EDE0E1C6E010E1D6E01EC01
:1012D00014F07AEF09F0050E5A6E0F0E596EF10EEA
:1012E000E82EFED7592EFCD75A2EFAD700F001016E
:1012F000C44BC52BD8900101CA35D96ECB35DA6EF7
:10130000640ED926010EDA22DE50C45DDE50C559C6
:10131000D8A08DEF09F08FEF09F06BEF09F0E70E21
:101320001A6E010E1B6EDE0E1C6E010E1D6EBAECE7
:1013300013F00101CA07D8A0CB0734EF09F01FEF63
:1013400000F01EC034F01FC035F020C036F021C0C0
:1013500037F022C038F023C039F024C03AF025C05D
:101360003BF03BBEB6EF09F0B9EF09F0010EBAEF62
:1013700009F0000E3E6E3E50D8B4C1EF09F0C3EF45
:1013800009F0D3EF09F03B1E3A1E391E381E371EF6
:10139000361E351E346C000E352236223722382296
:1013A00039223A223B220101F3BFE1EF09F0F35168
:1013B00006E1F205D8B0DFEF09F0E1EF09F0E7EF61
:1013C00009F0000E316E010E306EEBEF09F0F2C144
:1013D00030F0F3C131F0F0C132F0F1C133F03E50E2
:1013E000D8B4F5EF09F0F7EF09F00EEF0AF0320686
:1013F000D8A033063E50D8A400EF0AF002EF0AF05E
:1014000008EF0AF0000E2F6E2B0E2E6E0CEF0AF076
:10141000000E2F6E2D0E2E6E2EC03EF0000E3D6E75
:101420001F0E3C6E000E0201AB6F93EF0AF03C06FC
:10143000D8A03D068C0E3C24D96E020E3D20DA6EFB
:1014400034C001F035C002F036C003F037C004F0FC
:1014500038C005F039C006F03AC007F03BC008F0CC
:101460000A0E096E000E0A6E000E0B6E000E0C6E58
:10147000000E0D6E000E0E6E000E0F6E000E106E42
:10148000A7EC0EF001C026F002C027F003C028F040
:1014900004C029F005C02AF006C02BF007C02CF0CC
:1014A00008C02DF026C013F027C014F006EC16F08B
:1014B0001350300FDF6E3006D8A031063206D8A0A8
:1014C000330634C001F035C002F036C003F037C037
:1014D00004F038C005F039C006F03AC007F03BC050
:1014E00008F00A0E096E000E0A6E000E0B6E000E5A
:1014F0000C6E000E0D6E000E0E6E000E0F6E000EC6
:10150000106EE3EC0DF001C034F002C035F003C002
:1015100036F004C037F005C038F006C039F007C017
:101520003AF008C03BF03DBE9EEF0AF03D5008E1A6
:101530003C04D8A09EEF0AF0A0EF0AF0BCEF0AF03E
:101540003450351036103710381039103A103B101F
:10155000D8A4ADEF0AF0AFEF0AF017EF0AF031BEF2
:10156000BCEF0AF0315006E13004D8B0BAEF0AF00F
:10157000BCEF0AF017EF0AF03E50D8B4C2EF0AF001
:10158000C4EF0AF0CFEF0AF03C06D8A03D068C0E5F
:101590003C24D96E020E3D20DA6E3EC0DFFF1CC037
:1015A00011F01DC012F08C0E3C24136E020E3D2073
:1015B000146E32C015F033C016F046EC14F0120071
:1015C000DCEF0BF024C01AF025C01BF026C01CF085
:1015D00027C01DF018EC13F024C01AF025C01BF032
:1015E00026C01CF027C01DF0BAEC13F0290E296E9E
:1015F000960E286E7F0EE82EFED7282EFCD7292EB9
:10160000FAD700F024C01AF025C01BF026C01CF049
:1016100027C01DF0BAEC13F024C01AF025C01BF04F
:1016200026C01CF027C01DF081EC11F006EF0CF075
:1016300024C01AF025C01BF026C01CF027C01DF0E6
:1016400018EC13F024C01AF025C01BF026C01CF0C3
:1016500027C01DF0BAEC13F0290E296E960E286EE5
:101660007F0EE82EFED7282EFCD7292EFAD700F0C1
:1016700024C01AF025C01BF026C01CF027C01DF0A6
:10168000BAEC13F024C01AF025C01BF026C01CF0E1
:1016900027C01DF0D3EC11F006EF0CF024C01AF0B7
:1016A00025C01BF026C01CF027C01DF018EC13F05D
:1016B00024C01AF025C01BF026C01CF027C01DF066
:1016C000BAEC13F0290E296E960E286E7F0EE82EC6
:1016D000FED7282EFCD7292EFAD700F024C01AF006
:1016E00025C01BF026C01CF027C01DF025EC12F011
:1016F00024C01AF025C01BF026C01CF027C01DF026
:10170000BAEC13F006EF0CF024C01AF025C01BF061
:1017100026C01CF027C01DF0C7EC12F024C01AF040
:1017200025C01BF026C01CF027C01DF081EC11F075
:1017300006EF0CF024C01AF025C01BF026C01CF0E8
:1017400027C01DF0C7EC12F024C01AF025C01BF012
:1017500026C01CF027C01DF0D3EC11F006EF0CF0F2
:1017600024C01AF025C01BF026C01CF027C01DF0B5
:1017700018EC13F024C01AF025C01BF026C01CF092
:1017800027C01DF076EC12F006EF0CF024C01AF022
:1017900025C01BF026C01CF027C01DF018EC13F06C
:1017A00024C01AF025C01BF026C01CF027C01DF075
:1017B00069EC13F006EF0CF022C028F023C029F0EA
:1017C0002950000AD8B4E7EF0BF006EF0CF02850D0
:1017D000010AD8B4E2EF0AF0030AD8B418EF0BF00C
:1017E000010AD8B44EEF0BF0070AD8B484EF0BF01F
:1017F000010AD8B49AEF0BF0030AD8B4B0EF0BF09B
:10180000010AD8B4C6EF0BF006EF0CF0120020EE80
:1018100002F00150D9260250DA22DECF0DF0DDCFE2
:101820000EF020EE04F00150D9260250DA22DECF6D
:101830000FF0DDCF10F020EE06F00150D926025057
:10184000DA22DECF11F0DDCF12F020EE02F00350ED
:10185000D9260450DA22DECF13F0DDCF14F020EECB
:1018600004F00350D9260450DA22DECF15F0DDCF84
:1018700016F020EE06F00350D9260450DA22DECF0F
:1018800017F0DDCF18F0000E0A6EEC0E1324056E73
:10189000FF0E1420066E0D50055C0E500658D8B091
:1018A00054EF0CF056EF0CF069EF0CF0140E13240B
:1018B000056E000E1420066E05500D5C06500E5885
:1018C000D8B065EF0CF067EF0CF069EF0CF0010E8B
:1018D0000A6E0A50D8A46FEF0CF072EF0CF0010EF4
:1018E00073EF0CF0000E076E000E0B6EEC0E17245B
:1018F000056EFF0E1820066E1150055C125006583A
:10190000D8B085EF0CF087EF0CF09AEF0CF0140EC6
:101910001724056E000E1820066E0550115C065047
:101920001258D8B096EF0CF098EF0CF09AEF0CF03C
:10193000010E0B6E0B50D8A4A0EF0CF0A3EF0CF02F
:10194000010EA4EF0CF0000E086E000E0C6EEC0EF3
:101950001524056EFF0E1620066E0F50055C105004
:101960000658D8B0B6EF0CF0B8EF0CF0CBEF0CF097
:10197000140E1524056E000E1620066E05500F5C21
:1019800006501058D8B0C7EF0CF0C9EF0CF0CBEFF1
:101990000CF0010E0C6E0C50D8A4D1EF0CF0D4EF6B
:1019A0000CF0010ED5EF0CF0000E096E0750D8B404
:1019B000DCEF0CF0DEEF0CF0F4EF0CF00850D8B4D4
:1019C000E4EF0CF0E6EF0CF0F4EF0CF00950D8B4B3
:1019D000ECEF0CF0EEEF0CF0F4EF0CF0000E026EFA
:1019E000010E016EF8EF0CF0000E026E000E016E9B
:1019F000120020EE01F00F50D9261050DA22DF50ED
:101A0000D8B405EF0DF007EF0DF038EF0DF00FC073
:101A1000D9FF10C0DAFFDF50116E1150016E026A5B
:101A200020EE07F00F50D9261050DA22DECF03F057
:101A3000DDCF04F07CEC16F001C007F002C008F026
:101A4000000E0A6E640E096E6DEC10F020EE07F0C9
:101A50000F50D9261050DA22DECF12F0DDCF13F06E
:101A60000750125C186E08501358196E5BEF0DF09A
:101A70000FC0D9FF10C0DAFFDF50116E1150016E98
:101A8000026A20EE07F00F50D9261050DA22DECF7E
:101A900003F0DDCF04F07CEC16F001C007F002C0CB
:101AA00008F0000E0A6E640E096E6DEC10F007C0AF
:101AB00018F008C019F020EE02F00F50D92610508F
:101AC000DA22DECF11F0DDCF12F011C0D9FF12C043
:101AD000DAFF18C0DFFF20EE01F00F50D9261050BA
:101AE000DA22DF50D8B477EF0DF079EF0DF0AEEFDA
:101AF0000DF020EE04F00F50D9261050DA22DECF80
:101B000011F0DDCF12F011C0D9FF12C0DAFF10EED4
:101B100004F00F50E1261050E222E6CF13F0E5CF9B
:101B200014F013C0E1FF14C0E2FFE750156E10EE91
:101B300006F00F50E1261050E222E750166E010E1B
:101B4000176E162AA6EF0DF0D8901736162EA4EFB2
:101B50000DF017501510DF6EE2EF0DF020EE04F0DF
:101B60000F50D9261050DA22DECF11F0DDCF12F05F
:101B700011C0D9FF12C0DAFF10EE04F00F50E126B9
:101B80001050E222E6CF13F0E5CF14F013C0E1FFCE
:101B900014C0E2FFE750156E10EE06F00F50E1267C
:101BA0001050E222E750166E010E176E162ADBEF78
:101BB0000DF0D8901736162ED9EF0DF01750FF0AFA
:101BC0001514DF6E1200000E126E10BEECEF0DF059
:101BD000EAEF0DF0FEEF0DF0101E0F1E0E1E0D1E93
:101BE0000C1E0B1E0A1E096C000E0A220B220C2270
:101BF0000D220E220F221022010E126E08BE05EFDA
:101C00000EF003EF0EF017EF0EF0081E071E061E73
:101C1000051E041E031E021E016C000E022203227A
:101C200004220522062207220822010E121A20EEA3
:101C300013F0070EDE6AE806FDE209500A100B10E9
:101C40000C100D100E100F101010D8B42AEF0EF05B
:101C50002CEF0EF07EEF0EF0010E116E3AEF0EF04B
:101C6000D89009360A360B360C360D360E360F363E
:101C70001036112A10AE3FEF0EF041EF0EF030EFAC
:101C80000EF0D89013361436153616361736183629
:101C900019361A360950015C0A5002580B50035885
:101CA0000C5004580D5005580E5006580F50075848
:101CB00010500858D8A05FEF0EF061EF0EF072EFF1
:101CC0000EF00950015E0A50025A0B50035A0C5094
:101CD000045A0D50055A0E50065A0F50075A10500C
:101CE000085A1380D89010320F320E320D320C3257
:101CF0000B320A320932112E41EF0EF01250D8B4D5
:101D000084EF0EF086EF0EF096EF0EF01A1E191EFD
:101D1000181E171E161E151E141E136C000E1422FC
:101D2000152216221722182219221A2213C001F096
:101D300014C002F015C003F016C004F017C005F07F
:101D400018C006F019C007F01AC008F01200000E03
:101D5000126E08BEB0EF0EF0AEEF0EF0C2EF0EF056
:101D6000081E071E061E051E041E031E021E016C11
:101D7000000E022203220422052206220722082244
:101D8000010E126E10BEC9EF0EF0C7EF0EF0D9EFC4
:101D90000EF0101E0F1E0E1E0D1E0C1E0B1E0A1E18
:101DA000096C000E0A220B220C220D220E220F2299
:101DB000102209500A100B100C100D100E100F10ED
:101DC0001010D8B4E6EF0EF0E8EF0EF030EF0FF0A1
:101DD000010E116EF6EF0EF0D89009360A360B366A
:101DE0000C360D360E360F361036112A10AEFBEFBC
:101DF0000EF0FDEF0EF0ECEF0EF00950015C0A5012
:101E000002580B5003580C5004580D5005580E50F2
:101E100006580F50075810500858D8A012EF0FF06E
:101E200014EF0FF024EF0FF00950015E0A50025A30
:101E30000B50035A0C50045A0D50055A0E50065AB6
:101E40000F50075A1050085AD89010320F320E32E5
:101E50000D320C320B320A320932112EFDEF0EF028
:101E60001250D8B436EF0FF038EF0FF048EF0FF004
:101E7000081E071E061E051E041E031E021E016C00
:101E8000000E022203220422052206220722082233
:101E900001C001F002C002F003C003F004C004F06E
:101EA00005C005F006C006F007C007F008C008F03E
:101EB000120041C0D9FF42C0DAFFDECFF6FFDDCF0E
:101EC000F7FF000EF86E0800F550250AD8A46BEF56
:101ED0000FF06DEF0FF0F1EF0FF041C0D9FF42C0EE
:101EE000DAFFDE2A000EDD22000E0101F16F000E86
:101EF000F06FF0C1FAF1F269F36941C0D9FF42C055
:101F0000DAFFDECF4FF0DDCF50F04FC0F6FF50C00C
:101F1000F7FF000EF86E0800F550640AD8B493EF8E
:101F20000FF095EF0FF0A5EF0FF04FC0F6FF50C088
:101F3000F7FF000EF86E0800F550690AD8A4A3EF69
:101F40000FF0A5EF0FF0E8EF0FF043C0D9FF44C04A
:101F5000DAFFDFCF45F0020EDE26DFCF46F0000EBF
:101F6000DD2245C0D9FF46C0DAFFDECF47F0DDCF26
:101F700048F0000E48BEFF0E496E4A6E4B6E4C6E26
:101F80004D6E4E6E010E4F24456E000E5020466E73
:101F900041C0D9FF42C0DAFF45C0DEFF46C0DDFFC9
:101FA0003FC01CF040C01DF047C01EF048C01FF0ED
:101FB00049C020F04AC021F04BC022F04CC023F0B1
:101FC0004DC024F04EC025F0A1EC09F007EF10F051
:101FD00041C0D9FF42C0DAFFDE2A000EDD2207EF42
:101FE00010F041C0D9FF42C0DAFFDECFF6FFDDCFEF
:101FF000F7FF000EF86E0800F550016E026A3FC050
:1020000003F040C004F008EC10F0E8EF0FF012000D
:1020100003500410D8B40FEF10F011EF10F01AEFC6
:1020200010F003500410D8A418EF10F01AEF10F0BD
:102030001FEF10F00150EAEC16F06CEF10F020EEFC
:1020400009F00350D9260450DA22DE50DE10D8B44D
:102050002CEF10F02EEF10F049EF10F020EE09F009
:102060000350D9260450DA2210EE03F00350E12683
:102070000450E222DE50E65CE650800A096EDE5033
:10208000800A0958D8B047EF10F049EF10F06CEF14
:1020900010F020EE03F00350D9260450DA22DECFF0
:1020A00005F0DDCF06F003C0D9FF04C0DAFFDECFB4
:1020B00007F0DDCF08F005500724D96E0650082040
:1020C000DA6E01C0DFFF20EE03F00350D926045082
:1020D000DA22DE2A000EDD221200000E0C6E0ABE8D
:1020E00076EF10F074EF10F07CEF10F0096C0A1E20
:1020F000D8B00A2A010E0C6E08BE83EF10F081EFF3
:1021000010F089EF10F0076C081ED8B0082A010EF5
:102110000C1A000E0E6E000E0D6E09500A10D8B487
:1021200094EF10F096EF10F0BEEF10F0010E0B6E72
:102130009EEF10F0D89009360A360B2A0AAEA3EFAC
:1021400010F0A5EF10F09AEF10F0D8900D360E3683
:102150000950075C0A500858D8A0B1EF10F0B3EF4F
:1021600010F0B8EF10F00950075E0A50085A0D80C1
:10217000D8900A3209320B2EA5EF10F00C50D8B4CB
:10218000C4EF10F0C6EF10F0CAEF10F00D6C0E1E89
:10219000D8B00E2A0DC007F00EC008F0120020EED5
:1021A00002F00150D9260250DA22DECF07F0DDCF4F
:1021B00008F020EE04F00150D9260250DA22DECFDA
:1021C00009F0DDCF0AF020EE06F00150D9260250CA
:1021D000DA22DECF05F0DDCF06F00950075C0A50A9
:1021E0000858D8A0F6EF10F0F8EF10F009EF11F052
:1021F0000550075C06500858D8A001EF11F003EF16
:1022000011F009EF11F0000E046E010E036E29EFBC
:1022100011F00750095C08500A58D8A012EF11F0CD
:1022200014EF11F025EF11F00550095C06500A5823
:10223000D8A01DEF11F01FEF11F025EF11F0000EE7
:10224000046E020E036E29EF11F0000E046E030EF1
:10225000036E03C001F004C002F012002AEC15F076
:102260000CC0D9FF0DC0DAFF05C0DEFF06C0DDFFE0
:10227000090E0F6E1E0E0E6EE40EE82EFED70E2E09
:10228000FCD70F2EFAD700D002EC15F020EE02F0AA
:102290000C50D9260D50DA2205C0DEFF06C0DDFF46
:1022A000090E0F6E1E0E0E6EE40EE82EFED70E2ED9
:1022B000FCD70F2EFAD700D052EC15F020EE04F028
:1022C0000C50D9260D50DA2205C0DEFF06C0DDFF16
:1022D000090E0F6E1E0E0E6EE40EE82EFED70E2EA9
:1022E000FCD70F2EFAD700D07AEC15F020EE06F0CE
:1022F0000C50D9260D50DA2205C0DEFF06C0DDFFE6
:10230000120020EE01F01A50D9261B50DA22010EDD
:10231000DF6E20EE01F01C50D9261D50DA22000E8F
:10232000DF6E000E216E000E206E1AC0D9FF1BC09A
:10233000DAFF20C0DFFF2050320F1CC0D9FF1DC0C4
:10234000DAFFDF6E1AC00FF01BC010F0F9EC0CF0D2
:102350001CC00FF01DC010F0F9EC0CF0350EE82E8B
:10236000FED700F0020E2024206E000E2120216EE8
:1023700021BEC4EF11F0215009E1320E205CD8A03B
:10238000C4EF11F0C6EF11F095EF11F00E0E1F6EB5
:10239000650E1E6E870EE82EFED71E2EFCD71F2E52
:1023A000FAD700F0120020EE01F01A50D9261B5087
:1023B000DA22000EDF6E20EE01F01C50D9261D50EF
:1023C000DA22010EDF6E000E216E000E206E20500C
:1023D000320F1AC0D9FF1BC0DAFFDF6E1CC0D9FF55
:1023E0001DC0DAFF20C0DFFF1AC00FF01BC010F0C5
:1023F000F9EC0CF01CC00FF01DC010F0F9EC0CF063
:10240000350EE82EFED700F0020E2024206E000EBE
:102410002120216E21BE16EF12F0215009E1320E6B
:10242000205CD8A016EF12F018EF12F0E7EF11F0D1
:102430000E0E1F6E650E1E6E870EE82EFED71E2E28
:10244000FCD71F2EFAD700F0120020EE01F01A5030
:10245000D9261B50DA22010EDF6E20EE01F01C504F
:10246000D9261D50DA22000EDF6E000E216E000EFE
:10247000206E1AC0D9FF1BC0DAFF20C0DFFF20503A
:10248000320F1CC0D9FF1DC0DAFFDF6E1AC00FF07B
:102490001BC010F0F9EC0CF01CC00FF01DC010F0C8
:1024A000F9EC0CF0350EE82EFED700F0020E2024D9
:1024B000206E000E2120216E21BE68EF12F0215007
:1024C00009E1320E205CD8A068EF12F06AEF12F03A
:1024D00039EF12F0180E1F6E8A0E1E6EE80EE82EEF
:1024E000FED71E2EFCD71F2EFAD7120020EE01F0C9
:1024F0001A50D9261B50DA22010EDF6E20EE01F0B1
:102500001C50D9261D50DA22000EDF6E000E216EFF
:10251000000E206E1AC0D9FF1BC0DAFF20C0DFFFFB
:102520002050320F1CC0D9FF1DC0DAFFDF6E1AC069
:102530000FF01BC010F0F9EC0CF01CC00FF01DC028
:1025400010F0F9EC0CF0350EE82EFED700F0020E7C
:102550002024206E000E2120216E21BEB9EF12F042
:10256000215009E1320E205CD8A0B9EF12F0BBEF88
:1025700012F08AEF12F0130E1F6EAC0E1E6E2A0EB2
:10258000E82EFED71E2EFCD71F2EFAD7120020EE03
:1025900001F01A50D9261B50DA22000EDF6E20EE11
:1025A00001F01C50D9261D50DA22000EDF6E000EFD
:1025B000216E000E206E1AC0D9FF1BC0DAFF20C0AA
:1025C000DFFF1CC0D9FF1DC0DAFF20C0DFFF1AC02B
:1025D0000FF01BC010F0F9EC0CF01CC00FF01DC088
:1025E00010F0F9EC0CF0350EE82EFED700F0020EDC
:1025F0002024206E000E2120216E21BE09EF13F051
:10260000215009E1330E205CD8A009EF13F00BEF45
:1026100013F0DBEF12F05A0E1F6E490E1E6EE70E1E
:10262000E82EFED71E2EFCD71F2EFAD700F0120080
:1026300020EE01F01A50D9261B50DA22000EDF6E70
:1026400020EE01F01A50D9261B50DA22000EDF6E60
:10265000000E216E000E206E1AC0D9FF1BC0DAFFDB
:1026600020C0DFFF1CC0D9FF1DC0DAFF20C0DFFF84
:102670001AC00FF01BC010F0F9EC0CF01CC00FF0EA
:102680001DC010F0F9EC0CF0350EE82EFED700F06E
:10269000020E2024206E000E2120216E21BE5AEF52
:1026A00013F0215009E1290E205CD8A05AEF13F055
:1026B0005CEF13F02CEF13F0290E1F6E960E1E6EBA
:1026C0007F0EE82EFED71E2EFCD71F2EFAD700F065
:1026D000120020EE01F01A50D9261B50DA22000E0B
:1026E000DF6E20EE01F01C50D9261D50DA22010EBB
:1026F000DF6E000E216E000E206E2050320F1AC0C9
:10270000D9FF1BC0DAFFDF6E1CC0D9FF1DC0DAFF86
:1027100020C0DFFF1AC00FF01BC010F0F9EC0CF066
:102720001CC00FF01DC010F0F9EC0CF0350EE82EB7
:10273000FED700F0020E2024206E000E2120216E14
:1027400021BEACEF13F0215009E1320E205CD8A07D
:10275000ACEF13F0AEEF13F07DEF13F0130E1F6E1E
:10276000AC0E1E6E2A0EE82EFED71E2EFCD71F2E94
:10277000FAD7120020EE01F01A50D9261B50DA22A7
:10278000000EDF6E20EE01F01C50D9261D50DA221B
:10279000000EDF6E000E206E050E1F6E1AC0D9FFF0
:1027A0001BC0DAFF1FC0DFFF1CC0D9FF1DC0DAFF4E
:1027B0001FC0DFFF1AC00FF01BC010F0F9EC0CF0C7
:1027C0001CC00FF01DC010F0F9EC0CF0D00E1E6E06
:1027D000CA0EE82EFED71E2EFCD7FF0E1F241F6E3A
:1027E000FF0E2020206E20BE00EF14F0205006E1E6
:1027F0001F04D8B0FEEF13F000EF14F0CEEF13F08B
:10280000120020EE01F01A50D9261B50DA22010ED8
:10281000DF6E20EE01F01C50D9261D50DA22010E89
:10282000DF6E000E1F6E000E1E6E1AC0D9FF1BC099
:10283000DAFF1EC0DFFF1CC0D9FF1DC0DAFF1EC0BB
:10284000DFFF1AC00FF01BC010F0F9EC0CF01CC039
:102850000FF01DC010F0F9EC0CF06A0EE82EFED758
:1028600000D0020E1E241E6E000E1F201F6E1FBE03
:1028700043EF14F01F5009E11F0E1E5CD8A043EF78
:1028800014F045EF14F015EF14F0120016BE4BEFE4
:1028900014F04DEF14F053EF14F015C01AF016C0F9
:1028A0001BF057EF14F0000E1B6E000E1A6E000E98
:1028B000196E000E186E69EF14F0000E026E200EF5
:1028C000016E11C003F012C004F008EC10F0184AB9
:1028D000192A1A50185C1950800A176E1B50800A6A
:1028E0001758D8A076EF14F078EF14F05DEF14F0DD
:1028F00013C00AF014C00BF011C00CF012C00DF0A0
:10290000A2EC15F0120053EC16F0010E036E000E4F
:102910008FEC16F03F0E056E550EE82EFED7052EF5
:10292000FCD700F0030E036E000E8FEC16F0D50EF0
:10293000036E010E8FEC16F088928496849888902E
:10294000869080827C867C9880907E907C9E80960B
:10295000849E889686840E01B4958686B49712006C
:10296000640E00016E6F000E6F6F60C070F061C08A
:1029700071F0000E746F000E736F000E7A6F000E10
:10298000796F700E516E000E526E62C053F063C0CC
:1029900054F06E0E556E000E566ED9EC14F0000118
:1029A00073516025D96E74516121DA6E000EDF6EAD
:1029B000120053C057F054C058F0EDEF14F051C05E
:1029C0003FF052C040F0570E416E000E426E55C0AF
:1029D00043F056C044F059EC0FF057C0F6FF58C012
:1029E000F7FF000EF86E0800F5500009D8A4FBEFC1
:1029F00014F0FDEF14F0DFEF14F0000E526E000E35
:102A0000516E1200E5EC16F0520ED5EC16F0B60E33
:102A1000D5EC16F0DBEC16F0530ED5EC16F0010EEB
:102A2000E5EC15F0076E07500A6E0B6A000EE5EC38
:102A300015F0076E0750096E086A0A5008100A6EF2
:102A40000B5009100B6EE0EC16F00AC005F00BC03D
:102A500006F01200E5EC16F0520ED5EC16F0B40EAE
:102A6000D5EC16F0DBEC16F0530ED5EC16F0010E9B
:102A7000E5EC15F0076E07500A6E0B6A000EE5ECE8
:102A800015F0076E0750096E086A0A5008100A6EA2
:102A90000B5009100B6EE0EC16F00AC005F00BC0ED
:102AA00006F01200E5EC16F0520ED5EC16F0B80E5A
:102AB000D5EC16F0DBEC16F0530ED5EC16F0010E4B
:102AC000E5EC15F0076E07500A6E0B6A000EE5EC98
:102AD00015F0076E0750096E086A0A5008100A6E52
:102AE0000B5009100B6EE0EC16F00AC005F00BC09D
:102AF00006F01200E5EC16F0520ED5EC16F0BA0E08
:102B0000D5EC16F0DBEC16F0530ED5EC16F0010EFA
:102B1000E5EC15F0076E07500A6E0B6A000EE5EC47
:102B200015F0076E0750096E086A0A5008100A6E01
:102B30000B5009100B6EE0EC16F00AC005F00BC04C
:102B400006F01200000E106E000E0F6EB3EF15F0BF
:102B50000EC001F0026A0CC003F00DC004F008ECD6
:102B600010F00F4A102A0F500A24D96E10500B2073
:102B7000DA6EDF500E6E0E50D8A4C1EF15F0C3EF21
:102B800015F0A8EF15F0120085948598839E879C18
:102B90007D947D987B9E7F9CBD508F0B3009BD6ED0
:102BA000E00EBE16BF50F00B0109BF6E01C0BCFFA6
:102BB000BD8E0A0E0E01746F0B0E696F000EA36EB0
:102BC000000EA06EA48EA18E1200036E68EC16F0AB
:102BD0000E01DA8768EC16F0D5CE04F068EC16F03A
:102BE0000350D8B4F6EF15F0FAEF15F0026A022A96
:102BF000FBEF15F0026A023A02460E01DA510218A2
:102C0000DF0B0218DA6FDA890450120014BE13EFDA
:102C100016F0145006E11304D8B011EF16F013EFBC
:102C200016F021EF16F013C015F014C016F0151EA3
:102C3000161E154A162A15C013F016C014F025EFFB
:102C400016F013C013F014C014F0120031EF16F098
:102C500002C0D9FF03C0DAFFDF50BEEC16F0024A13
:102C6000032A02C0D9FF03C0DAFFDF50D8A43BEF2C
:102C700016F03DEF16F028EF16F0120002EE00F00D
:102C8000AC0EEE6AE806FDE101EEF0F00C0EEE6A25
:102C9000E806FDE10001FF6B5E6A5D6A5F905F928E
:102CA00000010AEF07F00E01D951F00B0809D96FA6
:102CB000D98B9F0ED66F848A848CA79BA79D1D0EEF
:102CC0001D6F1E0E1C6F1C0E6F6F1B0E706F12009F
:102CD0000E01D8B56EEF16F070EF16F068EF16F033
:102CE000DACE01F01F0E0116D8A479EF16F07BEFB3
:102CF00016F068EF16F0120001500302F3CF05F052
:102D0000F4CF06F001500402F350062602500302ED
:102D1000F350062605C001F006C002F01200046E52
:102D2000E5EC16F0520ED5EC16F004508009D5EC07
:102D300016F00350D5EC16F0E0EC16F01200D65069
:102D40001F0B4009D66ED688D650F00B0709D66EF9
:102D5000D588F60ED46E3B0ED36ED58E1200120EB1
:102D60000E01626F110E156FE997E895670EE56F1A
:102D7000000EE66FE789E88BE78F1200016E0E0107
:102D800037A5C5EF16F0C7EF16F0BFEF16F001C07C
:102D9000E4FE1200F28AF28C0E01298B1F8B339B0A
:102DA0002B8121913591F28E1200026E68EC16F0A3
:102DB00002C0D5FE120068EC16F00E01DA83120094
:102DC00068EC16F00E01DA85120068EC16F00E01C0
:062DD000DA81120012007E
:020000040020DA
:10000000FF0FFF0FFF0FFF0FFF0FFF0FFF0FFF0F80
:020000040030CA
:0C000000AAFFFFFF9FFFFFFFFFFFFFFFB5
:00000001FF
