:040000002AEF00F0F3
:100008005D820E0133AB0BEF00F00DEF00F026EF31
:1000180000F07DA412EF00F014EF00F01EEF00F0E6
:100028000001B41D016EB51D026E05EC0FF07D9444
:1000380026EF00F00001B61D016EB71D026E05EC3B
:100048000FF07D840E01339B5D9211009EEF0EF040
:100E0000002564202564202564202564200D0A0027
:010E100000E1
:100E120020C036F021C037F022C038F023C039F0AC
:100E220024C03AF025C03BF026C03CF027C03DF07C
:100E32003DBE1EEF07F021EF07F0010E22EF07F093
:100E4200000E406E4050D8B429EF07F02BEF07F0A8
:100E52003BEF07F03D1E3C1E3B1E3A1E391E381E5C
:100E6200371E366C000E3722382239223A223B22B4
:100E72003C223D220001B3BF49EF07F0B35106E126
:100E8200B205D8B047EF07F049EF07F04FEF07F090
:100E9200000E336E010E326E53EF07F0B2C032F025
:100EA200B3C033F0B0C034F0B1C035F04050D8B464
:100EB2005DEF07F05FEF07F076EF07F03406D8A09A
:100EC20035064050D8A468EF07F06AEF07F070EFDC
:100ED20007F0000E316E2B0E306E74EF07F0000E2D
:100EE200316E2D0E306E30C040F0000E3F6E1F0E80
:100EF2003E6E000EDA6FFAEF07F03E06D8A03F060C
:100F0200BB0E3E24D96E000E3F20DA6E36C003F0CF
:100F120037C004F038C005F039C006F03AC007F017
:100F22003BC008F03CC009F03DC00AF00A0E0B6E4F
:100F3200000E0C6E000E0D6E000E0E6E000E0F6E89
:100F4200000E106E000E116E000E126E0DEC0AF005
:100F520003C028F004C029F005C02AF006C02BF017
:100F620007C02CF008C02DF009C02EF00AC02FF0E7
:100F720028C015F029C016F03DEC0EF01550300FC8
:100F8200DF6E3206D8A033063406D8A0350636C046
:100F920003F037C004F038C005F039C006F03AC09B
:100FA20007F03BC008F03CC009F03DC00AF00A0E51
:100FB2000B6E000E0C6E000E0D6E000E0E6E000E0D
:100FC2000F6E000E106E000E116E000E126E49ECC6
:100FD20009F003C036F004C037F005C038F006C08F
:100FE20039F007C03AF008C03BF009C03CF00AC033
:100FF2003DF03FBE05EF08F03F5008E13E04D8A0A7
:1010020005EF08F007EF08F023EF08F0365037102D
:10101200381039103A103B103C103D10D8A414EF90
:1010220008F016EF08F07EEF07F033BE23EF08F06A
:10103200335006E13204D8B021EF08F023EF08F074
:101042007EEF07F04050D8B429EF08F02BEF08F0FC
:1010520036EF08F03E06D8A03F06BB0E3E24D96EFE
:10106200000E3F20DA6E40C0DFFF1EC013F01FC02B
:1010720014F0BB0E3E24156E000E3F20166E34C0D7
:1010820017F035C018F07DEC0CF01200BAEC0CF041
:10109200000E046E140E036ED7EC0DF0F0EC0EF0A1
:1010A200BFEC0EF075EC0EF0CFEC0EF0000E01016D
:1010B200756F000E746F840E0E6E010E0F6E2AECA9
:1010C2000CF0000E0001DB6F010EDC6F010EDD6F14
:1010D2000E0EDE6F84C1DFF085C1E0F086C1E1F063
:1010E20087C1E2F088C1E3F089C1E4F08AC1E5F08A
:1010F2008BC1E6F0E7EC0CF0000E046E010E056EFB
:101102005DEC0EF0010170057111D8A48BEF08F0AF
:101112008DEF08F093EF08F0724B732B000E716F96
:10112200000E706F010E8EA6000E8EA4000EE8B0A7
:101132009DEF08F0A2EF08F00001F46BF42BA4EF8E
:1011420008F00001F46BF451D8A4AAEF08F0ACEF58
:1011520008F093EF08F08EB4B1EF08F0B3EF08F0A7
:10116200B6EF08F07C8E27EF09F0808627EF09F0B2
:101172007CAEBEEF08F0C0EF08F00EEF09F06E5142
:101182006F11D8B4C7EF08F0C9EF08F01BEF09F0F0
:101192007C0E0E6E010E0F6E2AEC0CF07C0E036EAE
:1011A200010E046ECBEC0BF003C076F104C077F1B4
:1011B200D89001017835D96E7935DA6E320ED9269A
:1011C200010EDA2276C1DEFF77C1DDFFD8907835D5
:1011D200D96E7935DA6E500ED926010EDA2272C135
:1011E200DEFF73C1DDFF784B792B000E736F000EAB
:1011F200726F080E76197711D8B402EF09F004EF76
:1012020009F01BEF09F0000E6F6F000E6E6F000EFB
:10121200756F010E746F1BEF09F080A613EF09F0D2
:1012220015EF09F01BEF09F07C0E0E6E010E0F6E2A
:101232002AEC0CF0110E0001F56F3C0EF46FCB0E90
:10124200E82EFED7F42FFCD7F52FFAD701017451FF
:101252007511D8B42FEF09F031EF09F0B9EF08F0AA
:10126200000E7B6F000E7A6F7A4B7B2B7BBF43EFB6
:1012720009F07B5109E10F0E7A5DD8A043EF09F026
:1012820045EF09F035EF09F083EF08F02AEF00F09F
:10129200000E146E12BE52EF09F050EF09F064EF27
:1012A20009F0121E111E101E0F1E0E1E0D1E0C1E08
:1012B2000B6C000E0C220D220E220F221022112284
:1012C2001222010E146E0ABE6BEF09F069EF09F0EB
:1012D2007DEF09F00A1E091E081E071E061E051EC6
:1012E200041E036C000E0422052206220722082295
:1012F20009220A22010E141A20EE15F0070EDE6AE8
:10130200E806FDE20B500C100D100E100F1010101D
:1013120011101210D8B490EF09F092EF09F0E4EF37
:1013220009F0010E136EA0EF09F0D8900B360C36BF
:101332000D360E360F36103611361236132A12AE0D
:10134200A5EF09F0A7EF09F096EF09F0D89015364E
:1013520016361736183619361A361B361C360B5007
:10136200035C0C5004580D5005580E5006580F508F
:101372000758105008581150095812500A58D8A04E
:10138200C5EF09F0C7EF09F0D8EF09F00B50035E83
:101392000C50045A0D50055A0E50065A0F50075A57
:1013A2001050085A1150095A12500A5A1580D890F2
:1013B2001232113210320F320E320D320C320B3227
:1013C200132EA7EF09F01450D8B4EAEF09F0ECEFAE
:1013D20009F0FCEF09F01C1E1B1E1A1E191E181E16
:1013E200171E161E156C000E16221722182219221D
:1013F2001A221B221C2215C003F016C004F017C0CB
:1014020005F018C006F019C007F01AC008F01BC09A
:1014120009F01CC00AF01200000E146E0ABE16EF8C
:101422000AF014EF0AF028EF0AF00A1E091E081E3D
:10143200071E061E051E041E036C000E0422052252
:1014420006220722082209220A22010E146E12BE67
:101452002FEF0AF02DEF0AF03FEF0AF0121E111ED5
:10146200101E0F1E0E1E0D1E0C1E0B6C000E0C22EB
:101472000D220E220F221022112212220B500C10CA
:101482000D100E100F10101011101210D8B44CEFD6
:101492000AF04EEF0AF096EF0AF0010E136E5CEFBF
:1014A2000AF0D8900B360C360D360E360F36103643
:1014B20011361236132A12AE61EF0AF063EF0AF008
:1014C20052EF0AF00B50035C0C5004580D500558B3
:1014D2000E5006580F50075810500858115009580E
:1014E20012500A58D8A078EF0AF07AEF0AF08AEF81
:1014F2000AF00B50035E0C50045A0D50055A0E5060
:10150200065A0F50075A1050085A1150095A1250D1
:101512000A5AD8901232113210320F320E320D3274
:101522000C320B32132E63EF0AF01450D8B49CEF36
:101532000AF09EEF0AF0AEEF0AF00A1E091E081E1C
:10154200071E061E051E041E036C000E0422052241
:1015520006220722082209220A2203C003F004C03D
:1015620004F005C005F006C006F007C007F008C089
:1015720008F009C009F00AC00AF0120043C0D9FFFE
:1015820044C0DAFFDECFF6FFDDCFF7FF0800F550EB
:10159200250AD8A4CFEF0AF0D1EF0AF051EF0BF0F1
:1015A20043C0D9FF44C0DAFFDE2A000EDD22000E5E
:1015B2000001B16F000EB06FB0C0B8F0B269B3698C
:1015C20043C0D9FF44C0DAFFDECF51F0DDCF52F085
:1015D20051C0F6FF52C0F7FF0800F550640AD8B4B4
:1015E200F5EF0AF0F7EF0AF005EF0BF051C0F6FF46
:1015F20052C0F7FF0800F550690AD8A403EF0BF0B8
:1016020005EF0BF048EF0BF045C0D9FF46C0DAFFFB
:10161200DFCF47F0020EDE26DFCF48F0000EDD22DC
:1016220047C0D9FF48C0DAFFDECF49F0DDCF4AF02C
:10163200000E4ABEFF0E4B6E4C6E4D6E4E6E4F6EDE
:10164200506E010E5124476E000E5220486E43C068
:10165200D9FF44C0DAFF47C0DEFF48C0DDFF41C00A
:101662001EF042C01FF049C020F04AC021F04BC01A
:1016720022F04CC023F04DC024F04EC025F04FC0E4
:1016820026F050C027F009EC07F065EF0BF043C0DD
:10169200D9FF44C0DAFFDE2A000EDD2265EF0BF02F
:1016A20043C0D9FF44C0DAFFDECFF6FFDDCFF7FF3C
:1016B2000800F550036E046A41C005F042C006F00E
:1016C20066EC0BF048EF0BF0120005500610D8B490
:1016D2006DEF0BF06FEF0BF078EF0BF0055006108B
:1016E200D8A476EF0BF078EF0BF07DEF0BF0035000
:1016F2000AEC0FF0CAEF0BF020EE09F00550D926E4
:101702000650DA22DE50DE10D8B48AEF0BF08CEFEE
:101712000BF0A7EF0BF020EE09F00550D92606508A
:10172200DA2210EE03F00550E1260650E222DE50E6
:10173200E65CE650800A0B6EDE50800A0B58D8B089
:10174200A5EF0BF0A7EF0BF0CAEF0BF020EE03F0C2
:101752000550D9260650DA22DECF07F0DDCF08F099
:1017620005C0D9FF06C0DAFFDECF09F0DDCF0AF0EF
:1017720007500924D96E08500A20DA6E03C0DFFF31
:1017820020EE03F00550D9260650DA22DE2A000E9A
:10179200DD22120020EE02F00350D9260450DA2294
:1017A200DECF09F0DDCF0AF020EE04F00350D92697
:1017B2000450DA22DECF0BF0DDCF0CF020EE06F083
:1017C2000350D9260450DA22DECF07F0DDCF08F02D
:1017D2000B50095C0C500A58D8A0F2EF0BF0F4EF52
:1017E2000BF005EF0CF00750095C08500A58D8A01E
:1017F200FDEF0BF0FFEF0BF005EF0CF0000E066EA5
:10180200010E056E25EF0CF009500B5C0A500C58C6
:10181200D8A00EEF0CF010EF0CF021EF0CF00750F7
:101822000B5C08500C58D8A019EF0CF01BEF0CF011
:1018320021EF0CF0000E066E020E056E25EF0CF085
:10184200000E066E030E056E05C003F006C004F01E
:10185200120038EC0DF00EC0D9FF0FC0DAFF07C03E
:10186200DEFF08C0DDFF090E116E1E0E106EE40EC3
:10187200E82EFED7102EFCD7112EFAD700D010EC8E
:101882000DF020EE02F00E50D9260F50DA2207C0DA
:10189200DEFF08C0DDFF090E116E1E0E106EE40E93
:1018A200E82EFED7102EFCD7112EFAD700D060EC0E
:1018B2000DF020EE04F00E50D9260F50DA2207C0A8
:1018C200DEFF08C0DDFF090E116E1E0E106EE40E63
:1018D200E82EFED7102EFCD7112EFAD700D088ECB6
:1018E2000DF020EE06F00E50D9260F50DA2207C076
:1018F200DEFF08C0DDFF120018BE82EF0CF084EF9D
:101902000CF08AEF0CF017C01CF018C01DF08EEF1F
:101912000CF0000E1D6E000E1C6E000E1B6E000EF3
:101922001A6EA0EF0CF0000E046E200E036E13C0B0
:1019320005F014C006F066EC0BF01A4A1B2A1C5084
:101942001A5C1B50800A196E1D50800A1958D8A0C3
:10195200ADEF0CF0AFEF0CF094EF0CF015C00CF003
:1019620016C00DF013C00EF014C00FF0FAEC0DF01B
:10197200120075EC0EF0010E056E000EAFEC0EF0CB
:101982003F0E076E550EE82EFED7072EFCD700F04D
:10199200030E056E000EAFEC0EF0D50E056E010EB5
:1019A200AFEC0EF08892849684988890869080821C
:1019B2007C867C8880807E807C9E8096849E8896B1
:1019C20086840E01B4958686B4971200DF0E00015C
:1019D200E76F000EE86FDBC0E9F0DCC0EAF0000E52
:1019E200ED6F000EEC6F000EF36F000EF26FE90E5A
:1019F200536E000E546EDDC055F0DEC056F0E70E99
:101A0200576E000E586EB0EC0DF00001EC51DB2564
:101A1200D96EED51DC21DA6E000EDF6E120000ECA1
:101A22000FF0520EEAEC0EF0B60EEAEC0EF0F6EC07
:101A32000EF0530EEAEC0EF0010E1CEC0EF0096EE5
:101A420009500C6E0D6A000E1CEC0EF0096E095066
:101A52000B6E0A6A0C500A100C6E0D500B100D6EB4
:101A6200FBEC0EF00CC007F00DC008F0120000EC09
:101A72000FF0520EEAEC0EF0B40EEAEC0EF0F6ECB9
:101A82000EF0530EEAEC0EF0010E1CEC0EF0096E95
:101A920009500C6E0D6A000E1CEC0EF0096E095016
:101AA2000B6E0A6A0C500A100C6E0D500B100D6E64
:101AB200FBEC0EF00CC007F00DC008F0120000ECB9
:101AC2000FF0520EEAEC0EF0B80EEAEC0EF0F6EC65
:101AD2000EF0530EEAEC0EF0010E1CEC0EF0096E45
:101AE20009500C6E0D6A000E1CEC0EF0096E0950C6
:101AF2000B6E0A6A0C500A100C6E0D500B100D6E14
:101B0200FBEC0EF00CC007F00DC008F0120000EC68
:101B12000FF0520EEAEC0EF0BA0EEAEC0EF0F6EC12
:101B22000EF0530EEAEC0EF0010E1CEC0EF0096EF4
:101B320009500C6E0D6A000E1CEC0EF0096E095075
:101B42000B6E0A6A0C500A100C6E0D500B100D6EC3
:101B5200FBEC0EF00CC007F00DC008F0120055C0EF
:101B620059F056C05AF0C4EF0DF053C041F054C0C2
:101B720042F0590E436E000E446E57C045F058C0F5
:101B820046F0BFEC0AF059C0F6FF5AC0F7FF080052
:101B9200F5500009D8A4D0EF0DF0D2EF0DF0B6EF5A
:101BA2000DF0000E546E000E536E1200859485984F
:101BB200839E879C7D947D987B9E7F9CBD508F0BDE
:101BC2003009BD6EE00EBE16BF50F00B0109BF6EAC
:101BD2000350800DF304BC6EBD8E0A0E0E01746FAD
:101BE2000B0E696F000EA36E000EA06EA48EA18E66
:101BF2001200000E126E000E116E0BEF0EF010C0EE
:101C020003F0046A0EC005F00FC006F066EC0BF09C
:101C1200114A122A11500C24D96E12500D20DA6E7C
:101C2200DF50106E1050D8A419EF0EF01BEF0EF01B
:101C320000EF0EF01200056E8AEC0EF00E01DA874C
:101C42008AEC0EF0D5CE06F08AEC0EF00550D8B430
:101C52002DEF0EF031EF0EF0046A042A32EF0EF08F
:101C6200046A043A04460E01DA510418DF0B041820
:101C7200DA6FDA890650120016BE4AEF0EF01650DD
:101C820006E11504D8B048EF0EF04AEF0EF058EF17
:101C92000EF015C017F016C018F0171E181E174ABE
:101CA200182A17C015F018C016F05CEF0EF015C018
:101CB20015F016C016F0120068EF0EF004C0D9FF3E
:101CC20005C0DAFFDF50DEEC0EF0044A052A04C03C
:101CD200D9FF05C0DAFFDF50D8A472EF0EF074EF1F
:101CE2000EF05FEF0EF012000E01D951F00B080951
:101CF200D96FD98B9F0ED66F848A848CA79BA79DA0
:101D02001D0E1D6F1E0E1C6F1C0E6F6F1B0E706F53
:101D120012000E01D8B590EF0EF092EF0EF08AEF9E
:101D22000EF0DACE03F01F0E0316D8A49BEF0EF0CE
:101D32009DEF0EF08AEF0EF0120000EE60F07B0EC7
:101D4200EE6AE806FDE15C6A5B6A5D905D92000EF8
:101D5200F86E0E0EF76E000147EF08F0066E00EC0B
:101D62000FF0520EEAEC0EF006508009EAEC0EF08B
:101D72000550EAEC0EF0FBEC0EF01200D6501F0BF1
:101D82004009D66ED688D650F00B0709D66ED58894
:101D9200F60ED46E3B0ED36ED58E1200120E0E01CD
:101DA200626F110E156FE997E895670EE56F000EE9
:101DB200E66FE789E88BE78F1200036E0E0137A505
:101DC200E5EF0EF0E7EF0EF0DFEF0EF003C0E4FEFA
:101DD2001200046E8AEC0EF004C0D5FE12000E0151
:101DE200298BF28CF29AF28E12008AEC0EF00E011E
:101DF200DA8312008AEC0EF00E01DA8512008AEC08
:101E02000EF00E01DA8112000250D46E01C0D3FF2F
:041E120012001200A8
:020000040020DA
:10000000FF0FFF0FFF0FFF0FFF0FFF0FFF0FFF0F80
:020000040030CA
:0C000000AAFFFFFF9FFFFFFFFFFFFFFFB5
:00000001FF
