:040000002AEF00F0F3
:100008005D820E0133AB0BEF00F00DEF00F026EF31
:1000180000F07DA412EF00F014EF00F01EEF00F0E6
:100028000001B41D016EB51D026E76EC13F07D94CF
:1000380026EF00F00001B61D016EB71D026E76ECCA
:1000480013F07D840E01339B5D92110042EF13F093
:100E0000002564202564202564202564200D0A0027
:010E100000E1
:100E12001CEC11F0000E046E140E036E5DEC12F069
:100E220061EC13F023EC13F0D7EC12F033EC13F077
:100E3200000E01018C6F000E8D6FA30E8E6F0F0ED0
:100E42008F6F7D0E906F0F0E916F040E926F000EDA
:100E5200946FC80E936F000E956F000E966FA00EE2
:100E6200976F0F0E986F7F0E996F0F0E9A6F060E87
:100E72009B6F000E9D6FC80E9C6F8C0E116E010E43
:100E8200126E93EC09F0950E116E010E126E93EC38
:100E920009F0000E0101736F000E726F840E0E6E68
:100EA200010E0F6E5DEC0EF0000E0001DB6F010E05
:100EB200DC6F010EDD6F0E0EDE6F84C1DFF085C1C7
:100EC200E0F086C1E1F087C1E2F088C1E3F089C1B8
:100ED200E4F08AC1E5F08BC1E6F049EC11F0000EB6
:100EE200046E010E056EBFEC12F001016E056F116A
:100EF200D8A47EEF07F080EF07F086EF07F0704B83
:100F0200712B000E6F6F000E6E6F010E8EA6000E1B
:100F12008EA4000EE8B090EF07F095EF07F0000105
:100F2200F46BF42B97EF07F00001F46BF451D8A4A3
:100F32009DEF07F09FEF07F086EF07F08EB4A4EF66
:100F420007F0A6EF07F0A9EF07F07C8E33EF08F069
:100F5200808633EF08F07CAEB1EF07F0B3EF07F015
:100F62001AEF08F074517511D8B4BAEF07F0BCEF5C
:100F720007F027EF08F08C0E1C6E010E1D6E950E09
:100F82001E6E010E1F6E98EC10F07C0E0E6E010E9E
:100F92000F6E5DEC0EF07C0E036E010E046EFEEC25
:100FA2000DF003C076F104C077F1D89001017835D5
:100FB200D96E7935DA6E320ED926010EDA2276C171
:100FC200DEFF77C1DDFFD8907835D96E7935DA6EDC
:100FD200500ED926010EDA2270C1DEFF71C1DDFF8B
:100FE20074C124F075C125F08C0E266E010E276E99
:100FF200950E286E010E296EA2EC0CF00101784BC1
:10100200792B000E716F000E706F080E7619771132
:10101200D8B40EEF08F010EF08F027EF08F0000E3A
:10102200756F000E746F000E736F010E726F27EFF3
:1010320008F080A61FEF08F021EF08F027EF08F074
:101042007C0E0E6E010E0F6E5DEC0EF0110E0001A5
:10105200F56F3C0EF46FCB0EE82EFED7F42FFCD7C3
:10106200F52FFAD7010172517311D8B43BEF08F092
:101072003DEF08F0ACEF07F0000E7B6F000E7A6FC9
:101082007A4B7B2B7BBF4FEF08F07B5109E10F0EB0
:101092007A5DD8A04FEF08F051EF08F041EF08F069
:1010A20076EF07F02AEF00F020C036F021C037F0CB
:1010B20022C038F023C039F024C03AF025C03BF0FA
:1010C20026C03CF027C03DF03DBE6AEF08F06DEF50
:1010D20008F0010E6EEF08F0000E406E4050D8B4DA
:1010E20075EF08F077EF08F087EF08F03D1E3C1E21
:1010F2003B1E3A1E391E381E371E366C000E372232
:10110200382239223A223B223C223D220001B3BF3F
:1011120095EF08F0B35106E1B205D8B093EF08F0AD
:1011220095EF08F09BEF08F0000E336E010E326E61
:101132009FEF08F0B2C032F0B3C033F0B0C034F069
:10114200B1C035F04050D8B4A9EF08F0ABEF08F0C9
:10115200C2EF08F03406D8A035064050D8A4B4EF48
:1011620008F0B6EF08F0BCEF08F0000E316E2B0E5F
:10117200306EC0EF08F0000E316E2D0E306E30C0B2
:1011820040F0000E3F6E1F0E3E6E000EDA6F46EF0D
:1011920009F03E06D8A03F06BB0E3E24D96E000ED3
:1011A2003F20DA6E36C003F037C004F038C005F0D5
:1011B20039C006F03AC007F03BC008F03CC009F065
:1011C2003DC00AF00A0E0B6E000E0C6E000E0D6E84
:1011D200000E0E6E000E0F6E000E106E000E116EDF
:1011E200000E126E41EC0BF003C028F004C029F08F
:1011F20005C02AF006C02BF007C02CF008C02DF065
:1012020009C02EF00AC02FF028C015F029C016F030
:101212009FEC12F01550300FDF6E3206D8A0330665
:101222003406D8A0350636C003F037C004F038C003
:1012320005F039C006F03AC007F03BC008F03CC0E8
:1012420009F03DC00AF00A0E0B6E000E0C6E000E85
:101252000D6E000E0E6E000E0F6E000E106E000E62
:10126200116E000E126E7DEC0AF003C036F004C05F
:1012720037F005C038F006C039F007C03AF008C0B0
:101282003BF009C03CF00AC03DF03FBE51EF09F00F
:101292003F5008E13E04D8A051EF09F053EF09F0A6
:1012A2006FEF09F036503710381039103A103B10F2
:1012B2003C103D10D8A460EF09F062EF09F0CAEFCC
:1012C20008F033BE6FEF09F0335006E13204D8B0B4
:1012D2006DEF09F06FEF09F0CAEF08F04050D8B493
:1012E20075EF09F077EF09F082EF09F03E06D8A01A
:1012F2003F06BB0E3E24D96E000E3F20DA6E40C080
:10130200DFFF1EC013F01FC014F0BB0E3E24156E8B
:10131200000E3F20166E34C017F035C018F0DFEC17
:1013220010F0120020EE01F01150D9261250DA22EC
:10133200DF50D8B49FEF09F0A1EF09F0D2EF09F026
:1013420011C0D9FF12C0DAFFDF50136E1350036EC3
:10135200046A20EE07F01150D9261250DA22DECFAD
:1013620005F0DDCF06F000EC13F003C009F004C075
:101372000AF0000E0C6E640E0B6E9CEC0DF020EE6B
:1013820007F01150D9261250DA22DECF14F0DDCF49
:1013920015F00950145C1A6E0A5015581B6EF5EFC1
:1013A20009F011C0D9FF12C0DAFFDF50136E1350DB
:1013B200036E046A20EE07F01150D9261250DA2289
:1013C200DECF05F0DDCF06F000EC13F003C009F02C
:1013D20004C00AF0000E0C6E640E0B6E9CEC0DF055
:1013E20009C01AF00AC01BF020EE02F01150D926F3
:1013F2001250DA22DECF13F0DDCF14F013C0D9FF82
:1014020014C0DAFF1AC0DFFF20EE01F01150D92616
:101412001250DA22DF50D8B411EF0AF013EF0AF0BB
:1014220048EF0AF020EE04F01150D9261250DA22C9
:10143200DECF13F0DDCF14F013C0D9FF14C0DAFFF2
:1014420010EE04F01150E1261250E222E6CF15F020
:10145200E5CF16F015C0E1FF16C0E2FFE750176EA8
:1014620010EE06F01150E1261250E222E750186EFB
:10147200010E196E182A40EF0AF0D8901936182E6C
:101482003EEF0AF019501710DF6E7CEF0AF020EEE3
:1014920004F01150D9261250DA22DECF13F0DDCF3C
:1014A20014F013C0D9FF14C0DAFF10EE04F011508B
:1014B200E1261250E222E6CF15F0E5CF16F015C074
:1014C200E1FF16C0E2FFE750176E10EE06F0115072
:1014D200E1261250E222E750186E010E196E182A08
:1014E20075EF0AF0D8901936182E73EF0AF01950DA
:1014F200FF0A1714DF6E1200000E146E12BE86EF82
:101502000AF084EF0AF098EF0AF0121E111E101E64
:101512000F1E0E1E0D1E0C1E0B6C000E0C220D2239
:101522000E220F22102211221222010E146E0ABE66
:101532009FEF0AF09DEF0AF0B1EF0AF00A1E091EB2
:10154200081E071E061E051E041E036C000E042242
:10155200052206220722082209220A22010E141A53
:1015620020EE15F0070EDE6AE806FDE20B500C10C5
:101572000D100E100F10101011101210D8B4C4EF6D
:101582000AF0C6EF0AF018EF0BF0010E136ED4EF5B
:101592000AF0D8900B360C360D360E360F36103652
:1015A20011361236132A12AED9EF0AF0DBEF0AF027
:1015B200CAEF0AF0D890153616361736183619368D
:1015C2001A361B361C360B50035C0C5004580D5057
:1015D20005580E5006580F50075810500858115011
:1015E200095812500A58D8A0F9EF0AF0FBEF0AF096
:1015F2000CEF0BF00B50035E0C50045A0D50055AC1
:101602000E50065A0F50075A1050085A1150095AD4
:1016120012500A5A1580D8901232113210320F32FB
:101622000E320D320C320B32132EDBEF0AF0145055
:10163200D8B41EEF0BF020EF0BF030EF0BF01C1EB6
:101642001B1E1A1E191E181E171E161E156C000EC2
:1016520016221722182219221A221B221C2215C016
:1016620003F016C004F017C005F018C006F019C048
:1016720007F01AC008F01BC009F01CC00AF01200E3
:10168200000E146E0ABE4AEF0BF048EF0BF05CEF4F
:101692000BF00A1E091E081E071E061E051E041E4A
:1016A200036C000E042205220622072208220922C8
:1016B2000A22010E146E12BE63EF0BF061EF0BF003
:1016C20073EF0BF0121E111E101E0F1E0E1E0D1EAA
:1016D2000C1E0B6C000E0C220D220E220F22102269
:1016E200112212220B500C100D100E100F101010A0
:1016F20011101210D8B480EF0BF082EF0BF0CAEF8A
:101702000BF0010E136E90EF0BF0D8900B360C36E7
:101712000D360E360F36103611361236132A12AE29
:1017220095EF0BF097EF0BF086EF0BF00B50035C8D
:101732000C5004580D5005580E5006580F500758BB
:10174200105008581150095812500A58D8A0ACEF3E
:101752000BF0AEEF0BF0BEEF0BF00B50035E0C5034
:10176200045A0D50055A0E50065A0F50075A10507F
:10177200085A1150095A12500A5AD890123211328C
:1017820010320F320E320D320C320B32132E97EF13
:101792000BF01450D8B4D0EF0BF0D2EF0BF0E2EF15
:1017A2000BF00A1E091E081E071E061E051E041E39
:1017B200036C000E042205220622072208220922B7
:1017C2000A2203C003F004C004F005C005F006C0FD
:1017D20006F007C007F008C008F009C009F00AC007
:1017E2000AF0120043C0D9FF44C0DAFFDECFF6FF91
:1017F200DDCFF7FF000EF86E0800F550250AD8A4D9
:1018020005EF0CF007EF0CF08BEF0CF043C0D9FFA3
:1018120044C0DAFFDE2A000EDD22000E0001B16FA5
:10182200000EB06FB0C0B8F0B269B36943C0D9FF5F
:1018320044C0DAFFDECF51F0DDCF52F051C0F6FFE7
:1018420052C0F7FF000EF86E0800F550640AD8B4D3
:101852002DEF0CF02FEF0CF03FEF0CF051C0F6FF24
:1018620052C0F7FF000EF86E0800F550690AD8A4BE
:101872003DEF0CF03FEF0CF082EF0CF045C0D9FFCA
:1018820046C0DAFFDFCF47F0020EDE26DFCF48F098
:10189200000EDD2247C0D9FF48C0DAFFDECF49F093
:1018A200DDCF4AF0000E4ABEFF0E4B6E4C6E4D6EFF
:1018B2004E6E4F6E506E010E5124476E000E522036
:1018C200486E43C0D9FF44C0DAFF47C0DEFF48C0BC
:1018D200DDFF41C01EF042C01FF049C020F04AC0E7
:1018E20021F04BC022F04CC023F04DC024F04EC07A
:1018F20025F04FC026F050C027F055EC08F0A1EFBC
:101902000CF043C0D9FF44C0DAFFDE2A000EDD220C
:10191200A1EF0CF043C0D9FF44C0DAFFDECFF6FFDF
:10192200DDCFF7FF000EF86E0800F550036E046A73
:1019320041C005F042C006F037EC0DF082EF0CF02A
:1019420012000CEF0DF026C01CF027C01DF028C0BD
:101952001EF029C01FF0B0EC0EF036EF0DF026C0DD
:101962001CF027C01DF028C01EF029C01FF002EC99
:101972000FF036EF0DF026C01CF027C01DF028C076
:101982001EF029C01FF054EC0FF036EF0DF026C008
:101992001CF027C01DF028C01EF029C01FF0F6EC75
:1019A2000FF026C01CF027C01DF028C01EF029C071
:1019B2001FF0B0EC0EF036EF0DF026C01CF027C081
:1019C2001DF028C01EF029C01FF0F6EC0FF026C053
:1019D2001CF027C01DF028C01EF029C01FF002EC29
:1019E2000FF036EF0DF026C01CF027C01DF028C006
:1019F2001EF029C01FF0A5EC0FF036EF0DF026C047
:101A02001CF027C01DF028C01EF029C01FF047ECB3
:101A120010F036EF0DF024C02AF025C02BF02B5029
:101A2200000AD8B417EF0DF036EF0DF02A50010A74
:101A3200D8B4A4EF0CF0030AD8B4B0EF0CF0010A4A
:101A4200D8B4BCEF0CF0070AD8B4C8EF0CF0010A06
:101A5200D8B4DEEF0CF0030AD8B4F4EF0CF0010AAC
:101A6200D8B400EF0DF036EF0DF01200055006105D
:101A7200D8B43EEF0DF040EF0DF049EF0DF00550F8
:101A82000610D8A447EF0DF049EF0DF04EEF0DF020
:101A920003507BEC13F09BEF0DF020EE09F00550A4
:101AA200D9260650DA22DE50DE10D8B45BEF0DF0F4
:101AB2005DEF0DF078EF0DF020EE09F00550D9261C
:101AC2000650DA2210EE03F00550E1260650E2221B
:101AD200DE50E65CE650800A0B6EDE50800A0B5840
:101AE200D8B076EF0DF078EF0DF09BEF0DF020EE11
:101AF20003F00550D9260650DA22DECF07F0DDCFFB
:101B020008F005C0D9FF06C0DAFFDECF09F0DDCF4D
:101B12000AF007500924D96E08500A20DA6E03C071
:101B2200DFFF20EE03F00550D9260650DA22DE2A26
:101B3200000EDD221200000E0E6E0CBEA5EF0DF09F
:101B4200A3EF0DF0ABEF0DF00B6C0C1ED8B00C2A0E
:101B5200010E0E6E0ABEB2EF0DF0B0EF0DF0B8EF4F
:101B62000DF0096C0A1ED8B00A2A010E0E1A000ED8
:101B7200106E000E0F6E0B500C10D8B4C3EF0DF0A8
:101B8200C5EF0DF0EDEF0DF0010E0D6ECDEF0DF086
:101B9200D8900B360C360D2A0CAED2EF0DF0D4EFE6
:101BA2000DF0C9EF0DF0D8900F3610360B50095CCE
:101BB2000C500A58D8A0E0EF0DF0E2EF0DF0E7EF7D
:101BC2000DF00B50095E0C500A5A0F80D8900C325F
:101BD2000B320D2ED4EF0DF00E50D8B4F3EF0DF002
:101BE200F5EF0DF0F9EF0DF00F6C101ED8B0102AC2
:101BF2000FC009F010C00AF0120020EE02F00350EC
:101C0200D9260450DA22DECF09F0DDCF0AF020EE29
:101C120004F00350D9260450DA22DECF0BF0DDCFD8
:101C22000CF020EE06F00350D9260450DA22DECF63
:101C320007F0DDCF08F00B50095C0C500A58D8A011
:101C420025EF0EF027EF0EF038EF0EF00750095C8B
:101C520008500A58D8A030EF0EF032EF0EF038EFED
:101C62000EF0000E066E010E056E58EF0EF00950D2
:101C72000B5C0A500C58D8A041EF0EF043EF0EF067
:101C820054EF0EF007500B5C08500C58D8A04CEFE4
:101C92000EF04EEF0EF054EF0EF0000E066E020E36
:101CA200056E58EF0EF0000E066E030E056E05C0AF
:101CB20003F006C004F01200C3EC11F00EC0D9FF0D
:101CC2000FC0DAFF07C0DEFF08C0DDFF090E116E8C
:101CD2001E0E106EE40EE82EFED7102EFCD7112E2B
:101CE200FAD700D09BEC11F020EE02F00E50D9266C
:101CF2000F50DA2207C0DEFF08C0DDFF090E116EA9
:101D02001E0E106EE40EE82EFED7102EFCD7112EFA
:101D1200FAD700D0EBEC11F020EE04F00E50D926E9
:101D22000F50DA2207C0DEFF08C0DDFF090E116E78
:101D32001E0E106EE40EE82EFED7102EFCD7112ECA
:101D4200FAD700D013EC12F020EE06F00E50D9268E
:101D52000F50DA2207C0DEFF08C0DDFF120020EEBE
:101D620001F01C50D9261D50DA22010EDF6E20EE42
:101D720001F01E50D9261F50DA22000EDF6E000E2F
:101D8200236E000E226E1CC0D9FF1DC0DAFF22C0D6
:101D9200DFFF2250320F1EC0D9FF1FC0DAFFDF6EF5
:101DA2001CC011F01DC012F093EC09F01EC011F01E
:101DB2001FC012F093EC09F0350EE82EFED700F0AA
:101DC200020E2224226E000E2320236E23BEF3EF86
:101DD2000EF0235009E1320E225CD8A0F3EF0EF090
:101DE200F5EF0EF0C4EF0EF00E0E216E650E206EB2
:101DF200870EE82EFED7202EFCD7212EFAD700F030
:101E0200120020EE01F01C50D9261D50DA22000EDD
:101E1200DF6E20EE01F01E50D9261F50DA22010E8D
:101E2200DF6E000E236E000E226E2250320F1CC097
:101E3200D9FF1DC0DAFFDF6E1EC0D9FF1FC0DAFF57
:101E420022C0DFFF1CC011F01DC012F093EC09F09C
:101E52001EC011F01FC012F093EC09F0350EE82EEF
:101E6200FED700F0020E2224226E000E2320236EE3
:101E720023BE45EF0FF0235009E1320E225CD8A0B9
:101E820045EF0FF047EF0FF016EF0FF00E0E216E39
:101E9200650E206E870EE82EFED7202EFCD7212E4F
:101EA200FAD700F0120020EE01F01C50D9261D5086
:101EB200DA22010EDF6E20EE01F01E50D9261F50ED
:101EC200DA22000EDF6E000E236E000E226E1CC0A0
:101ED200D9FF1DC0DAFF22C0DFFF2250320F1EC021
:101EE200D9FF1FC0DAFFDF6E1CC011F01DC012F057
:101EF20093EC09F01EC011F01FC012F093EC09F030
:101F0200350EE82EFED700F0020E2224226E000EBD
:101F12002320236E23BE97EF0FF0235009E1320EE8
:101F2200225CD8A097EF0FF099EF0FF068EF0FF057
:101F3200180E216E8A0E206EE80EE82EFED7202E95
:101F4200FCD7212EFAD7120020EE01F01C50D92620
:101F52001D50DA22010EDF6E20EE01F01E50D9264E
:101F62001F50DA22000EDF6E000E236E000E226E6C
:101F72001CC0D9FF1DC0DAFF22C0DFFF2250320F82
:101F82001EC0D9FF1FC0DAFFDF6E1CC011F01DC0DA
:101F920012F093EC09F01EC011F01FC012F093EC86
:101FA20009F0350EE82EFED700F0020E2224226E32
:101FB200000E2320236E23BEE8EF0FF0235009E129
:101FC200320E225CD8A0E8EF0FF0EAEF0FF0B9EF83
:101FD2000FF0130E216EAC0E206E2A0EE82EFED7E5
:101FE200202EFCD7212EFAD7120020EE01F01C5031
:101FF200D9261D50DA22000EDF6E20EE01F01E50AF
:10200200D9261F50DA22000EDF6E000E236E000E5C
:10201200226E1CC0D9FF1DC0DAFF22C0DFFF1EC026
:10202200D9FF1FC0DAFF22C0DFFF1CC011F01DC0A4
:1020320012F093EC09F01EC011F01FC012F093ECE5
:1020420009F0350EE82EFED700F0020E2224226E91
:10205200000E2320236E23BE38EF10F0235009E137
:10206200330E225CD8A038EF10F03AEF10F00AEFEE
:1020720010F05A0E216E490E206EE70EE82EFED7A2
:10208200202EFCD7212EFAD700F0120020EE01F00C
:102092001C50D9261D50DA22000EDF6E20EE01F010
:1020A2001E50D9261F50DA22010EDF6E000E236E5B
:1020B200000E226E2250320F1CC0D9FF1DC0DAFF63
:1020C200DF6E1EC0D9FF1FC0DAFF22C0DFFF1CC0B7
:1020D20011F01DC012F093EC09F01EC011F01FC0E8
:1020E20012F093EC09F0350EE82EFED700F0020E46
:1020F2002224226E000E2320236E23BE8AEF10F0CC
:10210200235009E1320E225CD8A08AEF10F08CEF46
:1021120010F05BEF10F0130E216EAC0E206E2A0E43
:10212200E82EFED7202EFCD7212EFAD7120020EE61
:1021320001F01C50D9261D50DA22000EDF6E20EE6F
:1021420001F01E50D9261F50DA22000EDF6E000E5B
:10215200226E050E216E1CC0D9FF1DC0DAFF21C000
:10216200DFFF1EC0D9FF1FC0DAFF21C0DFFF1CC086
:1021720011F01DC012F093EC09F01EC011F01FC047
:1021820012F093EC09F0D00E206ECA0EE82EFED7A4
:10219200202EFCD7FF0E2124216EFF0E2220226E5C
:1021A20022BEDEEF10F0225006E12104D8B0DCEFAF
:1021B20010F0DEEF10F0ACEF10F0120018BEE4EFFA
:1021C20010F0E6EF10F0ECEF10F017C01CF018C0A2
:1021D2001DF0F0EF10F0000E1D6E000E1C6E000ED2
:1021E2001B6E000E1A6E02EF11F0000E046E200E2E
:1021F200036E13C005F014C006F037EC0DF01A4A56
:102202001B2A1C501A5C1B50800A196E1D50800A32
:102212001958D8A00FEF11F011EF11F0F6EF10F0EE
:1022220015C00CF016C00DF013C00EF014C00FF064
:102232003BEC12F01200D7EC12F0010E056E000E0C
:1022420013EC13F03F0E076E550EE82EFED7072E45
:10225200FCD700F0030E056E000E13EC13F0D50E42
:10226200056E010E13EC13F0889284968498889080
:10227200869080827C867C8880807E807C9E809610
:10228200849E889686840E01B4958686B497120041
:10229200DF0E0001E76F000EE86FDBC0E9F0DCC083
:1022A200EAF0000EED6F000EEC6F000EF36F000E01
:1022B200F26FE90E536E000E546EDDC055F0DEC0B3
:1022C20056F0E70E576E000E586E72EC11F00001D8
:1022D200EC51DB25D96EED51DC21DA6E000EDF6E9A
:1022E200120055C059F056C05AF086EF11F053C093
:1022F20041F054C042F0590E436E000E446E57C076
:1023020045F058C046F0F3EC0BF059C0F6FF5AC046
:10231200F7FF000EF86E0800F5500009D8A494EFFC
:1023220011F096EF11F078EF11F0000E546E000EDE
:10233200536E120071EC13F0520E5BEC13F0B60EFA
:102342005BEC13F067EC13F0530E5BEC13F0010E31
:102352007EEC12F0096E09500C6E0D6A000E7EECD6
:1023620012F0096E09500B6E0A6A0C500A100C6EBC
:102372000D500B100D6E6CEC13F00CC007F00DC07D
:1023820008F0120071EC13F0520E5BEC13F0B40E75
:102392005BEC13F067EC13F0530E5BEC13F0010EE1
:1023A2007EEC12F0096E09500C6E0D6A000E7EEC86
:1023B20012F0096E09500B6E0A6A0C500A100C6E6C
:1023C2000D500B100D6E6CEC13F00CC007F00DC02D
:1023D20008F0120071EC13F0520E5BEC13F0B80E21
:1023E2005BEC13F067EC13F0530E5BEC13F0010E91
:1023F2007EEC12F0096E09500C6E0D6A000E7EEC36
:1024020012F0096E09500B6E0A6A0C500A100C6E1B
:102412000D500B100D6E6CEC13F00CC007F00DC0DC
:1024220008F0120071EC13F0520E5BEC13F0BA0ECE
:102432005BEC13F067EC13F0530E5BEC13F0010E40
:102442007EEC12F0096E09500C6E0D6A000E7EECE5
:1024520012F0096E09500B6E0A6A0C500A100C6ECB
:102462000D500B100D6E6CEC13F00CC007F00DC08C
:1024720008F01200000E126E000E116E4CEF12F0F8
:1024820010C003F0046A0EC005F00FC006F037EC6E
:102492000DF0114A122A11500C24D96E12500D203F
:1024A200DA6EDF50106E1050D8A45AEF12F05CEFC3
:1024B20012F041EF12F0120085948598839E879C5A
:1024C2007D947D987B9E7F9CBD508F0B3009BD6EA5
:1024D200E00EBE16BF50F00B0109BF6E03C0BCFF79
:1024E200BD8E0A0E0E01746F0B0E696F000EA36E85
:1024F200000EA06EA48EA18E1200056EECEC12F0FE
:102502000E01DA87ECEC12F0D5CE06F0ECEC12F00C
:102512000550D8B48FEF12F093EF12F0046A042A38
:1025220094EF12F0046A043A04460E01DA510418D8
:10253200DF0B0418DA6FDA890650120016BEACEF10
:1025420012F0165006E11504D8B0AAEF12F0ACEF63
:1025520012F0BAEF12F015C017F016C018F0171EDD
:10256200181E174A182A17C015F018C016F0BEEF29
:1025720012F015C015F016C016F01200CAEF12F0D4
:1025820004C0D9FF05C0DAFFDF504FEC13F0044A54
:10259200052A04C0D9FF05C0DAFFDF50D8A4D4EF62
:1025A20012F0D6EF12F0C1EF12F012000E01D95163
:1025B200F00B0809D96FD98B9F0ED66F848A848C51
:1025C200A79BA79D1D0E1D6F1E0E1C6F1C0E6F6F0D
:1025D2001B0E706F12000E01D8B5F2EF12F0F4EF7D
:1025E20012F0ECEF12F0DACE03F01F0E0316D8A4AD
:1025F200FDEF12F0FFEF12F0ECEF12F012000350B9
:102602000502F3CF07F0F4CF08F003500602F350AF
:10261200082604500502F350082607C003F008C03C
:1026220004F01200066E71EC13F0520E5BEC13F024
:10263200065080095BEC13F005505BEC13F06CEC78
:1026420013F01200D6501F0B4009D66ED688D65012
:10265200F00B0709D66ED588F60ED46E3B0ED36EFC
:10266200D58E1200120E0E01626F110E156FE997D0
:10267200E895670EE56F000EE66FE789E88BE78F56
:10268200120000EE60F07B0EEE6AE806FDE15C6A85
:102692005B6A5D905D92000109EF07F0036E0E0127
:1026A20037A556EF13F058EF13F050EF13F003C0B5
:1026B200E4FE1200046EECEC12F004C0D5FE12002F
:1026C2000E01298BF28CF29AF28E1200ECEC12F0CF
:1026D2000E01DA831200ECEC12F00E01DA85120020
:1026E200ECEC12F00E01DA8112000250D46E01C03D
:0626F200D3FF12001200EC
:020000040020DA
:10000000FF0FFF0FFF0FFF0FFF0FFF0FFF0FFF0F80
:020000040030CA
:0C000000AAFFFFFF9FFFFFFFFFFFFFFFB5
:00000001FF
