:040000001FEF00F0FE
:1000080056820E0133BB0BEF00F00DEF00F014EF3A
:1000180000F08EB412EF00F014EF00F01DEF00F0C6
:100028000101E24BE32BDB0ED36E0B0ED46E0E01F7
:10003800339B56921100C2EF0EF0B3EC0DF0000E98
:10004800026E140E016E80EC0EF044EC0FF025ECFD
:100058000FF0D9EC0EF035EC0FF0000E0101946FA3
:10006800000E956FA30E966F0F0E976F7D0E986F0B
:100078000F0E996F040E9A6F000E9C6FC70E9B6F40
:10008800000E9D6F000E9E6FA00E9F6F0F0EA06F4B
:100098007F0EA16F0F0EA26F060EA36F000EA56F45
:1000A800C70EA46F940E0F6E010E106E56EC07F07B
:1000B8009D0E0F6E010E106E56EC07F0000E01013A
:1000C800896F000E886F21EE40F01D0EDE6AE8068B
:1000D800FDE221EE5EF01D0EDE6AE806FDE2010E8D
:1000E8008EA6000E8EA4000EE8B07DEF00F081EF22
:1000F80000F0386A382A82EF00F0386A3850D8A4FD
:1001080088EF00F08AEF00F073EF00F08EB48FEF05
:1001180000F091EF00F094EF00F07C8E95EF00F086
:100128008086000E236E010E226E940E246E010E40
:10013800256E9D0E266E010E276E06EC03F0A30EAB
:10014800396E570E386E020EE82EFED7382EFCD7C1
:10015800392EFAD700D0000E236E020E226E940EAE
:10016800246E010E256E9D0E266E010E276E06EC7E
:1001780003F0A30E396E570E386E020EE82EFED726
:10018800382EFCD7392EFAD700D0000E236E030E76
:10019800226E940E246E010E256E9D0E266E010EA3
:1001A800276E06EC03F0A30E396E570E386E020E5A
:1001B800E82EFED7382EFCD7392EFAD700D0000EFD
:1001C800236E040E226E940E246E010E256E9D0E73
:1001D800266E010E276E06EC03F0A30E396E570E3D
:1001E800386E020EE82EFED7382EFCD7392EFAD7F5
:1001F80000D0000E236E050E226E940E246E010EA2
:10020800256E9D0E266E010E276E06EC03F0A30EDA
:10021800396E570E386E020EE82EFED7382EFCD7F0
:10022800392EFAD700D0000E236E060E226E940ED9
:10023800246E010E256E9D0E266E010E276E06ECAD
:1002480003F0A30E396E570E386E020EE82EFED755
:10025800382EFCD7392EFAD700D0000E236E070EA1
:10026800226E940E246E010E256E9D0E266E010ED2
:10027800276E06EC03F0A30E396E570E386E020E89
:10028800E82EFED7382EFCD7392EFAD700D0940E98
:100298001A6E010E1B6E9D0E1C6E010E1D6E6CEC0F
:1002A8000DF0A30E396E570E386E020EE82EFED7EB
:1002B800382EFCD7392EFAD700D0A30E396E570E38
:1002C800386E020EE82EFED7382EFCD7392EFAD714
:1002D80000D0A30E396E570E386E020EE82EFED7E8
:1002E800382EFCD7392EFAD700D0A30E396E570E08
:1002F800386E020EE82EFED7382EFCD7392EFAD7E4
:1003080000D0A30E396E570E386E020EE82EFED7B7
:10031800382EFCD7392EFAD700D054EF02F0000E51
:10032800E36F000EE26F000E236E000E226E940E35
:10033800246E010E256E9D0E266E010E276E06ECAC
:1003480003F0290E396E960E386E7F0EE82EFED712
:10035800382EFCD7392EFAD700F08C0E0C6E010E11
:100368000D6E90EC0AF001017E518C5D7F518D5924
:10037800D8B0C1EF01F0C3EF01F0D2EF01F08C511A
:100388007C5D8D517D59D8B0CCEF01F0CEEF01F0F6
:10039800D2EF01F0000E816F010E806F8051811144
:1003A800D8B4D9EF01F0DBEF01F048EF02F080801C
:1003B8007E80940E1A6E010E1B6E9D0E1C6E010E31
:1003C8001D6E6CEC0DF08C0E0C6E010E0D6E90EC2B
:1003D8000AF07CAEF2EF01F0F4EF01F004EF02F066
:1003E8008C0E016E010E026E000E036E010E046E7D
:1003F8001AEC09F001C088F102C089F112EF02F08D
:100408008C0E346E010E356E000E366E010E376E90
:1004180064EC0FF034C088F135C089F1D89001013F
:100428008435D96E8535DA6E400ED926010EDA226A
:1004380088C1DEFF89C1DDFFD8908435D96E853546
:10044800DA6E5E0ED926010EDA22E2C1DEFFE3C1C2
:10045800DDFF88C122F089C123F0940E246E010EBD
:10046800256E9D0E266E010E276E06EC03F0010127
:10047800844B852B000EE36F000EE26F000E816F38
:10048800000E806F80907E90110E396E3C0E386E93
:10049800CB0EE82EFED7382EFCD7392EFAD700F02F
:1004A800080E010188198911D8A45DEF02F05FEFE9
:1004B80002F093EF01F0940E1A6E010E1B6E9D0E62
:1004C8001C6E010E1D6E87EC0BF0000E0101876F8C
:1004D800000E866F87BF7CEF02F0875107E10D0E93
:1004E800865DD8B07AEF02F07CEF02F07EEF02F082
:1004F80095EF02F080A683EF02F087EF02F0386AEA
:10050800382A88EF02F0386A38463846384680502C
:100518003818F70B3818806E0101864B872B6EEF61
:1005280002F0000E8B6F0F0E8A6F8BBFA6EF02F0E2
:100538008B5106E18A05D8B0A4EF02F0A6EF02F0CD
:10054800A8EF02F073EF00F0F29E000E836F000E2A
:10055800826FD8908A35D96E8B35DA6E400ED926DF
:10056800010EDA22DECF22F0DDCF23F0940E246EC6
:10057800010E256E9D0E266E010E276E06EC03F009
:10058800940E1A6E010E1B6E9D0E1C6E010E1D6ED2
:10059800CBEC0CF0DFEF02F0050E396E0F0E386E63
:1005A800F10EE82EFED7382EFCD7392EFAD700F0F8
:1005B8000101824B832BD89001018A35D96E8B3586
:1005C800DA6E5E0ED926010EDA22DE50825DDE502A
:1005D8008359D8A0F2EF02F0F4EF02F0D0EF02F066
:1005E800940E1A6E010E1B6E9D0E1C6E010E1D6E72
:1005F8006CEC0DF001018A07D8A08B0799EF02F087
:100608001FEF00F00EEF05F024C01AF025C01BF014
:1006180026C01CF027C01DF01CEC0DF024C01AF0F9
:1006280025C01BF026C01CF027C01DF06CEC0DF097
:10063800290E296E960E286E7F0EE82EFED7282EDC
:10064800FCD7292EFAD700F024C01AF025C01BF0D9
:1006580026C01CF027C01DF0E3EC0AF024C01AF0F5
:1006680025C01BF026C01CF027C01DF06CEC0DF057
:10067800290E296E960E286E7F0EE82EFED7282E9C
:10068800FCD7292EFAD700F024C01AF025C01BF099
:1006980026C01CF027C01DF0E3EC0AF024C01AF0B5
:1006A80025C01BF026C01CF027C01DF06CEC0DF017
:1006B80040EF05F024C01AF025C01BF026C01CF03E
:1006C80027C01DF01CEC0DF024C01AF025C01BF04B
:1006D80026C01CF027C01DF06CEC0DF0290E296E09
:1006E800960E286E7F0EE82EFED7282EFCD7292ED0
:1006F800FAD700F024C01AF025C01BF026C01CF061
:1007080027C01DF035EC0BF024C01AF025C01BF0F3
:1007180026C01CF027C01DF06CEC0DF040EF05F072
:1007280024C01AF025C01BF026C01CF027C01DF0FD
:100738001CEC0DF024C01AF025C01BF026C01CF0DC
:1007480027C01DF06CEC0DF0290E296E960E286E50
:100758007F0EE82EFED7282EFCD7292EFAD700F0D8
:1007680024C01AF025C01BF026C01CF027C01DF0BD
:1007780035EC0BF024C01AF025C01BF026C01CF085
:1007880027C01DF06CEC0DF0290E296E960E286E10
:100798007F0EE82EFED7282EFCD7292EFAD700F098
:1007A80024C01AF025C01BF026C01CF027C01DF07D
:1007B80035EC0BF024C01AF025C01BF026C01CF045
:1007C80027C01DF06CEC0DF040EF05F024C01AF0C6
:1007D80025C01BF026C01CF027C01DF029EC0CF02A
:1007E80024C01AF025C01BF026C01CF027C01DF03D
:1007F8006CEC0DF01CEF03F024C01AF025C01BF0C0
:1008080026C01CF027C01DF029EC0CF024C01AF0FB
:1008180025C01BF026C01CF027C01DF06CEC0DF0A5
:1008280072EF03F024C01AF025C01BF026C01CF09C
:1008380027C01DF01CEC0DF024C01AF025C01BF0D9
:1008480026C01CF027C01DF06CEC0DF0290E296E97
:10085800960E286E7F0EE82EFED7282EFCD7292E5E
:10086800FAD700F024C01AF025C01BF026C01CF0EF
:1008780027C01DF0D8EC0BF024C01AF025C01BF0DF
:1008880026C01CF027C01DF06CEC0DF0290E296E57
:10089800960E286E7F0EE82EFED7282EFCD7292E1E
:1008A800FAD700F024C01AF025C01BF026C01CF0AF
:1008B80027C01DF0D8EC0BF024C01AF025C01BF09F
:1008C80026C01CF027C01DF06CEC0DF040EF05F0C1
:1008D80024C01AF025C01BF026C01CF027C01DF04C
:1008E8001CEC0DF024C01AF025C01BF026C01CF02B
:1008F80027C01DF06CEC0DF0290E296E960E286E9F
:100908007F0EE82EFED7282EFCD7292EFAD700F026
:1009180024C01AF025C01BF026C01CF027C01DF00B
:100928007AEC0CF088EF03F024C01AF025C01BF015
:1009380026C01CF027C01DF01CEC0DF024C01AF0D6
:1009480025C01BF026C01CF027C01DF06CEC0DF074
:10095800290E296E960E286E7F0EE82EFED7282EB9
:10096800FCD7292EFAD700F024C01AF025C01BF0B6
:1009780026C01CF027C01DF035EC0BF024C01AF07F
:1009880025C01BF026C01CF027C01DF06CEC0DF034
:10099800410E296EF00E286E330EE82EFED7282E53
:1009A800FCD7292EFAD700F024C01AF025C01BF076
:1009B80026C01CF027C01DF035EC0BF024C01AF03F
:1009C80025C01BF026C01CF027C01DF06CEC0DF0F4
:1009D80024C01AF025C01BF026C01CF027C01DF04B
:1009E8006CEC0DF024C01AF025C01BF026C01CF0DA
:1009F80027C01DF0CBEC0CF0210E296E780E286E66
:100A0800980EE82EFED7282EFCD7292EFAD700D02C
:100A180088EF03F022C028F023C029F02950000AEB
:100A2800D8B419EF05F040EF05F02850000AD8B403
:100A3800ECEF04F0010AD8B408EF03F0030AD8B4C5
:100A48005EEF03F0010AD8B494EF03F0070AD8B4B4
:100A5800EAEF03F0010AD8B400EF04F0030AD8B4AF
:100A680016EF04F0010AD8B46CEF04F00F0AD8B4FA
:100A780098EF04F040EF05F012001250800B1B6E47
:100A880012501224216E11AE4CEF05F04EEF05F016
:100A98004FEF05F021802150D8B455EF05F057EFFE
:100AA80005F06AEF05F02128D8A45DEF05F05FEFA7
:100AB80005F067EF05F0000E0F6E000E106E000EC9
:100AC800116E000E126E118E72EF05F0000E0F6E91
:100AD800000E106E000E116E000E126E1650800B76
:100AE8001B1A16501624206E15AE7DEF05F07FEF09
:100AF80005F080EF05F020802050D8B486EF05F08F
:100B080088EF05F09BEF05F02028D8A48EEF05F0BC
:100B180090EF05F098EF05F0000E136E000E146EBE
:100B2800000E156E000E166E158EA3EF05F0000E62
:100B3800136E000E146E000E156E000E166E205009
:100B4800D8B4A9EF05F0ABEF05F0B3EF05F02150ED
:100B5800D8A4B1EF05F0B3EF05F0BDEF05F0000E36
:100B68000F6E000E106E000E116E000E126E55EF15
:100B780007F015500F02F3CF26F0F4CF27F02650D8
:100B88001C6E1D6A1E6A1F6A2750226E236A246A19
:100B9800256A14501002F3CF26F0F4CF27F0265020
:100BA8001C26000E1D221E221F2227502226000E60
:100BB80023222422252213501102F3CF26F0F4CF4A
:100BC80027F026501C26000E1D221E221F22275009
:100BD8002226000E2322242225221EC01FF01DC01B
:100BE8001EF01CC01DF01C6A13501002F3CF26F033
:100BF800F4CF27F026501C2627501D22000E1E2257
:100C0800000E1F2214500F02F3CF26F0F4CF27F066
:100C180026501C2627501D22000E1E22000E1F22C1
:100C28001EC01FF01DC01EF01CC01DF01C6A135012
:100C38000F02F3CF26F0F4CF27F026501C262750BA
:100C48001D22000E1E22000E1F2215501002F3CF87
:100C580026F0F4CF27F02650222627502322000E14
:100C68002422000E252214501102F3CF26F0F4CFCF
:100C780027F02650222627502322000E2422000E79
:100C8800252215501102F3CF26F0F4CF27F0265075
:100C9800176E2750186E196A1A6A19C01AF018C008
:100CA80019F017C018F0176A175022261850232277
:100CB800195024221A5025221CC017F01DC018F004
:100CC8001EC019F01FC01AF0190E70EF06F0D89068
:100CD8001A32193218321732E82E6BEF06F0175015
:100CE800222618502322195024221A5025221EC0C9
:100CF8001FF01DC01EF01CC01DF01C6A205021C032
:100D080017F0186A1726000E1822820E1724266E6E
:100D1800FF0E1820276EA6EF06F0D890223623364D
:100D2800243625361FAE9BEF06F09DEF06F09EEFAA
:100D380006F02280D8901C361D361E361F36260631
:100D4800D8A0270624AEABEF06F0ADEF06F091EF82
:100D580006F0000E206E1FAEB4EF06F0B6EF06F0F8
:100D6800DAEF06F0FF0E1C14176EFF0E1D14186E36
:100D7800FF0E1E14196E7F0E1F141A6E17501810CE
:100D880019101A10D8B4CBEF06F0CDEF06F0D1EF5A
:100D980006F0010E206EDAEF06F022A0D6EF06F07C
:100DA800D8EF06F0DAEF06F0CDEF06F02050D8B411
:100DB800E0EF06F0E2EF06F006EF07F0010E22265C
:100DC800000E23222422252225A0EDEF06F0EFEFC6
:100DD80006F006EF07F022C017F023C018F024C071
:100DE80019F025C01AF01A341A321932183217328B
:100DF80017C022F018C023F019C024F01AC025F03B
:100E0800264A272A27BE11EF07F0275008E126288F
:100E1800D8A011EF07F013EF07F01DEF07F0000E51
:100E2800226E000E236E800E246E7F0E256E4BEF11
:100E380007F027BE2AEF07F0275006E12604D8B0AE
:100E480028EF07F02AEF07F036EF07F0000E226EC2
:100E5800000E236E000E246E000E256E000E1B6E13
:100E68004BEF07F026C021F0FF0E2216FF0E2316C7
:100E78007F0E2416000E251621A045EF07F047EF38
:100E880007F048EF07F0248ED8902130256E1B50CC
:100E9800251222C00FF023C010F024C011F025C085
:100EA80012F0120020EE01F00F50D9261050DA226D
:100EB800DF50D8B462EF07F064EF07F095EF07F062
:100EC8000FC0D9FF10C0DAFFDF50116E1150016E4C
:100ED800026A20EE07F00F50D9261050DA22DECF32
:100EE80003F0DDCF04F002EC0FF001C007F002C000
:100EF80008F0000E0A6E640E096E2EEC0AF020EE61
:100F080007F00F50D9261050DA22DECF12F0DDCFCD
:100F180013F00750125C186E08501358196EB8EF8A
:100F280007F00FC0D9FF10C0DAFFDF50116E115063
:100F3800016E026A20EE07F00F50D9261050DA220F
:100F4800DECF03F0DDCF04F002EC0FF001C007F0B4
:100F580002C008F0000E0A6E640E096E2EEC0AF04C
:100F680007C018F008C019F020EE02F00F50D9267B
:100F78001050DA22DECF11F0DDCF12F011C0D9FF08
:100F880012C0DAFF18C0DFFF20EE01F00F50D9269B
:100F98001050DA22DF50D8B4D4EF07F0D6EF07F0BC
:100FA8000BEF08F020EE04F00F50D9261050DA228B
:100FB800DECF11F0DDCF12F011C0D9FF12C0DAFF79
:100FC80010EE04F00F50E1261050E222E6CF13F0A5
:100FD800E5CF14F013C0E1FF14C0E2FFE750156E2F
:100FE80010EE06F00F50E1261050E222E750166E80
:100FF800010E176E162A03EF08F0D8901736162E32
:1010080001EF08F017501510DF6E3FEF08F020EEE3
:1010180004F00F50D9261050DA22DECF11F0DDCFC0
:1010280012F011C0D9FF12C0DAFF10EE04F00F5011
:10103800E1261050E222E6CF13F0E5CF14F013C0FA
:10104800E1FF14C0E2FFE750156E10EE06F00F50F6
:10105800E1261050E222E750166E010E176E162A8E
:1010680038EF08F0D8901736162E36EF08F01750DC
:10107800FF0A1514DF6E1200096E0950D8B447EF45
:1010880008F049EF08F06BEF08F004BE50EF08F0E5
:101098004EEF08F06BEF08F001C005F002C006F053
:1010A80003C007F004C008F0051E061E071E081E30
:1010B800052A000E06220722082205C00BF006C0EA
:1010C8000CF007C00DF008C00EF073EF08F001C077
:1010D8000BF002C00CF003C00DF004C00EF001507C
:1010E800021003100410D8A47CEF08F07EEF08F07B
:1010F80088EF08F0000E016E000E026E000E036EFF
:10110800000E046E19EF09F0960E0A6E92EF08F0C1
:101118000A2AD8900E320D320C320B32000E0B1404
:10112800056E000E0C14066E000E0D14076EFE0EF2
:101138000E14086E0550061007100810D8A4A7EF63
:1011480008F0A9EF08F08CEF08F0B7EF08F00A2ACA
:10115800010E0B26000E0C220D220E22D8900E3204
:101168000D320C320B32000E0B14056E000E0C14EF
:10117800066E000E0D14076EFF0E0E14086E055055
:10118800061007100810D8A4CCEF08F0CEEF08F02E
:10119800ABEF08F0D6EF08F00A06D8900B360C36FD
:1011A8000D360E360DBEDBEF08F0DDEF08F0E5EF8B
:1011B80008F0020E0A60E3EF08F0E5EF08F0D0EF60
:1011C80008F00AB0EAEF08F0ECEF08F0EDEF08F0ED
:1011D8000D9ED8900A320AC005F0066A076A086AA6
:1011E80005C008F0076A066A056A05500B12065022
:1011F8000C1207500D1208500E120950D8B407EF00
:1012080009F009EF09F011EF09F004BE10EF09F039
:101218000EEF09F011EF09F00E8E0BC001F00CC0B3
:1012280002F00DC003F00EC004F0120001C0D9FF97
:1012380002C0DAFFDECF09F0DDCF0AF020EE02F0BF
:101248000150D9260250DA22DECF0BF0DDCF0CF0A8
:1012580020EE04F00150D9260250DA22DECF0DF03C
:10126800DDCF0EF020EE06F00150D9260250DA222A
:10127800DECF0FF0DDCF10F020EE38F00350D92686
:101288000450DA22DECF05F0DDCF06F0640E052625
:10129800000E06220550095C06500A58D8B057EFD0
:1012A80009F059EF09F07AEF09F020EE38F0035011
:1012B800D9260450DA22DECF05F0DDCF06F09C0EE9
:1012C8000524076EFF0E0620086E0950075C0A50B9
:1012D8000858D8B072EF09F074EF09F07AEF09F006
:1012E800000E026E080E016EABEF09F00B500D5C9C
:1012F8000C500E58D8B083EF09F085EF09F0A7EF2E
:1013080009F00B500F5C0C501058D8B08EEF09F054
:1013180090EF09F0A7EF09F00D500F5C0E50105830
:10132800D8B099EF09F09BEF09F0A1EF09F0000E92
:10133800026E020E016EABEF09F0000E026E010E96
:10134800016EABEF09F0000E026E030E016E120083
:10135800000E2814306E000E2914316E800E2A14E7
:10136800326E7F0E2B14336E305031103210331022
:10137800D8A4C1EF09F0C3EF09F0CBEF09F0000ED4
:10138800286E000E296E000E2A6E000E2B6E000EBF
:101398002C14306E000E2D14316E800E2E14326E09
:1013A8007F0E2F14336E3050311032103310D8A402
:1013B800E0EF09F0E2EF09F0EAEF09F0000E2C6E19
:1013C800000E2D6E000E2E6E000E2F6E2BAEEFEF60
:1013D80009F0F1EF09F0FAEF09F0286C291ED8B0EE
:1013E800292A2A1ED8B02A2A800E2B562FAEFFEFA4
:1013F80009F001EF0AF00AEF0AF02C6C2D1ED8B0A4
:101408002D2A2E1ED8B02E2A800E2F56000E281AEE
:10141800000E291A000E2A1A800E2B1A000E2C1AFA
:10142800000E2D1A000E2E1A800E2F1A2C50285C32
:101438002D5029582E502A582F502B58D8B027EF06
:101448000AF029EF0AF02CEF0AF0D8902DEF0AF0F5
:10145800D8801200000E0C6E0ABE37EF0AF035EF86
:101468000AF03DEF0AF0096C0A1ED8B00A2A010EEC
:101478000C6E08BE44EF0AF042EF0AF04AEF0AF099
:10148800076C081ED8B0082A010E0C1A000E0E6E42
:10149800000E0D6E09500A10D8B455EF0AF057EF38
:1014A8000AF07FEF0AF0010E0B6E5FEF0AF0D8909A
:1014B80009360A360B2A0AAE64EF0AF066EF0AF01C
:1014C8005BEF0AF0D8900D360E360950075C0A50CB
:1014D8000858D8A072EF0AF074EF0AF079EF0AF012
:1014E8000950075E0A50085A0D80D8900A3209320E
:1014F8000B2E66EF0AF00C50D8B485EF0AF087EF90
:101508000AF08BEF0AF00D6C0E1ED8B00E2A0DC033
:1015180007F00EC008F0120008EC0EF00CC0D9FF5E
:101528000DC0DAFF05C0DEFF06C0DDFF090E0F6E35
:101538001E0E0E6EE40EE82EFED70E2EFCD70F2ED2
:10154800FAD700D0E0EC0DF020EE02F00C50D926CE
:101558000D50DA2205C0DEFF06C0DDFF090E0F6E52
:101568001E0E0E6EE40EE82EFED70E2EFCD70F2EA2
:10157800FAD700D030EC0EF020EE04F00C50D9264B
:101588000D50DA2205C0DEFF06C0DDFF090E0F6E22
:101598001E0E0E6EE40EE82EFED70E2EFCD70F2E72
:1015A800FAD700D058EC0EF020EE06F00C50D926F1
:1015B8000D50DA2205C0DEFF06C0DDFF120020EE66
:1015C80001F01A50D9261B50DA22010EDF6E20EEE8
:1015D80001F01C50D9261D50DA22000EDF6E000ED5
:1015E800216E000E206E1AC0D9FF1BC0DAFF20C082
:1015F800DFFF2050320F1CC0D9FF1DC0DAFFDF6E9D
:101608001AC00FF01BC010F056EC07F01CC00FF00A
:101618001DC010F056EC07F0350EE82EFED700F08E
:10162800020E2024206E000E2120216E21BE26EFFE
:101638000BF0215009E1FB0E205CD8A026EF0BF03F
:1016480028EF0BF0F7EF0AF00E0E1F6E650E1E6EF8
:10165800870EE82EFED71E2EFCD71F2EFAD700F0D5
:10166800120020EE01F01A50D9261B50DA22000E83
:10167800DF6E20EE01F01C50D9261D50DA22010E33
:10168800DF6E000E216E000E206E2050320F1AC041
:10169800D9FF1BC0DAFFDF6E1CC0D9FF1DC0DAFFFF
:1016A80020C0DFFF1AC00FF01BC010F056EC07F087
:1016B8001CC00FF01DC010F056EC07F0350EE82ED8
:1016C800FED700F0020E2024206E000E2120216E8D
:1016D80021BE78EF0BF02D0E205C010E2158D8A00A
:1016E80078EF0BF07AEF0BF049EF0BF0100E1F6E4E
:1016F800D40E1E6EE60EE82EFED71E2EFCD71F2E29
:10170800FAD700D0120020EE01F01A50D9261B504B
:10171800DA22010EDF6E20EE01F01C50D9261D5092
:10172800DA22000EDF6E000E216E000E206E1AC047
:10173800D9FF1BC0DAFF20C0DFFF2050320F1CC0CA
:10174800D9FF1DC0DAFFDF6E1AC00FF01BC010F002
:1017580056EC07F01CC00FF01DC010F056EC07F057
:10176800350EE82EFED700F0020E2024206E000E63
:101778002120216E21BECAEF0BF0215009E1320E63
:10178800205CD8A0CAEF0BF0CCEF0BF09BEF0BF06E
:10179800180E1F6E8A0E1E6EE80EE82EFED71E2E3D
:1017A800FCD71F2EFAD7120020EE01F01A50D926C6
:1017B8001B50DA22010EDF6E20EE01F01C50D926F4
:1017C8001D50DA22000EDF6E000E216E000E206E14
:1017D8001AC0D9FF1BC0DAFF20C0DFFF2050320F2C
:1017E8001CC0D9FF1DC0DAFFDF6E1AC00FF01BC086
:1017F80010F056EC07F01CC00FF01DC010F056ECAE
:1018080007F0350EE82EFED700F0020E2024206ED9
:10181800000E2120216E21BE1BEF0CF02C0E205C47
:10182800010E2158D8A01BEF0CF01DEF0CF0ECEFC7
:101838000BF0130E1F6EAC0E1E6E2A0EE82EFED78E
:101848001E2EFCD71F2EFAD7120020EE01F01A50D8
:10185800D9261B50DA22000EDF6E20EE01F01C5054
:10186800D9261D50DA22000EDF6E000E216E000E02
:10187800206E1AC0D9FF1BC0DAFF20C0DFFF1CC0D2
:10188800D9FF1DC0DAFF20C0DFFF1AC00FF01BC050
:1018980010F056EC07F01CC00FF01DC010F056EC0D
:1018A80007F0350EE82EFED700F0020E2024206E39
:1018B800000E2120216E21BE6BEF0CF0215009E1B2
:1018C800090E205CD8A06BEF0CF06DEF0CF03DEF2B
:1018D8000CF05A0E1F6E490E1E6EE70EE82EFED74C
:1018E8001E2EFCD71F2EFAD700F0120020EE01F0B2
:1018F8001A50D9261B50DA22000EDF6E20EE01F0B6
:101908001C50D9261D50DA22010EDF6E000E216E02
:10191800000E206E2050320F1AC0D9FF1BC0DAFF0C
:10192800DF6E1CC0D9FF1DC0DAFF20C0DFFF1AC060
:101938000FF01BC010F056EC07F01CC00FF01DC0D4
:1019480010F056EC07F0350EE82EFED700F0020E28
:101958002024206E000E2120216E21BEBDEF0CF048
:101968002C0E205C010E2158D8A0BDEF0CF0BFEF63
:101978000CF08EEF0CF0180E1F6E8A0E1E6EE80E1D
:10198800E82EFED71E2EFCD71F2EFAD7120020EE07
:1019980001F01A50D9261B50DA22010EDF6E20EE14
:1019A80001F01C50D9261D50DA22010EDF6E000E00
:1019B800216E000E206E1AC0D9FF1BC0DAFF20C0AE
:1019C800DFFF1CC0D9FF1DC0DAFF20C0DFFF1AC02F
:1019D8000FF01BC010F056EC07F01CC00FF01DC034
:1019E80010F056EC07F0350EE82EFED700F0020E88
:1019F8002024206E000E2120216E21BE0DEF0DF057
:101A0800215009E1650E205CD8A00DEF0DF00FEF15
:101A18000DF0DFEF0CF0090E1F6E1E0E1E6EE40EA9
:101A2800E82EFED71E2EFCD71F2EFAD700D01200A4
:101A380020EE01F01A50D9261B50DA22000EDF6E74
:101A480020EE01F01C50D9261D50DA22000EDF6E60
:101A5800000E216E000E206E1AC0D9FF1BC0DAFFDF
:101A680020C0DFFF1CC0D9FF1DC0DAFF20C0DFFF88
:101A78001AC00FF01BC010F056EC07F01CC00FF096
:101A88001DC010F056EC07F0350EE82EFED700F01A
:101A9800020E2024206E000E2120216E21BE5EEF52
:101AA8000DF0215009E1090E205CD8A05EEF0DF081
:101AB80060EF0DF030EF0DF0190E1F6E5A0E1E6E0E
:101AC800B20EE82EFED71E2EFCD71F2EFAD7120014
:101AD80020EE01F01A50D9261B50DA22000EDF6ED4
:101AE80020EE01F01C50D9261D50DA22000EDF6EC0
:101AF800000E206E050E1F6E1AC0D9FF1BC0DAFF3C
:101B08001FC0DFFF1CC0D9FF1DC0DAFF1FC0DFFFE9
:101B18001AC00FF01BC010F056EC07F01CC00FF0F5
:101B28001DC010F056EC07F0D00E1E6ECA0EE82E3F
:101B3800FED71E2EFCD7FF0E1F241F6EFF0E20207F
:101B4800206E20BEB2EF0DF0205006E11F04D8B081
:101B5800B0EF0DF0B2EF0DF080EF0DF01200D9EC00
:101B68000EF0010E036E000E15EC0FF03F0E056E21
:101B7800550EE82EFED7052EFCD700F0030E036E97
:101B8800000E15EC0FF0D50E036E010E15EC0FF0DC
:101B98008892849684988890869080827C867C98A7
:101BA80080907E907C9E8096849E889686840E0186
:101BB800B4958686B49712005FEC0FF0520E4FEC86
:101BC8000FF0B60E4FEC0FF055EC0FF0530E4FEC34
:101BD8000FF0010EA1EC0EF0076E07500A6E0B6AAB
:101BE800000EA1EC0EF0076E0750096E086A0A5045
:101BF80008100A6E0B5009100B6E5AEC0FF00AC051
:101C080005F00BC006F012005FEC0FF0520E4FEC1F
:101C18000FF0B40E4FEC0FF055EC0FF0530E4FECE5
:101C28000FF0010EA1EC0EF0076E07500A6E0B6A5A
:101C3800000EA1EC0EF0076E0750096E086A0A50F4
:101C480008100A6E0B5009100B6E5AEC0FF00AC000
:101C580005F00BC006F012005FEC0FF0520E4FECCF
:101C68000FF0B80E4FEC0FF055EC0FF0530E4FEC91
:101C78000FF0010EA1EC0EF0076E07500A6E0B6A0A
:101C8800000EA1EC0EF0076E0750096E086A0A50A4
:101C980008100A6E0B5009100B6E5AEC0FF00AC0B0
:101CA80005F00BC006F012005FEC0FF0520E4FEC7F
:101CB8000FF0BA0E4FEC0FF055EC0FF0530E4FEC3F
:101CC8000FF0010EA1EC0EF0076E07500A6E0B6ABA
:101CD800000EA1EC0EF0076E0750096E086A0A5054
:101CE80008100A6E0B5009100B6E5AEC0FF00AC060
:101CF80005F00BC006F0120085948598839E879C9A
:101D08007D947D987B9E7F9CBD508F0B3009BD6E66
:101D1800E00EBE16BF50F00B0109BF6E01C0BCFF3C
:101D2800BD8E0A0E0E01746F0B0E696F000EA36E46
:101D3800000EA06EA48EA18E1200036EEEEC0EF0C3
:101D48000E01DA87EEEC0EF0D5CE04F0EEEC0EF0D4
:101D58000350D8B4B2EF0EF0B6EF0EF0026A022AC2
:101D6800B7EF0EF0026A023A02460E01DA51021883
:101D7800DF0B0218DA6FDA890450120001EEA6F0C0
:101D88003E0EEE6AE806FDE100EE60F03C0EEE6AFB
:101D9800E806FDE100EE3AF01C0EEE6AE806FDE109
:101DA80056905692000121EF00F00E01D951F00B28
:101DB8000809D96FD98B9F0ED66F848A848CA79B0C
:101DC800A79D1D0E1D6F1E0E1C6F1C0E6F6F1B0E28
:101DD800706F12000E01D8B5F4EF0EF0F6EF0EF0AA
:101DE800EEEF0EF0DACE01F01F0E0116D8A4FFEFC9
:101DF8000EF001EF0FF0EEEF0EF0120001500302AB
:101E0800F3CF05F0F4CF06F001500402F350062694
:101E180002500302F350062605C001F006C002F086
:101E28001200046E5FEC0FF0520E4FEC0FF00450EE
:101E380080094FEC0FF003504FEC0FF05AEC0FF005
:101E48001200D6501F0B4009D66ED688D650F00B1C
:101E58000709D66ED588F60ED46E3B0ED36ED58E96
:101E68001200120E0E01626F110E156FE997E895B8
:101E7800670EE56F000EE66FE789E88BE78F1200C3
:101E8800F28AF28C0E01298B1F8B339B2B812191B7
:101E98003591F28E1200026EEEEC0EF002C0D5FE05
:101EA8001200EEEC0EF00E01DA831200EEEC0EF0EA
:101EB8000E01DA851200EEEC0EF00E01DA81120046
:021EC800120006
:020000040020DA
:10000000FF0FFF0FFF0FFF0FFF0FFF0FFF0FFF0F80
:020000040030CA
:0C000000AAFFFFFF9FFFFFFFFFFFFFFFB5
:00000001FF
