:040000001FEF00F0FE
:100008005F820E0133BB0BEF00F00DEF00F014EF31
:1000180000F08EB412EF00F014EF00F01DEF00F0C6
:100028000101F44BF52BDB0ED36E0B0ED46E0E01D3
:0A003800339B5F92110032EF16F0C7
:100E00000025642025642025642025642025642095
:100E10000D0A000077EC14F0000E026E140E016E45
:100E2000B8EC15F0BEEC16F093EC16F047EC16F0AB
:100E3000A3EC16F0000E0101E76F000EE86FA30EA1
:100E4000E96F0F0EEA6F7D0EEB6F0F0EEC6F040E65
:100E5000ED6F000EEF6FC80EEE6F000EDE6F000E2E
:100E6000DF6FA00EE06F0F0EE16F7F0EE26F0F0ECF
:100E7000E36F060EE46F000EE66FC80EE56FE70E37
:100E80000F6E010E106EEDEC0CF0DE0E0F6E010E0B
:100E9000106EEDEC0CF08EB650EF07F052EF07F04D
:100EA0004BEF07F0000E0101CD6F000ECC6FCE0EA0
:100EB0000C6E010E0D6E22EC11F0CCC159F0CDC1BB
:100EC0005AF0D89059365A36D89059365A36D89062
:100ED00059365A36820E5924D96E010E5A20DA6ECE
:100EE000CEC1DEFFCFC1DDFFCCC159F0CDC15AF07C
:100EF000D89059365A36D89059365A36D8905936ED
:100F00005A36020E5926000E5A22820E5924D96EE4
:100F1000010E5A20DA6ED0C1DEFFD1C1DDFFCCC197
:100F200059F0CDC15AF0D89059365A36D890593622
:100F30005A36D89059365A36040E5926000E5A227F
:100F4000820E5924D96E010E5A20DA6ED2C1DEFF0C
:100F5000D3C1DDFFCCC159F0CDC15AF0D89059367C
:100F60005A36D89059365A36D89059365A36060ECF
:100F70005926000E5A22820E5924D96E010E5A208B
:100F8000DA6ED4C1DEFFD5C1DDFF80867B0E0001A5
:100F9000606F000E616F040E626F0E0E636FCEC144
:100FA00064F0CFC165F0D0C166F0D1C167F0D2C1A5
:100FB00068F0D3C169F0D4C16AF0D5C16BF0A4EC7C
:100FC00014F07B0E026E000E036E1AEC16F0A30EE8
:100FD0005A6E570E596E020EE82EFED7592EFCD7C8
:100FE0005A2EFAD700D08096A30E5A6E570E596E1D
:100FF000020EE82EFED7592EFCD75A2EFAD700D073
:101000000101CC4BCD2BCDBF0FEF08F0CD5109E145
:10101000080ECC5DD8A00FEF08F011EF08F057EFE5
:1010200007F092C1FDF093C1FEF0BAC1C2F1BBC19D
:10103000C3F1010E8EA6000E8EA4000EE8B023EFC1
:1010400008F027EF08F0596A592A28EF08F0596A82
:101050005950D8A42EEF08F030EF08F019EF08F03F
:101060008EB435EF08F037EF08F03AEF08F07C8ED9
:101070000EEF09F080860EEF09F0000EF56F000EFE
:10108000F46FE70E1A6E010E1B6EDE0E1C6E010E63
:101090001D6EF5EC13F0D60E0C6E010E0D6E22ECEB
:1010A00011F00101C251D65DC351D759D8B05BEFE1
:1010B00008F05DEF08F06FEF08F0D6510001FD5D1C
:1010C0000101D7510001FE59D8B069EF08F06BEF6C
:1010D00008F06FEF08F0000E5C6E010E5B6E5B5067
:1010E0005C10D8B476EF08F078EF08F002EF09F062
:1010F000E70E1A6E010E1B6EDE0E1C6E010E1D6ECB
:10110000AEEC13F0D60E0C6E010E0D6E22EC11F04B
:101110007CAE8DEF08F08FEF08F09BEF08F0D60E55
:10112000016E010E026EC3EC10F001C0C8F102C0E6
:10113000C9F1A9EF08F0D60E016E010E026E820E03
:10114000036E010E046EFBEC0BF001C0C8F102C08F
:10115000C9F1D8900101C635D96EC735DA6EDF0EF8
:10116000D926000EDA22C8C1DEFFC9C1DDFFD89042
:10117000C635D96EC735DA6E640ED926010EDA226D
:10118000F4C1DEFFF5C1DDFF000E0001606F010E4E
:10119000616F010E626F0E0E636FC8C164F0C9C14A
:1011A00065F0D6C166F0D7C167F0D8C168F0D9C183
:1011B00069F0DAC16AF0DBC16BF0DCC16CF0DDC153
:1011C0006DF0A4EC14F0000E026E010E036E1AEC2A
:1011D00016F0C8C122F0C9C123F0E70E246E010E3B
:1011E000256EDE0E266E010E276ED4EC0AF001018C
:1011F000C64BC72B000EF56F000EF46F000E5C6E31
:10120000000E5B6E110E5A6E3C0E596ECB0EE82E20
:10121000FED7592EFCD75A2EFAD700F0080E01013E
:10122000C819C911D8A417EF09F019EF09F03DEF5B
:1012300008F0E70E1A6E010E1B6EDE0E1C6E010E1C
:101240001D6E19EC12F0000E0101CB6F000ECA6F7B
:10125000CBBF34EF09F0CB5109E10F0ECA5DD8A026
:1012600034EF09F036EF09F038EF09F04BEF07F0F3
:10127000F29E000EC56F000EC46FD890CA35D96EAD
:10128000CB35DA6EDF0ED926000EDA22DECF22F061
:10129000DDCF23F0E70E246E010E256EDE0E266EE6
:1012A000010E276ED4EC0AF0E70E1A6E010E1B6ECB
:1012B000DE0E1C6E010E1D6EF5EC13F06FEF09F0E3
:1012C000050E5A6E0F0E596EF10EE82EFED7592EEE
:1012D000FCD75A2EFAD700F00101C44BC52BD89089
:1012E0000101CA35D96ECB35DA6E640ED926010EEE
:1012F000DA22DE50C45DDE50C559D8A082EF09F075
:1013000084EF09F060EF09F0E70E1A6E010E1B6E14
:10131000DE0E1C6E010E1D6EAEEC13F00101CA4B09
:10132000CB2B28EF09F01FEF00F01EC034F01FC0D8
:1013300035F020C036F021C037F022C038F023C08D
:1013400039F024C03AF025C03BF03BBEAAEF09F0CB
:10135000ADEF09F0010EAEEF09F0000E3E6E3E500B
:10136000D8B4B5EF09F0B7EF09F0C7EF09F03B1EAD
:101370003A1E391E381E371E361E351E346C000EBE
:10138000352236223722382239223A223B220101E5
:10139000F3BFD5EF09F0F35106E1F205D8B0D3EF72
:1013A00009F0D5EF09F0DBEF09F0000E316E010E08
:1013B000306EDFEF09F0F2C130F0F3C131F0F0C16F
:1013C00032F0F1C133F03E50D8B4E9EF09F0EBEF61
:1013D00009F002EF0AF03206D8A033063E50D8A436
:1013E000F4EF09F0F6EF09F0FCEF09F0000E2F6EB4
:1013F0002B0E2E6E00EF0AF0000E2F6E2D0E2E6EAD
:101400002EC03EF0000E3D6E1F0E3C6E000E02011F
:101410006F6F87EF0AF03C06D8A03D06500E3C24C3
:10142000D96E020E3D20DA6E34C001F035C002F0F4
:1014300036C003F037C004F038C005F039C006F0FC
:101440003AC007F03BC008F00A0E096E000E0A6EA3
:10145000000E0B6E000E0C6E000E0D6E000E0E6E6A
:10146000000E0F6E000E106E9BEC0EF001C026F009
:1014700002C027F003C028F004C029F005C02AF0FC
:1014800006C02BF007C02CF008C02DF026C013F0CA
:1014900027C014F0FAEC15F01350300FDF6E300651
:1014A000D8A031063206D8A0330634C001F035C0CA
:1014B00002F036C003F037C004F038C005F039C080
:1014C00006F03AC007F03BC008F00A0E096E000EA5
:1014D0000A6E000E0B6E000E0C6E000E0D6E000EEE
:1014E0000E6E000E0F6E000E106ED7EC0DF001C0E8
:1014F00034F002C035F003C036F004C037F005C048
:1015000038F006C039F007C03AF008C03BF03DBEE5
:1015100092EF0AF03D5008E13C04D8A092EF0AF0A7
:1015200094EF0AF0B0EF0AF034503510361037104F
:10153000381039103A103B10D8A4A1EF0AF0A3EFED
:101540000AF00BEF0AF031BEB0EF0AF0315006E1BD
:101550003004D8B0AEEF0AF0B0EF0AF00BEF0AF0AB
:101560003E50D8B4B6EF0AF0B8EF0AF0C3EF0AF075
:101570003C06D8A03D06500E3C24D96E020E3D20FC
:10158000DA6E3EC0DFFF1CC011F01DC012F0500E1D
:101590003C24136E020E3D20146E32C015F033C091
:1015A00016F03AEC14F01200D0EF0BF024C01AF051
:1015B00025C01BF026C01CF027C01DF00CEC13F05A
:1015C00024C01AF025C01BF026C01CF027C01DF057
:1015D000AEEC13F0290E296E960E286E7F0EE82EC3
:1015E000FED7282EFCD7292EFAD700F024C01AF0F7
:1015F00025C01BF026C01CF027C01DF0AEEC13F078
:1016000024C01AF025C01BF026C01CF027C01DF016
:1016100075EC11F0FAEF0BF024C01AF025C01BF0A6
:1016200026C01CF027C01DF00CEC13F024C01AF0EB
:1016300025C01BF026C01CF027C01DF0AEEC13F037
:10164000290E296E960E286E7F0EE82EFED7282EC4
:10165000FCD7292EFAD700F024C01AF025C01BF0C1
:1016600026C01CF027C01DF0AEEC13F024C01AF009
:1016700025C01BF026C01CF027C01DF0C7EC11F0E0
:10168000FAEF0BF024C01AF025C01BF026C01CF0A6
:1016900027C01DF00CEC13F024C01AF025C01BF07D
:1016A00026C01CF027C01DF0AEEC13F0290E296EE9
:1016B000960E286E7F0EE82EFED7282EFCD7292EF8
:1016C000FAD700F024C01AF025C01BF026C01CF089
:1016D00027C01DF019EC12F024C01AF025C01BF031
:1016E00026C01CF027C01DF0AEEC13F0FAEF0BF093
:1016F00024C01AF025C01BF026C01CF027C01DF026
:10170000BBEC12F024C01AF025C01BF026C01CF060
:1017100027C01DF075EC11F0FAEF0BF024C01AF0A1
:1017200025C01BF026C01CF027C01DF0BBEC12F03A
:1017300024C01AF025C01BF026C01CF027C01DF0E5
:10174000C7EC11F0FAEF0BF024C01AF025C01BF023
:1017500026C01CF027C01DF00CEC13F024C01AF0BA
:1017600025C01BF026C01CF027C01DF06AEC12F04B
:10177000FAEF0BF024C01AF025C01BF026C01CF0B5
:1017800027C01DF00CEC13F024C01AF025C01BF08C
:1017900026C01CF027C01DF05DEC13F0FAEF0BF033
:1017A00022C028F023C029F02950000AD8B4DBEF6A
:1017B0000BF0FAEF0BF02850010AD8B4D6EF0AF07C
:1017C000030AD8B40CEF0BF0010AD8B442EF0BF0C7
:1017D000070AD8B478EF0BF0010AD8B48EEF0BF0FB
:1017E000030AD8B4A4EF0BF0010AD8B4BAEF0BF097
:1017F000FAEF0BF0120020EE02F00150D926025051
:10180000DA22DECF0DF0DDCF0EF020EE04F0015035
:10181000D9260250DA22DECF0FF0DDCF10F020EE15
:1018200006F00150D9260250DA22DECF11F0DDCFCA
:1018300012F020EE02F00350D9260450DA22DECF57
:1018400013F0DDCF14F020EE04F00350D92604503D
:10185000DA22DECF15F0DDCF16F020EE06F00350D1
:10186000D9260450DA22DECF17F0DDCF18F0000EB3
:101870000A6EEC0E1324056EFF0E1420066E0D503A
:10188000055C0E500658D8B048EF0CF04AEF0CF04B
:101890005DEF0CF0140E1324056E000E1420066E7E
:1018A00005500D5C06500E58D8B059EF0CF05BEFA8
:1018B0000CF05DEF0CF0010E0A6E0A50D8A463EF35
:1018C0000CF066EF0CF0010E67EF0CF0000E076EE7
:1018D000000E0B6EEC0E1724056EFF0E1820066E20
:1018E0001150055C12500658D8B079EF0CF07BEF20
:1018F0000CF08EEF0CF0140E1724056E000E18205D
:10190000066E0550115C06501258D8B08AEF0CF0E4
:101910008CEF0CF08EEF0CF0010E0B6E0B50D8A478
:1019200094EF0CF097EF0CF0010E98EF0CF0000E16
:10193000086E000E0C6EEC0E1524056EFF0E1620C0
:10194000066E0F50055C10500658D8B0AAEF0CF088
:10195000ACEF0CF0BFEF0CF0140E1524056E000E6A
:101960001620066E05500F5C06501058D8B0BBEF1D
:101970000CF0BDEF0CF0BFEF0CF0010E0C6E0C5034
:10198000D8A4C5EF0CF0C8EF0CF0010EC9EF0CF0B5
:10199000000E096E0750D8B4D0EF0CF0D2EF0CF067
:1019A000E8EF0CF00850D8B4D8EF0CF0DAEF0CF0F8
:1019B000E8EF0CF00950D8B4E0EF0CF0E2EF0CF0D7
:1019C000E8EF0CF0000E026E010E016EECEF0CF071
:1019D000000E026E000E016E120020EE01F00F509C
:1019E000D9261050DA22DF50D8B4F9EF0CF0FBEF13
:1019F0000CF02CEF0DF00FC0D9FF10C0DAFFDF5054
:101A0000116E1150016E026A20EE07F00F50D926B8
:101A10001050DA22DECF03F0DDCF04F070EC16F0C8
:101A200001C007F002C008F0000E0A6E640E096ED5
:101A300061EC10F020EE07F00F50D9261050DA229A
:101A4000DECF12F0DDCF13F00750125C186E085095
:101A50001358196E4FEF0DF00FC0D9FF10C0DAFF09
:101A6000DF50116E1150016E026A20EE07F00F5028
:101A7000D9261050DA22DECF03F0DDCF04F070EC6F
:101A800016F001C007F002C008F0000E0A6E640EE6
:101A9000096E61EC10F007C018F008C019F020EED4
:101AA00002F00F50D9261050DA22DECF11F0DDCF30
:101AB00012F011C0D9FF12C0DAFF18C0DFFF20EE0C
:101AC00001F00F50D9261050DA22DF50D8B46BEF56
:101AD0000DF06DEF0DF0A2EF0DF020EE04F00F50C1
:101AE000D9261050DA22DECF11F0DDCF12F011C06E
:101AF000D9FF12C0DAFF10EE04F00F50E1261050AB
:101B0000E222E6CF13F0E5CF14F013C0E1FF14C0DA
:101B1000E2FFE750156E10EE06F00F50E126105070
:101B2000E222E750166E010E176E162A9AEF0DF09C
:101B3000D8901736162E98EF0DF017501510DF6E4F
:101B4000D6EF0DF020EE04F00F50D9261050DA2217
:101B5000DECF11F0DDCF12F011C0D9FF12C0DAFFD5
:101B600010EE04F00F50E1261050E222E6CF13F001
:101B7000E5CF14F013C0E1FF14C0E2FFE750156E8B
:101B800010EE06F00F50E1261050E222E750166EDC
:101B9000010E176E162ACFEF0DF0D8901736162EBD
:101BA000CDEF0DF01750FF0A1514DF6E1200000E76
:101BB000126E10BEE0EF0DF0DEEF0DF0F2EF0DF063
:101BC000101E0F1E0E1E0D1E0C1E0B1E0A1E096C73
:101BD000000E0A220B220C220D220E220F221022AE
:101BE000010E126E08BEF9EF0DF0F7EF0DF00BEFDE
:101BF0000EF0081E071E061E051E041E031E021EF2
:101C0000016C000E02220322042205220622072272
:101C10000822010E121A20EE13F0070EDE6AE80603
:101C2000FDE209500A100B100C100D100E100F10D1
:101C30001010D8B41EEF0EF020EF0EF072EF0EF081
:101C4000010E116E2EEF0EF0D89009360A360B36C3
:101C50000C360D360E360F361036112A10AE33EF15
:101C60000EF035EF0EF024EF0EF0D8901336143648
:101C7000153616361736183619361A360950015CDD
:101C80000A5002580B5003580C5004580D50055878
:101C90000E5006580F50075810500858D8A053EF50
:101CA0000EF055EF0EF066EF0EF00950015E0A508F
:101CB000025A0B50035A0C50045A0D50055A0E503C
:101CC000065A0F50075A1050085A1380D8901032F5
:101CD0000F320E320D320C320B320A320932112E13
:101CE00035EF0EF01250D8B478EF0EF07AEF0EF018
:101CF0008AEF0EF01A1E191E181E171E161E151E2C
:101D0000141E136C000E14221522162217221822FC
:101D100019221A2213C001F014C002F015C003F0FA
:101D200016C004F017C005F018C006F019C007F07F
:101D30001AC008F01200000E126E08BEA4EF0EF0DA
:101D4000A2EF0EF0B6EF0EF0081E071E061E051ECF
:101D5000041E031E021E016C000E02220322042236
:101D60000522062207220822010E126E10BEBDEFC8
:101D70000EF0BBEF0EF0CDEF0EF0101E0F1E0E1E7C
:101D80000D1E0C1E0B1E0A1E096C000E0A220B22D1
:101D90000C220D220E220F22102209500A100B10C5
:101DA0000C100D100E100F101010D8B4DAEF0EF04A
:101DB000DCEF0EF024EF0FF0010E116EEAEF0EF0E3
:101DC000D89009360A360B360C360D360E360F36DD
:101DD0001036112A10AEEFEF0EF0F1EF0EF0E0EF3B
:101DE0000EF00950015C0A5002580B5003580C5079
:101DF00004580D5005580E5006580F5007581050F3
:101E00000858D8A006EF0FF008EF0FF018EF0FF00A
:101E10000950015E0A50025A0B50035A0C50045AE2
:101E20000D50055A0E50065A0F50075A1050085AB6
:101E3000D89010320F320E320D320C320B320A3281
:101E40000932112EF1EF0EF01250D8B42AEF0FF034
:101E50002CEF0FF03CEF0FF0081E071E061E051EAC
:101E6000041E031E021E016C000E02220322042225
:101E7000052206220722082201C001F002C002F05A
:101E800003C003F004C004F005C005F006C006F06E
:101E900007C007F008C008F0120041C0D9FF42C0D7
:101EA000DAFFDECFF6FFDDCFF7FF000EF86E080099
:101EB000F550250AD8A45FEF0FF061EF0FF0E5EFC2
:101EC0000FF041C0D9FF42C0DAFFDE2A000EDD224A
:101ED000000E0101F16F000EF06FF0C1FAF1F2692E
:101EE000F36941C0D9FF42C0DAFFDECF4FF0DDCF4A
:101EF00050F04FC0F6FF50C0F7FF000EF86E08001C
:101F0000F550640AD8B487EF0FF089EF0FF099EF1E
:101F10000FF04FC0F6FF50C0F7FF000EF86E08003C
:101F2000F550690AD8A497EF0FF099EF0FF0DCEFA6
:101F30000FF043C0D9FF44C0DAFFDFCF45F0020EF7
:101F4000DE26DFCF46F0000EDD2245C0D9FF46C0B9
:101F5000DAFFDECF47F0DDCF48F0000E48BEFF0EBF
:101F6000496E4A6E4B6E4C6E4D6E4E6E010E4F2496
:101F7000456E000E5020466E41C0D9FF42C0DAFFC8
:101F800045C0DEFF46C0DDFF3FC01CF040C01DF075
:101F900047C01EF048C01FF049C020F04AC021F0E1
:101FA0004BC022F04CC023F04DC024F04EC025F0B1
:101FB00095EC09F0FBEF0FF041C0D9FF42C0DAFF0A
:101FC000DE2A000EDD22FBEF0FF041C0D9FF42C038
:101FD000DAFFDECFF6FFDDCFF7FF000EF86E080068
:101FE000F550016E026A3FC003F040C004F0FCEC03
:101FF0000FF0DCEF0FF0120003500410D8B403EF21
:1020000010F005EF10F00EEF10F003500410D8A4FC
:102010000CEF10F00EEF10F013EF10F00150DEECAB
:1020200016F060EF10F020EE09F00350D9260450AE
:10203000DA22DE50DE10D8B420EF10F022EF10F0DC
:102040003DEF10F020EE09F00350D9260450DA22BB
:1020500010EE03F00350E1260450E222DE50E65C6D
:10206000E650800A096EDE50800A0958D8B03BEF6E
:1020700010F03DEF10F060EF10F020EE03F0035091
:10208000D9260450DA22DECF05F0DDCF06F003C0FA
:10209000D9FF04C0DAFFDECF07F0DDCF08F005502E
:1020A0000724D96E06500820DA6E01C0DFFF20EE4B
:1020B00003F00350D9260450DA22DE2A000EDD2276
:1020C0001200000E0C6E0ABE6AEF10F068EF10F0FE
:1020D00070EF10F0096C0A1ED8B00A2A010E0C6EBF
:1020E00008BE77EF10F075EF10F07DEF10F0076C81
:1020F000081ED8B0082A010E0C1A000E0E6E000E33
:102100000D6E09500A10D8B488EF10F08AEF10F065
:10211000B2EF10F0010E0B6E92EF10F0D89009366E
:102120000A360B2A0AAE97EF10F099EF10F08EEFF7
:1021300010F0D8900D360E360950075C0A5008583A
:10214000D8A0A5EF10F0A7EF10F0ACEF10F00950F9
:10215000075E0A50085A0D80D8900A3209320B2EB9
:1021600099EF10F00C50D8B4B8EF10F0BAEF10F0AF
:10217000BEEF10F00D6C0E1ED8B00E2A0DC007F089
:102180000EC008F0120020EE02F00150D9260250D5
:10219000DA22DECF07F0DDCF08F020EE04F00150A8
:1021A000D9260250DA22DECF09F0DDCF0AF020EE88
:1021B00006F00150D9260250DA22DECF05F0DDCF3D
:1021C00006F00950075C0A500858D8A0EAEF10F052
:1021D000ECEF10F0FDEF10F00550075C06500858CA
:1021E000D8A0F5EF10F0F7EF10F0FDEF10F0000EB3
:1021F000046E010E036E1DEF11F00750095C0850CC
:102200000A58D8A006EF11F008EF11F019EF11F0FD
:102210000550095C06500A58D8A011EF11F013EFD1
:1022200011F019EF11F0000E046E020E036E1DEF97
:1022300011F0000E046E030E036E03C001F004C023
:1022400002F012001EEC15F00CC0D9FF0DC0DAFF31
:1022500005C0DEFF06C0DDFF090E0F6E1E0E0E6EFE
:10226000E40EE82EFED70E2EFCD70F2EFAD700D0A4
:10227000F6EC14F020EE02F00C50D9260D50DA22C4
:1022800005C0DEFF06C0DDFF090E0F6E1E0E0E6ECE
:10229000E40EE82EFED70E2EFCD70F2EFAD700D074
:1022A00046EC15F020EE04F00C50D9260D50DA2241
:1022B00005C0DEFF06C0DDFF090E0F6E1E0E0E6E9E
:1022C000E40EE82EFED70E2EFCD70F2EFAD700D044
:1022D0006EEC15F020EE06F00C50D9260D50DA22E7
:1022E00005C0DEFF06C0DDFF120020EE01F01A502F
:1022F000D9261B50DA22010EDF6E20EE01F01C50B1
:10230000D9261D50DA22000EDF6E000E216E000E5F
:10231000206E1AC0D9FF1BC0DAFF20C0DFFF20509B
:10232000320F1CC0D9FF1DC0DAFFDF6E1AC00FF0DC
:102330001BC010F0EDEC0CF01CC00FF01DC010F035
:10234000EDEC0CF0350EE82EFED700F0020E202446
:10235000206E000E2120216E21BEB8EF11F0215019
:1023600009E1320E205CD8A0B8EF11F0BAEF11F0FD
:1023700089EF11F00E0E1F6E650E1E6E870EE82E91
:10238000FED71E2EFCD71F2EFAD700F0120020EE2B
:1023900001F01A50D9261B50DA22000EDF6E20EE13
:1023A00001F01C50D9261D50DA22010EDF6E000EFE
:1023B000216E000E206E2050320F1AC0D9FF1BC0B4
:1023C000DAFFDF6E1CC0D9FF1DC0DAFF20C0DFFFBF
:1023D0001AC00FF01BC010F0EDEC0CF01CC00FF099
:1023E0001DC010F0EDEC0CF0350EE82EFED700F01D
:1023F000020E2024206E000E2120216E21BE0AEF45
:1024000012F0215009E1320E205CD8A00AEF12F040
:102410000CEF12F0DBEF11F00E0E1F6E650E1E6E4C
:10242000870EE82EFED71E2EFCD71F2EFAD700F0FF
:10243000120020EE01F01A50D9261B50DA22010EAC
:10244000DF6E20EE01F01C50D9261D50DA22000E5E
:10245000DF6E000E216E000E206E1AC0D9FF1BC069
:10246000DAFF20C0DFFF2050320F1CC0D9FF1DC093
:10247000DAFFDF6E1AC00FF01BC010F0EDEC0CF0AD
:102480001CC00FF01DC010F0EDEC0CF0350EE82E66
:10249000FED700F0020E2024206E000E2120216EB7
:1024A00021BE5CEF12F0215009E1320E205CD8A071
:1024B0005CEF12F05EEF12F02DEF12F0180E1F6EAF
:1024C0008A0E1E6EE80EE82EFED71E2EFCD71F2E9B
:1024D000FAD7120020EE01F01A50D9261B50DA224A
:1024E000010EDF6E20EE01F01C50D9261D50DA22BD
:1024F000000EDF6E000E216E000E206E1AC0D9FF96
:102500001BC0DAFF20C0DFFF2050320F1CC0D9FFF4
:102510001DC0DAFFDF6E1AC00FF01BC010F0EDEC2B
:102520000CF01CC00FF01DC010F0EDEC0CF0350EDF
:10253000E82EFED700F0020E2024206E000E21208F
:10254000216E21BEADEF12F0215009E1320E205C68
:10255000D8A0ADEF12F0AFEF12F07EEF12F0130E35
:102560001F6EAC0E1E6E2A0EE82EFED71E2EFCD756
:102570001F2EFAD7120020EE01F01A50D9261B5058
:10258000DA22000EDF6E20EE01F01C50D9261D501D
:10259000DA22000EDF6E000E216E000E206E1AC0D1
:1025A000D9FF1BC0DAFF20C0DFFF1CC0D9FF1DC050
:1025B000DAFF20C0DFFF1AC00FF01BC010F0EDECF7
:1025C0000CF01CC00FF01DC010F0EDEC0CF0350E3F
:1025D000E82EFED700F0020E2024206E000E2120EF
:1025E000216E21BEFDEF12F0215009E1330E205C77
:1025F000D8A0FDEF12F0FFEF12F0CFEF12F05A0E5D
:102600001F6E490E1E6EE70EE82EFED71E2EFCD75B
:102610001F2EFAD700F0120020EE01F01A50D92632
:102620001B50DA22000EDF6E20EE01F01A50D92680
:102630001B50DA22000EDF6E000E216E000E206E9F
:102640001AC0D9FF1BC0DAFF20C0DFFF1CC0D9FFB2
:102650001DC0DAFF20C0DFFF1AC00FF01BC010F052
:10266000EDEC0CF01CC00FF01DC010F0EDEC0CF008
:10267000350EE82EFED700F0020E2024206E000E4C
:102680002120216E21BE4EEF13F0215009E1290EC9
:10269000205CD8A04EEF13F050EF13F020EF13F0B2
:1026A000290E1F6E960E1E6E7F0EE82EFED71E2E72
:1026B000FCD71F2EFAD700F0120020EE01F01A50BE
:1026C000D9261B50DA22000EDF6E20EE01F01C50DE
:1026D000D9261D50DA22010EDF6E000E216E000E8B
:1026E000206E2050320F1AC0D9FF1BC0DAFFDF6EF8
:1026F0001CC0D9FF1DC0DAFF20C0DFFF1AC00FF0D9
:102700001BC010F0EDEC0CF01CC00FF01DC010F061
:10271000EDEC0CF0350EE82EFED700F0020E202472
:10272000206E000E2120216E21BEA0EF13F021505B
:1027300009E1320E205CD8A0A0EF13F0A2EF13F055
:1027400071EF13F0130E1F6EAC0E1E6E2A0EE82EE4
:10275000FED71E2EFCD71F2EFAD7120020EE01F056
:102760001A50D9261B50DA22000EDF6E20EE01F03F
:102770001C50D9261D50DA22000EDF6E000E206E8E
:10278000050E1F6E1AC0D9FF1BC0DAFF1FC0DFFF86
:102790001CC0D9FF1DC0DAFF1FC0DFFF1AC00FF039
:1027A0001BC010F0EDEC0CF01CC00FF01DC010F0C1
:1027B000EDEC0CF0D00E1E6ECA0EE82EFED71E2ECB
:1027C000FCD7FF0E1F241F6EFF0E2020206E20BEA0
:1027D000F4EF13F0205006E11F04D8B0F2EF13F02D
:1027E000F4EF13F0C2EF13F0120020EE01F01A50D4
:1027F000D9261B50DA22010EDF6E20EE01F01C50AC
:10280000D9261D50DA22010EDF6E000E1F6E000E5B
:102810001E6E1AC0D9FF1BC0DAFF1EC0DFFF1CC02E
:10282000D9FF1DC0DAFF1EC0DFFF1AC00FF01BC0AA
:1028300010F0EDEC0CF01CC00FF01DC010F0EDEC32
:102840000CF06A0EE82EFED700D0020E1E241E6E7B
:10285000000E1F201F6E1FBE37EF14F01F5009E13E
:102860001F0E1E5CD8A037EF14F039EF14F009EFFB
:1028700014F0120016BE3FEF14F041EF14F047EFD2
:1028800014F015C01AF016C01BF04BEF14F0000E38
:102890001B6E000E1A6E000E196E000E186E5DEFA4
:1028A00014F0000E026E200E016E11C003F012C073
:1028B00004F0FCEC0FF0184A192A1A50185C195051
:1028C000800A176E1B50800A1758D8A06AEF14F0C0
:1028D0006CEF14F051EF14F013C00AF014C00BF0B9
:1028E00011C00CF012C00DF096EC15F0120047EC80
:1028F00016F0010E036E000E83EC16F03F0E056E0F
:10290000550EE82EFED7052EFCD700F0030E036E01
:10291000000E83EC16F0D50E036E010E83EC16F05C
:102920008892849684988890869080827C867C9811
:1029300080907E907C9E8096849E889686840E01F0
:10294000B4958686B4971200640E00016E6F000E77
:102950006F6F60C070F061C071F0000E746F000E98
:10296000736F000E7A6F000E796F700E516E000E4D
:10297000526E62C053F063C054F06E0E556E000E7E
:10298000566ECDEC14F0000173516025D96E745170
:102990006121DA6E000EDF6E120053C057F054C092
:1029A00058F0E1EF14F051C03FF052C040F0570E24
:1029B000416E000E426E55C043F056C044F04DECDF
:1029C0000FF057C0F6FF58C0F7FF000EF86E080072
:1029D000F5500009D8A4EFEF14F0F1EF14F0D3EFA5
:1029E00014F0000E526E000E516E1200D9EC16F06B
:1029F000520EC9EC16F0B60EC9EC16F0CFEC16F07C
:102A0000530EC9EC16F0010ED9EC15F0076E075005
:102A10000A6E0B6A000ED9EC15F0076E0750096EAE
:102A2000086A0A5008100A6E0B5009100B6ED4EC9D
:102A300016F00AC005F00BC006F01200D9EC16F033
:102A4000520EC9EC16F0B40EC9EC16F0CFEC16F02D
:102A5000530EC9EC16F0010ED9EC15F0076E0750B5
:102A60000A6E0B6A000ED9EC15F0076E0750096E5E
:102A7000086A0A5008100A6E0B5009100B6ED4EC4D
:102A800016F00AC005F00BC006F01200D9EC16F0E3
:102A9000520EC9EC16F0B80EC9EC16F0CFEC16F0D9
:102AA000530EC9EC16F0010ED9EC15F0076E075065
:102AB0000A6E0B6A000ED9EC15F0076E0750096E0E
:102AC000086A0A5008100A6E0B5009100B6ED4ECFD
:102AD00016F00AC005F00BC006F01200D9EC16F093
:102AE000520EC9EC16F0BA0EC9EC16F0CFEC16F087
:102AF000530EC9EC16F0010ED9EC15F0076E075015
:102B00000A6E0B6A000ED9EC15F0076E0750096EBD
:102B1000086A0A5008100A6E0B5009100B6ED4ECAC
:102B200016F00AC005F00BC006F01200000E106E81
:102B3000000E0F6EA7EF15F00EC001F0026A0CC078
:102B400003F00DC004F0FCEC0FF00F4A102A0F50F8
:102B50000A24D96E10500B20DA6EDF500E6E0E5024
:102B6000D8A4B5EF15F0B7EF15F09CEF15F01200F3
:102B700085948598839E879C7D947D987B9E7F9C81
:102B8000BD508F0B3009BD6EE00EBE16BF50F00B6E
:102B90000109BF6E01C0BCFFBD8E0A0E0E01746F2D
:102BA0000B0E696F000EA36E000EA06EA48EA18E98
:102BB0001200036E5CEC16F00E01DA875CEC16F086
:102BC000D5CE04F05CEC16F00350D8B4EAEF15F063
:102BD000EEEF15F0026A022AEFEF15F0026A023AF0
:102BE00002460E01DA510218DF0B0218DA6FDA8999
:102BF0000450120014BE07EF16F0145006E113043F
:102C0000D8B005EF16F007EF16F015EF16F013C069
:102C100015F014C016F0151E161E154A162A15C0FA
:102C200013F016C014F019EF16F013C013F014C00F
:102C300014F0120025EF16F002C0D9FF03C0DAFF2E
:102C4000DF50B2EC16F0024A032A02C0D9FF03C0DB
:102C5000DAFFDF50D8A42FEF16F031EF16F01CEF9B
:102C600016F0120002EE00F0700EEE6AE806FDE1CA
:102C700001EEF0F00C0EEE6AE806FDE10001FF6BDC
:102C80005E6A5D6A5F905F9200010AEF07F00E01D5
:102C9000D951F00B0809D96FD98B9F0ED66F848A52
:102CA000848CA79BA79D1D0E1D6F1E0E1C6F1C0EF6
:102CB0006F6F1B0E706F12000E01D8B562EF16F029
:102CC00064EF16F05CEF16F0DACE01F01F0E01167D
:102CD000D8A46DEF16F06FEF16F05CEF16F012004F
:102CE00001500302F3CF05F0F4CF06F001500402C7
:102CF000F350062602500302F350062605C001F0E9
:102D000006C002F01200046ED9EC16F0520EC9ECA7
:102D100016F004508009C9EC16F00350C9EC16F007
:102D2000D4EC16F01200D6501F0B4009D66ED68890
:102D3000D650F00B0709D66ED588F60ED46E3B0E32
:102D4000D36ED58E1200120E0E01626F110E156F2A
:102D5000E997E895670EE56F000EE66FE789E88B67
:102D6000E78F1200016E0E0137A5B9EF16F0BBEF29
:102D700016F0B3EF16F001C0E4FE1200F28AF28CF6
:102D80000E01298B1F8B339B2B8121913591F28E64
:102D90001200026E5CEC16F002C0D5FE12005CEC74
:102DA00016F00E01DA8312005CEC16F00E01DA85E3
:0E2DB00012005CEC16F00E01DA811200120027
:020000040020DA
:10000000FF0FFF0FFF0FFF0FFF0FFF0FFF0FFF0F80
:020000040030CA
:0C000000AAFFFFFF9FFFFFFFFFFFFFFFB5
:00000001FF
