:040000001FEF00F0FE
:100008005F820E0133BB0BEF00F00DEF00F014EF31
:1000180000F08EB412EF00F014EF00F01DEF00F0C6
:100028000101EE4BEF2BDB0ED36E0B0ED46E0E01DF
:0A003800339B5F921100A1EF15F059
:100E00000025642025642025642025642025642095
:100E10000D0A0000BDEC13F0000E026E140E016E00
:100E2000FEEC14F002EC16F0D7EC15F078EC15F0AF
:100E3000E7EC15F0000E0101D86F000ED96FA30E7C
:100E4000DA6F0F0EDB6F7D0EDC6F0F0EDD6F040EA1
:100E5000DE6F000EE06FC80EDF6F000EE16F000E58
:100E6000E26FA00EE36F0F0EE46F7F0EE56F0F0EC3
:100E7000E66F060EE76F000EE96FC80EE86FD80E3A
:100E80000F6E010E106EEFEC0BF0E10E0F6E010E07
:100E9000106EEFEC0BF08EB650EF07F052EF07F04C
:100EA0004BEF07F0000E0101C76F000EC66FC80EB2
:100EB0000C6E010E0D6EB9EC10F0C6C159F0C7C131
:100EC0005AF0D89059365A36D89059365A36D89062
:100ED00059365A36820E5924D96E010E5A20DA6ECE
:100EE000C8C1DEFFC9C1DDFFC6C159F0C7C15AF094
:100EF000D89059365A36D89059365A36D8905936ED
:100F00005A36020E5926000E5A22820E5924D96EE4
:100F1000010E5A20DA6ECAC1DEFFCBC1DDFFC6C1A9
:100F200059F0C7C15AF0D89059365A36D890593628
:100F30005A36D89059365A36040E5926000E5A227F
:100F4000820E5924D96E010E5A20DA6ECCC1DEFF12
:100F5000CDC1DDFFC6C159F0C7C15AF0D89059368E
:100F60005A36D89059365A36D89059365A36060ECF
:100F70005926000E5A22820E5924D96E010E5A208B
:100F8000DA6ECEC1DEFFCFC1DDFF80867B0E0001B1
:100F9000606F000E616F040E626F0E0E636FC8C14A
:100FA00064F0C9C165F0CAC166F0CBC167F0CCC1BD
:100FB00068F0CDC169F0CEC16AF0CFC16BF0EAEC48
:100FC00013F07B0E026E000E036E60EC15F0A30EA4
:100FD0005A6E570E596E020EE82EFED7592EFCD7C8
:100FE0005A2EFAD700D08096A30E5A6E570E596E1D
:100FF000020EE82EFED7592EFCD75A2EFAD700D073
:101000000101C64BC72BC7BF0FEF08F0C75109E15D
:10101000080EC65DD8A00FEF08F011EF08F057EFEB
:1010200007F0010E8EA6000E8EA4000EE8B01BEF96
:1010300008F01FEF08F0596A592A20EF08F0596AA2
:101040005950D8A426EF08F028EF08F011EF08F067
:101050008EB42DEF08F02FEF08F032EF08F07C8E01
:10106000EFEF08F08086EFEF08F0000EEF6F000E54
:10107000EE6FD80E1A6E010E1B6EE10E1C6E010E85
:101080001D6E3BEC13F0D00E0C6E010E0D6EB9EC24
:1010900010F0D00E596E010E5A6E59500101925D3A
:1010A0005A509359D8B057EF08F059EF08F0E3EFD2
:1010B00008F0D80E1A6E010E1B6EE10E1C6E010EAA
:1010C0001D6EF4EC12F0D00E0C6E010E0D6EB9EC2C
:1010D00010F07CAE6EEF08F070EF08F07CEF08F0D7
:1010E000D00E016E010E026E5AEC10F001C0C2F17A
:1010F00002C0C3F18AEF08F0D00E016E010E026E3D
:10110000820E036E010E046EB4EC0AF001C0C2F14F
:1011100002C0C3F1D8900001FD35D96EFE35DA6EFC
:10112000DF0ED926000EDA22C2C1DEFFC3C1DDFF09
:10113000D890FD35D96EFE35DA6E640ED926010ED3
:10114000DA22EEC1DEFFEFC1DDFF000E606F010E9F
:10115000616F010E626F0E0E636FC2C164F0C3C196
:1011600065F0D0C166F0D1C167F0D2C168F0D3C1DB
:1011700069F0D4C16AF0D5C16BF0D6C16CF0D7C1AB
:101180006DF0EAEC13F0000E026E010E036E60ECDF
:1011900015F0C2C122F0C3C123F0D80E246E010E97
:1011A000256EE10E266E010E276EFEEC0EF000019C
:1011B000FD4BFE2B000E0101EF6F000EEE6F000ED7
:1011C0005C6E000E5B6E110E5A6E3C0E596ECB0EAD
:1011D000E82EFED7592EFCD75A2EFAD700F0080E6B
:1011E0000101C219C311D8A4F8EF08F0FAEF08F012
:1011F00035EF08F0D80E1A6E010E1B6EE10E1C6E54
:10120000010E1D6EB0EC11F0000E0101C56F000E55
:10121000C46FC5BF15EF09F0C55109E10F0EC45DDC
:10122000D8A015EF09F017EF09F019EF09F04BEF0F
:1012300007F0F29E000E5E6E000E5D6ED890C43513
:10124000D96EC535DA6EDF0ED926000EDA22DECF72
:1012500022F0DDCF23F0D80E246E010E256EE10EB4
:10126000266E010E276EFEEC0EF0D80E1A6E010EE1
:101270001B6EE10E1C6E010E1D6E3BEC13F04FEF6A
:1012800009F0050E5A6E0F0E596EF10EE82EFED7BC
:10129000592EFCD75A2EFAD700F05D4A5E2AD89014
:1012A0000101C435D96EC535DA6E640ED926010E3A
:1012B000DA22DE505D5CDE505E58D8A062EF09F0A5
:1012C00064EF09F041EF09F0D80E1A6E010E1B6EA3
:1012D000E10E1C6E010E1D6EF4EC12F00101C44B08
:1012E000C52B09EF09F01FEF00F01EC034F01FC03E
:1012F00035F020C036F021C037F022C038F023C0CE
:1013000039F024C03AF025C03BF03BBE8AEF09F02B
:101310008DEF09F0010E8EEF09F0000E3E6E3E508B
:10132000D8B495EF09F097EF09F0A7EF09F03B1E4D
:101330003A1E391E381E371E361E351E346C000EFE
:10134000352236223722382239223A223B22010125
:10135000EDBFB5EF09F0ED5106E1EC05D8B0B3EF04
:1013600009F0B5EF09F0BBEF09F0000E316E010E88
:10137000306EBFEF09F0ECC130F0EDC131F0EAC1E1
:1013800032F0EBC133F03E50D8B4C9EF09F0CBEFE7
:1013900009F0E2EF09F03206D8A033063E50D8A497
:1013A000D4EF09F0D6EF09F0DCEF09F0000E2F6E54
:1013B0002B0E2E6EE0EF09F0000E2F6E2D0E2E6E0E
:1013C0002EC03EF0000E3D6E1F0E3C6E000E020160
:1013D0006F6F67EF0AF03C06D8A03D06500E3C2424
:1013E000D96E020E3D20DA6E34C001F035C002F035
:1013F00036C003F037C004F038C005F039C006F03D
:101400003AC007F03BC008F00A0E096E000E0A6EE3
:10141000000E0B6E000E0C6E000E0D6E000E0E6EAA
:10142000000E0F6E000E106E9DEC0DF001C026F048
:1014300002C027F003C028F004C029F005C02AF03C
:1014400006C02BF007C02CF008C02DF026C013F00A
:1014500027C014F040EC15F01350300FDF6E30064B
:10146000D8A031063206D8A0330634C001F035C00A
:1014700002F036C003F037C004F038C005F039C0C0
:1014800006F03AC007F03BC008F00A0E096E000EE5
:101490000A6E000E0B6E000E0C6E000E0D6E000E2E
:1014A0000E6E000E0F6E000E106ED9EC0CF001C027
:1014B00034F002C035F003C036F004C037F005C088
:1014C00038F006C039F007C03AF008C03BF03DBE26
:1014D00072EF0AF03D5008E13C04D8A072EF0AF028
:1014E00074EF0AF090EF0AF03450351036103710D0
:1014F000381039103A103B10D8A481EF0AF083EF6E
:101500000AF0EBEF09F031BE90EF0AF0315006E13E
:101510003004D8B08EEF0AF090EF0AF0EBEF09F04C
:101520003E50D8B496EF0AF098EF0AF0A3EF0AF015
:101530003C06D8A03D06500E3C24D96E020E3D203C
:10154000DA6E3EC0DFFF1CC011F01DC012F0500E5D
:101550003C24136E020E3D20146E32C015F033C0D1
:1015600016F080EC13F0120020EE02F00150D926A4
:101570000250DA22DECF0FF0DDCF10F020EE04F0C3
:101580000150D9260250DA22DECF11F0DDCF12F061
:1015900020EE06F00150D9260250DA22DECF13F0F9
:1015A000DDCF14F0000E1C6E000E1B6E1BC005F08C
:1015B0001CC006F0D89005360636D890053606369B
:1015C000D8900536063605500324076E06500420D1
:1015D000086E020E0724D96E000E0820DA6EDECFE8
:1015E00015F0DDCF16F01BC005F01CC006F0D8903A
:1015F00005360636D89005360636D89005360636B6
:1016000005500324076E06500420086E040E0724BC
:10161000D96E000E0820DA6EDECF17F0DDCF18F09D
:101620001BC005F01CC006F0D89005360636D890D1
:1016300005360636D8900536063605500324076E63
:1016400006500420086E060E0724D96E000E0820EE
:10165000DA6EDECF19F0DDCF1AF0000E0C6EEC0E54
:101660001524056EFF0E1620066E0F50055C1050F7
:101670000658D8B03EEF0BF040EF0BF053EF0BF0F5
:10168000140E1524056E000E1620066E05500F5C14
:1016900006501058D8B04FEF0BF051EF0BF053EF4E
:1016A0000BF0010E0C6E0C50D8A459EF0BF05CEF50
:1016B0000BF0010E5DEF0BF0000E096E000E0D6ECB
:1016C000EC0E1924056EFF0E1A20066E1350055CF1
:1016D00014500658D8B06FEF0BF071EF0BF084EF99
:1016E0000BF0140E1924056E000E1A20066E05501C
:1016F000135C06501458D8B080EF0BF082EF0BF05B
:1017000084EF0BF0010E0D6E0D50D8A48AEF0BF094
:101710008DEF0BF0010E8EEF0BF0000E0A6E000E37
:101720000E6EEC0E1724056EFF0E1820066E11507B
:10173000055C12500658D8B0A0EF0BF0A2EF0BF0EA
:10174000B5EF0BF0140E1724056E000E1820066E70
:101750000550115C06501258D8B0B1EF0BF0B3EF42
:101760000BF0B5EF0BF0010E0E6E0E50D8A4BBEFD0
:101770000BF0BEEF0BF0010EBFEF0BF0000E0B6E87
:101780000950D8B4C6EF0BF0C8EF0BF0DEEF0BF04A
:101790000A50D8B4CEEF0BF0D0EF0BF0DEEF0BF029
:1017A0000B50D8B4D6EF0BF0D8EF0BF0DEEF0BF008
:1017B0001BC001F01CC002F0EEEF0BF01B4A1C2A0C
:1017C0001CBEECEF0BF01C5009E1080E1B5CD8A00E
:1017D000ECEF0BF0EEEF0BF0D6EF0AF0120020EE7C
:1017E00001F00F50D9261050DA22DF50D8B4FBEFA9
:1017F0000BF0FDEF0BF02EEF0CF00FC0D9FF10C077
:10180000DAFFDF50116E1150016E026A20EE07F010
:101810000F50D9261050DA22DECF03F0DDCF04F0CE
:10182000B4EC15F001C007F002C008F0000E0A6E1B
:10183000640E096EF8EC0FF020EE07F00F50D92679
:101840001050DA22DECF12F0DDCF13F00750125C19
:10185000186E08501358196E51EF0CF00FC0D9FFD5
:1018600010C0DAFFDF50116E1150016E026A20EED7
:1018700007F00F50D9261050DA22DECF03F0DDCF6B
:1018800004F0B4EC15F001C007F002C008F0000E3F
:101890000A6E640E096EF8EC0FF007C018F008C06D
:1018A00019F020EE02F00F50D9261050DA22DECFC8
:1018B00011F0DDCF12F011C0D9FF12C0DAFF18C04D
:1018C000DFFF20EE01F00F50D9261050DA22DF5052
:1018D000D8B46DEF0CF06FEF0CF0A4EF0CF020EE2D
:1018E00004F00F50D9261050DA22DECF11F0DDCFF0
:1018F00012F011C0D9FF12C0DAFF10EE04F00F5041
:10190000E1261050E222E6CF13F0E5CF14F013C029
:10191000E1FF14C0E2FFE750156E10EE06F00F5025
:10192000E1261050E222E750166E010E176E162ABD
:101930009CEF0CF0D8901736162E9AEF0CF017503B
:101940001510DF6ED8EF0CF020EE04F00F50D92602
:101950001050DA22DECF11F0DDCF12F011C0D9FF26
:1019600012C0DAFF10EE04F00F50E1261050E22210
:10197000E6CF13F0E5CF14F013C0E1FF14C0E2FF8F
:10198000E750156E10EE06F00F50E1261050E222DF
:10199000E750166E010E176E162AD1EF0CF0D89094
:1019A0001736162ECFEF0CF01750FF0A1514DF6E06
:1019B0001200000E126E10BEE2EF0CF0E0EF0CF021
:1019C000F4EF0CF0101E0F1E0E1E0D1E0C1E0B1E33
:1019D0000A1E096C000E0A220B220C220D220E2276
:1019E0000F221022010E126E08BEFBEF0CF0F9EF71
:1019F0000CF00DEF0DF0081E071E061E051E041E3E
:101A0000031E021E016C000E022203220422052284
:101A1000062207220822010E121A20EE13F0070EEA
:101A2000DE6AE806FDE209500A100B100C100D10DA
:101A30000E100F101010D8B420EF0DF022EF0DF0A3
:101A400074EF0DF0010E116E30EF0DF0D8900936E5
:101A50000A360B360C360D360E360F361036112A76
:101A600010AE35EF0DF037EF0DF026EF0DF0D890FA
:101A700013361436153616361736183619361A3602
:101A80000950015C0A5002580B5003580C5004587E
:101A90000D5005580E5006580F5007581050085852
:101AA000D8A055EF0DF057EF0DF068EF0DF009508D
:101AB000015E0A50025A0B50035A0C50045A0D5042
:101AC000055A0E50065A0F50075A1050085A1380E4
:101AD000D89010320F320E320D320C320B320A32E5
:101AE0000932112E37EF0DF01250D8B47AEF0DF005
:101AF0007CEF0DF08CEF0DF01A1E191E181E171E2C
:101B0000161E151E141E136C000E1422152216220A
:101B10001722182219221A2213C001F014C002F051
:101B200015C003F016C004F017C005F018C006F089
:101B300019C007F01AC008F01200000E126E08BE9D
:101B4000A6EF0DF0A4EF0DF0B8EF0DF0081E071E84
:101B5000061E051E041E031E021E016C000E02223C
:101B6000032204220522062207220822010E126EF9
:101B700010BEBFEF0DF0BDEF0DF0CFEF0DF0101E5A
:101B80000F1E0E1E0D1E0C1E0B1E0A1E096C000ED3
:101B90000A220B220C220D220E220F2210220950A3
:101BA0000A100B100C100D100E100F101010D8B4DE
:101BB000DCEF0DF0DEEF0DF026EF0EF0010E116EF2
:101BC000ECEF0DF0D89009360A360B360C360D3690
:101BD0000E360F361036112A10AEF1EF0DF0F3EF7E
:101BE0000DF0E2EF0DF00950015C0A5002580B5065
:101BF00003580C5004580D5005580E5006580F50FD
:101C0000075810500858D8A008EF0EF00AEF0EF051
:101C10001AEF0EF00950015E0A50025A0B50035A97
:101C20000C50045A0D50055A0E50065A0F50075AC0
:101C30001050085AD89010320F320E320D320C323A
:101C40000B320A320932112EF3EF0DF01250D8B4D4
:101C50002CEF0EF02EEF0EF03EEF0EF0081E071EDA
:101C6000061E051E041E031E021E016C000E02222B
:101C700003220422052206220722082201C001F0C5
:101C800002C002F003C003F004C004F005C005F078
:101C900006C006F007C007F008C008F0120041C0F7
:101CA000D9FF42C0DAFFDECFF6FFDDCFF7FF000E2F
:101CB000F86E0800F550250AD8A461EF0EF063EF26
:101CC0000EF0E7EF0EF041C0D9FF42C0DAFFDE2A86
:101CD000000EDD22000E0101EB6F000EEA6FEAC17B
:101CE000F4F1EC69ED6941C0D9FF42C0DAFFDECF03
:101CF0004FF0DDCF50F04FC0F6FF50C0F7FF000EA1
:101D0000F86E0800F550640AD8B489EF0EF08BEF36
:101D10000EF09BEF0EF04FC0F6FF50C0F7FF000E25
:101D2000F86E0800F550690AD8A499EF0EF09BEF01
:101D30000EF0DEEF0EF043C0D9FF44C0DAFFDFCF74
:101D400045F0020EDE26DFCF46F0000EDD2245C054
:101D5000D9FF46C0DAFFDECF47F0DDCF48F0000EF6
:101D600048BEFF0E496E4A6E4B6E4C6E4D6E4E6E07
:101D7000010E4F24456E000E5020466E41C0D9FF23
:101D800042C0DAFF45C0DEFF46C0DDFF3FC01CF0A9
:101D900040C01DF047C01EF048C01FF049C020F0F1
:101DA0004AC021F04BC022F04CC023F04DC024F0BB
:101DB0004EC025F075EC09F0FDEF0EF041C0D9FFE3
:101DC00042C0DAFFDE2A000EDD22FDEF0EF041C038
:101DD000D9FF42C0DAFFDECFF6FFDDCFF7FF000EFE
:101DE000F86E0800F550016E026A3FC003F040C073
:101DF00004F093EC0FF0DEEF0EF0120068EF0FF03E
:101E000024C01AF025C01BF026C01CF027C01DF00E
:101E10000CEC11F092EF0FF024C01AF025C01BF06B
:101E200026C01CF027C01DF05EEC11F092EF0FF001
:101E300024C01AF025C01BF026C01CF027C01DF0DE
:101E4000B0EC11F092EF0FF024C01AF025C01BF097
:101E500026C01CF027C01DF052EC12F024C01AF06E
:101E600025C01BF026C01CF027C01DF00CEC11F0A3
:101E700092EF0FF024C01AF025C01BF026C01CF012
:101E800027C01DF052EC12F024C01AF025C01BF040
:101E900026C01CF027C01DF05EEC11F092EF0FF091
:101EA00024C01AF025C01BF026C01CF027C01DF06E
:101EB00001EC12F092EF0FF024C01AF025C01BF0D5
:101EC00026C01CF027C01DF0A3EC12F092EF0FF01B
:101ED00022C028F023C029F02950000AD8B473EF9B
:101EE0000FF092EF0FF02850010AD8B400EF0FF076
:101EF000030AD8B40CEF0FF0010AD8B418EF0FF0B2
:101F0000070AD8B424EF0FF0010AD8B43AEF0FF063
:101F1000030AD8B450EF0FF0010AD8B45CEF0FF009
:101F200092EF0FF0120003500410D8B49AEF0FF0A4
:101F30009CEF0FF0A5EF0FF003500410D8A4A3EF0F
:101F40000FF0A5EF0FF0AAEF0FF0015022EC16F002
:101F5000F7EF0FF020EE09F00350D9260450DA22F3
:101F6000DE50DE10D8B4B7EF0FF0B9EF0FF0D4EFBA
:101F70000FF020EE09F00350D9260450DA2210EEBB
:101F800003F00350E1260450E222DE50E65CE65006
:101F9000800A096EDE50800A0958D8B0D2EF0FF0DF
:101FA000D4EF0FF0F7EF0FF020EE03F00350D92637
:101FB0000450DA22DECF05F0DDCF06F003C0D9FFF2
:101FC00004C0DAFFDECF07F0DDCF08F005500724AC
:101FD000D96E06500820DA6E01C0DFFF20EE03F054
:101FE0000350D9260450DA22DE2A000EDD22120028
:101FF000000E0C6E0ABE01EF10F0FFEF0FF007EFBE
:1020000010F0096C0A1ED8B00A2A010E0C6E08BE28
:102010000EEF10F00CEF10F014EF10F0076C081E2C
:10202000D8B0082A010E0C1A000E0E6E000E0D6EAE
:1020300009500A10D8B41FEF10F021EF10F049EF4B
:1020400010F0010E0B6E29EF10F0D89009360A3609
:102050000B2A0AAE2EEF10F030EF10F025EF10F043
:10206000D8900D360E360950075C0A500858D8A093
:102070003CEF10F03EEF10F043EF10F00950075E18
:102080000A50085A0D80D8900A3209320B2E30EFD0
:1020900010F00C50D8B44FEF10F051EF10F055EF96
:1020A00010F00D6C0E1ED8B00E2A0DC007F00EC039
:1020B00008F0120020EE02F00150D9260250DA2278
:1020C000DECF07F0DDCF08F020EE04F00150D92676
:1020D0000250DA22DECF09F0DDCF0AF020EE06F062
:1020E0000150D9260250DA22DECF05F0DDCF06F00E
:1020F0000950075C0A500858D8A081EF10F083EF10
:1021000010F094EF10F00550075C06500858D8A066
:102110008CEF10F08EEF10F094EF10F0000E046EC4
:10212000010E036EB4EF10F00750095C08500A5816
:10213000D8A09DEF10F09FEF10F0B0EF10F0055019
:10214000095C06500A58D8A0A8EF10F0AAEF10F0CA
:10215000B0EF10F0000E046E020E036EB4EF10F03C
:10216000000E046E030E036E03C001F004C002F003
:10217000120064EC14F00CC0D9FF0DC0DAFF05C0EA
:10218000DEFF06C0DDFF090E0F6E1E0E0E6EE40EA2
:10219000E82EFED70E2EFCD70F2EFAD700D03CEC3F
:1021A00014F020EE02F00C50D9260D50DA2205C0B2
:1021B000DEFF06C0DDFF090E0F6E1E0E0E6EE40E72
:1021C000E82EFED70E2EFCD70F2EFAD700D08CECBF
:1021D00014F020EE04F00C50D9260D50DA2205C080
:1021E000DEFF06C0DDFF090E0F6E1E0E0E6EE40E42
:1021F000E82EFED70E2EFCD70F2EFAD700D0B4EC67
:1022000014F020EE06F00C50D9260D50DA2205C04D
:10221000DEFF06C0DDFF120020EE01F01A50D926C5
:102220001B50DA22010EDF6E20EE01F01C50D92681
:102230001D50DA22000EDF6E000E216E000E206EA1
:102240001AC0D9FF1BC0DAFF20C0DFFF2050320FB9
:102250001CC0D9FF1DC0DAFFDF6E1AC00FF01BC013
:1022600010F0EFEC0BF01CC00FF01DC010F0EFEC05
:102270000BF0350EE82EFED700F0020E2024206E63
:10228000000E2120216E21BE4FEF11F0215009E1F7
:10229000320E205CD8A04FEF11F051EF11F020EF7B
:1022A00011F00E0E1F6E650E1E6E870EE82EFED705
:1022B0001E2EFCD71F2EFAD700F0120020EE01F0E0
:1022C0001A50D9261B50DA22000EDF6E20EE01F0E4
:1022D0001C50D9261D50DA22010EDF6E000E216E31
:1022E000000E206E2050320F1AC0D9FF1BC0DAFF3B
:1022F000DF6E1CC0D9FF1DC0DAFF20C0DFFF1AC08F
:102300000FF01BC010F0EFEC0BF01CC00FF01DC065
:1023100010F0EFEC0BF0350EE82EFED700F0020EB9
:102320002024206E000E2120216E21BEA1EF11F08D
:10233000215009E1320E205CD8A0A1EF11F0A3EFEB
:1023400011F072EF11F00E0E1F6E650E1E6E870EED
:10235000E82EFED71E2EFCD71F2EFAD700F0120053
:1023600020EE01F01A50D9261B50DA22010EDF6E42
:1023700020EE01F01C50D9261D50DA22000EDF6E2F
:10238000000E216E000E206E1AC0D9FF1BC0DAFFAE
:1023900020C0DFFF2050320F1CC0D9FF1DC0DAFF64
:1023A000DF6E1AC00FF01BC010F0EFEC0BF01CC07A
:1023B0000FF01DC010F0EFEC0BF0350EE82EFED73D
:1023C00000F0020E2024206E000E2120216E21BE7E
:1023D000F3EF11F0215009E1320E205CD8A0F3EFA9
:1023E00011F0F5EF11F0C4EF11F0180E1F6E8A0E08
:1023F0001E6EE80EE82EFED71E2EFCD71F2EFAD733
:10240000120020EE01F01A50D9261B50DA22010EDC
:10241000DF6E20EE01F01C50D9261D50DA22000E8E
:10242000DF6E000E216E000E206E1AC0D9FF1BC099
:10243000DAFF20C0DFFF2050320F1CC0D9FF1DC0C3
:10244000DAFFDF6E1AC00FF01BC010F0EFEC0BF0DC
:102450001CC00FF01DC010F0EFEC0BF0350EE82E95
:10246000FED700F0020E2024206E000E2120216EE7
:1024700021BE44EF12F0215009E1320E205CD8A0B9
:1024800044EF12F046EF12F015EF12F0130E1F6E2C
:10249000AC0E1E6E2A0EE82EFED71E2EFCD71F2E67
:1024A000FAD7120020EE01F01A50D9261B50DA227A
:1024B000000EDF6E20EE01F01C50D9261D50DA22EE
:1024C000000EDF6E000E216E000E206E1AC0D9FFC6
:1024D0001BC0DAFF20C0DFFF1CC0D9FF1DC0DAFF20
:1024E00020C0DFFF1AC00FF01BC010F0EFEC0BF0A4
:1024F0001CC00FF01DC010F0EFEC0BF0350EE82EF5
:10250000FED700F0020E2024206E000E2120216E46
:1025100021BE94EF12F0215009E1330E205CD8A0C7
:1025200094EF12F096EF12F066EF12F05A0E1F6E53
:10253000490E1E6EE70EE82EFED71E2EFCD71F2E6C
:10254000FAD700F0120020EE01F01A50D9261B50E5
:10255000DA22000EDF6E20EE01F01C50D9261D504D
:10256000DA22010EDF6E000E216E000E206E20506A
:10257000320F1AC0D9FF1BC0DAFFDF6E1CC0D9FFB3
:102580001DC0DAFF20C0DFFF1AC00FF01BC010F023
:10259000EFEC0BF01CC00FF01DC010F0EFEC0BF0D7
:1025A000350EE82EFED700F0020E2024206E000E1D
:1025B0002120216E21BEE6EF12F0215009E1320EFA
:1025C000205CD8A0E6EF12F0E8EF12F0B7EF12F0BF
:1025D000130E1F6EAC0E1E6E2A0EE82EFED71E2E98
:1025E000FCD71F2EFAD7120020EE01F01A50D92680
:1025F0001B50DA22000EDF6E20EE01F01C50D926AF
:102600001D50DA22000EDF6E000E206E050E1F6ECA
:102610001AC0D9FF1BC0DAFF1FC0DFFF1CC0D9FFE3
:102620001DC0DAFF1FC0DFFF1AC00FF01BC010F083
:10263000EFEC0BF01CC00FF01DC010F0EFEC0BF036
:10264000D00E1E6ECA0EE82EFED71E2EFCD7FF0E31
:102650001F241F6EFF0E2020206E20BE3AEF13F0C5
:10266000205006E11F04D8B038EF13F03AEF13F012
:1026700008EF13F0120020EE01F01A50D9261B507B
:10268000DA22010EDF6E20EE01F01C50D9261D501B
:10269000DA22010EDF6E000E1F6E000E1E6E1AC0D3
:1026A000D9FF1BC0DAFF1EC0DFFF1CC0D9FF1DC051
:1026B000DAFF1EC0DFFF1AC00FF01BC010F0EFECF6
:1026C0000BF01CC00FF01DC010F0EFEC0BF06A0E09
:1026D000E82EFED700D0020E1E241E6E000E1F2014
:1026E0001F6E1FBE7DEF13F01F5009E11F0E1E5C11
:1026F000D8A07DEF13F07FEF13F04FEF13F012002F
:1027000016BE85EF13F087EF13F08DEF13F015C0B1
:102710001AF016C01BF091EF13F0000E1B6E000EA6
:102720001A6E000E196E000E186EA3EF13F0000E55
:10273000026E200E016E11C003F012C004F093EC83
:102740000FF0184A192A1A50185C1950800A176E8F
:102750001B50800A1758D8A0B0EF13F0B2EF13F057
:1027600097EF13F013C00AF014C00BF011C00CF077
:1027700012C00DF0DCEC14F0120078EC15F0010E34
:10278000036E000EC7EC15F03F0E056E550EE82ED9
:10279000FED7052EFCD700F0030E036E000EC7EC2B
:1027A00015F0D50E036E010EC7EC15F088928496D5
:1027B00084988890869080827C867C9880907E9099
:1027C0007C9E8096849E889686840E01B49586862B
:1027D000B4971200640E00016E6F000E6F6F60C040
:1027E00070F061C071F0000E746F000E736F000E18
:1027F0007A6F000E796F700E516E000E526E62C0CD
:1028000053F063C054F06E0E556E000E566E13EC0E
:1028100014F0000173516025D96E74516121DA6E94
:10282000000EDF6E120053C057F054C058F027EF6F
:1028300014F051C03FF052C040F0570E416E000EF0
:10284000426E55C043F056C044F04FEC0EF057C0F6
:10285000F6FF58C0F7FF000EF86E0800F5500009AB
:10286000D8A435EF14F037EF14F019EF14F0000E80
:10287000526E000E516E12001DEC16F0520E0DEC51
:1028800016F0B60E0DEC16F013EC16F0530E0DEC20
:1028900016F0010E1FEC15F0076E07500A6E0B6A5A
:1028A000000E1FEC15F0076E0750096E086A0A50FB
:1028B00008100A6E0B5009100B6E18EC16F00AC0C7
:1028C00005F00BC006F012001DEC16F0520E0DECD8
:1028D00016F0B40E0DEC16F013EC16F0530E0DECD2
:1028E00016F0010E1FEC15F0076E07500A6E0B6A0A
:1028F000000E1FEC15F0076E0750096E086A0A50AB
:1029000008100A6E0B5009100B6E18EC16F00AC076
:1029100005F00BC006F012001DEC16F0520E0DEC87
:1029200016F0B80E0DEC16F013EC16F0530E0DEC7D
:1029300016F0010E1FEC15F0076E07500A6E0B6AB9
:10294000000E1FEC15F0076E0750096E086A0A505A
:1029500008100A6E0B5009100B6E18EC16F00AC026
:1029600005F00BC006F012001DEC16F0520E0DEC37
:1029700016F0BA0E0DEC16F013EC16F0530E0DEC2B
:1029800016F0010E1FEC15F0076E07500A6E0B6A69
:10299000000E1FEC15F0076E0750096E086A0A500A
:1029A00008100A6E0B5009100B6E18EC16F00AC0D6
:1029B00005F00BC006F01200000E106E000E0F6E38
:1029C000EDEF14F00EC001F0026A0CC003F00DC070
:1029D00004F093EC0FF00F4A102A0F500A24D96E1E
:1029E00010500B20DA6EDF500E6E0E50D8A4FBEFA5
:1029F00014F0FDEF14F0E2EF14F0120085948598C6
:102A0000839E879C7D947D987B9E7F9CBD508F0B81
:102A10003009BD6EE00EBE16BF50F00B0109BF6E4F
:102A200001C0BCFFBD8E0A0E0E01746F0B0E696FE4
:102A3000000EA36E000EA06EA48EA18E1200036E77
:102A40008DEC15F00E01DA878DEC15F0D5CE04F083
:102A50008DEC15F00350D8B430EF15F034EF15F0CD
:102A6000026A022A35EF15F0026A023A02460E01A6
:102A7000DA510218DF0B0218DA6FDA8904501200FB
:102A800014BE4DEF15F0145006E11304D8B04BEF0F
:102A900015F04DEF15F05BEF15F013C015F014C0F5
:102AA00016F0151E161E154A162A15C013F016C06C
:102AB00014F05FEF15F013C013F014C014F01200FF
:102AC0006BEF15F002C0D9FF03C0DAFFDF50F6EC60
:102AD00015F0024A032A02C0D9FF03C0DAFFDF5013
:102AE000D8A475EF15F077EF15F062EF15F012002E
:102AF0000E01D951F00B0809D96FD98B9F0ED66FF3
:102B0000848A848CA79BA79D1D0E1D6F1E0E1C6FB3
:102B10001C0E6F6F1B0E706F12000E01D8B593EF75
:102B200015F095EF15F08DEF15F0DACE01F01F0ED0
:102B30000116D8A49EEF15F0A0EF15F08DEF15F05B
:102B4000120002EE00F0700EEE6AE806FDE101EE02
:102B5000EAF00E0EEE6AE806FDE10001FF6B5F9001
:102B60005F9200010AEF07F001500302F3CF05F076
:102B7000F4CF06F001500402F3500626025003027F
:102B8000F350062605C001F006C002F01200046EE4
:102B90001DEC16F0520E0DEC16F0045080090DECF1
:102BA00016F003500DEC16F018EC16F01200D6508B
:102BB0001F0B4009D66ED688D650F00B0709D66E8B
:102BC000D588F60ED46E3B0ED36ED58E1200120E43
:102BD0000E01626F110E156FE997E895670EE56FAC
:102BE000000EE66FE789E88BE78F1200016E0E0199
:102BF00037A5FDEF15F0FFEF15F0F7EF15F001C069
:102C0000E4FE1200F28AF28C0E01298B1F8B339B9B
:102C10002B8121913591F28E1200026E8DEC15F010
:102C200002C0D5FE12008DEC15F00E01DA83120001
:102C30008DEC15F00E01DA8512008DEC15F00E0109
:062C4000DA81120012000F
:020000040020DA
:10000000FF0FFF0FFF0FFF0FFF0FFF0FFF0FFF0F80
:020000040030CA
:0C000000AAFFFFFF9FFFFFFFFFFFFFFFB5
:00000001FF
