:0400000037EFFFF0E7
:020000040001F9
:10FE6E0000019DEFFFF05AECFFF00E01DA81120057
:10FE7E005AECFFF00E01DA851200026E5AECFFF01A
:10FE8E0002C0D5FE1200046E3AECFFF0520E44ECA6
:10FE9E00FFF00450800944ECFFF0035044ECFFF0F7
:10FEAE003FECFFF012000E01D8B560EFFFF062EFED
:10FEBE00FFF05AEFFFF0DACE01F01F0E0116D8A4B4
:10FECE006BEFFFF06DEFFFF05AEFFFF012000E0137
:10FEDE00D951F00B0809D96FD98B9F0ED66F848A32
:10FEEE00848CA79BA79D1D0E1D6F1E0E1C6F1C0ED6
:10FEFE006F6F1B0E706F12006EECFFF0010E036E33
:10FF0E00000E4AECFFF03F0E056E550EE82EFED7A2
:10FF1E00052EFCD700F0030E036E000E4AECFFF028
:10FF2E00D50E036E010E4AECFFF012007C9E8096F9
:10FF3E00849E889686840E01B4958686B49783EC4B
:10FF4E00FFF0010E8EA6000E8EA4000EE8B0B2EFEA
:10FF5E00FFF0B6EFFFF0066A062AB7EFFFF0066A6B
:10FF6E000650D8A4BDEFFFF0BFEFFFF0A8EFFFF0F3
:10FF7E008EB4C4EFFFF0C6EFFFF0D9EFFFF07CAE0A
:10FF8E00CBEFFFF0CFEFFFF0066A062AD0EFFFF0BF
:10FF9E00066A063206327C5006187F0B06187C6EF7
:10FFAE00F2EFFFF08EB6DEEFFFF0E0EFFFF0F2EFD4
:10FFBE00FFF080A6E5EFFFF0E9EFFFF0066A062AF4
:10FFCE00EAEFFFF0066A0646064606468050061819
:10FFDE00F70B0618806E7CAEF7EFFFF0F9EFFFF02F
:10FFEE00FBEFFFF0F2EFFFF08050F2EFFFF000EFCB
:02FFFE0000F011
:020000040020DA
:10000000FF0FFF0FFF0FFF0FFF0FFF0FFF0FFF0F80
:020000040030CA
:0C000000AAFFFFFF9FFFFFFFFFFFFFFFB5
:00000001FF
