:040000001FEF00F0FE
:1000080056820E0133BB0BEF00F00DEF00F014EF3A
:1000180000F08EB412EF00F014EF00F01DEF00F0C6
:100028000001F44BF52BDB0ED36E0B0ED46E0E01D4
:10003800339B56921100E5EF0FF018EC0FF0000E0D
:10004800026E140E016E09EC10F0B6EC10F097EC8D
:1000580010F04BEC10F0A7EC10F0000E0001CE6F82
:10006800000ECF6FA30ED06F0F0ED16F7D0ED26F23
:100078000F0ED36F040ED46F000ED66FC70ED56F58
:10008800000ED76F000ED86FA00ED96F0F0EDA6F63
:100098007F0EDB6F0F0EDC6F060EDD6F000EDF6F5D
:1000A800C70EDE6FCE0E0F6E000E106EBBEC08F0A2
:1000B800D70E0F6E000E106EBBEC08F0000E00019C
:1000C800C16F000EC06F20EEEAF010EEA0F0090E2E
:1000D800DBCFE3FFE806FCE220EEE0F010EEAAF04A
:1000E800090EDBCFE3FFE806FCE2010E8EA6000E48
:1000F8008EA4000EE8B083EF00F087EF00F0386AB6
:10010800382A88EF00F0386A3850D8A48EEF00F00B
:1001180090EF00F079EF00F08EB495EF00F097EFD4
:1001280000F09AEF00F07C8E9BEF00F08086000EC6
:100138000001C36F050EC26FF29E000EBF6F000E66
:10014800BE6FD890C235D96EC335DA6EA00ED926E7
:10015800000EDA22DECF22F0DDCF23F0CE0E246EA1
:10016800000E256ED70E266E000E276EEEEC06F0FA
:10017800290E396E960E386E7F0EE82EFED7382E71
:10018800FCD7392EFAD700F0CE0E1A6E000E1B6E71
:10019800D70E1C6E000E1D6E8EEC0DF0F9EF00F000
:1001A800290E396E960E386E7F0EE82EFED7382E41
:1001B800FCD7392EFAD700F00001BE4BBF2BCE0E6C
:1001C8001A6E000E1B6ED70E1C6E000E1D6ED1EC43
:1001D8000EF0090E396E1E0E386EE40EE82EFED7AC
:1001E800382EFCD7392EFAD700D0D8900001C23566
:1001F800D96EC335DA6EAA0ED926000EDA22DE5081
:10020800BE5DDE50BF59D8A00CEF01F00EEF01F033
:10021800D4EF00F0CE0E1A6E000E1B6ED70E1C6EB9
:10022800000E1D6ED1EC0EF00001C207D8A0C30766
:10023800C3BF29EF01F0C35106E1C205D8B027EFCB
:1002480001F029EF01F0A0EF00F0ECEF01F0000E53
:10025800F56F000EF46F000E236E000E226ECE0EA8
:10026800246E000E256ED70E266E000E276E9EECAD
:1002780002F0290E396E960E386E7F0EE82EFED7E4
:10028800382EFCD7392EFAD700F0C60E0C6E000EA9
:100298000D6EF5EC0BF00001B651C65DB751C759AC
:1002A800D8B059EF01F05BEF01F06AEF01F0C651E9
:1002B800B45DC751B559D8B064EF01F066EF01F0ED
:1002C8006AEF01F0000EB96F010EB86FB851B9119D
:1002D800D8B471EF01F073EF01F0E0EF01F0808026
:1002E8007E80CE0E1A6E000E1B6ED70E1C6E000E90
:1002F8001D6ED1EC0EF0C60E0C6E000E0D6EF5ECF8
:100308000BF07CAE8AEF01F08CEF01F09CEF01F06E
:10031800C60E016E000E026E600E036E000E046EB5
:100328007FEC0AF001C0C0F002C0C1F0AAEF01F0F2
:10033800C60E346E000E356E600E366E000E376EC9
:10034800E0EC10F034C0C0F035C0C1F0D890000126
:10035800BA35D96EBB35DA6EA00ED926000EDA2270
:10036800C0C0DEFFC1C0DDFFD890BA35D96EBB353D
:10037800DA6EAA0ED926000EDA22F4C0DEFFF5C026
:10038800DDFFC0C022F0C1C023F0CE0E246E000EE7
:10039800256ED70E266E000E276E9EEC02F0000129
:1003A800BA4BBB2B000EF56F000EF46F000EB96F41
:1003B800000EB86F80907E90110E396E3C0E386E2C
:1003C800CB0EE82EFED7382EFCD7392EFAD700F000
:1003D800080E0001C019C111D8A4F5EF01F0F7EF1C
:1003E80001F02BEF01F0CE0E1A6E000E1B6ED70E29
:1003F8001C6E000E1D6EECEC0CF0000E0001BD6FC3
:10040800000EBC6FBDBF14EF02F0BD5107E10D0E29
:10041800BC5DD8B012EF02F014EF02F016EF02F054
:100428002DEF02F080A61BEF02F01FEF02F0386AF2
:10043800382A20EF02F0386A384638463846805065
:100448003818F70B3818806E0001BC4BBD2B06EF2F
:1004580002F0000EC56F0F0EC46FC5BF3EEF02F06D
:10046800C55106E1C405D8B03CEF02F03EEF02F0FA
:1004780040EF02F079EF00F0F29E000EBF6F000E21
:10048800BE6FD890C435D96EC535DA6EA00ED926A0
:10049800000EDA22DECF22F0DDCF23F0CE0E246E5E
:1004A800000E256ED70E266E000E276EEEEC06F0B7
:1004B800CE0E1A6E000E1B6ED70E1C6E000E1D6E31
:1004C80030EC0EF077EF02F0290E396E960E386E8A
:1004D8007F0EE82EFED7382EFCD7392EFAD700F03B
:1004E8000001BE4BBF2BD8900001C435D96EC5356D
:1004F800DA6EAA0ED926000EDA22DE50BE5DDE5074
:10050800BF59D8A08AEF02F08CEF02F068EF02F032
:10051800CE0E1A6E000E1B6ED70E1C6E000E1D6ED0
:10052800D1EC0EF00001C407D8A0C50731EF02F0E6
:100538001FEF00F0A6EF04F024C01AF025C01BF04E
:1005480026C01CF027C01DF081EC0EF024C01AF064
:1005580025C01BF026C01CF027C01DF0D1EC0EF002
:10056800290E296E960E286E7F0EE82EFED7282EAD
:10057800FCD7292EFAD700F024C01AF025C01BF0AA
:1005880026C01CF027C01DF048EC0CF024C01AF05F
:1005980025C01BF026C01CF027C01DF0D1EC0EF0C2
:1005A800290E296E960E286E7F0EE82EFED7282E6D
:1005B800FCD7292EFAD700F024C01AF025C01BF06A
:1005C80026C01CF027C01DF048EC0CF024C01AF01F
:1005D80025C01BF026C01CF027C01DF0D1EC0EF082
:1005E800D8EF04F024C01AF025C01BF026C01CF078
:1005F80027C01DF081EC0EF024C01AF025C01BF0B6
:1006080026C01CF027C01DF0D1EC0EF0290E296E73
:10061800960E286E7F0EE82EFED7282EFCD7292EA0
:10062800FAD700F024C01AF025C01BF026C01CF031
:1006380027C01DF09AEC0CF024C01AF025C01BF05E
:1006480026C01CF027C01DF0D1EC0EF0D8EF04F046
:1006580024C01AF025C01BF026C01CF027C01DF0CE
:1006680081EC0EF024C01AF025C01BF026C01CF047
:1006780027C01DF0D1EC0EF0290E296E960E286EBB
:100688007F0EE82EFED7282EFCD7292EFAD700F0A9
:1006980024C01AF025C01BF026C01CF027C01DF08E
:1006A8009AEC0CF024C01AF025C01BF026C01CF0F0
:1006B80027C01DF0D1EC0EF0290E296E960E286E7B
:1006C8007F0EE82EFED7282EFCD7292EFAD700F069
:1006D80024C01AF025C01BF026C01CF027C01DF04E
:1006E8009AEC0CF024C01AF025C01BF026C01CF0B0
:1006F80027C01DF0D1EC0EF0D8EF04F024C01AF09A
:1007080025C01BF026C01CF027C01DF08EEC0DF094
:1007180024C01AF025C01BF026C01CF027C01DF00D
:10072800D1EC0EF0B4EF02F024C01AF025C01BF093
:1007380026C01CF027C01DF08EEC0DF024C01AF066
:1007480025C01BF026C01CF027C01DF0D1EC0EF010
:100758000AEF03F024C01AF025C01BF026C01CF0D5
:1007680027C01DF081EC0EF024C01AF025C01BF044
:1007780026C01CF027C01DF0D1EC0EF0290E296E02
:10078800960E286E7F0EE82EFED7282EFCD7292E2F
:10079800FAD700F024C01AF025C01BF026C01CF0C0
:1007A80027C01DF03DEC0DF024C01AF025C01BF049
:1007B80026C01CF027C01DF0D1EC0EF0290E296EC2
:1007C800960E286E7F0EE82EFED7282EFCD7292EEF
:1007D800FAD700F024C01AF025C01BF026C01CF080
:1007E80027C01DF03DEC0DF024C01AF025C01BF009
:1007F80026C01CF027C01DF0D1EC0EF0D8EF04F095
:1008080024C01AF025C01BF026C01CF027C01DF01C
:1008180081EC0EF024C01AF025C01BF026C01CF095
:1008280027C01DF0D1EC0EF0290E296E960E286E09
:100838007F0EE82EFED7282EFCD7292EFAD700F0F7
:1008480024C01AF025C01BF026C01CF027C01DF0DC
:10085800DFEC0DF020EF03F024C01AF025C01BF0E8
:1008680026C01CF027C01DF081EC0EF024C01AF041
:1008780025C01BF026C01CF027C01DF0D1EC0EF0DF
:10088800290E296E960E286E7F0EE82EFED7282E8A
:10089800FCD7292EFAD700F024C01AF025C01BF087
:1008A80026C01CF027C01DF09AEC0CF024C01AF0EA
:1008B80025C01BF026C01CF027C01DF0D1EC0EF09F
:1008C800410E296EF00E286E330EE82EFED7282E24
:1008D800FCD7292EFAD700F024C01AF025C01BF047
:1008E80026C01CF027C01DF09AEC0CF024C01AF0AA
:1008F80025C01BF026C01CF027C01DF0D1EC0EF05F
:1009080024C01AF025C01BF026C01CF027C01DF01B
:10091800D1EC0EF024C01AF025C01BF026C01CF044
:1009280027C01DF030EC0EF0210E296E780E286ECF
:10093800980EE82EFED7282EFCD7292EFAD700D0FD
:1009480020EF03F022C028F023C029F02950000A24
:10095800D8B4B1EF04F0D8EF04F02850000AD8B4A6
:1009680084EF04F0010AD8B4A0EF02F0030AD8B467
:10097800F6EF02F0010AD8B42CEF03F0070AD8B456
:1009880082EF03F0010AD8B498EF03F0030AD8B451
:10099800AEEF03F0010AD8B404EF04F00F0AD8B49C
:1009A80030EF04F0D8EF04F012001250800B1B6EE9
:1009B80012501224216E11AEE4EF04F0E6EF04F0B9
:1009C800E7EF04F021802150D8B4EDEF04F0EFEF09
:1009D80004F002EF05F02128D8A4F5EF04F0F7EFB2
:1009E80004F0FFEF04F0000E0F6E000E106E000E04
:1009F800116E000E126E118E0AEF05F0000E0F6ECA
:100A0800000E106E000E116E000E126E1650800B46
:100A18001B1A16501624206E15AE15EF05F017EFA9
:100A280005F018EF05F020802050D8B41EEF05F02F
:100A380020EF05F033EF05F02028D8A426EF05F0C5
:100A480028EF05F030EF05F0000E136E000E146E5F
:100A5800000E156E000E166E158E3BEF05F0000E9B
:100A6800136E000E146E000E156E000E166E2050DA
:100A7800D8B441EF05F043EF05F04BEF05F02150F6
:100A8800D8A449EF05F04BEF05F055EF05F0000E3F
:100A98000F6E000E106E000E116E000E126EEDEF4E
:100AA80006F015500F02F3CF26F0F4CF27F02650AA
:100AB8001C6E1D6A1E6A1F6A2750226E236A246AEA
:100AC800256A14501002F3CF26F0F4CF27F02650F1
:100AD8001C26000E1D221E221F2227502226000E31
:100AE80023222422252213501102F3CF26F0F4CF1B
:100AF80027F026501C26000E1D221E221F222750DA
:100B08002226000E2322242225221EC01FF01DC0EB
:100B18001EF01CC01DF01C6A13501002F3CF26F003
:100B2800F4CF27F026501C2627501D22000E1E2227
:100B3800000E1F2214500F02F3CF26F0F4CF27F037
:100B480026501C2627501D22000E1E22000E1F2292
:100B58001EC01FF01DC01EF01CC01DF01C6A1350E3
:100B68000F02F3CF26F0F4CF27F026501C2627508B
:100B78001D22000E1E22000E1F2215501002F3CF58
:100B880026F0F4CF27F02650222627502322000EE5
:100B98002422000E252214501102F3CF26F0F4CFA0
:100BA80027F02650222627502322000E2422000E4A
:100BB800252215501102F3CF26F0F4CF27F0265046
:100BC800176E2750186E196A1A6A19C01AF018C0D9
:100BD80019F017C018F0176A175022261850232248
:100BE800195024221A5025221CC017F01DC018F0D5
:100BF8001EC019F01FC01AF0190E08EF06F0D890A1
:100C08001A32193218321732E82E03EF06F017504D
:100C1800222618502322195024221A5025221EC099
:100C28001FF01DC01EF01CC01DF01C6A205021C002
:100C380017F0186A1726000E1822820E1724266E3F
:100C4800FF0E1820276E3EEF06F0D8902236233686
:100C5800243625361FAE33EF06F035EF06F036EFB3
:100C680006F02280D8901C361D361E361F36260602
:100C7800D8A0270624AE43EF06F045EF06F029EF8B
:100C880006F0000E206E1FAE4CEF06F04EEF06F099
:100C980072EF06F0FF0E1C14176EFF0E1D14186E6F
:100CA800FF0E1E14196E7F0E1F141A6E175018109F
:100CB80019101A10D8B463EF06F065EF06F069EF63
:100CC80006F0010E206E72EF06F022A06EEF06F01D
:100CD80070EF06F072EF06F065EF06F02050D8B41A
:100CE80078EF06F07AEF06F09EEF06F0010E222666
:100CF800000E23222422252225A085EF06F087EF67
:100D080006F09EEF06F022C017F023C018F024C0AA
:100D180019F025C01AF01A341A321932183217325B
:100D280017C022F018C023F019C024F01AC025F00B
:100D3800264A272A27BEA9EF06F0275008E12628C9
:100D4800D8A0A9EF06F0ABEF06F0B5EF06F0000E5D
:100D5800226E000E236E800E246E7F0E256EE3EF4A
:100D680006F027BEC2EF06F0275006E12604D8B0E9
:100D7800C0EF06F0C2EF06F0CEEF06F0000E226ECE
:100D8800000E236E000E246E000E256E000E1B6EE4
:100D9800E3EF06F026C021F0FF0E2216FF0E231601
:100DA8007F0E2416000E251621A0DDEF06F0DFEFDA
:100DB80006F0E0EF06F0248ED8902130256E1B5007
:100DC800251222C00FF023C010F024C011F025C056
:100DD80012F012008CEF08F024C01AF025C01BF0A6
:100DE80026C01CF027C01DF081EC0EF024C01AF0BC
:100DF80025C01BF026C01CF027C01DF0D1EC0EF05A
:100E0800290E296E960E286E7F0EE82EFED7282E04
:100E1800FCD7292EFAD700F024C01AF025C01BF001
:100E280026C01CF027C01DF09AEC0CF024C01AF064
:100E380025C01BF026C01CF027C01DF0D1EC0EF019
:100E4800BAEF08F024C01AF025C01BF026C01CF029
:100E580027C01DF081EC0EF024C01AF025C01BF04D
:100E680026C01CF027C01DF0D1EC0EF0290E296E0B
:100E7800960E286E7F0EE82EFED7282EFCD7292E38
:100E8800FAD700F024C01AF025C01BF026C01CF0C9
:100E980027C01DF048EC0CF024C01AF025C01BF048
:100EA80026C01CF027C01DF0D1EC0EF0290E296ECB
:100EB800960E286E7F0EE82EFED7282EFCD7292EF8
:100EC800FAD700F024C01AF025C01BF026C01CF089
:100ED80027C01DF048EC0CF024C01AF025C01BF008
:100EE80026C01CF027C01DF0D1EC0EF0BAEF08F0B8
:100EF80024C01AF025C01BF026C01CF027C01DF026
:100F080081EC0EF024C01AF025C01BF026C01CF09E
:100F180027C01DF0D1EC0EF0290E296E960E286E12
:100F28007F0EE82EFED7282EFCD7292EFAD700F000
:100F380024C01AF025C01BF026C01CF027C01DF0E5
:100F4800ECEC0CF01AEF07F024C01AF025C01BF0E7
:100F580026C01CF027C01DF030EC0EF024C01AF09B
:100F680025C01BF026C01CF027C01DF048EC0CF073
:100F780024C01AF025C01BF026C01CF027C01DF0A5
:100F880030EC0EF024C01AF025C01BF026C01CF06F
:100F980027C01DF0D1EC0EF0BAEF08F024C01AF00B
:100FA80025C01BF026C01CF027C01DF0D1EC0EF0A8
:100FB80024C01AF025C01BF026C01CF027C01DF065
:100FC8009AEC0CF024C01AF025C01BF026C01CF0C7
:100FD80027C01DF030EC0EF024C01AF025C01BF01D
:100FE80026C01CF027C01DF0D1EC0EF0BAEF08F0B7
:100FF80024C01AF025C01BF026C01CF027C01DF025
:10100800D1EC0EF0290E296E960E286E7F0EE82E72
:10101800FED7282EFCD7292EFAD700F024C01AF0C4
:1010280025C01BF026C01CF027C01DF0DFEC0DF01A
:101038001AEF07F024C01AF025C01BF026C01CF0D8
:1010480027C01DF0D1EC0EF0290E296E960E286EE1
:101058007F0EE82EFED7282EFCD7292EFAD700F0CF
:1010680024C01AF025C01BF026C01CF027C01DF0B4
:101078003DEC0DF024C01AF025C01BF026C01CF072
:1010880027C01DF0D1EC0EF0290E296E960E286EA1
:101098007F0EE82EFED7282EFCD7292EFAD700F08F
:1010A80024C01AF025C01BF026C01CF027C01DF074
:1010B8003DEC0DF024C01AF025C01BF026C01CF032
:1010C80027C01DF0D1EC0EF0BAEF08F024C01AF0DA
:1010D80025C01BF026C01CF027C01DF0D1EC0EF077
:1010E80024C01AF025C01BF026C01CF027C01DF034
:1010F8008EEC0DF0290E296E960E286E7F0EE82EC6
:10110800FED7282EFCD7292EFAD700F01AEF07F0C1
:1011180022C028F023C029F02950000AD8B497EF3C
:1011280008F0BAEF08F02850000AD8B46AEF08F0BF
:10113800010AD8B4F0EF06F0030AD8B426EF07F096
:10114800010AD8B47CEF07F0070AD8B4A8EF07F073
:10115800010AD8B4D2EF07F0030AD8B4FCEF07F0BD
:10116800010AD8B41EEF08F0BAEF08F0120020EE1A
:1011780001F00F50D9261050DA22DF50D8B4C7EF4B
:1011880008F0C9EF08F0FAEF08F00FC0D9FF10C057
:10119800DAFFDF50116E1150016E026A20EE07F07F
:1011A8000F50D9261050DA22DECF03F0DDCF04F03D
:1011B80074EC10F001C007F002C008F0000E0A6ECF
:1011C800640E096E93EC0BF020EE07F00F50D92651
:1011D8001050DA22DECF12F0DDCF13F00750125C88
:1011E800186E08501358196E1DEF09F00FC0D9FF7B
:1011F80010C0DAFFDF50116E1150016E026A20EE46
:1012080007F00F50D9261050DA22DECF03F0DDCFD9
:1012180004F074EC10F001C007F002C008F0000EF2
:101228000A6E640E096E93EC0BF007C018F008C044
:1012380019F020EE02F00F50D9261050DA22DECF36
:1012480011F0DDCF12F011C0D9FF12C0DAFF18C0BB
:10125800DFFF20EE01F00F50D9261050DA22DF50C0
:10126800D8B439EF09F03BEF09F070EF09F020EE40
:1012780004F00F50D9261050DA22DECF11F0DDCF5E
:1012880012F011C0D9FF12C0DAFF10EE04F00F50AF
:10129800E1261050E222E6CF13F0E5CF14F013C098
:1012A800E1FF14C0E2FFE750156E10EE06F00F5094
:1012B800E1261050E222E750166E010E176E162A2C
:1012C80068EF09F0D8901736162E66EF09F0175018
:1012D8001510DF6EA4EF09F020EE04F00F50D926A8
:1012E8001050DA22DECF11F0DDCF12F011C0D9FF95
:1012F80012C0DAFF10EE04F00F50E1261050E2227F
:10130800E6CF13F0E5CF14F013C0E1FF14C0E2FFFD
:10131800E750156E10EE06F00F50E1261050E2224D
:10132800E750166E010E176E162A9DEF09F0D89039
:101338001736162E9BEF09F01750FF0A1514DF6EAB
:101348001200096E0950D8B4ACEF09F0AEEF09F0FD
:10135800D0EF09F004BEB5EF09F0B3EF09F0D0EF14
:1013680009F001C005F002C006F003C007F004C090
:1013780008F0051E061E071E081E052A000E062276
:101388000722082205C00BF006C00CF007C00DF0BC
:1013980008C00EF0D8EF09F001C00BF002C00CF045
:1013A80003C00DF004C00EF0015002100310041029
:1013B800D8A4E1EF09F0E3EF09F0EDEF09F0000E32
:1013C800016E000E026E000E036E000E046E7EEFBC
:1013D8000AF0960E0A6EF7EF09F00A2AD8900E3234
:1013E8000D320C320B32000E0B14056E000E0C146D
:1013F800066E000E0D14076EFE0E0E14086E0550D4
:10140800061007100810D8A40CEF0AF00EEF0AF027
:10141800F1EF09F01CEF0AF00A2A010E0B26000E64
:101428000C220D220E22D8900E320D320C320B32C5
:10143800000E0B14056E000E0C14066E000E0D1433
:10144800076EFF0E0E14086E0550061007100810E0
:10145800D8A431EF0AF033EF0AF010EF0AF03BEFAF
:101468000AF00A06D8900B360C360D360E360DBE2D
:1014780040EF0AF042EF0AF04AEF0AF0020E0A6063
:1014880048EF0AF04AEF0AF035EF0AF00AB04FEFDA
:101498000AF051EF0AF052EF0AF00D9ED8900A3286
:1014A8000AC005F0066A076A086A05C008F0076AF4
:1014B800066A056A05500B1206500C1207500D12E9
:1014C80008500E120950D8B46CEF0AF06EEF0AF00B
:1014D80076EF0AF004BE75EF0AF073EF0AF076EFC4
:1014E8000AF00E8E0BC001F00CC002F00DC003F024
:1014F8000EC004F0120001C0D9FF02C0DAFFDECF2F
:1015080009F0DDCF0AF020EE02F00150D926025092
:10151800DA22DECF0BF0DDCF0CF020EE04F0015024
:10152800D9260250DA22DECF0DF0DDCF0EF020EE04
:1015380006F00150D9260250DA22DECF0FF0DDCFB7
:1015480010F020EE38F00350D9260450DA22DECF0E
:1015580005F0DDCF06F0640E0526000E06220550C4
:10156800095C06500A58D8B0BCEF0AF0BEEF0AF082
:10157800DFEF0AF020EE38F00350D9260450DA22C3
:10158800DECF05F0DDCF06F09C0E0524076EFF0EBA
:101598000620086E0950075C0A500858D8B0D7EFE3
:1015A8000AF0D9EF0AF0DFEF0AF0000E026E080E1B
:1015B800016E10EF0BF00B500D5C0C500E58D8B0AC
:1015C800E8EF0AF0EAEF0AF00CEF0BF00B500F5CB3
:1015D8000C501058D8B0F3EF0AF0F5EF0AF00CEF02
:1015E8000BF00D500F5C0E501058D8B0FEEF0AF0FB
:1015F80000EF0BF006EF0BF0000E026E020E016E0C
:1016080010EF0BF0000E026E010E016E10EF0BF0E2
:10161800000E026E030E016E1200000E2814306ECA
:10162800000E2914316E800E2A14326E7F0E2B1490
:10163800336E3050311032103310D8A426EF0BF02F
:1016480028EF0BF030EF0BF0000E286E000E296E1D
:10165800000E2A6E000E2B6E000E2C14306E000E3B
:101668002D14316E800E2E14326E7F0E2F14336EB1
:101678003050311032103310D8A445EF0BF047EF3B
:101688000BF04FEF0BF0000E2C6E000E2D6E000EBF
:101698002E6E000E2F6E2BAE54EF0BF056EF0BF0A4
:1016A8005FEF0BF0286C291ED8B0292A2A1ED8B063
:1016B8002A2A800E2B562FAE64EF0BF066EF0BF044
:1016C8006FEF0BF02C6C2D1ED8B02D2A2E1ED8B023
:1016D8002E2A800E2F56000E281A000E291A000EE8
:1016E8002A1A800E2B1A000E2C1A000E2D1A000E24
:1016F8002E1A800E2F1A2C50285C2D5029582E5047
:101708002A582F502B58D8B08CEF0BF08EEF0BF0D7
:1017180091EF0BF0D89092EF0BF0D8801200000EEA
:101728000C6E0ABE9CEF0BF09AEF0BF0A2EF0BF0D9
:10173800096C0A1ED8B00A2A010E0C6E08BEA9EF61
:101748000BF0A7EF0BF0AFEF0BF0076C081ED8B04B
:10175800082A010E0C1A000E0E6E000E0D6E0950AE
:101768000A10D8B4BAEF0BF0BCEF0BF0E4EF0BF0B3
:10177800010E0B6EC4EF0BF0D89009360A360B2A0F
:101788000AAEC9EF0BF0CBEF0BF0C0EF0BF0D8901F
:101798000D360E360950075C0A500858D8A0D7EF06
:1017A8000BF0D9EF0BF0DEEF0BF00950075E0A5093
:1017B800085A0D80D8900A3209320B2ECBEF0BF065
:1017C8000C50D8B4EAEF0BF0ECEF0BF0F0EF0BF0A5
:1017D8000D6C0E1ED8B00E2A0DC007F00EC008F012
:1017E80012006DEC0FF00CC0D9FF0DC0DAFF05C078
:1017F800DEFF06C0DDFF090E0F6E1E0E0E6EE40E34
:10180800E82EFED70E2EFCD70F2EFAD700D045ECC7
:101818000FF020EE02F00C50D9260D50DA2205C048
:10182800DEFF06C0DDFF090E0F6E1E0E0E6EE40E03
:10183800E82EFED70E2EFCD70F2EFAD700D095EC47
:101848000FF020EE04F00C50D9260D50DA2205C016
:10185800DEFF06C0DDFF090E0F6E1E0E0E6EE40ED3
:10186800E82EFED70E2EFCD70F2EFAD700D0BDECEF
:101878000FF020EE06F00C50D9260D50DA2205C0E4
:10188800DEFF06C0DDFF120020EE01F01A50D92657
:101898001B50DA22010EDF6E20EE01F01C50D92613
:1018A8001D50DA22000EDF6E000E216E000E206E33
:1018B8001AC0D9FF1BC0DAFF20C0DFFF2050320F4B
:1018C8001CC0D9FF1DC0DAFFDF6E1AC00FF01BC0A5
:1018D80010F0BBEC08F01CC00FF01DC010F0BBEC02
:1018E80008F0350EE82EFED700F0020E2024206EF8
:1018F800000E2120216E21BE8BEF0CF0215009E152
:10190800FB0E205CD8A08BEF0CF08DEF0CF05CEF99
:101918000CF00E0E1F6E650E1E6E870EE82EFED79B
:101928001E2EFCD71F2EFAD700F0120020EE01F071
:101938001A50D9261B50DA22000EDF6E20EE01F075
:101948001C50D9261D50DA22010EDF6E000E216EC2
:10195800000E206E2050320F1AC0D9FF1BC0DAFFCC
:10196800DF6E1CC0D9FF1DC0DAFF20C0DFFF1AC020
:101978000FF01BC010F0BBEC08F01CC00FF01DC02E
:1019880010F0BBEC08F0350EE82EFED700F0020E82
:101998002024206E000E2120216E21BEDDEF0CF0E8
:1019A8002D0E205C010E2158D8A0DDEF0CF0DFEFE2
:1019B8000CF0AEEF0CF0100E1F6ED40E1E6EE60E7D
:1019C800E82EFED71E2EFCD71F2EFAD700D0120005
:1019D80020EE01F01A50D9261B50DA22010EDF6ED4
:1019E80020EE01F01C50D9261D50DA22000EDF6EC1
:1019F800000E216E000E206E1AC0D9FF1BC0DAFF40
:101A080020C0DFFF2050320F1CC0D9FF1DC0DAFFF5
:101A1800DF6E1AC00FF01BC010F0BBEC08F01CC042
:101A28000FF01DC010F0BBEC08F0350EE82EFED705
:101A380000F0020E2024206E000E2120216E21BE0F
:101A48002FEF0DF0215009E1320E205CD8A02FEFC6
:101A58000DF031EF0DF000EF0DF0180E1F6E8A0E2D
:101A68001E6EE80EE82EFED71E2EFCD71F2EFAD7C4
:101A7800120020EE01F01A50D9261B50DA22010E6E
:101A8800DF6E20EE01F01C50D9261D50DA22000E20
:101A9800DF6E000E216E000E206E1AC0D9FF1BC02B
:101AA800DAFF20C0DFFF2050320F1CC0D9FF1DC055
:101AB800DAFFDF6E1AC00FF01BC010F0BBEC08F0A5
:101AC8001CC00FF01DC010F0BBEC08F0350EE82E5E
:101AD800FED700F0020E2024206E000E2120216E79
:101AE80021BE80EF0DF02C0E205C010E2158D8A0ED
:101AF80080EF0DF082EF0DF051EF0DF0130E1F6E19
:101B0800AC0E1E6E2A0EE82EFED71E2EFCD71F2EF8
:101B1800FAD7120020EE01F01A50D9261B50DA220B
:101B2800000EDF6E20EE01F01C50D9261D50DA227F
:101B3800000EDF6E000E216E000E206E1AC0D9FF57
:101B48001BC0DAFF20C0DFFF1CC0D9FF1DC0DAFFB1
:101B580020C0DFFF1AC00FF01BC010F0BBEC08F06C
:101B68001CC00FF01DC010F0BBEC08F0350EE82EBD
:101B7800FED700F0020E2024206E000E2120216ED8
:101B880021BED0EF0DF0215009E1090E205CD8A04C
:101B9800D0EF0DF0D2EF0DF0A2EF0DF05A0E1F6E40
:101BA800490E1E6EE70EE82EFED71E2EFCD71F2EFE
:101BB800FAD700F0120020EE01F01A50D9261B5077
:101BC800DA22000EDF6E20EE01F01C50D9261D50DF
:101BD800DA22010EDF6E000E216E000E206E2050FC
:101BE800320F1AC0D9FF1BC0DAFFDF6E1CC0D9FF45
:101BF8001DC0DAFF20C0DFFF1AC00FF01BC010F0B5
:101C0800BBEC08F01CC00FF01DC010F0BBEC08F0D6
:101C1800350EE82EFED700F0020E2024206E000EAE
:101C28002120216E21BE22EF0EF02C0E205C010E29
:101C38002158D8A022EF0EF024EF0EF0F3EF0DF0AC
:101C4800180E1F6E8A0E1E6EE80EE82EFED71E2E88
:101C5800FCD71F2EFAD7120020EE01F01A50D92611
:101C68001B50DA22010EDF6E20EE01F01C50D9263F
:101C78001D50DA22010EDF6E000E216E000E206E5E
:101C88001AC0D9FF1BC0DAFF20C0DFFF1CC0D9FF74
:101C98001DC0DAFF20C0DFFF1AC00FF01BC010F014
:101CA800BBEC08F01CC00FF01DC010F0BBEC08F036
:101CB800350EE82EFED700F0020E2024206E000E0E
:101CC8002120216E21BE72EF0EF0215009E1650E30
:101CD800205CD8A072EF0EF074EF0EF044EF0EF017
:101CE800090E1F6E1E0E1E6EE40EE82EFED71E2E67
:101CF800FCD71F2EFAD700D0120020EE01F01A50A0
:101D0800D9261B50DA22000EDF6E20EE01F01C509F
:101D1800D9261D50DA22000EDF6E000E216E000E4D
:101D2800206E1AC0D9FF1BC0DAFF20C0DFFF1CC01D
:101D3800D9FF1DC0DAFF20C0DFFF1AC00FF01BC09B
:101D480010F0BBEC08F01CC00FF01DC010F0BBEC8D
:101D580008F0350EE82EFED700F0020E2024206E83
:101D6800000E2120216E21BEC3EF0EF0215009E1A3
:101D7800090E205CD8A0C3EF0EF0C5EF0EF095EF6A
:101D88000EF0190E1F6E5A0E1E6EB20EE82EFED7FA
:101D98001E2EFCD71F2EFAD7120020EE01F01A5083
:101DA800D9261B50DA22000EDF6E20EE01F01C50FF
:101DB800D9261D50DA22000EDF6E000E206E050EA9
:101DC8001F6E1AC0D9FF1BC0DAFF1FC0DFFF1CC07F
:101DD800D9FF1DC0DAFF1FC0DFFF1AC00FF01BC0FC
:101DE80010F0BBEC08F01CC00FF01DC010F0BBECED
:101DF80008F0D00E1E6ECA0EE82EFED71E2EFCD797
:101E0800FF0E1F241F6EFF0E2020206E20BE17EF2E
:101E18000FF0205006E11F04D8B015EF0FF017EFB0
:101E28000FF0E5EF0EF012004BEC10F0010E036E10
:101E3800000E87EC10F03F0E056E550EE82EFED70B
:101E4800052EFCD700F0030E036E000E87EC10F091
:101E5800D50E036E010E87EC10F088928496849854
:101E68008890869080827C867C9880907E907C9EEC
:101E78008096849E889686840E01B4958686B4974B
:101E88001200DBEC10F0520ECBEC10F0B60ECBECDF
:101E980010F0D1EC10F0530ECBEC10F0010E2AEC40
:101EA80010F0076E07500A6E0B6A000E2AEC10F04D
:101EB800076E0750096E086A0A5008100A6E0B5020
:101EC80009100B6ED6EC10F00AC005F00BC006F036
:101ED8001200DBEC10F0520ECBEC10F0B40ECBEC91
:101EE80010F0D1EC10F0530ECBEC10F0010E2AECF0
:101EF80010F0076E07500A6E0B6A000E2AEC10F0FD
:101F0800076E0750096E086A0A5008100A6E0B50CF
:101F180009100B6ED6EC10F00AC005F00BC006F0E5
:101F28001200DBEC10F0520ECBEC10F0B80ECBEC3C
:101F380010F0D1EC10F0530ECBEC10F0010E2AEC9F
:101F480010F0076E07500A6E0B6A000E2AEC10F0AC
:101F5800076E0750096E086A0A5008100A6E0B507F
:101F680009100B6ED6EC10F00AC005F00BC006F095
:101F78001200DBEC10F0520ECBEC10F0BA0ECBECEA
:101F880010F0D1EC10F0530ECBEC10F0010E2AEC4F
:101F980010F0076E07500A6E0B6A000E2AEC10F05C
:101FA800076E0750096E086A0A5008100A6E0B502F
:101FB80009100B6ED6EC10F00AC005F00BC006F045
:101FC8001200820EF66E210EF76E000EF86E00EE0D
:101FD800E0F010EE14F00900F5CFEEFFE550E15007
:101FE800FAE101EE00F03C0EEE6AE806FDE10001C0
:101FF800F56BF46B00EE3AF01C0EEE6AE806FDE1B4
:1020080056905692000121EF00F085948598839EA2
:10201800879C7D947D987B9E7F9CBD508F0B30095B
:10202800BD6EE00EBE16BF50F00B0109BF6E01C0B9
:10203800BCFFBD8E0A0E0E01746F0B0E696F000E89
:10204800A36E000EA06EA48EA18E1200036E60EC2B
:1020580010F00E01DA8760EC10F0D5CE04F060ECD9
:1020680010F00350D8B43BEF10F03FEF10F0026AC5
:10207800022A40EF10F0026A023A02460E01DA51D3
:102088000218DF0B0218DA6FDA89045012000E0109
:10209800D951F00B0809D96FD98B9F0ED66F848A56
:1020A800848CA79BA79D1D0E1D6F1E0E1C6F1C0EFA
:1020B8006F6F1B0E706F12000E01D8B566EF10F02F
:1020C80068EF10F060EF10F0DACE01F01F0E011685
:1020D800D8A471EF10F073EF10F060EF10F0120059
:1020E80001500302F3CF05F0F4CF06F001500402CB
:1020F800F350062602500302F350062605C001F0ED
:1021080006C002F01200046EDBEC10F0520ECBECAD
:1021180010F004508009CBEC10F00350CBEC10F019
:10212800D6EC10F01200D6501F0B4009D66ED68898
:10213800D650F00B0709D66ED588F60ED46E3B0E36
:10214800D36ED58E1200120E0E01626F110E156F2E
:10215800E997E895670EE56F000EE66FE789E88B6B
:10216800E78F1200F28AF28C0E01298B1F8B339BAA
:102178002B8121913591F28E12000100010001009E
:102188000100010001000000020000000300026ECF
:1021980060EC10F002C0D5FE120060EC10F00E01E9
:1021A800DA83120060EC10F00E01DA85120060ECA0
:0A21B80010F00E01DA81120012008F
:020000040020DA
:10000000FF0FFF0FFF0FFF0FFF0FFF0FFF0FFF0F80
:020000040030CA
:0C000000AAFFFFFF9FFFFFFFFFFFFFFFB5
:00000001FF
