:040000001FEF00F0FE
:100008005F820E0133BB0BEF00F00DEF00F014EF31
:1000180000F08EB412EF00F014EF00F01DEF00F0C6
:100028000101EE4BEF2BDB0ED36E0B0ED46E0E01DF
:0A003800339B5F92110056EF14F0A5
:100E00000025642025642025642025642025642095
:100E10000D0A000072EC12F0000E026E140E016E4C
:100E2000B3EC13F0B7EC14F08CEC14F02DEC14F0E0
:100E30009CEC14F0000E0101D86F000ED96FA30EC8
:100E4000DA6F0F0EDB6F7D0EDC6F0F0EDD6F040EA1
:100E5000DE6F000EE06FC80EDF6F000EE16F000E58
:100E6000E26FA00EE36F0F0EE46F7F0EE56F0F0EC3
:100E7000E66F060EE76F000EE96FC80EE86FD80E3A
:100E80000F6E010E106EA4EC0AF0E10E0F6E010E53
:100E9000106EA4EC0AF08EB650EF07F052EF07F098
:100EA0004BEF07F0000E0101C76F000EC66FD00EAA
:100EB0000C6E010E0D6E6EEC0FF0C6C159F0C7C17D
:100EC0005AF0D89059365A36D89059365A36D89062
:100ED00059365A36820E5924D96E010E5A20DA6ECE
:100EE000D0C1DEFFD1C1DDFFC6C159F0C7C15AF084
:100EF000D89059365A36D89059365A36D8905936ED
:100F00005A36020E5926000E5A22820E5924D96EE4
:100F1000010E5A20DA6ED2C1DEFFD3C1DDFFC6C199
:100F200059F0C7C15AF0D89059365A36D890593628
:100F30005A36D89059365A36040E5926000E5A227F
:100F4000820E5924D96E010E5A20DA6ED4C1DEFF0A
:100F5000D5C1DDFFC6C159F0C7C15AF0D890593686
:100F60005A36D89059365A36D89059365A36060ECF
:100F70005926000E5A22820E5924D96E010E5A208B
:100F8000DA6ED6C1DEFFD7C1DDFF80867B0E0001A1
:100F9000606F000E616F040E626F0E0E636FD0C142
:100FA00064F0D1C165F0D2C166F0D3C167F0D4C19D
:100FB00068F0D5C169F0D6C16AF0D7C16BF09FEC7B
:100FC00012F07B0E026E000E036E15EC14F0A30EF1
:100FD0005A6E570E596E020EE82EFED7592EFCD7C8
:100FE0005A2EFAD700D08096A30E5A6E570E596E1D
:100FF000020EE82EFED7592EFCD75A2EFAD700D073
:101000000101C64BC72BC7BF0FEF08F0C75109E15D
:10101000080EC65DD8A00FEF08F011EF08F057EFEB
:1010200007F0010E8EA6000E8EA4000EE8B01BEF96
:1010300008F01FEF08F0596A592A20EF08F0596AA2
:101040005950D8A426EF08F028EF08F011EF08F067
:101050008EB42DEF08F02FEF08F032EF08F07C8E01
:10106000DFEF08F08086DFEF08F0000EEF6F000E74
:10107000EE6FD80E1A6E010E1B6EE10E1C6E010E85
:101080001D6EF0EC11F0C80E0C6E010E0D6E6EECC4
:101090000FF0C80E596E010E5A6E59500101925D43
:1010A0005A509359D8B057EF08F059EF08F0D3EFE2
:1010B00008F0D80E1A6E010E1B6EE10E1C6E010EAA
:1010C0001D6EA9EC11F0C80E0C6E010E0D6E6EECCB
:1010D0000FF07CAE6EEF08F070EF08F07AEF08F0DA
:1010E000C80E016E010E026E0FEC0FF001C0C2F1CE
:1010F00002C0C3F1D8900001FD35D96EFE35DA6E1D
:10110000DF0ED926000EDA22C2C1DEFFC3C1DDFF29
:10111000D890FD35D96EFE35DA6E640ED926010EF3
:10112000DA22EEC1DEFFEFC1DDFF000E606F010EBF
:10113000616F010E626F0E0E636FC2C164F0C3C1B6
:1011400065F0C8C166F0C9C167F0CAC168F0CBC11B
:1011500069F0CCC16AF0CDC16BF0CEC16CF0CFC1EB
:101160006DF09FEC12F0000E026E010E036E15EC96
:1011700014F0C2C122F0C3C123F0D80E246E010EB8
:10118000256EE10E266E010E276EB3EC0DF0000108
:10119000FD4BFE2B000E0101EF6F000EEE6F000EF7
:1011A0005C6E000E5B6E110E5A6E3C0E596ECB0ECD
:1011B000E82EFED7592EFCD75A2EFAD700F0080E8B
:1011C0000101C219C311D8A4E8EF08F0EAEF08F052
:1011D00035EF08F0D80E1A6E010E1B6EE10E1C6E74
:1011E000010E1D6E65EC10F0000E0101C56F000EC2
:1011F000C46FC5BF05EF09F0C55109E10F0EC45D0D
:10120000D8A005EF09F007EF09F009EF09F04BEF5F
:1012100007F0F29E000E5E6E000E5D6ED890C43533
:10122000D96EC535DA6EDF0ED926000EDA22DECF92
:1012300022F0DDCF23F0D80E246E010E256EE10ED4
:10124000266E010E276EB3EC0DF0D80E1A6E010E4D
:101250001B6EE10E1C6E010E1D6EF0EC11F03FEFE7
:1012600009F0050E5A6E0F0E596EF10EE82EFED7DC
:10127000592EFCD75A2EFAD700F05D4A5E2AD89034
:101280000101C435D96EC535DA6E640ED926010E5A
:10129000DA22DE505D5CDE505E58D8A052EF09F0D5
:1012A00054EF09F031EF09F0D80E1A6E010E1B6EE3
:1012B000E10E1C6E010E1D6EA9EC11F00101C44B74
:1012C000C52BF9EF08F01FEF00F01EC034F01FC06F
:1012D00035F020C036F021C037F022C038F023C0EE
:1012E00039F024C03AF025C03BF03BBE7AEF09F05C
:1012F0007DEF09F0010E7EEF09F0000E3E6E3E50CC
:10130000D8B485EF09F087EF09F097EF09F03B1E9D
:101310003A1E391E381E371E361E351E346C000E1E
:10132000352236223722382239223A223B22010145
:10133000EDBFA5EF09F0ED5106E1EC05D8B0A3EF44
:1013400009F0A5EF09F0ABEF09F0000E316E010EC8
:10135000306EAFEF09F0ECC130F0EDC131F0EAC111
:1013600032F0EBC133F03E50D8B4B9EF09F0BBEF27
:1013700009F0D2EF09F03206D8A033063E50D8A4C7
:10138000C4EF09F0C6EF09F0CCEF09F0000E2F6EA4
:101390002B0E2E6ED0EF09F0000E2F6E2D0E2E6E3E
:1013A0002EC03EF0000E3D6E1F0E3C6E000E020180
:1013B0006F6F57EF0AF03C06D8A03D06500E3C2454
:1013C000D96E020E3D20DA6E34C001F035C002F055
:1013D00036C003F037C004F038C005F039C006F05D
:1013E0003AC007F03BC008F00A0E096E000E0A6E04
:1013F000000E0B6E000E0C6E000E0D6E000E0E6ECB
:10140000000E0F6E000E106E52EC0CF001C026F0B4
:1014100002C027F003C028F004C029F005C02AF05C
:1014200006C02BF007C02CF008C02DF026C013F02A
:1014300027C014F0F5EC13F01350300FDF6E3006B8
:10144000D8A031063206D8A0330634C001F035C02A
:1014500002F036C003F037C004F038C005F039C0E0
:1014600006F03AC007F03BC008F00A0E096E000E05
:101470000A6E000E0B6E000E0C6E000E0D6E000E4E
:101480000E6E000E0F6E000E106E8EEC0BF001C093
:1014900034F002C035F003C036F004C037F005C0A8
:1014A00038F006C039F007C03AF008C03BF03DBE46
:1014B00062EF0AF03D5008E13C04D8A062EF0AF068
:1014C00064EF0AF080EF0AF0345035103610371010
:1014D000381039103A103B10D8A471EF0AF073EFAE
:1014E0000AF0DBEF09F031BE80EF0AF0315006E17F
:1014F0003004D8B07EEF0AF080EF0AF0DBEF09F09D
:101500003E50D8B486EF0AF088EF0AF093EF0AF065
:101510003C06D8A03D06500E3C24D96E020E3D205C
:10152000DA6E3EC0DFFF1CC011F01DC012F0500E7D
:101530003C24136E020E3D20146E32C015F033C0F1
:1015400016F035EC12F0120020EE01F00F50D92603
:101550001050DA22DF50D8B4B0EF0AF0B2EF0AF040
:10156000E3EF0AF00FC0D9FF10C0DAFFDF50116EB1
:101570001150016E026A20EE07F00F50D92610506C
:10158000DA22DECF03F0DDCF04F069EC14F001C005
:1015900007F002C008F0000E0A6E640E096EADEC92
:1015A0000EF020EE07F00F50D9261050DA22DECFD1
:1015B00012F0DDCF13F00750125C186E085013586C
:1015C000196E06EF0BF00FC0D9FF10C0DAFFDF5025
:1015D000116E1150016E026A20EE07F00F50D926ED
:1015E0001050DA22DECF03F0DDCF04F069EC14F006
:1015F00001C007F002C008F0000E0A6E640E096E0A
:10160000ADEC0EF007C018F008C019F020EE02F0A3
:101610000F50D9261050DA22DECF11F0DDCF12F0B4
:1016200011C0D9FF12C0DAFF18C0DFFF20EE01F0B1
:101630000F50D9261050DA22DF50D8B422EF0BF029
:1016400024EF0BF059EF0BF020EE04F00F50D926E9
:101650001050DA22DECF11F0DDCF12F011C0D9FF29
:1016600012C0DAFF10EE04F00F50E1261050E22213
:10167000E6CF13F0E5CF14F013C0E1FF14C0E2FF92
:10168000E750156E10EE06F00F50E1261050E222E2
:10169000E750166E010E176E162A51EF0BF0D89018
:1016A0001736162E4FEF0BF017501510DF6E8DEF1B
:1016B0000BF020EE04F00F50D9261050DA22DECFC6
:1016C00011F0DDCF12F011C0D9FF12C0DAFF10EE19
:1016D00004F00F50E1261050E222E6CF13F0E5CFE0
:1016E00014F013C0E1FF14C0E2FFE750156E10EED6
:1016F00006F00F50E1261050E222E750166E010E60
:10170000176E162A86EF0BF0D8901736162E84EF38
:101710000BF01750FF0A1514DF6E1200000E126E48
:1017200010BE97EF0BF095EF0BF0A9EF0BF0101E2A
:101730000F1E0E1E0D1E0C1E0B1E0A1E096C000E27
:101740000A220B220C220D220E220F221022010E41
:10175000126E08BEB0EF0BF0AEEF0BF0C2EF0BF065
:10176000081E071E061E051E041E031E021E016C17
:10177000000E02220322042205220622072208224A
:10178000010E121A20EE13F0070EDE6AE806FDE2E3
:1017900009500A100B100C100D100E100F10101025
:1017A000D8B4D5EF0BF0D7EF0BF029EF0CF0010E0A
:1017B000116EE5EF0BF0D89009360A360B360C3671
:1017C0000D360E360F361036112A10AEEAEF0BF03A
:1017D000ECEF0BF0DBEF0BF0D89013361436153628
:1017E00016361736183619361A360950015C0A5063
:1017F00002580B5003580C5004580D5005580E5009
:1018000006580F50075810500858D8A00AEF0CF08F
:101810000CEF0CF01DEF0CF00950015E0A50025A5B
:101820000B50035A0C50045A0D50055A0E50065ACC
:101830000F50075A1050085A1380D89010320F32A8
:101840000E320D320C320B320A320932112EECEF0D
:101850000BF01250D8B42FEF0CF031EF0CF041EF39
:101860000CF01A1E191E181E171E161E151E141E09
:10187000136C000E14221522162217221822192288
:101880001A2213C001F014C002F015C003F016C0F4
:1018900004F017C005F018C006F019C007F01AC010
:1018A00008F01200000E126E08BE5BEF0CF059EF4C
:1018B0000CF06DEF0CF0081E071E061E051E041E20
:1018C000031E021E016C000E0222032204220522C6
:1018D000062207220822010E126E10BE74EF0CF0D1
:1018E00072EF0CF084EF0CF0101E0F1E0E1E0D1E7A
:1018F0000C1E0B1E0A1E096C000E0A220B220C2263
:101900000D220E220F22102209500A100B100C106B
:101910000D100E100F101010D8B491EF0CF093EFC3
:101920000CF0DBEF0CF0010E116EA1EF0CF0D89073
:1019300009360A360B360C360D360E360F36103693
:10194000112A10AEA6EF0CF0A8EF0CF097EF0CF0F8
:101950000950015C0A5002580B5003580C500458AF
:101960000D5005580E5006580F5007581050085883
:10197000D8A0BDEF0CF0BFEF0CF0CFEF0CF009508A
:10198000015E0A50025A0B50035A0C50045A0D5073
:10199000055A0E50065A0F50075A1050085AD89040
:1019A00010320F320E320D320C320B320A32093243
:1019B000112EA8EF0CF01250D8B4E1EF0CF0E3EFC9
:1019C0000CF0F3EF0CF0081E071E061E051E041E89
:1019D000031E021E016C000E0222032204220522B5
:1019E00006220722082201C001F002C002F003C053
:1019F00003F004C004F005C005F006C006F007C0FF
:101A000007F008C008F0120041C0D9FF42C0DAFF59
:101A1000DECFF6FFDDCFF7FF000EF86E0800F550C1
:101A2000250AD8A416EF0DF018EF0DF09CEF0DF07D
:101A300041C0D9FF42C0DAFFDE2A000EDD22000ECF
:101A40000101EB6F000EEA6FEAC1F4F1EC69ED6998
:101A500041C0D9FF42C0DAFFDECF4FF0DDCF50F0FA
:101A60004FC0F6FF50C0F7FF000EF86E0800F550AB
:101A7000640AD8B43EEF0DF040EF0DF050EF0DF0DA
:101A80004FC0F6FF50C0F7FF000EF86E0800F5508B
:101A9000690AD8A44EEF0DF050EF0DF093EF0DF062
:101AA00043C0D9FF44C0DAFFDFCF45F0020EDE2687
:101AB000DFCF46F0000EDD2245C0D9FF46C0DAFF79
:101AC000DECF47F0DDCF48F0000E48BEFF0E496E76
:101AD0004A6E4B6E4C6E4D6E4E6E010E4F24456E2F
:101AE000000E5020466E41C0D9FF42C0DAFF45C00B
:101AF000DEFF46C0DDFF3FC01CF040C01DF047C008
:101B00001EF048C01FF049C020F04AC021F04BC071
:101B100022F04CC023F04DC024F04EC025F065ECFF
:101B200009F0B2EF0DF041C0D9FF42C0DAFFDE2A62
:101B3000000EDD22B2EF0DF041C0D9FF42C0DAFF46
:101B4000DECFF6FFDDCFF7FF000EF86E0800F55090
:101B5000016E026A3FC003F040C004F048EC0EF092
:101B600093EF0DF012001DEF0EF024C01AF025C007
:101B70001BF026C01CF027C01DF0C1EC0FF047EF92
:101B80000EF024C01AF025C01BF026C01CF027C0A0
:101B90001DF013EC10F047EF0EF024C01AF025C032
:101BA0001BF026C01CF027C01DF065EC10F047EFBD
:101BB0000EF024C01AF025C01BF026C01CF027C070
:101BC0001DF007EC11F024C01AF025C01BF026C050
:101BD0001CF027C01DF0C1EC0FF047EF0EF024C041
:101BE0001AF025C01BF026C01CF027C01DF007EC22
:101BF00011F024C01AF025C01BF026C01CF027C02D
:101C00001DF013EC10F047EF0EF024C01AF025C0C1
:101C10001BF026C01CF027C01DF0B6EC10F047EFFB
:101C20000EF024C01AF025C01BF026C01CF027C0FF
:101C30001DF058EC11F047EF0EF022C028F023C041
:101C400029F02950000AD8B428EF0EF047EF0EF023
:101C50002850010AD8B4B5EF0DF0030AD8B4C1EF8B
:101C60000DF0010AD8B4CDEF0DF0070AD8B4D9EFC2
:101C70000DF0010AD8B4EFEF0DF0030AD8B405EF68
:101C80000EF0010AD8B411EF0EF047EF0EF012007B
:101C900003500410D8B44FEF0EF051EF0EF05AEF8E
:101CA0000EF003500410D8A458EF0EF05AEF0EF0C7
:101CB0005FEF0EF00150D7EC14F0ACEF0EF020EE19
:101CC00009F00350D9260450DA22DE50DE10D8B4D1
:101CD0006CEF0EF06EEF0EF089EF0EF020EE09F0D3
:101CE0000350D9260450DA2210EE03F00350E12607
:101CF0000450E222DE50E65CE650800A096EDE50B7
:101D0000800A0958D8B087EF0EF089EF0EF0ACEFDB
:101D10000EF020EE03F00350D9260450DA22DECF75
:101D200005F0DDCF06F003C0D9FF04C0DAFFDECF37
:101D300007F0DDCF08F005500724D96E06500820C3
:101D4000DA6E01C0DFFF20EE03F00350D926045005
:101D5000DA22DE2A000EDD221200000E0C6E0ABE10
:101D6000B6EF0EF0B4EF0EF0BCEF0EF0096C0A1EE9
:101D7000D8B00A2A010E0C6E08BEC3EF0EF0C1EFF8
:101D80000EF0C9EF0EF0076C081ED8B0082A010E3D
:101D90000C1A000E0E6E000E0D6E09500A10D8B40B
:101DA000D4EF0EF0D6EF0EF0FEEF0EF0010E0B6E3C
:101DB000DEEF0EF0D89009360A360B2A0AAEE3EFB2
:101DC0000EF0E5EF0EF0DAEF0EF0D8900D360E368D
:101DD0000950075C0A500858D8A0F1EF0EF0F3EF55
:101DE0000EF0F8EF0EF00950075E0A50085A0D8009
:101DF000D8900A3209320B2EE5EF0EF00C50D8B411
:101E000004EF0FF006EF0FF00AEF0FF00D6C0E1E4F
:101E1000D8B00E2A0DC007F00EC008F0120020EE58
:101E200002F00150D9260250DA22DECF07F0DDCFD2
:101E300008F020EE04F00150D9260250DA22DECF5D
:101E400009F0DDCF0AF020EE06F00150D92602504D
:101E5000DA22DECF05F0DDCF06F00950075C0A502C
:101E60000858D8A036EF0FF038EF0FF049EF0FF019
:101E70000550075C06500858D8A041EF0FF043EF1B
:101E80000FF049EF0FF0000E046E010E036E69EFC4
:101E90000FF00750095C08500A58D8A052EF0FF015
:101EA00054EF0FF065EF0FF00550095C06500A582B
:101EB000D8A05DEF0FF05FEF0FF065EF0FF0000EB1
:101EC000046E020E036E69EF0FF0000E046E030E37
:101ED000036E03C001F004C002F0120019EC13F00D
:101EE0000CC0D9FF0DC0DAFF05C0DEFF06C0DDFF64
:101EF000090E0F6E1E0E0E6EE40EE82EFED70E2E8D
:101F0000FCD70F2EFAD700D0F1EC12F020EE02F041
:101F10000C50D9260D50DA2205C0DEFF06C0DDFFC9
:101F2000090E0F6E1E0E0E6EE40EE82EFED70E2E5C
:101F3000FCD70F2EFAD700D041EC13F020EE04F0BE
:101F40000C50D9260D50DA2205C0DEFF06C0DDFF99
:101F5000090E0F6E1E0E0E6EE40EE82EFED70E2E2C
:101F6000FCD70F2EFAD700D069EC13F020EE06F064
:101F70000C50D9260D50DA2205C0DEFF06C0DDFF69
:101F8000120020EE01F01A50D9261B50DA22010E61
:101F9000DF6E20EE01F01C50D9261D50DA22000E13
:101FA000DF6E000E216E000E206E1AC0D9FF1BC01E
:101FB000DAFF20C0DFFF2050320F1CC0D9FF1DC048
:101FC000DAFFDF6E1AC00FF01BC010F0A4EC0AF0AD
:101FD0001CC00FF01DC010F0A4EC0AF0350EE82E66
:101FE000FED700F0020E2024206E000E2120216E6C
:101FF00021BE04EF10F0215009E1320E205CD8A080
:1020000004EF10F006EF10F0D5EF0FF00E0E1F6E7C
:10201000650E1E6E870EE82EFED71E2EFCD71F2ED5
:10202000FAD700F0120020EE01F01A50D9261B500A
:10203000DA22000EDF6E20EE01F01C50D9261D5072
:10204000DA22010EDF6E000E216E000E206E20508F
:10205000320F1AC0D9FF1BC0DAFFDF6E1CC0D9FFD8
:102060001DC0DAFF20C0DFFF1AC00FF01BC010F048
:10207000A4EC0AF01CC00FF01DC010F0A4EC0AF094
:10208000350EE82EFED700F0020E2024206E000E42
:102090002120216E21BE56EF10F0215009E1320EB1
:1020A000205CD8A056EF10F058EF10F027EF10F09A
:1020B0000E0E1F6E650E1E6E870EE82EFED71E2EAC
:1020C000FCD71F2EFAD700F0120020EE01F01A50B4
:1020D000D9261B50DA22010EDF6E20EE01F01C50D3
:1020E000D9261D50DA22000EDF6E000E216E000E82
:1020F000206E1AC0D9FF1BC0DAFF20C0DFFF2050BE
:10210000320F1CC0D9FF1DC0DAFFDF6E1AC00FF0FE
:102110001BC010F0A4EC0AF01CC00FF01DC010F0A2
:10212000A4EC0AF0350EE82EFED700F0020E2024B3
:10213000206E000E2120216E21BEA8EF10F021504C
:1021400009E1320E205CD8A0A8EF10F0AAEF10F041
:1021500079EF10F0180E1F6E8A0E1E6EE80EE82E34
:10216000FED71E2EFCD71F2EFAD7120020EE01F04C
:102170001A50D9261B50DA22010EDF6E20EE01F034
:102180001C50D9261D50DA22000EDF6E000E216E83
:10219000000E206E1AC0D9FF1BC0DAFF20C0DFFF7F
:1021A0002050320F1CC0D9FF1DC0DAFFDF6E1AC0ED
:1021B0000FF01BC010F0A4EC0AF01CC00FF01DC003
:1021C00010F0A4EC0AF0350EE82EFED700F0020E57
:1021D0002024206E000E2120216E21BEF9EF10F088
:1021E000215009E1320E205CD8A0F9EF10F0FBEF8E
:1021F00010F0CAEF10F0130E1F6EAC0E1E6E2A0EFA
:10220000E82EFED71E2EFCD71F2EFAD7120020EE86
:1022100001F01A50D9261B50DA22000EDF6E20EE94
:1022200001F01C50D9261D50DA22000EDF6E000E80
:10223000216E000E206E1AC0D9FF1BC0DAFF20C02D
:10224000DFFF1CC0D9FF1DC0DAFF20C0DFFF1AC0AE
:102250000FF01BC010F0A4EC0AF01CC00FF01DC062
:1022600010F0A4EC0AF0350EE82EFED700F0020EB6
:102270002024206E000E2120216E21BE49EF11F096
:10228000215009E1330E205CD8A049EF11F04BEF4B
:1022900011F01BEF11F05A0E1F6E490E1E6EE70E65
:1022A000E82EFED71E2EFCD71F2EFAD700F0120004
:1022B00020EE01F01A50D9261B50DA22000EDF6EF4
:1022C00020EE01F01C50D9261D50DA22010EDF6EDF
:1022D000000E216E000E206E2050320F1AC0D9FF62
:1022E0001BC0DAFFDF6E1CC0D9FF1DC0DAFF20C0A3
:1022F000DFFF1AC00FF01BC010F0A4EC0AF01CC0E6
:102300000FF01DC010F0A4EC0AF0350EE82EFED739
:1023100000F0020E2024206E000E2120216E21BE2E
:102320009BEF11F0215009E1320E205CD8A09BEF09
:1023300011F09DEF11F06CEF11F0130E1F6EAC0E4B
:102340001E6E2A0EE82EFED71E2EFCD71F2EFAD7A1
:10235000120020EE01F01A50D9261B50DA22000E8E
:10236000DF6E20EE01F01C50D9261D50DA22000E3F
:10237000DF6E000E206E050E1F6E1AC0D9FF1BC047
:10238000DAFF1FC0DFFF1CC0D9FF1DC0DAFF1FC06E
:10239000DFFF1AC00FF01BC010F0A4EC0AF01CC045
:1023A0000FF01DC010F0A4EC0AF0D00E1E6ECA0E85
:1023B000E82EFED71E2EFCD7FF0E1F241F6EFF0E29
:1023C0002020206E20BEEFEF11F0205006E11F0408
:1023D000D8B0EDEF11F0EFEF11F0BDEF11F01200FA
:1023E00020EE01F01A50D9261B50DA22010EDF6EC2
:1023F00020EE01F01C50D9261D50DA22010EDF6EAE
:10240000000E1F6E000E1E6E1AC0D9FF1BC0DAFF31
:102410001EC0DFFF1CC0D9FF1DC0DAFF1EC0DFFFDA
:102420001AC00FF01BC010F0A4EC0AF01CC00FF093
:102430001DC010F0A4EC0AF06A0EE82EFED700D002
:10244000020E1E241E6E000E1F201F6E1FBE32EFD6
:1024500012F01F5009E11F0E1E5CD8A032EF12F0DF
:1024600034EF12F004EF12F0120016BE3AEF12F041
:102470003CEF12F042EF12F015C01AF016C01BF03C
:1024800046EF12F0000E1B6E000E1A6E000E196E53
:10249000000E186E58EF12F0000E026E200E016E44
:1024A00011C003F012C004F048EC0EF0184A192ACB
:1024B0001A50185C1950800A176E1B50800A175862
:1024C000D8A065EF12F067EF12F04CEF12F013C0D6
:1024D0000AF014C00BF011C00CF012C00DF091EC1A
:1024E00013F012002DEC14F0010E036E000E7CECC4
:1024F00014F03F0E056E550EE82EFED7052EFCD7C4
:1025000000F0030E036E000E7CEC14F0D50E036E8B
:10251000010E7CEC14F088928496849888908690C2
:1025200080827C867C9880907E907C9E8096849E23
:10253000889686840E01B4958686B4971200640E40
:1025400000016E6F000E6F6F60C070F061C071F0BF
:10255000000E746F000E736F000E7A6F000E796FAD
:10256000700E516E000E526E62C053F063C054F094
:102570006E0E556E000E566EC8EC12F000017351CF
:102580006025D96E74516121DA6E000EDF6E120083
:1025900053C057F054C058F0DCEF12F051C03FF078
:1025A00052C040F0570E416E000E426E55C043F0CF
:1025B00056C044F004EC0DF057C0F6FF58C0F7FFCA
:1025C000000EF86E0800F5500009D8A4EAEF12F0EA
:1025D000ECEF12F0CEEF12F0000E526E000E516EC4
:1025E0001200D2EC14F0520EC2EC14F0B60EC2EC93
:1025F00014F0C8EC14F0530EC2EC14F0010ED4EC3D
:1026000013F0076E07500A6E0B6A000ED4EC13F03D
:10261000076E0750096E086A0A5008100A6E0B50C0
:1026200009100B6ECDEC14F00AC005F00BC006F0DB
:102630001200D2EC14F0520EC2EC14F0B40EC2EC44
:1026400014F0C8EC14F0530EC2EC14F0010ED4ECEC
:1026500013F0076E07500A6E0B6A000ED4EC13F0ED
:10266000076E0750096E086A0A5008100A6E0B5070
:1026700009100B6ECDEC14F00AC005F00BC006F08B
:102680001200D2EC14F0520EC2EC14F0B80EC2ECF0
:1026900014F0C8EC14F0530EC2EC14F0010ED4EC9C
:1026A00013F0076E07500A6E0B6A000ED4EC13F09D
:1026B000076E0750096E086A0A5008100A6E0B5020
:1026C00009100B6ECDEC14F00AC005F00BC006F03B
:1026D0001200D2EC14F0520EC2EC14F0BA0EC2EC9E
:1026E00014F0C8EC14F0530EC2EC14F0010ED4EC4C
:1026F00013F0076E07500A6E0B6A000ED4EC13F04D
:10270000076E0750096E086A0A5008100A6E0B50CF
:1027100009100B6ECDEC14F00AC005F00BC006F0EA
:102720001200000E106E000E0F6EA2EF13F00EC01E
:1027300001F0026A0CC003F00DC004F048EC0EF08A
:102740000F4A102A0F500A24D96E10500B20DA6E4F
:10275000DF500E6E0E50D8A4B0EF13F0B2EF13F0AE
:1027600097EF13F0120085948598839E879C7D9443
:102770007D987B9E7F9CBD508F0B3009BD6EE00E17
:10278000BE16BF50F00B0109BF6E01C0BCFFBD8E6D
:102790000A0E0E01746F0B0E696F000EA36E000E11
:1027A000A06EA48EA18E1200036E42EC14F00E01F6
:1027B000DA8742EC14F0D5CE04F042EC14F003506A
:1027C000D8B4E5EF13F0E9EF13F0026A022AEAEF5A
:1027D00013F0026A023A02460E01DA510218DF0BC8
:1027E0000218DA6FDA890450120014BE02EF14F0F6
:1027F000145006E11304D8B000EF14F002EF14F007
:1028000010EF14F013C015F014C016F0151E161EAC
:10281000154A162A15C013F016C014F014EF14F060
:1028200013C013F014C014F0120020EF14F002C013
:10283000D9FF03C0DAFFDF50ABEC14F0024A032AE1
:1028400002C0D9FF03C0DAFFDF50D8A42AEF14F08A
:102850002CEF14F017EF14F012000E01D951F00B09
:102860000809D96FD98B9F0ED66F848A848CA79B59
:10287000A79D1D0E1D6F1E0E1C6F1C0E6F6F1B0E75
:10288000706F12000E01D8B548EF14F04AEF14F043
:1028900042EF14F0DACE01F01F0E0116D8A453EF68
:1028A00014F055EF14F042EF14F0120002EE00F0B5
:1028B000700EEE6AE806FDE101EEEAF00E0EEE6A39
:1028C000E806FDE10001FF6B5F905F9200010AEFF7
:1028D00007F001500302F3CF05F0F4CF06F00150EA
:1028E0000402F350062602500302F350062605C0E8
:1028F00001F006C002F01200046ED2EC14F0520E89
:10290000C2EC14F004508009C2EC14F00350C2EC85
:1029100014F0CDEC14F01200D6501F0B4009D66E07
:10292000D688D650F00B0709D66ED588F60ED46E31
:102930003B0ED36ED58E1200120E0E01626F110E79
:10294000156FE997E895670EE56F000EE66FE7896A
:10295000E88BE78F1200016E0E0137A5B2EF14F07D
:10296000B4EF14F0ACEF14F001C0E4FE1200F28AF0
:10297000F28C0E01298B1F8B339B2B81219135917A
:10298000F28E1200026E42EC14F002C0D5FE12006C
:1029900042EC14F00E01DA83120042EC14F00E0146
:1029A000DA85120042EC14F00E01DA8112001200F6
:020000040020DA
:10000000FF0FFF0FFF0FFF0FFF0FFF0FFF0FFF0F80
:020000040030CA
:0C000000AAFFFFFF9FFFFFFFFFFFFFFFB5
:00000001FF
