:040000001FEF00F0FE
:100008005F820E0133BB0BEF00F00DEF00F014EF31
:1000180000F08EB412EF00F014EF00F01DEF00F0C6
:100028000101F44BF52BDB0ED36E0B0ED46E0E01D3
:0A003800339B5F921100F3EF15F007
:100E00000025642025642025642025642025642095
:100E10000D0A000038EC14F0000E026E140E016E84
:100E200079EC15F07FEC16F054EC16F008EC16F0A7
:100E300064EC16F0000E0101E76F000EE86FA30EE0
:100E4000E96F0F0EEA6F7D0EEB6F0F0EEC6F040E65
:100E5000ED6F000EEF6FC80EEE6F000EDE6F000E2E
:100E6000DF6FA00EE06F0F0EE16F7F0EE26F0F0ECF
:100E7000E36F060EE46F000EE66FC80EE56FE70E37
:100E80000F6E010E106EFBEC0BF0DE0E0F6E010EFE
:100E9000106EFBEC0BF08EB650EF07F052EF07F040
:100EA0004BEF07F0000E0101CD6F000ECC6FCE0EA0
:100EB0000C6E010E0D6EE3EC10F0CCC159F0CDC1FB
:100EC0005AF0D89059365A36D89059365A36D89062
:100ED00059365A36820E5924D96E010E5A20DA6ECE
:100EE000CEC1DEFFCFC1DDFFCCC159F0CDC15AF07C
:100EF000D89059365A36D89059365A36D8905936ED
:100F00005A36020E5926000E5A22820E5924D96EE4
:100F1000010E5A20DA6ED0C1DEFFD1C1DDFFCCC197
:100F200059F0CDC15AF0D89059365A36D890593622
:100F30005A36D89059365A36040E5926000E5A227F
:100F4000820E5924D96E010E5A20DA6ED2C1DEFF0C
:100F5000D3C1DDFFCCC159F0CDC15AF0D89059367C
:100F60005A36D89059365A36D89059365A36060ECF
:100F70005926000E5A22820E5924D96E010E5A208B
:100F8000DA6ED4C1DEFFD5C1DDFF80867B0E0001A5
:100F9000606F000E616F040E626F0E0E636FCEC144
:100FA00064F0CFC165F0D0C166F0D1C167F0D2C1A5
:100FB00068F0D3C169F0D4C16AF0D5C16BF065ECBB
:100FC00014F07B0E026E000E036EDBEC15F0A30E28
:100FD0005A6E570E596E020EE82EFED7592EFCD7C8
:100FE0005A2EFAD700D08096A30E5A6E570E596E1D
:100FF000020EE82EFED7592EFCD75A2EFAD700D073
:101000000101CC4BCD2BCDBF0FEF08F0CD5109E145
:10101000080ECC5DD8A00FEF08F011EF08F057EFE5
:1010200007F092C1FDF093C1FEF0BAC1C2F1BBC19D
:10103000C3F1010E8EA6000E8EA4000EE8B023EFC1
:1010400008F027EF08F0596A592A28EF08F0596A82
:101050005950D8A42EEF08F030EF08F019EF08F03F
:101060008EB435EF08F037EF08F03AEF08F07C8ED9
:101070000EEF09F080860EEF09F0000EF56F000EFE
:10108000F46FE70E1A6E010E1B6EDE0E1C6E010E63
:101090001D6EB6EC13F0D60E0C6E010E0D6EE3EC69
:1010A00010F00101C251D65DC351D759D8B05BEFE2
:1010B00008F05DEF08F06FEF08F0D6510001FD5D1C
:1010C0000101D7510001FE59D8B069EF08F06BEF6C
:1010D00008F06FEF08F0000E5C6E010E5B6E5B5067
:1010E0005C10D8B476EF08F078EF08F002EF09F062
:1010F000E70E1A6E010E1B6EDE0E1C6E010E1D6ECB
:101100006FEC13F0D60E0C6E010E0D6EE3EC10F0CA
:101110007CAE8DEF08F08FEF08F09BEF08F0D60E55
:10112000016E010E026E84EC10F001C0C8F102C025
:10113000C9F1A9EF08F0D60E016E010E026E820E03
:10114000036E010E046EA9EC0DF001C0C8F102C0DF
:10115000C9F1D8900101C635D96EC735DA6EDF0EF8
:10116000D926000EDA22C8C1DEFFC9C1DDFFD89042
:10117000C635D96EC735DA6E640ED926010EDA226D
:10118000F4C1DEFFF5C1DDFF000E0001606F010E4E
:10119000616F010E626F0E0E636FC8C164F0C9C14A
:1011A00065F0D6C166F0D7C167F0D8C168F0D9C183
:1011B00069F0DAC16AF0DBC16BF0DCC16CF0DDC153
:1011C0006DF065EC14F0000E026E010E036EDBECA8
:1011D00015F0C8C122F0C9C123F0E70E246E010E3C
:1011E000256EDE0E266E010E276ED4EC0AF001018C
:1011F000C64BC72B000EF56F000EF46F000E5C6E31
:10120000000E5B6E110E5A6E3C0E596ECB0EE82E20
:10121000FED7592EFCD75A2EFAD700F0080E01013E
:10122000C819C911D8A417EF09F019EF09F03DEF5B
:1012300008F0E70E1A6E010E1B6EDE0E1C6E010E1C
:101240001D6EDAEC11F0000E0101CB6F000ECA6FBB
:10125000CBBF34EF09F0CB5109E10F0ECA5DD8A026
:1012600034EF09F036EF09F038EF09F04BEF07F0F3
:10127000F29E000EC56F000EC46FD890CA35D96EAD
:10128000CB35DA6EDF0ED926000EDA22DECF22F061
:10129000DDCF23F0E70E246E010E256EDE0E266EE6
:1012A000010E276ED4EC0AF0E70E1A6E010E1B6ECB
:1012B000DE0E1C6E010E1D6EB6EC13F06FEF09F022
:1012C000050E5A6E0F0E596EF10EE82EFED7592EEE
:1012D000FCD75A2EFAD700F00101C44BC52BD89089
:1012E0000101CA35D96ECB35DA6E640ED926010EEE
:1012F000DA22DE50C45DDE50C559D8A082EF09F075
:1013000084EF09F060EF09F0E70E1A6E010E1B6E14
:10131000DE0E1C6E010E1D6E6FEC13F00101CA4B48
:10132000CB2B28EF09F01FEF00F01EC034F01FC0D8
:1013300035F020C036F021C037F022C038F023C08D
:1013400039F024C03AF025C03BF03BBEAAEF09F0CB
:10135000ADEF09F0010EAEEF09F0000E3E6E3E500B
:10136000D8B4B5EF09F0B7EF09F0C7EF09F03B1EAD
:101370003A1E391E381E371E361E351E346C000EBE
:10138000352236223722382239223A223B220101E5
:10139000F3BFD5EF09F0F35106E1F205D8B0D3EF72
:1013A00009F0D5EF09F0DBEF09F0000E316E010E08
:1013B000306EDFEF09F0F2C130F0F3C131F0F0C16F
:1013C00032F0F1C133F03E50D8B4E9EF09F0EBEF61
:1013D00009F002EF0AF03206D8A033063E50D8A436
:1013E000F4EF09F0F6EF09F0FCEF09F0000E2F6EB4
:1013F0002B0E2E6E00EF0AF0000E2F6E2D0E2E6EAD
:101400002EC03EF0000E3D6E1F0E3C6E000E02011F
:101410006F6F87EF0AF03C06D8A03D06500E3C24C3
:10142000D96E020E3D20DA6E34C001F035C002F0F4
:1014300036C003F037C004F038C005F039C006F0FC
:101440003AC007F03BC008F00A0E096E000E0A6EA3
:10145000000E0B6E000E0C6E000E0D6E000E0E6E6A
:10146000000E0F6E000E106E5CEC0EF001C026F048
:1014700002C027F003C028F004C029F005C02AF0FC
:1014800006C02BF007C02CF008C02DF026C013F0CA
:1014900027C014F0BBEC15F01350300FDF6E300690
:1014A000D8A031063206D8A0330634C001F035C0CA
:1014B00002F036C003F037C004F038C005F039C080
:1014C00006F03AC007F03BC008F00A0E096E000EA5
:1014D0000A6E000E0B6E000E0C6E000E0D6E000EEE
:1014E0000E6E000E0F6E000E106EE5EC0CF001C0DB
:1014F00034F002C035F003C036F004C037F005C048
:1015000038F006C039F007C03AF008C03BF03DBEE5
:1015100092EF0AF03D5008E13C04D8A092EF0AF0A7
:1015200094EF0AF0B0EF0AF034503510361037104F
:10153000381039103A103B10D8A4A1EF0AF0A3EFED
:101540000AF00BEF0AF031BEB0EF0AF0315006E1BD
:101550003004D8B0AEEF0AF0B0EF0AF00BEF0AF0AB
:101560003E50D8B4B6EF0AF0B8EF0AF0C3EF0AF075
:101570003C06D8A03D06500E3C24D96E020E3D20FC
:10158000DA6E3EC0DFFF1CC011F01DC012F0500E1D
:101590003C24136E020E3D20146E32C015F033C091
:1015A00016F0FBEC13F01200D0EF0BF024C01AF091
:1015B00025C01BF026C01CF027C01DF0CDEC12F09A
:1015C00024C01AF025C01BF026C01CF027C01DF057
:1015D0006FEC13F0290E296E960E286E7F0EE82E02
:1015E000FED7282EFCD7292EFAD700F024C01AF0F7
:1015F00025C01BF026C01CF027C01DF06FEC13F0B7
:1016000024C01AF025C01BF026C01CF027C01DF016
:1016100036EC11F0FAEF0BF024C01AF025C01BF0E5
:1016200026C01CF027C01DF0CDEC12F024C01AF02B
:1016300025C01BF026C01CF027C01DF06FEC13F076
:10164000290E296E960E286E7F0EE82EFED7282EC4
:10165000FCD7292EFAD700F024C01AF025C01BF0C1
:1016600026C01CF027C01DF06FEC13F024C01AF048
:1016700025C01BF026C01CF027C01DF088EC11F01F
:10168000FAEF0BF024C01AF025C01BF026C01CF0A6
:1016900027C01DF0CDEC12F024C01AF025C01BF0BD
:1016A00026C01CF027C01DF06FEC13F0290E296E28
:1016B000960E286E7F0EE82EFED7282EFCD7292EF8
:1016C000FAD700F024C01AF025C01BF026C01CF089
:1016D00027C01DF0DAEC11F024C01AF025C01BF071
:1016E00026C01CF027C01DF06FEC13F0FAEF0BF0D2
:1016F00024C01AF025C01BF026C01CF027C01DF026
:101700007CEC12F024C01AF025C01BF026C01CF09F
:1017100027C01DF036EC11F0FAEF0BF024C01AF0E0
:1017200025C01BF026C01CF027C01DF07CEC12F079
:1017300024C01AF025C01BF026C01CF027C01DF0E5
:1017400088EC11F0FAEF0BF024C01AF025C01BF062
:1017500026C01CF027C01DF0CDEC12F024C01AF0FA
:1017600025C01BF026C01CF027C01DF02BEC12F08A
:10177000FAEF0BF024C01AF025C01BF026C01CF0B5
:1017800027C01DF0CDEC12F024C01AF025C01BF0CC
:1017900026C01CF027C01DF01EEC13F0FAEF0BF072
:1017A00022C028F023C029F02950000AD8B4DBEF6A
:1017B0000BF0FAEF0BF02850010AD8B4D6EF0AF07C
:1017C000030AD8B40CEF0BF0010AD8B442EF0BF0C7
:1017D000070AD8B478EF0BF0010AD8B48EEF0BF0FB
:1017E000030AD8B4A4EF0BF0010AD8B4BAEF0BF097
:1017F000FAEF0BF0120020EE01F00F50D926105036
:10180000DA22DF50D8B407EF0CF009EF0CF03AEF12
:101810000CF00FC0D9FF10C0DAFFDF50116E11506D
:10182000016E026A20EE07F00F50D9261050DA221E
:10183000DECF03F0DDCF04F031EC16F001C007F08D
:1018400002C008F0000E0A6E640E096E22EC10F061
:1018500020EE07F00F50D9261050DA22DECF12F01A
:10186000DDCF13F00750125C186E08501358196E34
:101870005DEF0CF00FC0D9FF10C0DAFFDF50116E22
:101880001150016E026A20EE07F00F50D926105059
:10189000DA22DECF03F0DDCF04F031EC16F001C028
:1018A00007F002C008F0000E0A6E640E096E22EC0A
:1018B00010F007C018F008C019F020EE02F00F5029
:1018C000D9261050DA22DECF11F0DDCF12F011C090
:1018D000D9FF12C0DAFF18C0DFFF20EE01F00F5071
:1018E000D9261050DA22DF50D8B479EF0CF07BEF14
:1018F0000CF0B0EF0CF020EE04F00F50D926105091
:10190000DA22DECF11F0DDCF12F011C0D9FF12C004
:10191000DAFF10EE04F00F50E1261050E222E6CF7D
:1019200013F0E5CF14F013C0E1FF14C0E2FFE7505D
:10193000156E10EE06F00F50E1261050E222E7502F
:10194000166E010E176E162AA8EF0CF0D8901736F7
:10195000162EA6EF0CF017501510DF6EE4EF0CF00A
:1019600020EE04F00F50D9261050DA22DECF11F00D
:10197000DDCF12F011C0D9FF12C0DAFF10EE04F073
:101980000F50E1261050E222E6CF13F0E5CF14F01D
:1019900013C0E1FF14C0E2FFE750156E10EE06F031
:1019A0000F50E1261050E222E750166E010E176E1E
:1019B000162ADDEF0CF0D8901736162EDBEF0CF060
:1019C0001750FF0A1514DF6E1200000E126E10BEC3
:1019D000EEEF0CF0ECEF0CF000EF0DF0101E0F1E10
:1019E0000E1E0D1E0C1E0B1E0A1E096C000E0A2276
:1019F0000B220C220D220E220F221022010E126E3B
:101A000008BE07EF0DF005EF0DF019EF0DF0081E01
:101A1000071E061E051E041E031E021E016C000E7C
:101A20000222032204220522062207220822010E96
:101A3000121A20EE13F0070EDE6AE806FDE20950E6
:101A40000A100B100C100D100E100F101010D8B43F
:101A50002CEF0DF02EEF0DF080EF0DF0010E116E5A
:101A60003CEF0DF0D89009360A360B360C360D36A1
:101A70000E360F361036112A10AE41EF0DF043EF3F
:101A80000DF032EF0DF0D8901336143615361636A9
:101A90001736183619361A360950015C0A500258A2
:101AA0000B5003580C5004580D5005580E50065852
:101AB0000F50075810500858D8A061EF0DF063EF91
:101AC0000DF074EF0DF00950015E0A50025A0B50F0
:101AD000035A0C50045A0D50055A0E50065A0F5016
:101AE000075A1050085A1380D89010320F320E3215
:101AF0000D320C320B320A320932112E43EF0DF047
:101B00001250D8B486EF0DF088EF0DF098EF0DF07D
:101B10001A1E191E181E171E161E151E141E136CD3
:101B2000000E1422152216221722182219221A2218
:101B300013C001F014C002F015C003F016C004F089
:101B400017C005F018C006F019C007F01AC008F059
:101B5000120020EE02F00150D9260250DA22DECF28
:101B60000AF0DDCF0BF020EE04F00150D926025030
:101B7000DA22DECF0CF0DDCF0DF020EE06F00150C2
:101B8000D9260250DA22DECF0EF0DDCF0FF020EEA4
:101B900002F00350D9260450DA22DECF10F0DDCF58
:101BA00011F020EE04F00350D9260450DA22DECFE3
:101BB00012F0DDCF13F020EE06F00350D9260450CA
:101BC000DA22DECF14F0DDCF15F0000E076EEC0E3A
:101BD0001024056EFF0E1120066E0A50055C0B5096
:101BE0000658D8B0F6EF0DF0F8EF0DF00BEF0EF051
:101BF000140E1024056E000E1120066E05500A5CAE
:101C000006500B58D8B007EF0EF009EF0EF00BEFAF
:101C10000EF0010E076E000E086EEC0E1424056E19
:101C2000FF0E1520066E0E50055C0F500658D8B0FA
:101C30001CEF0EF01EEF0EF031EF0EF0140E142418
:101C4000056E000E1520066E05500E5C06500F58EE
:101C5000D8B02DEF0EF02FEF0EF031EF0EF0010E99
:101C6000086E000E096EEC0E1224056EFF0E132096
:101C7000066E0C50055C0D500658D8B042EF0EF0C1
:101C800044EF0EF057EF0EF0140E1224056E000E06
:101C90001320066E05500C5C06500D58D8B053EF5B
:101CA0000EF055EF0EF057EF0EF0010E096E000E1C
:101CB000026E000E016E1200000E126E08BE65EF7D
:101CC0000EF063EF0EF077EF0EF0081E071E061EF3
:101CD000051E041E031E021E016C000E02220322BA
:101CE00004220522062207220822010E126E10BECF
:101CF0007EEF0EF07CEF0EF08EEF0EF0101E0F1E3A
:101D00000E1E0D1E0C1E0B1E0A1E096C000E0A2252
:101D10000B220C220D220E220F22102209500A1033
:101D20000B100C100D100E100F101010D8B49BEFEC
:101D30000EF09DEF0EF0E5EF0EF0010E116EABEF21
:101D40000EF0D89009360A360B360C360D360E36A4
:101D50000F361036112A10AEB0EF0EF0B2EF0EF0C3
:101D6000A1EF0EF00950015C0A5002580B500358C5
:101D70000C5004580D5005580E5006580F50075877
:101D800010500858D8A0C7EF0EF0C9EF0EF0D9EFE9
:101D90000EF00950015E0A50025A0B50035A0C50C3
:101DA000045A0D50055A0E50065A0F50075A10503B
:101DB000085AD89010320F320E320D320C320B32DC
:101DC0000A320932112EB2EF0EF01250D8B4EBEFF6
:101DD0000EF0EDEF0EF0FDEF0EF0081E071E061ED2
:101DE000051E041E031E021E016C000E02220322A9
:101DF0000422052206220722082201C001F002C0A7
:101E000002F003C003F004C004F005C005F006C0F2
:101E100006F007C007F008C008F0120041C0D9FF63
:101E200042C0DAFFDECFF6FFDDCFF7FF000EF86E1F
:101E30000800F550250AD8A420EF0FF022EF0FF08C
:101E4000A6EF0FF041C0D9FF42C0DAFFDE2A000E34
:101E5000DD22000E0101F16F000EF06FF0C1FAF10A
:101E6000F269F36941C0D9FF42C0DAFFDECF4FF01B
:101E7000DDCF50F04FC0F6FF50C0F7FF000EF86EF8
:101E80000800F550640AD8B448EF0FF04AEF0FF09D
:101E90005AEF0FF04FC0F6FF50C0F7FF000EF86E7C
:101EA0000800F550690AD8A458EF0FF05AEF0FF068
:101EB0009DEF0FF043C0D9FF44C0DAFFDFCF45F0FC
:101EC000020EDE26DFCF46F0000EDD2245C0D9FF30
:101ED00046C0DAFFDECF47F0DDCF48F0000E48BE47
:101EE000FF0E496E4A6E4B6E4C6E4D6E4E6E010E7D
:101EF0004F24456E000E5020466E41C0D9FF42C0AF
:101F0000DAFF45C0DEFF46C0DDFF3FC01CF040C029
:101F10001DF047C01EF048C01FF049C020F04AC065
:101F200021F04BC022F04CC023F04DC024F04EC035
:101F300025F095EC09F0BCEF0FF041C0D9FF42C08D
:101F4000DAFFDE2A000EDD22BCEF0FF041C0D9FF20
:101F500042C0DAFFDECFF6FFDDCFF7FF000EF86EEE
:101F60000800F550016E026A3FC003F040C004F063
:101F7000BDEC0FF09DEF0FF0120003500410D8B429
:101F8000C4EF0FF0C6EF0FF0CFEF0FF003500410C7
:101F9000D8A4CDEF0FF0CFEF0FF0D4EF0FF001503A
:101FA0009FEC16F021EF10F020EE09F00350D92637
:101FB0000450DA22DE50DE10D8B4E1EF0FF0E3EF88
:101FC0000FF0FEEF0FF020EE09F00350D926045079
:101FD000DA2210EE03F00350E1260450E222DE5034
:101FE000E65CE650800A096EDE50800A0958D8B0D7
:101FF000FCEF0FF0FEEF0FF021EF10F020EE03F0FA
:102000000350D9260450DA22DECF05F0DDCF06F0EA
:1020100003C0D9FF04C0DAFFDECF07F0DDCF08F040
:1020200005500724D96E06500820DA6E01C0DFFF84
:1020300020EE03F00350D9260450DA22DE2A000EE7
:10204000DD221200000E0C6E0ABE2BEF10F029EFFD
:1020500010F031EF10F0096C0A1ED8B00A2A010EF8
:102060000C6E08BE38EF10F036EF10F03EEF10F0B7
:10207000076C081ED8B0082A010E0C1A000E0E6E4E
:10208000000E0D6E09500A10D8B449EF10F04BEF56
:1020900010F073EF10F0010E0B6E53EF10F0D890AC
:1020A00009360A360B2A0AAE58EF10F05AEF10F034
:1020B0004FEF10F0D8900D360E360950075C0A50DD
:1020C0000858D8A066EF10F068EF10F06DEF10F030
:1020D0000950075E0A50085A0D80D8900A3209321A
:1020E0000B2E5AEF10F00C50D8B479EF10F07BEFB4
:1020F00010F07FEF10F00D6C0E1ED8B00E2A0DC040
:1021000007F00EC008F0120020EE02F00150D926B0
:102110000250DA22DECF07F0DDCF08F020EE04F027
:102120000150D9260250DA22DECF09F0DDCF0AF0C5
:1021300020EE06F00150D9260250DA22DECF05F05B
:10214000DDCF06F00950075C0A500858D8A0ABEF65
:1021500010F0ADEF10F0BEEF10F00550075C065028
:102160000858D8A0B6EF10F0B8EF10F0BEEF10F09E
:10217000000E046E010E036EDEEF10F00750095CD6
:1021800008500A58D8A0C7EF10F0C9EF10F0DAEFE6
:1021900010F00550095C06500A58D8A0D2EF10F094
:1021A000D4EF10F0DAEF10F0000E046E020E036EA2
:1021B000DEEF10F0000E046E030E036E03C001F09C
:1021C00004C002F01200DFEC14F00CC0D9FF0DC007
:1021D000DAFF05C0DEFF06C0DDFF090E0F6E1E0E22
:1021E0000E6EE40EE82EFED70E2EFCD70F2EFAD779
:1021F00000D0B7EC14F020EE02F00C50D9260D50B0
:10220000DA2205C0DEFF06C0DDFF090E0F6E1E0ECE
:102210000E6EE40EE82EFED70E2EFCD70F2EFAD748
:1022200000D007EC15F020EE04F00C50D9260D502C
:10223000DA2205C0DEFF06C0DDFF090E0F6E1E0E9E
:102240000E6EE40EE82EFED70E2EFCD70F2EFAD718
:1022500000D02FEC15F020EE06F00C50D9260D50D2
:10226000DA2205C0DEFF06C0DDFF120020EE01F01D
:102270001A50D9261B50DA22010EDF6E20EE01F033
:102280001C50D9261D50DA22000EDF6E000E216E82
:10229000000E206E1AC0D9FF1BC0DAFF20C0DFFF7E
:1022A0002050320F1CC0D9FF1DC0DAFFDF6E1AC0EC
:1022B0000FF01BC010F0FBEC0BF01CC00FF01DC0AA
:1022C00010F0FBEC0BF0350EE82EFED700F0020EFE
:1022D0002024206E000E2120216E21BE79EF11F006
:1022E000215009E1320E205CD8A079EF11F07BEF8C
:1022F00011F04AEF11F00E0E1F6E650E1E6E870E66
:10230000E82EFED71E2EFCD71F2EFAD700F01200A3
:1023100020EE01F01A50D9261B50DA22000EDF6E93
:1023200020EE01F01C50D9261D50DA22010EDF6E7E
:10233000000E216E000E206E2050320F1AC0D9FF01
:102340001BC0DAFFDF6E1CC0D9FF1DC0DAFF20C042
:10235000DFFF1AC00FF01BC010F0FBEC0BF01CC02D
:102360000FF01DC010F0FBEC0BF0350EE82EFED781
:1023700000F0020E2024206E000E2120216E21BECE
:10238000CBEF11F0215009E1320E205CD8A0CBEF49
:1023900011F0CDEF11F09CEF11F00E0E1F6E650ED7
:1023A0001E6E870EE82EFED71E2EFCD71F2EFAD7E4
:1023B00000F0120020EE01F01A50D9261B50DA224C
:1023C000010EDF6E20EE01F01C50D9261D50DA22DE
:1023D000000EDF6E000E216E000E206E1AC0D9FFB7
:1023E0001BC0DAFF20C0DFFF2050320F1CC0D9FF16
:1023F0001DC0DAFFDF6E1AC00FF01BC010F0FBEC3F
:102400000BF01CC00FF01DC010F0FBEC0BF0350EF4
:10241000E82EFED700F0020E2024206E000E2120B0
:10242000216E21BE1DEF12F0215009E1320E205C19
:10243000D8A01DEF12F01FEF12F0EEEF11F0180E02
:102440001F6E8A0E1E6EE80EE82EFED71E2EFCD7DB
:102450001F2EFAD7120020EE01F01A50D9261B5079
:10246000DA22010EDF6E20EE01F01C50D9261D503D
:10247000DA22000EDF6E000E216E000E206E1AC0F2
:10248000D9FF1BC0DAFF20C0DFFF2050320F1CC075
:10249000D9FF1DC0DAFFDF6E1AC00FF01BC010F0AD
:1024A000FBEC0BF01CC00FF01DC010F0FBEC0BF0B0
:1024B000350EE82EFED700F0020E2024206E000E0E
:1024C0002120216E21BE6EEF12F0215009E1320E63
:1024D000205CD8A06EEF12F070EF12F03FEF12F018
:1024E000130E1F6EAC0E1E6E2A0EE82EFED71E2E89
:1024F000FCD71F2EFAD7120020EE01F01A50D92671
:102500001B50DA22000EDF6E20EE01F01C50D9269F
:102510001D50DA22000EDF6E000E216E000E206EBE
:102520001AC0D9FF1BC0DAFF20C0DFFF1CC0D9FFD3
:102530001DC0DAFF20C0DFFF1AC00FF01BC010F073
:10254000FBEC0BF01CC00FF01DC010F0FBEC0BF00F
:10255000350EE82EFED700F0020E2024206E000E6D
:102560002120216E21BEBEEF12F0215009E1330E71
:10257000205CD8A0BEEF12F0C0EF12F090EF12F086
:102580005A0E1F6E490E1E6EE70EE82EFED71E2E47
:10259000FCD71F2EFAD700F0120020EE01F01A50DF
:1025A000D9261B50DA22000EDF6E20EE01F01A5001
:1025B000D9261B50DA22000EDF6E000E216E000EAF
:1025C000206E1AC0D9FF1BC0DAFF20C0DFFF1CC07D
:1025D000D9FF1DC0DAFF20C0DFFF1AC00FF01BC0FB
:1025E00010F0FBEC0BF01CC00FF01DC010F0FBEC6A
:1025F0000BF0350EE82EFED700F0020E2024206EE0
:10260000000E2120216E21BE0FEF13F0215009E1B1
:10261000290E205CD8A00FEF13F011EF13F0E1EFBB
:1026200012F0290E1F6E960E1E6E7F0EE82EFED73C
:102630001E2EFCD71F2EFAD700F0120020EE01F05C
:102640001A50D9261B50DA22000EDF6E20EE01F060
:102650001C50D9261D50DA22010EDF6E000E216EAD
:10266000000E206E2050320F1AC0D9FF1BC0DAFFB7
:10267000DF6E1CC0D9FF1DC0DAFF20C0DFFF1AC00B
:102680000FF01BC010F0FBEC0BF01CC00FF01DC0D6
:1026900010F0FBEC0BF0350EE82EFED700F0020E2A
:1026A0002024206E000E2120216E21BE61EF13F048
:1026B000215009E1320E205CD8A061EF13F063EFE6
:1026C00013F032EF13F0130E1F6EAC0E1E6E2A0EB7
:1026D000E82EFED71E2EFCD71F2EFAD7120020EEB2
:1026E00001F01A50D9261B50DA22000EDF6E20EEC0
:1026F00001F01C50D9261D50DA22000EDF6E000EAC
:10270000206E050E1F6E1AC0D9FF1BC0DAFF1FC056
:10271000DFFF1CC0D9FF1DC0DAFF1FC0DFFF1AC0DA
:102720000FF01BC010F0FBEC0BF01CC00FF01DC035
:1027300010F0FBEC0BF0D00E1E6ECA0EE82EFED78A
:102740001E2EFCD7FF0E1F241F6EFF0E2020206EB2
:1027500020BEB5EF13F0205006E11F04D8B0B3EF50
:1027600013F0B5EF13F083EF13F0120020EE01F039
:102770001A50D9261B50DA22010EDF6E20EE01F02E
:102780001C50D9261D50DA22010EDF6E000E1F6E7E
:10279000000E1E6E1AC0D9FF1BC0DAFF1EC0DFFF7D
:1027A0001CC0D9FF1DC0DAFF1EC0DFFF1AC00FF02A
:1027B0001BC010F0FBEC0BF01CC00FF01DC010F0A4
:1027C000FBEC0BF06A0EE82EFED700D0020E1E24A2
:1027D0001E6E000E1F201F6E1FBEF8EF13F01F505D
:1027E00009E11F0E1E5CD8A0F8EF13F0FAEF13F00A
:1027F000CAEF13F0120016BE00EF14F002EF14F04F
:1028000008EF14F015C01AF016C01BF00CEF14F00E
:10281000000E1B6E000E1A6E000E196E000E186E62
:102820001EEF14F0000E026E200E016E11C003F0B8
:1028300012C004F0BDEC0FF0184A192A1A50185CA7
:102840001950800A176E1B50800A1758D8A02BEF1A
:1028500014F02DEF14F012EF14F013C00AF014C0AE
:102860000BF011C00CF012C00DF057EC15F0120077
:1028700008EC16F0010E036E000E44EC16F03F0E4D
:10288000056E550EE82EFED7052EFCD700F0030E80
:10289000036E000E44EC16F0D50E036E010E44ECF0
:1028A00016F08892849684988890869080827C86A0
:1028B0007C9880907E907C9E8096849E889686846C
:1028C0000E01B4958686B4971200640E00016E6FF7
:1028D000000E6F6F60C070F061C071F0000E746F19
:1028E000000E736F000E7A6F000E796F700E516ECE
:1028F000000E526E62C053F063C054F06E0E556EFF
:10290000000E566E8EEC14F0000173516025D96EE6
:1029100074516121DA6E000EDF6E120053C057F061
:1029200054C058F0A2EF14F051C03FF052C040F034
:10293000570E416E000E426E55C043F056C044F033
:102940000EEC0FF057C0F6FF58C0F7FF000EF86E00
:102950000800F5500009D8A4B0EF14F0B2EF14F05D
:1029600094EF14F0000E526E000E516E12009AECAD
:1029700016F0520E8AEC16F0B60E8AEC16F090ECB9
:1029800016F0530E8AEC16F0010E9AEC15F0076E55
:1029900007500A6E0B6A000E9AEC15F0076E07508E
:1029A000096E086A0A5008100A6E0B5009100B6E67
:1029B00095EC16F00AC005F00BC006F012009AEC78
:1029C00016F0520E8AEC16F0B40E8AEC16F090EC6B
:1029D00016F0530E8AEC16F0010E9AEC15F0076E05
:1029E00007500A6E0B6A000E9AEC15F0076E07503E
:1029F000096E086A0A5008100A6E0B5009100B6E17
:102A000095EC16F00AC005F00BC006F012009AEC27
:102A100016F0520E8AEC16F0B80E8AEC16F090EC16
:102A200016F0530E8AEC16F0010E9AEC15F0076EB4
:102A300007500A6E0B6A000E9AEC15F0076E0750ED
:102A4000096E086A0A5008100A6E0B5009100B6EC6
:102A500095EC16F00AC005F00BC006F012009AECD7
:102A600016F0520E8AEC16F0BA0E8AEC16F090ECC4
:102A700016F0530E8AEC16F0010E9AEC15F0076E64
:102A800007500A6E0B6A000E9AEC15F0076E07509D
:102A9000096E086A0A5008100A6E0B5009100B6E76
:102AA00095EC16F00AC005F00BC006F01200000EFF
:102AB000106E000E0F6E68EF15F00EC001F0026A86
:102AC0000CC003F00DC004F0BDEC0FF00F4A102A4B
:102AD0000F500A24D96E10500B20DA6EDF500E6EA4
:102AE0000E50D8A476EF15F078EF15F05DEF15F0E5
:102AF000120085948598839E879C7D947D987B9E0B
:102B00007F9CBD508F0B3009BD6EE00EBE16BF50CE
:102B1000F00B0109BF6E01C0BCFFBD8E0A0E0E0195
:102B2000746F0B0E696F000EA36E000EA06EA48E64
:102B3000A18E1200036E1DEC16F00E01DA871DEC5B
:102B400016F0D5CE04F01DEC16F00350D8B4ABEF60
:102B500015F0AFEF15F0026A022AB0EF15F0026A25
:102B6000023A02460E01DA510218DF0B0218DA6F40
:102B7000DA890450120014BEC8EF15F0145006E1B3
:102B80001304D8B0C6EF15F0C8EF15F0D6EF15F066
:102B900013C015F014C016F0151E161E154A162A7D
:102BA00015C013F016C014F0DAEF15F013C013F0CF
:102BB00014C014F01200E6EF15F002C0D9FF03C0F4
:102BC000DAFFDF5073EC16F0024A032A02C0D9FF85
:102BD00003C0DAFFDF50D8A4F0EF15F0F2EF15F0E4
:102BE000DDEF15F0120002EE00F0700EEE6AE8065E
:102BF000FDE101EEF0F00C0EEE6AE806FDE10001E9
:102C0000FF6B5E6A5D6A5F905F9200010AEF07F0FA
:102C10000E01D951F00B0809D96FD98B9F0ED66FD1
:102C2000848A848CA79BA79D1D0E1D6F1E0E1C6F92
:102C30001C0E6F6F1B0E706F12000E01D8B523EFC4
:102C400016F025EF16F01DEF16F0DACE01F01F0E8C
:102C50000116D8A42EEF16F030EF16F01DEF16F087
:102C6000120001500302F3CF05F0F4CF06F001503B
:102C70000402F350062602500302F350062605C054
:102C800001F006C002F01200046E9AEC16F0520E2B
:102C90008AEC16F0045080098AEC16F003508AEC96
:102CA00016F095EC16F01200D6501F0B4009D66EA8
:102CB000D688D650F00B0709D66ED588F60ED46E9E
:102CC0003B0ED36ED58E1200120E0E01626F110EE6
:102CD000156FE997E895670EE56F000EE66FE789D7
:102CE000E88BE78F1200016E0E0137A57AEF16F020
:102CF0007CEF16F074EF16F001C0E4FE1200F28AC9
:102D0000F28C0E01298B1F8B339B2B8121913591E6
:102D1000F28E1200026E1DEC16F002C0D5FE1200FB
:102D20001DEC16F00E01DA8312001DEC16F00E01F8
:102D3000DA8512001DEC16F00E01DA811200120085
:020000040020DA
:10000000FF0FFF0FFF0FFF0FFF0FFF0FFF0FFF0F80
:020000040030CA
:0C000000AAFFFFFF9FFFFFFFFFFFFFFFB5
:00000001FF
