:040000002AEF00F0F3
:100008005D820E0133AB0BEF00F00DEF00F026EF31
:1000180000F07DA412EF00F014EF00F01EEF00F0E6
:100028000001B41D016EB51D026E28EC14F07D941C
:1000380026EF00F00001B61D016EB71D026E28EC18
:1000480014F07D840E01339B5D921100F4EF13F0E0
:100E0000002564202564202564202564200D0A0027
:010E100000E1
:100E1200CEEC11F0000E046E140E036E0FEC13F004
:100E220013EC14F0D5EC13F089EC13F0E5EC13F0AD
:100E3200000E01018A6F000E8B6FA30E8C6F0F0ED6
:100E42008D6F7D0E8E6F0F0E8F6F040E906F000EE2
:100E5200926FC80E916F000E936F000E946FA00EEA
:100E6200956F0F0E966F7F0E976F0F0E986F060E8F
:100E7200996F000E9B6FC80E9A6F8A0E116E010E4B
:100E8200126EA1EC09F0930E116E010E126EA1EC1E
:100E920009F0820E0E6E010E0F6ECAEC0EF0000EFD
:100EA2000001DB6F010EDC6F010EDD6F0E0EDE6FD7
:100EB20082C1DFF083C1E0F084C1E1F085C1E2F0DC
:100EC20086C1E3F087C1E4F088C1E5F089C1E6F0AC
:100ED200FBEC11F0000E046E010E056E71EC13F0C6
:100EE200010170057111D8A479EF07F07BEF07F0CB
:100EF20081EF07F0724B732B000E716F000E706F53
:100F0200010E8EA6000E8EA4000EE8B08BEF07F045
:100F120090EF07F00001F46BF42B92EF07F0000161
:100F2200F46BF451D8A498EF07F09AEF07F081EF31
:100F320007F08EB49FEF07F0A1EF07F0A4EF07F0E0
:100F42007C8E28EF08F0808628EF08F08A0E1C6E4F
:100F5200010E1D6E930E1E6E010E1F6E4CEC11F0F3
:100F620001016E516F11D8B4B9EF07F0BBEF07F072
:100F72001CEF08F08A0E1C6E010E1D6E930E1E6E83
:100F8200010E1F6E05EC11F07A0E0E6E010E0F6E41
:100F9200CAEC0EF07CAED0EF07F0D2EF07F0DEEF36
:100FA20007F07A0E036E010E046E6BEC0EF003C0B6
:100FB20076F104C077F1E8EF07F07A0E036E010EC6
:100FC200046E0CEC0EF003C076F104C077F1D890F9
:100FD20001017435D96E7535DA6E500ED926010EBF
:100FE200DA2276C1DEFF77C1DDFFD8907435D96E83
:100FF2007535DA6E320ED926010EDA2272C1DEFFA3
:1010020073C1DDFF76C124F077C125F08A0E266E0A
:10101200010E276E930E286E010E296EB0EC0CF0B5
:101022000101744B752B000E736F000E726F000E70
:101032006F6F000E6E6F110E0001F56F3C0EF46FB4
:10104200CB0EE82EFED7F42FFCD7F52FFAD7080ED9
:10105200010176197711D8A431EF08F033EF08F0C7
:10106200A7EF07F0000E796F000E786FD8907835F1
:10107200D96E7935DA6E500ED926010EDA22DECF1C
:1010820024F0DDCF25F08A0E266E010E276E930E18
:10109200286E010E296EB0EC0CF00101784B792B11
:1010A20079BF5DEF08F0795109E10F0E785DD8A0A4
:1010B2005DEF08F05FEF08F037EF08F071EF07F02F
:1010C2002AEF00F020C036F021C037F022C038F0FD
:1010D20023C039F024C03AF025C03BF026C03CF0D2
:1010E20027C03DF03DBE78EF08F07BEF08F0010E1F
:1010F2007CEF08F0000E406E4050D8B483EF08F049
:1011020085EF08F095EF08F03D1E3C1E3B1E3A1E8F
:10111200391E381E371E366C000E3722382239220D
:101122003A223B223C223D220001B3BFA3EF08F04A
:10113200B35106E1B205D8B0A1EF08F0A3EF08F071
:10114200A9EF08F0000E336E010E326EADEF08F01B
:10115200B2C032F0B3C033F0B0C034F0B1C035F039
:101162004050D8B4B7EF08F0B9EF08F0D0EF08F06C
:101172003406D8A035064050D8A4C2EF08F0C4EF18
:1011820008F0CAEF08F0000E316E2B0E306ECEEF73
:1011920008F0000E316E2D0E306E30C040F0000EA1
:1011A2003F6E1F0E3E6E000EDA6F54EF09F03E06E0
:1011B200D8A03F06BB0E3E24D96E000E3F20DA6E49
:1011C20036C003F037C004F038C005F039C006F06D
:1011D2003AC007F03BC008F03CC009F03DC00AF03D
:1011E2000A0E0B6E000E0C6E000E0D6E000E0E6ED1
:1011F200000E0F6E000E106E000E116E000E126EBB
:101202004FEC0BF003C028F004C029F005C02AF00F
:1012120006C02BF007C02CF008C02DF009C02EF03C
:101222000AC02FF028C015F029C016F051EC13F0B7
:101232001550300FDF6E3206D8A033063406D8A020
:10124200350636C003F037C004F038C005F039C0A7
:1012520006F03AC007F03BC008F03CC009F03DC0C0
:101262000AF00A0E0B6E000E0C6E000E0D6E000ED2
:101272000E6E000E0F6E000E106E000E116E000E3E
:10128200126E8BEC0AF003C036F004C037F005C0D2
:1012920038F006C039F007C03AF008C03BF009C088
:1012A2003CF00AC03DF03FBE5FEF09F03F5008E15D
:1012B2003E04D8A05FEF09F061EF09F07DEF09F07D
:1012C20036503710381039103A103B103C103D1090
:1012D200D8A46EEF09F070EF09F0D8EF08F033BE32
:1012E2007DEF09F0335006E13204D8B07BEF09F00C
:1012F2007DEF09F0D8EF08F04050D8B483EF09F041
:1013020085EF09F090EF09F03E06D8A03F06BB0E2C
:101312003E24D96E000E3F20DA6E40C0DFFF1EC0B1
:1013220013F01FC014F0BB0E3E24156E000E3F20BA
:10133200166E34C017F035C018F091EC11F012009F
:1013420020EE01F01150D9261250DA22DF50D8B423
:10135200ADEF09F0AFEF09F0E0EF09F011C0D9FFEE
:1013620012C0DAFFDF50136E1350036E046A20EED0
:1013720007F01150D9261250DA22DECF05F0DDCF68
:1013820006F0B2EC13F003C009F004C00AF0000E3C
:101392000C6E640E0B6EAAEC0DF020EE07F01150ED
:1013A200D9261250DA22DECF14F0DDCF15F0095023
:1013B200145C1A6E0A5015581B6E03EF0AF011C026
:1013C200D9FF12C0DAFFDF50136E1350036E046AA6
:1013D20020EE07F01150D9261250DA22DECF05F0A6
:1013E200DDCF06F0B2EC13F003C009F004C00AF03E
:1013F200000E0C6E640E0B6EAAEC0DF009C01AF012
:101402000AC01BF020EE02F01150D9261250DA2247
:10141200DECF13F0DDCF14F013C0D9FF14C0DAFF12
:101422001AC0DFFF20EE01F01150D9261250DA2245
:10143200DF50D8B41FEF0AF021EF0AF056EF0AF09E
:1014420020EE04F01150D9261250DA22DECF13F02A
:10145200DDCF14F013C0D9FF14C0DAFF10EE04F090
:101462001150E1261250E222E6CF15F0E5CF16F038
:1014720015C0E1FF16C0E2FFE750176E10EE06F04E
:101482001150E1261250E222E750186E010E196E39
:10149200182A4EEF0AF0D8901936182E4CEF0AF09F
:1014A20019501710DF6E8AEF0AF020EE04F0115087
:1014B200D9261250DA22DECF13F0DDCF14F013C09A
:1014C200D9FF14C0DAFF10EE04F01150E1261250D9
:1014D200E222E6CF15F0E5CF16F015C0E1FF16C007
:1014E200E2FFE750176E10EE06F01150E12612509F
:1014F200E222E750186E010E196E182A83EF0AF0E5
:10150200D8901936182E81EF0AF01950FF0A1714D5
:10151200DF6E1200000E146E12BE94EF0AF092EF0C
:101522000AF0A6EF0AF0121E111E101E0F1E0E1E4A
:101532000D1E0C1E0B6C000E0C220D220E220F2211
:10154200102211221222010E146E0ABEADEF0AF011
:10155200ABEF0AF0BFEF0AF00A1E091E081E071EB3
:10156200061E051E041E036C000E0422052206221E
:101572000722082209220A22010E141A20EE15F06F
:10158200070EDE6AE806FDE20B500C100D100E107D
:101592000F10101011101210D8B4D2EF0AF0D4EFBD
:1015A2000AF026EF0BF0010E136EE2EF0AF0D8906C
:1015B2000B360C360D360E360F3610361136123605
:1015C200132A12AEE7EF0AF0E9EF0AF0D8EF0AF0B9
:1015D200D890153616361736183619361A361B367F
:1015E2001C360B50035C0C5004580D5005580E501D
:1015F20006580F50075810500858115009581250E9
:101602000A58D8A007EF0BF009EF0BF01AEF0BF016
:101612000B50035E0C50045A0D50055A0E50065AD8
:101622000F50075A1050085A1150095A12500A5AAC
:101632001580D8901232113210320F320E320D3222
:101642000C320B32132EE9EF0AF01450D8B42CEFFF
:101652000BF02EEF0BF03EEF0BF01C1E1B1E1A1EA2
:10166200191E181E171E161E156C000E16221722A2
:10167200182219221A221B221C2215C003F016C09E
:1016820004F017C005F018C006F019C007F01AC020
:1016920008F01BC009F01CC00AF01200000E146E04
:1016A2000ABE58EF0BF056EF0BF06AEF0BF00A1E72
:1016B200091E081E071E061E051E041E036C000ED0
:1016C2000422052206220722082209220A22010EEA
:1016D200146E12BE71EF0BF06FEF0BF081EF0BF097
:1016E200121E111E101E0F1E0E1E0D1E0C1E0B6C46
:1016F200000E0C220D220E220F2210221122122283
:101702000B500C100D100E100F10101011101210A3
:10171200D8B48EEF0BF090EF0BF0D8EF0BF0010E78
:10172200136E9EEF0BF0D8900B360C360D360E363C
:101732000F36103611361236132A12AEA3EF0BF003
:10174200A5EF0BF094EF0BF00B50035C0C50045818
:101752000D5005580E5006580F5007581050085893
:101762001150095812500A58D8A0BAEF0BF0BCEF2A
:101772000BF0CCEF0BF00B50035E0C50045A0D50E3
:10178200055A0E50065A0F50075A1050085A115057
:10179200095A12500A5AD8901232113210320F32AC
:1017A2000E320D320C320B32132EA5EF0BF0145009
:1017B200D8B4DEEF0BF0E0EF0BF0F0EF0BF00A1E07
:1017C200091E081E071E061E051E041E036C000EBF
:1017D2000422052206220722082209220A2203C025
:1017E20003F004C004F005C005F006C006F007C00F
:1017F20007F008C008F009C009F00AC00AF0120098
:1018020043C0D9FF44C0DAFFDECFF6FFDDCFF7FFDA
:10181200000EF86E0800F550250AD8A413EF0CF05C
:1018220015EF0CF099EF0CF043C0D9FF44C0DAFF7A
:10183200DE2A000EDD22000E0001B16F000EB06F35
:10184200B0C0B8F0B269B36943C0D9FF44C0DAFF8F
:10185200DECF51F0DDCF52F051C0F6FF52C0F7FF9C
:10186200000EF86E0800F550640AD8B43BEF0CF095
:101872003DEF0CF04DEF0CF051C0F6FF52C0F7FFF8
:10188200000EF86E0800F550690AD8A44BEF0CF070
:101892004DEF0CF090EF0CF045C0D9FF46C0DAFFD7
:1018A200DFCF47F0020EDE26DFCF48F0000EDD224A
:1018B20047C0D9FF48C0DAFFDECF49F0DDCF4AF09A
:1018C200000E4ABEFF0E4B6E4C6E4D6E4E6E4F6E4C
:1018D200506E010E5124476E000E5220486E43C0D6
:1018E200D9FF44C0DAFF47C0DEFF48C0DDFF41C078
:1018F2001EF042C01FF049C020F04AC021F04BC088
:1019020022F04CC023F04DC024F04EC025F04FC051
:1019120026F050C027F063EC08F0AFEF0CF043C0A4
:10192200D9FF44C0DAFFDE2A000EDD22AFEF0CF051
:1019320043C0D9FF44C0DAFFDECFF6FFDDCFF7FFA9
:10194200000EF86E0800F550036E046A41C005F0FF
:1019520042C006F045EC0DF090EF0CF012001AEFC9
:101962000DF026C01CF027C01DF028C01EF029C0B3
:101972001FF01DEC0FF044EF0DF026C01CF027C045
:101982001DF028C01EF029C01FF06FEC0FF044EFCD
:101992000DF026C01CF027C01DF028C01EF029C083
:1019A2001FF0C1EC0FF044EF0DF026C01CF027C071
:1019B2001DF028C01EF029C01FF063EC10F026C0F5
:1019C2001CF027C01DF028C01EF029C01FF01DEC1E
:1019D2000FF044EF0DF026C01CF027C01DF028C008
:1019E2001EF029C01FF063EC10F026C01CF027C0C7
:1019F2001DF028C01EF029C01FF06FEC0FF044EF5D
:101A02000DF026C01CF027C01DF028C01EF029C012
:101A12001FF012EC10F044EF0DF026C01CF027C0AE
:101A22001DF028C01EF029C01FF0B4EC10F044EFE6
:101A32000DF024C02AF025C02BF02B50000AD8B498
:101A420025EF0DF044EF0DF02A50010AD8B4B2EFA1
:101A52000CF0030AD8B4BEEF0CF0010AD8B4CAEFF6
:101A62000CF0070AD8B4D6EF0CF0010AD8B4ECEFA8
:101A72000CF0030AD8B402EF0DF0010AD8B40EEF4D
:101A82000DF044EF0DF0120005500610D8B44CEFE3
:101A92000DF04EEF0DF057EF0DF005500610D8A4E3
:101AA20055EF0DF057EF0DF05CEF0DF003502DECFC
:101AB20014F0A9EF0DF020EE09F00550D9260650DA
:101AC200DA22DE50DE10D8B469EF0DF06BEF0DF0C4
:101AD20086EF0DF020EE09F00550D9260650DA22E5
:101AE20010EE03F00550E1260650E222DE50E65CDD
:101AF200E650800A0B6EDE50800A0B58D8B084EF95
:101B02000DF086EF0DF0A9EF0DF020EE03F0055079
:101B1200D9260650DA22DECF07F0DDCF08F005C065
:101B2200D9FF06C0DAFFDECF09F0DDCF0AF0075099
:101B32000924D96E08500A20DA6E03C0DFFF20EEB6
:101B420003F00550D9260650DA22DE2A000EDD22E5
:101B52001200000E0E6E0CBEB3EF0DF0B1EF0DF0E1
:101B6200B9EF0DF00B6C0C1ED8B00C2A010E0E6EE4
:101B72000ABEC0EF0DF0BEEF0DF0C6EF0DF0096C1E
:101B82000A1ED8B00A2A010E0E1A000E106E000E9E
:101B92000F6E0B500C10D8B4D1EF0DF0D3EF0DF047
:101BA200FBEF0DF0010E0D6EDBEF0DF0D8900B3652
:101BB2000C360D2A0CAEE0EF0DF0E2EF0DF0D7EF90
:101BC2000DF0D8900F3610360B50095C0C500A58A5
:101BD200D8A0EEEF0DF0F0EF0DF0F5EF0DF00B5099
:101BE200095E0C500A5A0F80D8900C320B320D2E1F
:101BF200E2EF0DF00E50D8B401EF0EF003EF0EF04D
:101C020007EF0EF00F6C101ED8B0102A0FC009F0AB
:101C120010C00AF0120020EE02F00350D926045040
:101C2200DA22DECF09F0DDCF0AF020EE04F0035015
:101C3200D9260450DA22DECF0BF0DDCF0CF020EEF5
:101C420006F00350D9260450DA22DECF07F0DDCFAA
:101C520008F00B50095C0C500A58D8A033EF0EF074
:101C620035EF0EF046EF0EF00750095C08500A58A7
:101C7200D8A03EEF0EF040EF0EF046EF0EF0000E51
:101C8200066E010E056E66EF0EF009500B5C0A50EF
:101C92000C58D8A04FEF0EF051EF0EF062EF0EF09D
:101CA20007500B5C08500C58D8A05AEF0EF05CEFAE
:101CB2000EF062EF0EF0000E066E020E056E66EF7B
:101CC2000EF0000E066E030E056E05C003F006C090
:101CD20004F0120020EE02F00350D9260450DA225A
:101CE200DECF09F0DDCF0AF020EE04F00350D92652
:101CF2000450DA22DECF0BF0DDCF0CF020EE06F03E
:101D02000350D9260450DA22DECF07F0DDCF08F0E7
:101D12000B50095C0C500A58D8A092EF0EF094EFC9
:101D22000EF0A5EF0EF00750095C08500A58D8A033
:101D32009DEF0EF09FEF0EF0A5EF0EF0000E066E77
:101D4200010E056EC5EF0EF009500B5C0A500C58DF
:101D5200D8A0AEEF0EF0B0EF0EF0C1EF0EF00750CC
:101D62000B5C08500C58D8A0B9EF0EF0BBEF0EF088
:101D7200C1EF0EF0000E066E020E056EC5EF0EF0FC
:101D8200000E066E030E056E05C003F006C004F0D9
:101D9200120075EC12F00EC0D9FF0FC0DAFF07C0B7
:101DA200DEFF08C0DDFF090E116E1E0E106EE40E7E
:101DB200E82EFED7102EFCD7112EFAD700D04DEC0C
:101DC20012F020EE02F00E50D9260F50DA2207C090
:101DD200DEFF08C0DDFF090E116E1E0E106EE40E4E
:101DE200E82EFED7102EFCD7112EFAD700D09DEC8C
:101DF20012F020EE04F00E50D9260F50DA2207C05E
:101E0200DEFF08C0DDFF090E116E1E0E106EE40E1D
:101E1200E82EFED7102EFCD7112EFAD700D0C5EC33
:101E220012F020EE06F00E50D9260F50DA2207C02B
:101E3200DEFF08C0DDFF120020EE01F01C50D926A3
:101E42001D50DA22010EDF6E20EE01F01E50D9265F
:101E52001F50DA22000EDF6E000E236E000E226E7D
:101E62001CC0D9FF1DC0DAFF22C0DFFF2250320F93
:101E72001EC0D9FF1FC0DAFFDF6E1CC011F01DC0EB
:101E820012F0A1EC09F01EC011F01FC012F0A1EC7B
:101E920009F0350EE82EFED700F0020E2224226E43
:101EA200000E2320236E23BE60EF0FF0235009E1C2
:101EB200320E225CD8A060EF0FF062EF0FF031EF2C
:101EC2000FF00E0E216E650E206E870EE82EFED7E5
:101ED200202EFCD7212EFAD700F0120020EE01F0BE
:101EE2001C50D9261D50DA22000EDF6E20EE01F0C2
:101EF2001E50D9261F50DA22010EDF6E000E236E0D
:101F0200000E226E2250320F1CC0D9FF1DC0DAFF14
:101F1200DF6E1EC0D9FF1FC0DAFF22C0DFFF1CC068
:101F220011F01DC012F0A1EC09F01EC011F01FC08B
:101F320012F0A1EC09F0350EE82EFED700F0020EE9
:101F42002224226E000E2320236E23BEB2EF0FF056
:101F5200235009E1320E225CD8A0B2EF0FF0B4EFA9
:101F62000FF083EF0FF00E0E216E650E206E870EBE
:101F7200E82EFED7202EFCD7212EFAD700F0120031
:101F820020EE01F01C50D9261D50DA22010EDF6E20
:101F920020EE01F01E50D9261F50DA22000EDF6E0D
:101FA200000E236E000E226E1CC0D9FF1DC0DAFF88
:101FB20022C0DFFF2250320F1EC0D9FF1FC0DAFF3E
:101FC200DF6E1CC011F01DC012F0A1EC09F01EC0A2
:101FD20011F01FC012F0A1EC09F0350EE82EFED769
:101FE20000F0020E2224226E000E2320236E23BE56
:101FF20004EF10F0235009E1320E225CD8A004EF66
:1020020010F006EF10F0D5EF0FF0180E216E8A0EC9
:10201200206EE80EE82EFED7202EFCD7212EFAD70E
:10202200120020EE01F01C50D9261D50DA22010EBA
:10203200DF6E20EE01F01E50D9261F50DA22000E6C
:10204200DF6E000E236E000E226E1CC0D9FF1DC073
:10205200DAFF22C0DFFF2250320F1EC0D9FF1FC09D
:10206200DAFFDF6E1CC011F01DC012F0A1EC09F006
:102072001EC011F01FC012F0A1EC09F0350EE82EBF
:10208200FED700F0020E2224226E000E2320236EC1
:1020920023BE55EF10F0235009E1320E225CD8A086
:1020A20055EF10F057EF10F026EF10F0130E216EDF
:1020B200AC0E206E2A0EE82EFED7202EFCD7212E43
:1020C200FAD7120020EE01F01C50D9261D50DA2258
:1020D200000EDF6E20EE01F01E50D9261F50DA22CC
:1020E200000EDF6E000E236E000E226E1CC0D9FFA2
:1020F2001DC0DAFF22C0DFFF1EC0D9FF1FC0DAFFFA
:1021020022C0DFFF1CC011F01DC012F0A1EC09F0CB
:102112001EC011F01FC012F0A1EC09F0350EE82E1E
:10212200FED700F0020E2224226E000E2320236E20
:1021320023BEA5EF10F0235009E1330E225CD8A094
:10214200A5EF10F0A7EF10F077EF10F05A0E216E06
:10215200490E206EE70EE82EFED7202EFCD7212E48
:10216200FAD700F0120020EE01F01C50D9261D50C3
:10217200DA22000EDF6E20EE01F01E50D9261F502B
:10218200DA22010EDF6E000E236E000E226E225046
:10219200320F1CC0D9FF1DC0DAFFDF6E1EC0D9FF8F
:1021A2001FC0DAFF22C0DFFF1CC011F01DC012F0F9
:1021B200A1EC09F01EC011F01FC012F0A1EC09F051
:1021C200350EE82EFED700F0020E2224226E000EFB
:1021D2002320236E23BEF7EF10F0235009E1320EC5
:1021E200225CD8A0F7EF10F0F9EF10F0C8EF10F072
:1021F200130E216EAC0E206E2A0EE82EFED7202E74
:10220200FCD7212EFAD7120020EE01F01C50D9265D
:102212001D50DA22000EDF6E20EE01F01E50D9268C
:102222001F50DA22000EDF6E000E226E050E216EA6
:102232001CC0D9FF1DC0DAFF21C0DFFF1EC0D9FFBD
:102242001FC0DAFF21C0DFFF1CC011F01DC012F059
:10225200A1EC09F01EC011F01FC012F0A1EC09F0B0
:10226200D00E206ECA0EE82EFED7202EFCD7FF0E0F
:102272002124216EFF0E2220226E22BE4BEF11F08E
:10228200225006E12104D8B049EF11F04BEF11F0D2
:1022920019EF11F0120020EE01F01C50D9261D504A
:1022A200DA22010EDF6E20EE01F01E50D9261F50F9
:1022B200DA22010EDF6E000E216E000E206E1CC0AF
:1022C200D9FF1DC0DAFF20C0DFFF1EC0D9FF1FC02B
:1022D200DAFF20C0DFFF1CC011F01DC012F0A1EC1C
:1022E20009F01EC011F01FC012F0A1EC09F06A0E35
:1022F200E82EFED700D0020E2024206E000E2120F0
:10230200216E21BE8EEF11F0215009E11F0E205CDB
:10231200D8A08EEF11F090EF11F060EF11F01200E3
:1023220018BE96EF11F098EF11F09EEF11F017C062
:102332001CF018C01DF0A2EF11F0000E1D6E000E71
:102342001C6E000E1B6E000E1A6EB4EF11F0000E22
:10235200046E200E036E13C005F014C006F045ECA7
:102362000DF01A4A1B2A1C501A5C1B50800A196E67
:102372001D50800A1958D8A0C1EF11F0C3EF11F017
:10238200A8EF11F015C00CF016C00DF013C00EF03E
:1023920014C00FF0EDEC12F0120089EC13F0010EF4
:1023A200056E000EC5EC13F03F0E076E550EE82EBB
:1023B200FED7072EFCD700F0030E056E000EC5EC0B
:1023C20013F0D50E056E010EC5EC13F088928496BB
:1023D20084988890869080827C867C8880807E80AB
:1023E2007C9E8096849E889686840E01B49586860D
:1023F200B4971200DF0E0001E76F000EE86FDBC03A
:10240200E9F0DCC0EAF0000EED6F000EEC6F000E9A
:10241200F36F000EF26FE90E536E000E546EDDC0C4
:1024220055F0DEC056F0E70E576E000E586E24ECE3
:1024320012F00001EC51DB25D96EED51DC21DA6E90
:10244200000EDF6E120055C059F056C05AF038EF38
:1024520012F053C041F054C042F0590E436E000EC8
:10246200446E57C045F058C046F001EC0CF059C01C
:10247200F6FF5AC0F7FF000EF86E0800F55000098B
:10248200D8A446EF12F048EF12F02AEF12F0000E35
:10249200546E000E536E120023EC14F0520E0DEC2B
:1024A20014F0B60E0DEC14F019EC14F0530E0DEC02
:1024B20014F0010E30EC13F0096E09500C6E0D6A27
:1024C200000E30EC13F0096E09500B6E0A6A0C50C4
:1024D2000A100C6E0D500B100D6E1EEC14F00CC099
:1024E20007F00DC008F0120023EC14F0520E0DECB0
:1024F20014F0B40E0DEC14F019EC14F0530E0DECB4
:1025020014F0010E30EC13F0096E09500C6E0D6AD6
:10251200000E30EC13F0096E09500B6E0A6A0C5073
:102522000A100C6E0D500B100D6E1EEC14F00CC048
:1025320007F00DC008F0120023EC14F0520E0DEC5F
:1025420014F0B80E0DEC14F019EC14F0530E0DEC5F
:1025520014F0010E30EC13F0096E09500C6E0D6A86
:10256200000E30EC13F0096E09500B6E0A6A0C5023
:102572000A100C6E0D500B100D6E1EEC14F00CC0F8
:1025820007F00DC008F0120023EC14F0520E0DEC0F
:1025920014F0BA0E0DEC14F019EC14F0530E0DEC0D
:1025A20014F0010E30EC13F0096E09500C6E0D6A36
:1025B200000E30EC13F0096E09500B6E0A6A0C50D3
:1025C2000A100C6E0D500B100D6E1EEC14F00CC0A8
:1025D20007F00DC008F01200000E126E000E116E10
:1025E200FEEF12F010C003F0046A0EC005F00FC037
:1025F20006F045EC0DF0114A122A11500C24D96E46
:1026020012500D20DA6EDF50106E1050D8A40CEF6D
:1026120013F00EEF13F0F3EF12F012008594859889
:10262200839E879C7D947D987B9E7F9CBD508F0B63
:102632003009BD6EE00EBE16BF50F00B0109BF6E31
:1026420003C0BCFFBD8E0A0E0E01746F0B0E696FC4
:10265200000EA36E000EA06EA48EA18E1200056E57
:102662009EEC13F00E01DA879EEC13F0D5CE06F045
:102672009EEC13F00550D8B441EF13F045EF13F080
:10268200046A042A46EF13F0046A043A04460E016F
:10269200DA510418DF0B0418DA6FDA8906501200D7
:1026A20016BE5EEF13F0165006E11504D8B05CEFCB
:1026B20013F05EEF13F06CEF13F015C017F016C0B5
:1026C20018F0171E181E174A182A17C015F018C03E
:1026D20016F070EF13F015C015F016C016F01200C8
:1026E2007CEF13F004C0D9FF05C0DAFFDF5001EC24
:1026F20014F0044A052A04C0D9FF05C0DAFFDF50EE
:10270200D8A486EF13F088EF13F073EF13F01200E2
:102712000E01D951F00B0809D96FD98B9F0ED66FD4
:10272200848A848CA79BA79D1D0E1D6F1E0E1C6F95
:102732001C0E6F6F1B0E706F12000E01D8B5A4EF46
:1027420013F0A6EF13F09EEF13F0DACE03F01F0E94
:102752000316D8A4AFEF13F0B1EF13F09EEF13F00E
:10276200120003500502F3CF07F0F4CF08F0035034
:102772000602F350082604500502F350082607C04B
:1027820003F008C004F01200066E23EC14F0520E9F
:102792000DEC14F0065080090DEC14F005500DEC10
:1027A20014F01EEC14F01200D6501F0B4009D66E26
:1027B200D688D650F00B0709D66ED588F60ED46EA1
:1027C2003B0ED36ED58E1200120E0E01626F110EE9
:1027D200156FE997E895670EE56F000EE66FE789DA
:1027E200E88BE78F120000EE60F07B0EEE6AE806DF
:1027F200FDE15C6A5B6A5D905D92000109EF07F0A2
:10280200036E0E0137A508EF14F00AEF14F002EF81
:1028120014F003C0E4FE1200046E9EEC13F004C038
:10282200D5FE12000E01298BF28CF29AF28E120062
:102832009EEC13F00E01DA8312009EEC13F00E01EF
:10284200DA8512009EEC13F00E01DA8112000250BA
:0A285200D46E01C0D3FF1200120083
:020000040020DA
:10000000FF0FFF0FFF0FFF0FFF0FFF0FFF0FFF0F80
:020000040030CA
:0C000000AAFFFFFF9FFFFFFFFFFFFFFFB5
:00000001FF
