:040000002AEF00F0F3
:100008005D820E0133AB0BEF00F00DEF00F026EF31
:1000180000F07DA412EF00F014EF00F01EEF00F0E6
:100028000001C91D016ECA1D026E05EC0FF07D941A
:1000380026EF00F00001CB1D016ECC1D026E05EC11
:100048000FF07D840E01339B5D9211006FEF0EF06F
:100E0000002564202564202564202564200D0A0027
:010E100000E1
:100E120020C036F021C037F022C038F023C039F0AC
:100E220024C03AF025C03BF026C03CF027C03DF07C
:100E32003DBE1EEF07F021EF07F0010E22EF07F093
:100E4200000E406E4050D8B429EF07F02BEF07F0A8
:100E52003BEF07F03D1E3C1E3B1E3A1E391E381E5C
:100E6200371E366C000E3722382239223A223B22B4
:100E72003C223D220001C8BF49EF07F0C85106E1FC
:100E8200C705D8B047EF07F049EF07F04FEF07F07B
:100E9200000E336E010E326E53EF07F0C7C032F010
:100EA200C8C033F0C5C034F0C6C035F04050D8B425
:100EB2005DEF07F05FEF07F076EF07F03406D8A09A
:100EC20035064050D8A468EF07F06AEF07F070EFDC
:100ED20007F0000E316E2B0E306E74EF07F0000E2D
:100EE200316E2D0E306E30C040F0000E3F6E1F0E80
:100EF2003E6E000EEF6FFAEF07F03E06D8A03F06F7
:100F0200D00E3E24D96E000E3F20DA6E36C003F0BA
:100F120037C004F038C005F039C006F03AC007F017
:100F22003BC008F03CC009F03DC00AF00A0E0B6E4F
:100F3200000E0C6E000E0D6E000E0E6E000E0F6E89
:100F4200000E106E000E116E000E126E07EC0AF00B
:100F520003C028F004C029F005C02AF006C02BF017
:100F620007C02CF008C02DF009C02EF00AC02FF0E7
:100F720028C015F029C016F037EC0EF01550300FCE
:100F8200DF6E3206D8A033063406D8A0350636C046
:100F920003F037C004F038C005F039C006F03AC09B
:100FA20007F03BC008F03CC009F03DC00AF00A0E51
:100FB2000B6E000E0C6E000E0D6E000E0E6E000E0D
:100FC2000F6E000E106E000E116E000E126E43ECCC
:100FD20009F003C036F004C037F005C038F006C08F
:100FE20039F007C03AF008C03BF009C03CF00AC033
:100FF2003DF03FBE05EF08F03F5008E13E04D8A0A7
:1010020005EF08F007EF08F023EF08F0365037102D
:10101200381039103A103B103C103D10D8A414EF90
:1010220008F016EF08F07EEF07F033BE23EF08F06A
:10103200335006E13204D8B021EF08F023EF08F074
:101042007EEF07F04050D8B429EF08F02BEF08F0FC
:1010520036EF08F03E06D8A03F06D00E3E24D96EE9
:10106200000E3F20DA6E40C0DFFF1EC013F01FC02B
:1010720014F0D00E3E24156E000E3F20166E34C0C2
:1010820017F035C018F077EC0CF01200B4EC0CF04D
:10109200000E046E140E036ED1EC0DF0F0EC0EF0A7
:1010A200BFEC0EF086EC0EF0CFEC0EF0000E00015D
:1010B200B26F000EB16FBD0E0E6E000E0F6E24ECFD
:1010C2000CF07B0E0001606F000E616F010E626F0B
:1010D2000E0E636FBDC064F0BEC065F0BFC066F0A7
:1010E200C0C067F0C1C068F0C2C069F0C3C06AF096
:1010F200C4C06BF0E1EC0CF07B0E046E000E056ECA
:1011020057EC0EF0010E8EA6000E8EA4000EE8B073
:101112008DEF08F092EF08F00001796B792B94EFD4
:1011220008F00001796B7951D8A49AEF08F09CEF8E
:1011320008F083EF08F08EB4A1EF08F0A3EF08F0F7
:10114200B7EF08F07CAEA8EF08F0ACEF08F0796BCF
:10115200792BAEEF08F00001796B793379337C504B
:1011620079197F0B79197C6E21EF09F08EB6BCEFED
:1011720008F0BEEF08F021EF09F080A6C3EF08F0F7
:10118200C7EF08F0796B792BC9EF08F00001796B92
:1011920079477947794780507919F70B7919806E29
:1011A20021EF09F07CAED8EF08F0DAEF08F008EF93
:1011B20009F0AD51AE11D8B4E1EF08F0E3EF08F059
:1011C20015EF09F0B50E0E6E000E0F6E24EC0CF04A
:1011D200B50E036E000E046EC5EC0BF003C0AFF04B
:1011E20004C0B0F0080E0001AF19B011D8B4FCEF82
:1011F20008F0FEEF08F015EF09F0000EAE6F000EDA
:10120200AD6F000EB26F010EB16F15EF09F080A63F
:101212000DEF09F00FEF09F015EF09F0B50E0E6EA4
:10122200000E0F6E24EC0CF0110E00017A6F3C0ED2
:10123200796FCB0EE82EFED7792FFCD77A2FFAD70B
:101242000001B151B211D8B429EF09F02BEF09F026
:10125200D3EF08F0000EB46F000EB36FB34BB42B94
:10126200B4BF3DEF09F0B45109E10F0EB35DD8A050
:101272003DEF09F03FEF09F02FEF09F083EF08F09F
:101282002AEF00F0000E146E12BE4CEF09F04AEF86
:1012920009F05EEF09F0121E111E101E0F1E0E1E27
:1012A2000D1E0C1E0B6C000E0C220D220E220F22A4
:1012B200102211221222010E146E0ABE65EF09F0ED
:1012C20063EF09F077EF09F00A1E091E081E071ED8
:1012D200061E051E041E036C000E042205220622B1
:1012E2000722082209220A22010E141A20EE15F002
:1012F200070EDE6AE806FDE20B500C100D100E1010
:101302000F10101011101210D8B48AEF09F08CEFE0
:1013120009F0DEEF09F0010E136E9AEF09F0D89092
:101322000B360C360D360E360F3610361136123697
:10133200132A12AE9FEF09F0A1EF09F090EF09F026
:10134200D890153616361736183619361A361B3611
:101352001C360B50035C0C5004580D5005580E50AF
:1013620006580F500758105008581150095812507B
:101372000A58D8A0BFEF09F0C1EF09F0D2EF09F087
:101382000B50035E0C50045A0D50055A0E50065A6B
:101392000F50075A1050085A1150095A12500A5A3F
:1013A2001580D8901232113210320F320E320D32B5
:1013B2000C320B32132EA1EF09F01450D8B4E4EF23
:1013C20009F0E6EF09F0F6EF09F01C1E1B1E1A1ECB
:1013D200191E181E171E161E156C000E1622172235
:1013E200182219221A221B221C2215C003F016C031
:1013F20004F017C005F018C006F019C007F01AC0B3
:1014020008F01BC009F01CC00AF01200000E146E96
:101412000ABE10EF0AF00EEF0AF022EF0AF00A1EDF
:10142200091E081E071E061E051E041E036C000E62
:101432000422052206220722082209220A22010E7C
:10144200146E12BE29EF0AF027EF0AF039EF0AF004
:10145200121E111E101E0F1E0E1E0D1E0C1E0B6CD8
:10146200000E0C220D220E220F2210221122122215
:101472000B500C100D100E100F1010101110121036
:10148200D8B446EF0AF048EF0AF090EF0AF0010EE6
:10149200136E56EF0AF0D8900B360C360D360E3618
:1014A2000F36103611361236132A12AE5BEF0AF0DF
:1014B2005DEF0AF04CEF0AF00B50035C0C5004583D
:1014C2000D5005580E5006580F5007581050085826
:1014D2001150095812500A58D8A072EF0AF074EF4E
:1014E2000AF084EF0AF00B50035E0C50045A0D50C0
:1014F200055A0E50065A0F50075A1050085A1150EA
:10150200095A12500A5AD8901232113210320F323E
:101512000E320D320C320B32132E5DEF0AF01450E4
:10152200D8B496EF0AF098EF0AF0A8EF0AF00A1E74
:10153200091E081E071E061E051E041E036C000E51
:101542000422052206220722082209220A2203C0B7
:1015520003F004C004F005C005F006C006F007C0A1
:1015620007F008C008F009C009F00AC00AF012002A
:1015720043C0D9FF44C0DAFFDECFF6FFDDCFF7FF6D
:101582000800F550250AD8A4C9EF0AF0CBEF0AF0FB
:101592004BEF0BF043C0D9FF44C0DAFFDE2A000E46
:1015A200DD22000E0001C66F000EC56FC5C0CDF072
:1015B200C769C86943C0D9FF44C0DAFFDECF51F022
:1015C200DDCF52F051C0F6FF52C0F7FF0800F550D0
:1015D200640AD8B4EFEF0AF0F1EF0AF0FFEF0AF075
:1015E20051C0F6FF52C0F7FF0800F550690AD8A4AF
:1015F200FDEF0AF0FFEF0AF042EF0BF045C0D9FF12
:1016020046C0DAFFDFCF47F0020EDE26DFCF48F01A
:10161200000EDD2247C0D9FF48C0DAFFDECF49F015
:10162200DDCF4AF0000E4ABEFF0E4B6E4C6E4D6E81
:101632004E6E4F6E506E010E5124476E000E5220B8
:10164200486E43C0D9FF44C0DAFF47C0DEFF48C03E
:10165200DDFF41C01EF042C01FF049C020F04AC069
:1016620021F04BC022F04CC023F04DC024F04EC0FC
:1016720025F04FC026F050C027F009EC07F05FEFCD
:101682000BF043C0D9FF44C0DAFFDE2A000EDD2290
:101692005FEF0BF043C0D9FF44C0DAFFDECFF6FFA5
:1016A200DDCFF7FF0800F550036E046A41C005F074
:1016B20042C006F060EC0BF042EF0BF01200055056
:1016C2000610D8B467EF0BF069EF0BF072EF0BF076
:1016D20005500610D8A470EF0BF072EF0BF077EF05
:1016E2000BF003500AEC0FF0C4EF0BF020EE09F000
:1016F2000550D9260650DA22DE50DE10D8B484EF27
:101702000BF086EF0BF0A1EF0BF020EE09F0055085
:10171200D9260650DA2210EE03F00550E1260650D3
:10172200E222DE50E65CE650800A0B6EDE50800A52
:101732000B58D8B09FEF0BF0A1EF0BF0C4EF0BF0FA
:1017420020EE03F00550D9260650DA22DECF07F04C
:10175200DDCF08F005C0D9FF06C0DAFFDECF09F001
:10176200DDCF0AF007500924D96E08500A20DA6E3C
:1017720003C0DFFF20EE03F00550D9260650DA221F
:10178200DE2A000EDD22120020EE02F00350D926DE
:101792000450DA22DECF09F0DDCF0AF020EE04F0A9
:1017A2000350D9260450DA22DECF0BF0DDCF0CF045
:1017B20020EE06F00350D9260450DA22DECF07F0DD
:1017C200DDCF08F00B50095C0C500A58D8A0ECEFA2
:1017D2000BF0EEEF0BF0FFEF0BF00750095C085037
:1017E2000A58D8A0F7EF0BF0F9EF0BF0FFEF0BF070
:1017F200000E066E010E056E1FEF0CF009500B5C19
:101802000A500C58D8A008EF0CF00AEF0CF01BEFAE
:101812000CF007500B5C08500C58D8A013EF0CF0DA
:1018220015EF0CF01BEF0CF0000E066E020E056EAB
:101832001FEF0CF0000E066E030E056E05C003F0DE
:1018420006C004F0120032EC0DF00EC0D9FF0FC03A
:10185200DAFF07C0DEFF08C0DDFF090E116E1E0EA3
:10186200106EE40EE82EFED7102EFCD7112EFAD7FA
:1018720000D00AEC0DF020EE02F00E50D9260F50E7
:10188200DA2207C0DEFF08C0DDFF090E116E1E0E50
:10189200106EE40EE82EFED7102EFCD7112EFAD7CA
:1018A20000D05AEC0DF020EE04F00E50D9260F5065
:1018B200DA2207C0DEFF08C0DDFF090E116E1E0E20
:1018C200106EE40EE82EFED7102EFCD7112EFAD79A
:1018D20000D082EC0DF020EE06F00E50D9260F500B
:1018E200DA2207C0DEFF08C0DDFF120018BE7CEF5F
:1018F2000CF07EEF0CF084EF0CF017C01CF018C057
:101902001DF088EF0CF0000E1D6E000E1C6E000E16
:101912001B6E000E1A6E9AEF0CF0000E046E200E73
:10192200036E13C005F014C006F060EC0BF01A4A07
:101932001B2A1C501A5C1B50800A196E1D50800A0B
:101942001958D8A0A7EF0CF0A9EF0CF08EEF0CF00D
:1019520015C00CF016C00DF013C00EF014C00FF03D
:10196200F4EC0DF0120086EC0EF0010E056E000E86
:10197200AFEC0EF03F0E076E550EE82EFED7072E87
:10198200FCD700F0030E056E000EAFEC0EF0D50E84
:10199200056E010EAFEC0EF08892849684988890C2
:1019A200869080827C867C8880807E807C9E8096E9
:1019B200849E889686840E01B4958686B49712001A
:1019C200640E00016C6F000E6D6F60C06EF061C03E
:1019D2006FF0000E726F000E716F000E786F000EC6
:1019E200776F6E0E536E000E546E62C055F063C078
:1019F20056F06C0E576E000E586EAAEC0DF00001F8
:101A020071516025D96E72516121DA6E000EDF6E5E
:101A1200120000EC0FF0520EEAEC0EF0B60EEAECF9
:101A22000EF0F6EC0EF0530EEAEC0EF0010E16EC90
:101A32000EF0096E09500C6E0D6A000E16EC0EF0D7
:101A4200096E09500B6E0A6A0C500A100C6E0D508A
:101A52000B100D6EFBEC0EF00CC007F00DC008F081
:101A6200120000EC0FF0520EEAEC0EF0B40EEAECAB
:101A72000EF0F6EC0EF0530EEAEC0EF0010E16EC40
:101A82000EF0096E09500C6E0D6A000E16EC0EF087
:101A9200096E09500B6E0A6A0C500A100C6E0D503A
:101AA2000B100D6EFBEC0EF00CC007F00DC008F031
:101AB200120000EC0FF0520EEAEC0EF0B80EEAEC57
:101AC2000EF0F6EC0EF0530EEAEC0EF0010E16ECF0
:101AD2000EF0096E09500C6E0D6A000E16EC0EF037
:101AE200096E09500B6E0A6A0C500A100C6E0D50EA
:101AF2000B100D6EFBEC0EF00CC007F00DC008F0E1
:101B0200120000EC0FF0520EEAEC0EF0BA0EEAEC04
:101B12000EF0F6EC0EF0530EEAEC0EF0010E16EC9F
:101B22000EF0096E09500C6E0D6A000E16EC0EF0E6
:101B3200096E09500B6E0A6A0C500A100C6E0D5099
:101B42000B100D6EFBEC0EF00CC007F00DC008F090
:101B5200120055C059F056C05AF0BEEF0DF053C0F6
:101B620041F054C042F0590E436E000E446E57C00D
:101B720045F058C046F0B9EC0AF059C0F6FF5AC019
:101B8200F7FF0800F5500009D8A4CAEF0DF0CCEF1A
:101B92000DF0B0EF0DF0000E546E000E536E1200F9
:101BA20085948598839E879C7D947D987B9E7F9C5F
:101BB200BD508F0B3009BD6EE00EBE16BF50F00B4C
:101BC2000109BF6E0350800DF304BC6EBD8E0A0E78
:101BD2000E01746F0B0E696F000EA36E000EA06EE5
:101BE200A48EA18E1200000E126E000E116E05EF71
:101BF2000EF010C003F0046A0EC005F00FC006F02C
:101C020060EC0BF0114A122A11500C24D96E1250BA
:101C12000D20DA6EDF50106E1050D8A413EF0EF0C4
:101C220015EF0EF0FAEF0DF01200056E9BEC0EF0C0
:101C32000E01DA879BEC0EF0D5CE06F09BEC0EF08F
:101C42000550D8B427EF0EF02BEF0EF0046A042AE9
:101C52002CEF0EF0046A043A04460E01DA5104181D
:101C6200DF0B0418DA6FDA890650120016BE44EF51
:101C72000EF0165006E11504D8B042EF0EF044EF14
:101C82000EF052EF0EF015C017F016C018F0171E26
:101C9200181E174A182A17C015F018C016F056EF6A
:101CA2000EF015C015F016C016F0120062EF0EF01D
:101CB20004C0D9FF05C0DAFFDF50DEEC0EF0044AA3
:101CC200052A04C0D9FF05C0DAFFDF50D8A46CEFA3
:101CD2000EF06EEF0EF059EF0EF0120001EE00F072
:101CE200500EEE6AE806FDE100EEC5F02B0EEE6A3C
:101CF200E806FDE15C6A5B6A5D905D92000EF86E3B
:101D02000E0EF76E000147EF08F00E01D951F00BED
:101D12000809D96FD98B9F0ED66F848A848CA79BB2
:101D2200A79D1D0E1D6F1E0E1C6F1C0E6F6F1B0ECE
:101D3200706F12000E01D8B5A1EF0EF0A3EF0EF0F6
:101D42009BEF0EF0DACE03F01F0E0316D8A4ACEF11
:101D52000EF0AEEF0EF09BEF0EF01200066E00ECEE
:101D62000FF0520EEAEC0EF006508009EAEC0EF08B
:101D72000550EAEC0EF0FBEC0EF01200D6501F0BF1
:101D82004009D66ED688D650F00B0709D66ED58894
:101D9200F60ED46E3B0ED36ED58E1200120E0E01CD
:101DA200626F110E156FE997E895670EE56F000EE9
:101DB200E66FE789E88BE78F1200036E0E0137A505
:101DC200E5EF0EF0E7EF0EF0DFEF0EF003C0E4FEFA
:101DD2001200046E9BEC0EF004C0D5FE12000E0140
:101DE200298BF28CF29AF28E12009BEC0EF00E010D
:101DF200DA8312009BEC0EF00E01DA8512009BECE6
:101E02000EF00E01DA8112000250D46E01C0D3FF2F
:041E120012001200A8
:020000040020DA
:10000000FF0FFF0FFF0FFF0FFF0FFF0FFF0FFF0F80
:020000040030CA
:0C000000AAFFFFFF9FFFFFFFFFFFFFFFB5
:00000001FF
