:040000001FEF00F0FE
:100008005F820E0133BB0BEF00F00DEF00F014EF31
:1000180000F08EB412EF00F014EF00F01DEF00F0C6
:100028000201544B552BDB0ED36E0B0ED46E0E0112
:0A003800339B5F921100E9EF15F011
:100E00000025642025642025642025642025642095
:100E10000D0A0000F2EC13F0000E026E140E016ECB
:100E200033EC15F036EC16F00BEC16F0ADEC15F0DB
:100E30001BEC16F0000E0201C26F000EC36FA30E72
:100E4000C46F0F0EC56F7D0EC66F0F0EC76F040EF9
:100E5000C86F000ECA6FC80EC96F000ECB6F000EB0
:100E6000CC6FA00ECD6F0F0ECE6F7F0ECF6F0F0E1B
:100E7000D06F060ED16F000ED36FC80ED26FC20EA8
:100E80000F6E020E106E24EC0CF0CB0E0F6E020EE5
:100E9000106E24EC0CF0E80E0C6E010E0D6EEEECF4
:100EA00010F07B0E0001606F000E616F040E626F28
:100EB0000E0E636FBAC264F0BBC265F0BCC266F0CE
:100EC000BDC267F0BEC268F0BFC269F0C0C26AF0BE
:100ED000C1C26BF01FEC14F07B0E026E000E036EAD
:100EE00095EC15F0290E5A6E960E596E7F0EE82E6F
:100EF000FED7592EFCD75A2EFAD700F0000E5C6EA2
:100F0000010E5B6E8EB687EF07F089EF07F082EF78
:100F100007F0000E0101F56F000EF46FBA0E0C6EB3
:100F2000020E0D6EEEEC10F0F4C159F0F5C15AF05E
:100F3000D89059365A36D89059365A36D8905936AC
:100F40005A367A0E5924D96E020E5A20DA6EBAC277
:100F5000DEFFBBC2DDFFF4C159F0F5C15AF0D890F5
:100F600059365A36D89059365A36D89059365A3654
:100F7000020E5926000E5A227A0E5924D96E020EFC
:100F80005A20DA6EBCC2DEFFBDC2DDFFF4C159F0EB
:100F9000F5C15AF0D89059365A36D89059365A3643
:100FA000D89059365A36040E5926000E5A227A0E17
:100FB0005924D96E020E5A20DA6EBEC2DEFFBFC2BD
:100FC000DDFFF4C159F0F5C15AF0D89059365A36C0
:100FD000D89059365A36D89059365A36060E592670
:100FE000000E5A227A0E5924D96E020E5A20DA6E59
:100FF000C0C2DEFFC1C2DDFF8086000E0001606F4F
:10100000010E616F040E626F0E0E636FBAC264F060
:10101000BBC265F0BCC266F0BDC267F0BEC268F07C
:10102000BFC269F0C0C26AF0C1C26BF01FEC14F01D
:10103000000E026E010E036E95EC15F0A30E5A6EB3
:10104000570E596E020EE82EFED7592EFCD75A2E97
:10105000FAD700D08096A30E5A6E570E596E020E24
:10106000E82EFED7592EFCD75A2EFAD700D0010110
:10107000F44BF52BF5BF46EF08F0F55109E1080EEA
:10108000F45DD8A046EF08F048EF08F08EEF07F0C7
:10109000010E8EA6000E8EA4000EE8B052EF08F0EE
:1010A00056EF08F0596A592A57EF08F0596A595013
:1010B000D8A45DEF08F05FEF08F048EF08F08EB4B9
:1010C00064EF08F066EF08F069EF08F07C8E21EF1E
:1010D00009F0808621EF09F0000E0201556F000E25
:1010E000546FC20E1A6E020E1B6ECB0E1C6E020ED9
:1010F0001D6E70EC13F0F60E0C6E010E0D6EEEEC24
:1011000010F05B505C10D8B488EF08F08AEF08F05C
:1011100015EF09F0C20E1A6E020E1B6ECB0E1C6E7E
:10112000020E1D6E29EC13F0F60E0C6E010E0D6E04
:10113000EEEC10F07CAE9FEF08F0A1EF08F0ADEF01
:1011400008F0F60E016E010E026E8FEC10F001C079
:10115000F0F102C0F1F1BBEF08F0F60E016E010EE6
:10116000026E7A0E036E020E046EE9EC0AF001C004
:10117000F0F102C0F1F1D8900101E635D96EE73502
:10118000DA6EDF0ED926000EDA22F0C1DEFFF1C1E1
:10119000DDFFD890E635D96EE735DA6EC80ED92670
:1011A000010EDA2254C2DEFF55C2DDFF640E0001DB
:1011B000606F010E616F010E626F0E0E636FF0C102
:1011C00064F0F1C165F0F6C166F0F7C167F0F8C1EF
:1011D00068F0F9C169F0FAC16AF0FBC16BF0FCC1BB
:1011E0006CF0FDC16DF01FEC14F0640E026E010E88
:1011F000036E95EC15F0F0C122F0F1C123F0C20EA0
:10120000246E020E256ECB0E266E020E276E33EC78
:101210000FF00101E64BE72B000E0201556F000EA7
:10122000546F000E5C6E000E5B6E110E5A6E3C0E1B
:10123000596ECB0EE82EFED7592EFCD75A2EFAD770
:1012400000F0080E0101F019F111D8A42AEF09F0FD
:101250002CEF09F06CEF08F0C20E1A6E020E1B6E36
:10126000CB0E1C6E020E1D6EE5EC11F0000E01019E
:10127000F36F000EF26FF3BF47EF09F0F35109E18E
:101280000F0EF25DD8A047EF09F049EF09F04BEFE0
:1012900009F04BEF07F0F29E000E0001FE6F000E0A
:1012A000FD6FD8900101F235D96EF335DA6EDF0E9D
:1012B000D926000EDA22DECF22F0DDCF23F0C20ED7
:1012C000246E020E256ECB0E266E020E276E33ECB8
:1012D0000FF0C20E1A6E020E1B6ECB0E1C6E020EAB
:1012E0001D6E70EC13F084EF09F0050E5A6E0F0EB0
:1012F000596EF10EE82EFED7592EFCD75A2EFAD78A
:1013000000F00001FD4BFE2BD8900101F235D96EA3
:10131000F335DA6EC80ED926010EDA22DE5000014E
:10132000FD5DDE50FE59D8A098EF09F09AEF09F064
:1013300075EF09F0C20E1A6E020E1B6ECB0E1C6EFC
:10134000020E1D6E29EC13F00101F24BF32B3BEF63
:1013500009F01FEF00F01EC034F01FC035F020C0B0
:1013600036F021C037F022C038F023C039F024C055
:101370003AF025C03BF03BBEC0EF09F0C3EF09F0E7
:10138000010EC4EF09F0000E3E6E3E50D8B4CBEF14
:1013900009F0CDEF09F0DDEF09F03B1E3A1E391ED2
:1013A000381E371E361E351E346C000E352236228E
:1013B0003722382239223A223B22020153BFEBEF77
:1013C00009F0535106E15205D8B0E9EF09F0EBEF0F
:1013D00009F0F1EF09F0000E316E010E306EF5EFFD
:1013E00009F052C230F053C231F050C232F051C253
:1013F00033F03E50D8B4FFEF09F001EF0AF018EFD8
:101400000AF03206D8A033063E50D8A40AEF0AF0FC
:101410000CEF0AF012EF0AF0000E2F6E2B0E2E6E5C
:1014200016EF0AF0000E2F6E2D0E2E6E2EC03EF01F
:10143000000E3D6E1F0E3C6E000E796F9CEF0AF0A1
:101440003C06D8A03D065A0E3C24D96E020E3D2023
:10145000DA6E34C001F035C002F036C003F037C098
:1014600004F038C005F039C006F03AC007F03BC0C0
:1014700008F00A0E096E000E0A6E000E0B6E000ECA
:101480000C6E000E0D6E000E0E6E000E0F6E000E36
:10149000106ED2EC0DF001C026F002C027F003C0A0
:1014A00028F004C029F005C02AF006C02BF007C0C0
:1014B0002CF008C02DF026C013F027C014F075ECF6
:1014C00015F01350300FDF6E3006D8A0310632060B
:1014D000D8A0330634C001F035C002F036C003F0A6
:1014E00037C004F038C005F039C006F03AC007F044
:1014F0003BC008F00A0E096E000E0A6E000E0B6E5D
:10150000000E0C6E000E0D6E000E0E6E000E0F6EB5
:10151000000E106E0EEC0DF001C034F002C035F07C
:1015200003C036F004C037F005C038F006C039F00B
:1015300007C03AF008C03BF03DBEA7EF0AF03D50AF
:1015400008E13C04D8A0A7EF0AF0A9EF0AF0C5EF24
:101550000AF03450351036103710381039103A1060
:101560003B10D8A4B6EF0AF0B8EF0AF020EF0AF06B
:1015700031BEC5EF0AF0315006E13004D8B0C3EFF8
:101580000AF0C5EF0AF020EF0AF03E50D8B4CBEFD6
:101590000AF0CDEF0AF0D8EF0AF03C06D8A03D06DD
:1015A0005A0E3C24D96E020E3D20DA6E3EC0DFFF9B
:1015B0001CC011F01DC012F05A0E3C24136E020E16
:1015C0003D20146E32C015F033C016F0B5EC13F0A8
:1015D000120020EE02F00150D9260250DA22DECFAE
:1015E0000FF0DDCF10F020EE04F00150D9260250AC
:1015F000DA22DECF11F0DDCF12F020EE06F001503E
:10160000D9260250DA22DECF13F0DDCF14F0000E1F
:101610001C6E000E1B6E1BC005F01CC006F0D8909F
:1016200005360636D89005360636D8900536063685
:1016300005500324076E06500420086E020E07248E
:10164000D96E000E0820DA6EDECF15F0DDCF16F071
:101650001BC005F01CC006F0D89005360636D890A1
:1016600005360636D8900536063605500324076E33
:1016700006500420086E040E0724D96E000E0820C0
:10168000DA6EDECF17F0DDCF18F01BC005F01CC0FE
:1016900006F0D89005360636D89005360636D8902E
:1016A0000536063605500324076E06500420086EE2
:1016B000060E0724D96E000E0820DA6EDECF19F070
:1016C000DDCF1AF0000E0C6EEC0E1524056EFF0E29
:1016D0001620066E0F50055C10500658D8B073EFF8
:1016E0000BF075EF0BF088EF0BF0140E1524056E60
:1016F000000E1620066E05500F5C06501058D8B02C
:1017000084EF0BF086EF0BF088EF0BF0010E0C6E00
:101710000C50D8A48EEF0BF091EF0BF0010E92EF6E
:101720000BF0000E096E000E0D6EEC0E1924056E06
:10173000FF0E1A20066E1350055C14500658D8B0E0
:10174000A4EF0BF0A6EF0BF0B9EF0BF0140E192479
:10175000056E000E1A20066E0550135C06501458D4
:10176000D8B0B5EF0BF0B7EF0BF0B9EF0BF0010EFF
:101770000D6E0D50D8A4BFEF0BF0C2EF0BF0010EB1
:10178000C3EF0BF0000E0A6E000E0E6EEC0E172467
:10179000056EFF0E1820066E1150055C125006589B
:1017A000D8B0D5EF0BF0D7EF0BF0EAEF0BF0140E3B
:1017B0001724056E000E1820066E0550115C0650A9
:1017C0001258D8B0E6EF0BF0E8EF0BF0EAEF0BF0B1
:1017D000010E0E6E0E50D8A4F0EF0BF0F3EF0BF0ED
:1017E000010EF4EF0BF0000E0B6E0950D8B4FBEFB6
:1017F0000BF0FDEF0BF013EF0CF00A50D8B403EF31
:101800000CF005EF0CF013EF0CF00B50D8B40BEF0D
:101810000CF00DEF0CF013EF0CF01BC001F01CC02E
:1018200002F023EF0CF01B4A1C2A1CBE21EF0CF027
:101830001C5009E1080E1B5CD8A021EF0CF023EF2F
:101840000CF00BEF0BF0120020EE01F00F50D92638
:101850001050DA22DF50D8B430EF0CF032EF0CF039
:1018600063EF0CF00FC0D9FF10C0DAFFDF50116E2C
:101870001150016E026A20EE07F00F50D926105069
:10188000DA22DECF03F0DDCF04F0D6EC15F001C094
:1018900007F002C008F0000E0A6E640E096E2DEC0F
:1018A00010F020EE07F00F50D9261050DA22DECFCC
:1018B00012F0DDCF13F00750125C186E0850135869
:1018C000196E86EF0CF00FC0D9FF10C0DAFFDF50A1
:1018D000116E1150016E026A20EE07F00F50D926EA
:1018E0001050DA22DECF03F0DDCF04F0D6EC15F095
:1018F00001C007F002C008F0000E0A6E640E096E07
:101900002DEC10F007C018F008C019F020EE02F01E
:101910000F50D9261050DA22DECF11F0DDCF12F0B1
:1019200011C0D9FF12C0DAFF18C0DFFF20EE01F0AE
:101930000F50D9261050DA22DF50D8B4A2EF0CF0A5
:10194000A4EF0CF0D9EF0CF020EE04F00F50D926E4
:101950001050DA22DECF11F0DDCF12F011C0D9FF26
:1019600012C0DAFF10EE04F00F50E1261050E22210
:10197000E6CF13F0E5CF14F013C0E1FF14C0E2FF8F
:10198000E750156E10EE06F00F50E1261050E222DF
:10199000E750166E010E176E162AD1EF0CF0D89094
:1019A0001736162ECFEF0CF017501510DF6E0DEF17
:1019B0000DF020EE04F00F50D9261050DA22DECFC1
:1019C00011F0DDCF12F011C0D9FF12C0DAFF10EE16
:1019D00004F00F50E1261050E222E6CF13F0E5CFDD
:1019E00014F013C0E1FF14C0E2FFE750156E10EED3
:1019F00006F00F50E1261050E222E750166E010E5D
:101A0000176E162A06EF0DF0D8901736162E04EF33
:101A10000DF01750FF0A1514DF6E1200000E126E43
:101A200010BE17EF0DF015EF0DF029EF0DF0101EA1
:101A30000F1E0E1E0D1E0C1E0B1E0A1E096C000E24
:101A40000A220B220C220D220E220F221022010E3E
:101A5000126E08BE30EF0DF02EEF0DF042EF0DF0DC
:101A6000081E071E061E051E041E031E021E016C14
:101A7000000E022203220422052206220722082247
:101A8000010E121A20EE13F0070EDE6AE806FDE2E0
:101A900009500A100B100C100D100E100F10101022
:101AA000D8B455EF0DF057EF0DF0A9EF0DF0010E82
:101AB000116E65EF0DF0D89009360A360B360C36EC
:101AC0000D360E360F361036112A10AE6AEF0DF0B5
:101AD0006CEF0DF05BEF0DF0D89013361436153621
:101AE00016361736183619361A360950015C0A5060
:101AF00002580B5003580C5004580D5005580E5006
:101B000006580F50075810500858D8A08AEF0DF00B
:101B10008CEF0DF09DEF0DF00950015E0A50025A56
:101B20000B50035A0C50045A0D50055A0E50065AC9
:101B30000F50075A1050085A1380D89010320F32A5
:101B40000E320D320C320B320A320932112E6CEF8A
:101B50000DF01250D8B4AFEF0DF0B1EF0DF0C1EFB2
:101B60000DF01A1E191E181E171E161E151E141E05
:101B7000136C000E14221522162217221822192285
:101B80001A2213C001F014C002F015C003F016C0F1
:101B900004F017C005F018C006F019C007F01AC00D
:101BA00008F01200000E126E08BEDBEF0DF0D9EF48
:101BB0000DF0EDEF0DF0081E071E061E051E041E9B
:101BC000031E021E016C000E0222032204220522C3
:101BD000062207220822010E126E10BEF4EF0DF04D
:101BE000F2EF0DF004EF0EF0101E0F1E0E1E0D1E74
:101BF0000C1E0B1E0A1E096C000E0A220B220C2260
:101C00000D220E220F22102209500A100B100C1068
:101C10000D100E100F101010D8B411EF0EF013EFBE
:101C20000EF05BEF0EF0010E116E21EF0EF0D8906A
:101C300009360A360B360C360D360E360F36103690
:101C4000112A10AE26EF0EF028EF0EF017EF0EF06F
:101C50000950015C0A5002580B5003580C500458AC
:101C60000D5005580E5006580F5007581050085880
:101C7000D8A03DEF0EF03FEF0EF04FEF0EF0095001
:101C8000015E0A50025A0B50035A0C50045A0D5070
:101C9000055A0E50065A0F50075A1050085AD8903D
:101CA00010320F320E320D320C320B320A32093240
:101CB000112E28EF0EF01250D8B461EF0EF063EF42
:101CC0000EF073EF0EF0081E071E061E051E041E02
:101CD000031E021E016C000E0222032204220522B2
:101CE00006220722082201C001F002C002F003C050
:101CF00003F004C004F005C005F006C006F007C0FC
:101D000007F008C008F0120041C0D9FF42C0DAFF56
:101D1000DECFF6FFDDCFF7FF000EF86E0800F550BE
:101D2000250AD8A496EF0EF098EF0EF01CEF0FF0F6
:101D300041C0D9FF42C0DAFFDE2A000EDD22000ECC
:101D40000201516F000E506F50C2FEF1526953698B
:101D500041C0D9FF42C0DAFFDECF4FF0DDCF50F0F7
:101D60004FC0F6FF50C0F7FF000EF86E0800F550A8
:101D7000640AD8B4BEEF0EF0C0EF0EF0D0EF0EF054
:101D80004FC0F6FF50C0F7FF000EF86E0800F55088
:101D9000690AD8A4CEEF0EF0D0EF0EF013EF0FF0DB
:101DA00043C0D9FF44C0DAFFDFCF45F0020EDE2684
:101DB000DFCF46F0000EDD2245C0D9FF46C0DAFF76
:101DC000DECF47F0DDCF48F0000E48BEFF0E496E73
:101DD0004A6E4B6E4C6E4D6E4E6E010E4F24456E2C
:101DE000000E5020466E41C0D9FF42C0DAFF45C008
:101DF000DEFF46C0DDFF3FC01CF040C01DF047C005
:101E00001EF048C01FF049C020F04AC021F04BC06E
:101E100022F04CC023F04DC024F04EC025F0ABECB6
:101E200009F032EF0FF041C0D9FF42C0DAFFDE2ADD
:101E3000000EDD2232EF0FF041C0D9FF42C0DAFFC1
:101E4000DECFF6FFDDCFF7FF000EF86E0800F5508D
:101E5000016E026A3FC003F040C004F0C8EC0FF00E
:101E600013EF0FF012009DEF0FF024C01AF025C001
:101E70001BF026C01CF027C01DF041EC11F0C7EF8D
:101E80000FF024C01AF025C01BF026C01CF027C09C
:101E90001DF093EC11F0C7EF0FF024C01AF025C02D
:101EA0001BF026C01CF027C01DF0E5EC11F0C7EFB9
:101EB0000FF024C01AF025C01BF026C01CF027C06C
:101EC0001DF087EC12F024C01AF025C01BF026C0CC
:101ED0001CF027C01DF041EC11F0C7EF0FF024C03B
:101EE0001AF025C01BF026C01CF027C01DF087EC9F
:101EF00012F024C01AF025C01BF026C01CF027C029
:101F00001DF093EC11F0C7EF0FF024C01AF025C0BC
:101F10001BF026C01CF027C01DF036EC12F0C7EFF6
:101F20000FF024C01AF025C01BF026C01CF027C0FB
:101F30001DF0D8EC12F0C7EF0FF022C028F023C03C
:101F400029F02950000AD8B4A8EF0FF0C7EF0FF01E
:101F50002850010AD8B435EF0FF0030AD8B441EF86
:101F60000FF0010AD8B44DEF0FF0070AD8B459EFBB
:101F70000FF0010AD8B46FEF0FF0030AD8B485EF61
:101F80000FF0010AD8B491EF0FF0C7EF0FF0120075
:101F900003500410D8B4CFEF0FF0D1EF0FF0DAEF09
:101FA0000FF003500410D8A4D8EF0FF0DAEF0FF0C1
:101FB000DFEF0FF0015056EC16F02CEF10F020EE92
:101FC00009F00350D9260450DA22DE50DE10D8B4CE
:101FD000ECEF0FF0EEEF0FF009EF10F020EE09F04C
:101FE0000350D9260450DA2210EE03F00350E12604
:101FF0000450E222DE50E65CE650800A096EDE50B4
:10200000800A0958D8B007EF10F009EF10F02CEF54
:1020100010F020EE03F00350D9260450DA22DECF70
:1020200005F0DDCF06F003C0D9FF04C0DAFFDECF34
:1020300007F0DDCF08F005500724D96E06500820C0
:10204000DA6E01C0DFFF20EE03F00350D926045002
:10205000DA22DE2A000EDD221200000E0C6E0ABE0D
:1020600036EF10F034EF10F03CEF10F0096C0A1E60
:10207000D8B00A2A010E0C6E08BE43EF10F041EFF3
:1020800010F049EF10F0076C081ED8B0082A010EB6
:102090000C1A000E0E6E000E0D6E09500A10D8B408
:1020A00054EF10F056EF10F07EEF10F0010E0B6EB3
:1020B0005EEF10F0D89009360A360B2A0AAE63EFAD
:1020C00010F065EF10F05AEF10F0D8900D360E3684
:1020D0000950075C0A500858D8A071EF10F073EF50
:1020E00010F078EF10F00950075E0A50085A0D8082
:1020F000D8900A3209320B2E65EF10F00C50D8B48C
:1021000084EF10F086EF10F08AEF10F00D6C0E1EC9
:10211000D8B00E2A0DC007F00EC008F0120020EE55
:1021200002F00150D9260250DA22DECF07F0DDCFCF
:1021300008F020EE04F00150D9260250DA22DECF5A
:1021400009F0DDCF0AF020EE06F00150D92602504A
:10215000DA22DECF05F0DDCF06F00950075C0A5029
:102160000858D8A0B6EF10F0B8EF10F0C9EF10F093
:102170000550075C06500858D8A0C1EF10F0C3EF17
:1021800010F0C9EF10F0000E046E010E036EE9EFBF
:1021900010F00750095C08500A58D8A0D2EF10F090
:1021A000D4EF10F0E5EF10F00550095C06500A5826
:1021B000D8A0DDEF10F0DFEF10F0E5EF10F0000E2B
:1021C000046E020E036EE9EF10F0000E046E030EB3
:1021D000036E03C001F004C002F0120099EC14F089
:1021E0000CC0D9FF0DC0DAFF05C0DEFF06C0DDFF61
:1021F000090E0F6E1E0E0E6EE40EE82EFED70E2E8A
:10220000FCD70F2EFAD700D071EC14F020EE02F0BC
:102210000C50D9260D50DA2205C0DEFF06C0DDFFC6
:10222000090E0F6E1E0E0E6EE40EE82EFED70E2E59
:10223000FCD70F2EFAD700D0C1EC14F020EE04F03A
:102240000C50D9260D50DA2205C0DEFF06C0DDFF96
:10225000090E0F6E1E0E0E6EE40EE82EFED70E2E29
:10226000FCD70F2EFAD700D0E9EC14F020EE06F0E0
:102270000C50D9260D50DA2205C0DEFF06C0DDFF66
:10228000120020EE01F01A50D9261B50DA22010E5E
:10229000DF6E20EE01F01C50D9261D50DA22000E10
:1022A000DF6E000E216E000E206E1AC0D9FF1BC01B
:1022B000DAFF20C0DFFF2050320F1CC0D9FF1DC045
:1022C000DAFFDF6E1AC00FF01BC010F024EC0CF028
:1022D0001CC00FF01DC010F024EC0CF0350EE82EE1
:1022E000FED700F0020E2024206E000E2120216E69
:1022F00021BE84EF11F0215009E1320E205CD8A0FC
:1023000084EF11F086EF11F055EF11F00E0E1F6EF5
:10231000650E1E6E870EE82EFED71E2EFCD71F2ED2
:10232000FAD700F0120020EE01F01A50D9261B5007
:10233000DA22000EDF6E20EE01F01C50D9261D506F
:10234000DA22010EDF6E000E216E000E206E20508C
:10235000320F1AC0D9FF1BC0DAFFDF6E1CC0D9FFD5
:102360001DC0DAFF20C0DFFF1AC00FF01BC010F045
:1023700024EC0CF01CC00FF01DC010F024EC0CF08D
:10238000350EE82EFED700F0020E2024206E000E3F
:102390002120216E21BED6EF11F0215009E1320E2D
:1023A000205CD8A0D6EF11F0D8EF11F0A7EF11F014
:1023B0000E0E1F6E650E1E6E870EE82EFED71E2EA9
:1023C000FCD71F2EFAD700F0120020EE01F01A50B1
:1023D000D9261B50DA22010EDF6E20EE01F01C50D0
:1023E000D9261D50DA22000EDF6E000E216E000E7F
:1023F000206E1AC0D9FF1BC0DAFF20C0DFFF2050BB
:10240000320F1CC0D9FF1DC0DAFFDF6E1AC00FF0FB
:102410001BC010F024EC0CF01CC00FF01DC010F01D
:1024200024EC0CF0350EE82EFED700F0020E20242E
:10243000206E000E2120216E21BE28EF12F02150C7
:1024400009E1320E205CD8A028EF12F02AEF12F03A
:10245000F9EF11F0180E1F6E8A0E1E6EE80EE82EB0
:10246000FED71E2EFCD71F2EFAD7120020EE01F049
:102470001A50D9261B50DA22010EDF6E20EE01F031
:102480001C50D9261D50DA22000EDF6E000E216E80
:10249000000E206E1AC0D9FF1BC0DAFF20C0DFFF7C
:1024A0002050320F1CC0D9FF1DC0DAFFDF6E1AC0EA
:1024B0000FF01BC010F024EC0CF01CC00FF01DC07E
:1024C00010F024EC0CF0350EE82EFED700F0020ED2
:1024D0002024206E000E2120216E21BE79EF12F003
:1024E000215009E1320E205CD8A079EF12F07BEF89
:1024F00012F04AEF12F0130E1F6EAC0E1E6E2A0E73
:10250000E82EFED71E2EFCD71F2EFAD7120020EE83
:1025100001F01A50D9261B50DA22000EDF6E20EE91
:1025200001F01C50D9261D50DA22000EDF6E000E7D
:10253000216E000E206E1AC0D9FF1BC0DAFF20C02A
:10254000DFFF1CC0D9FF1DC0DAFF20C0DFFF1AC0AB
:102550000FF01BC010F024EC0CF01CC00FF01DC0DD
:1025600010F024EC0CF0350EE82EFED700F0020E31
:102570002024206E000E2120216E21BEC9EF12F012
:10258000215009E1330E205CD8A0C9EF12F0CBEF47
:1025900012F09BEF12F05A0E1F6E490E1E6EE70EE0
:1025A000E82EFED71E2EFCD71F2EFAD700F0120001
:1025B00020EE01F01A50D9261B50DA22000EDF6EF1
:1025C00020EE01F01C50D9261D50DA22010EDF6EDC
:1025D000000E216E000E206E2050320F1AC0D9FF5F
:1025E0001BC0DAFFDF6E1CC0D9FF1DC0DAFF20C0A0
:1025F000DFFF1AC00FF01BC010F024EC0CF01CC061
:102600000FF01DC010F024EC0CF0350EE82EFED7B4
:1026100000F0020E2024206E000E2120216E21BE2B
:102620001BEF13F0215009E1320E205CD8A01BEF04
:1026300013F01DEF13F0ECEF12F0130E1F6EAC0E43
:102640001E6E2A0EE82EFED71E2EFCD71F2EFAD79E
:10265000120020EE01F01A50D9261B50DA22000E8B
:10266000DF6E20EE01F01C50D9261D50DA22000E3C
:10267000DF6E000E206E050E1F6E1AC0D9FF1BC044
:10268000DAFF1FC0DFFF1CC0D9FF1DC0DAFF1FC06B
:10269000DFFF1AC00FF01BC010F024EC0CF01CC0C0
:1026A0000FF01DC010F024EC0CF0D00E1E6ECA0E00
:1026B000E82EFED71E2EFCD7FF0E1F241F6EFF0E26
:1026C0002020206E20BE6FEF13F0205006E11F0483
:1026D000D8B06DEF13F06FEF13F03DEF13F0120071
:1026E00020EE01F01A50D9261B50DA22010EDF6EBF
:1026F00020EE01F01C50D9261D50DA22010EDF6EAB
:10270000000E1F6E000E1E6E1AC0D9FF1BC0DAFF2E
:102710001EC0DFFF1CC0D9FF1DC0DAFF1EC0DFFFD7
:102720001AC00FF01BC010F024EC0CF01CC00FF00E
:102730001DC010F024EC0CF06A0EE82EFED700D07D
:10274000020E1E241E6E000E1F201F6E1FBEB2EF53
:1027500013F01F5009E11F0E1E5CD8A0B2EF13F05A
:10276000B4EF13F084EF13F0120016BEBAEF13F0BB
:10277000BCEF13F0C2EF13F015C01AF016C01BF037
:10278000C6EF13F0000E1B6E000E1A6E000E196ECF
:10279000000E186ED8EF13F0000E026E200E016EC0
:1027A00011C003F012C004F0C8EC0FF0184A192A47
:1027B0001A50185C1950800A176E1B50800A17585F
:1027C000D8A0E5EF13F0E7EF13F0CCEF13F013C050
:1027D0000AF014C00BF011C00CF012C00DF011EC97
:1027E00015F01200ADEC15F0010E036E000EFBECBF
:1027F00015F03F0E056E550EE82EFED7052EFCD7C0
:1028000000F0030E036E000EFBEC15F0D50E036E08
:10281000010EFBEC15F0889284968498889086903F
:1028200080827C867C9880907E907C9E8096849E20
:10283000889686840E01B4958686B4971200640E3D
:1028400000016E6F000E6F6F60C070F061C071F0BC
:10285000000E746F000E736F000E7A6F000E796FAA
:10286000700E516E000E526E62C053F063C054F091
:102870006E0E556E000E566E48EC14F0000173514A
:102880006025D96E74516121DA6E000EDF6E120080
:1028900053C057F054C058F05CEF14F051C03FF0F3
:1028A00052C040F0570E416E000E426E55C043F0CC
:1028B00056C044F084EC0EF057C0F6FF58C0F7FF46
:1028C000000EF86E0800F5500009D8A46AEF14F065
:1028D0006CEF14F04EEF14F0000E526E000E516EBD
:1028E000120051EC16F0520E41EC16F0B60E41EC0F
:1028F00016F047EC16F0530E41EC16F0010E54ECB6
:1029000015F0076E07500A6E0B6A000E54EC15F0B6
:10291000076E0750096E086A0A5008100A6E0B50BD
:1029200009100B6E4CEC16F00AC005F00BC006F057
:10293000120051EC16F0520E41EC16F0B40E41ECC0
:1029400016F047EC16F0530E41EC16F0010E54EC65
:1029500015F0076E07500A6E0B6A000E54EC15F066
:10296000076E0750096E086A0A5008100A6E0B506D
:1029700009100B6E4CEC16F00AC005F00BC006F007
:10298000120051EC16F0520E41EC16F0B80E41EC6C
:1029900016F047EC16F0530E41EC16F0010E54EC15
:1029A00015F0076E07500A6E0B6A000E54EC15F016
:1029B000076E0750096E086A0A5008100A6E0B501D
:1029C00009100B6E4CEC16F00AC005F00BC006F0B7
:1029D000120051EC16F0520E41EC16F0BA0E41EC1A
:1029E00016F047EC16F0530E41EC16F0010E54ECC5
:1029F00015F0076E07500A6E0B6A000E54EC15F0C6
:102A0000076E0750096E086A0A5008100A6E0B50CC
:102A100009100B6E4CEC16F00AC005F00BC006F066
:102A20001200000E106E000E0F6E22EF15F00EC099
:102A300001F0026A0CC003F00DC004F0C8EC0FF006
:102A40000F4A102A0F500A24D96E10500B20DA6E4C
:102A5000DF500E6E0E50D8A430EF15F032EF15F0A7
:102A600017EF15F0120085948598839E879C7D94BE
:102A70007D987B9E7F9CBD508F0B3009BD6EE00E14
:102A8000BE16BF50F00B0109BF6E01C0BCFFBD8E6A
:102A90000A0E0E01746F0B0E696F000EA36E000E0E
:102AA000A06EA48EA18E1200036EC2EC15F00E0172
:102AB000DA87C2EC15F0D5CE04F0C2EC15F0035065
:102AC000D8B465EF15F069EF15F0026A022A6AEFD3
:102AD00015F0026A023A02460E01DA510218DF0BC3
:102AE0000218DA6FDA890450120014BE82EF15F072
:102AF000145006E11304D8B080EF15F082EF15F002
:102B000090EF15F013C015F014C016F0151E161E28
:102B1000154A162A15C013F016C014F094EF15F0DC
:102B200013C013F014C014F01200A0EF15F002C08F
:102B3000D9FF03C0DAFFDF502AEC16F0024A032A5D
:102B400002C0D9FF03C0DAFFDF50D8A4AAEF15F006
:102B5000ACEF15F097EF15F012000E01D951F00B04
:102B60000809D96FD98B9F0ED66F848A848CA79B56
:102B7000A79D1D0E1D6F1E0E1C6F1C0E6F6F1B0E72
:102B8000706F12000E01D8B5C8EF15F0CAEF15F03E
:102B9000C2EF15F0DACE01F01F0E0116D8A4D3EF64
:102BA00015F0D5EF15F0C2EF15F012000150030239
:102BB000F3CF05F0F4CF06F001500402F3500626DF
:102BC00002500302F350062605C001F006C002F0D1
:102BD000120002EE00F07A0EEE6AE806FDE1010155
:102BE000FF6BFE6B0001FF6B5E6A5D6A5F905F9238
:102BF00000010AEF07F0046E51EC16F0520E41ECA2
:102C000016F00450800941EC16F0035041EC16F028
:102C10004CEC16F01200D6501F0B4009D66ED68829
:102C2000D650F00B0709D66ED588F60ED46E3B0E43
:102C3000D36ED58E1200120E0E01626F110E156F3B
:102C4000E997E895670EE56F000EE66FE789E88B78
:102C5000E78F1200016E0E0137A531EF16F033EF4A
:102C600016F02BEF16F001C0E4FE1200F28AF28C8F
:102C70000E01298B1F8B339B2B8121913591F28E75
:102C80001200026EC2EC15F002C0D5FE1200C2ECBA
:102C900015F00E01DA831200C2EC15F00E01DA8590
:0E2CA0001200C2EC15F00E01DA8112001200D3
:020000040020DA
:10000000FF0FFF0FFF0FFF0FFF0FFF0FFF0FFF0F80
:020000040030CA
:0C000000AAFFFFFF9FFFFFFFFFFFFFFFB5
:00000001FF
