:040000002AEF00F0F3
:100008005D820E0133AB0BEF00F00DEF00F026EF31
:1000180000F07DA412EF00F014EF00F01EEF00F0E6
:100028000001D51D016ED61D026EC4EC0EF07D9444
:1000380026EF00F00001D71D016ED81D026EC4EC3A
:100048000EF07D840E01339B5D9211002EEF0EF0B1
:100E0000002564202564202564200D0A000020C0F0
:100E100036F021C037F022C038F023C039F024C0AA
:100E20003AF025C03BF026C03CF027C03DF03DBE67
:100E30001CEF07F01FEF07F0010E20EF07F0000E88
:100E4000406E4050D8B427EF07F029EF07F039EF94
:100E500007F03D1E3C1E3B1E3A1E391E381E371E33
:100E6000366C000E3722382239223A223B223C22AD
:100E70003D220001D4BF47EF07F0D45106E1D3056E
:100E8000D8B045EF07F047EF07F04DEF07F0000E41
:100E9000336E010E326E51EF07F0D3C032F0D4C082
:100EA00033F0D1C034F0D2C035F04050D8B45BEF4D
:100EB00007F05DEF07F074EF07F03406D8A03506B1
:100EC0004050D8A466EF07F068EF07F06EEF07F028
:100ED000000E316E2B0E306E72EF07F0000E316E89
:100EE0002D0E306E30C040F0000E3F6E1F0E3E6E75
:100EF000000EFB6FF8EF07F03E06D8A03F06DC0EB1
:100F00003E24D96E000E3F20DA6E36C003F037C0A3
:100F100004F038C005F039C006F03AC007F03BC015
:100F200008F03CC009F03DC00AF00A0E0B6E000E3E
:100F30000C6E000E0D6E000E0E6E000E0F6E000E8B
:100F4000106E000E116E000E126ECFEC09F003C091
:100F500028F004C029F005C02AF006C02BF007C015
:100F60002CF008C02DF009C02EF00AC02FF028C0C8
:100F700015F029C016F0F6EC0DF01550300FDF6EAD
:100F80003206D8A033063406D8A0350636C003F0A2
:100F900037C004F038C005F039C006F03AC007F099
:100FA0003BC008F03CC009F03DC00AF00A0E0B6ED1
:100FB000000E0C6E000E0D6E000E0E6E000E0F6E0B
:100FC000000E106E000E116E000E126E0BEC09F08A
:100FD00003C036F004C037F005C038F006C039F061
:100FE00007C03AF008C03BF009C03CF00AC03DF031
:100FF0003FBE03EF08F03F5008E13E04D8A003EFE6
:1010000008F005EF08F021EF08F0365037103810DF
:1010100039103A103B103C103D10D8A412EF08F0E4
:1010200014EF08F07CEF07F033BE21EF08F03350E7
:1010300006E13204D8B01FEF08F021EF08F07CEF92
:1010400007F04050D8B427EF08F029EF08F034EF4C
:1010500008F03E06D8A03F06DC0E3E24D96E000EF6
:101060003F20DA6E40C0DFFF1EC013F01FC014F037
:10107000DC0E3E24156E000E3F20166E34C017F0B5
:1010800035C018F03FEC0CF012007C9E8096849ED8
:10109000889686840E01B4958686B4976CEC0DF024
:1010A000000E046E140E036E90EC0DF0AFEC0EF01B
:1010B0007EEC0EF045EC0EF08EEC0EF0B50E0E6EE2
:1010C000000E0F6EECEC0BF0790E0001606F000E5D
:1010D000616F010E626F0E0E636FB7C064F0B8C02F
:1010E00065F0B9C066F0BAC067F0BBC068F0BCC0BC
:1010F00069F07CEC0CF0790E046E000E056E16ECB7
:101100000EF0010E8EA6000E8EA4000EE8B08BEF3E
:1011100008F090EF08F00001776B772B92EF08F062
:101120000001776B7751D8A498EF08F09AEF08F098
:1011300081EF08F08EB49FEF08F0A1EF08F0B5EF53
:1011400008F07CAEA6EF08F0AAEF08F0776B772BDB
:10115000ACEF08F00001776B773377337C50771969
:101160007F0B77197C6ECFEF08F08EB6BAEF08F0E0
:10117000BCEF08F0CFEF08F080A6C1EF08F0C5EF94
:1011800008F0776B772BC7EF08F00001776B774794
:101190007747774780507719F70B7719806E7CAEC9
:1011A000D4EF08F0D6EF08F0EEEF08F00001AB51F5
:1011B000AC11D8B4DEEF08F0E0EF08F0FBEF08F078
:1011C000AD0E0E6E000E0F6EECEC0BF0AD0E036E5E
:1011D000000E046E8DEC0BF0FBEF08F080A6F3EF31
:1011E00008F0F5EF08F0FBEF08F0AD0E0E6E000E04
:1011F0000F6EECEC0BF0110E0001786F3C0E776F68
:10120000CB0EE82EFED7772FFCD7782FFAD7CFEF6B
:1012100008F02AEF00F0000E146E12BE14EF09F071
:1012200012EF09F026EF09F0121E111E101E0F1EFC
:101230000E1E0D1E0C1E0B6C000E0C220D220E221B
:101240000F22102211221222010E146E0ABE2DEF5F
:1012500009F02BEF09F03FEF09F00A1E091E081EE6
:10126000071E061E051E041E036C000E0422052226
:1012700006220722082209220A22010E141A20EE51
:1012800015F0070EDE6AE806FDE20B500C100D109B
:101290000E100F10101011101210D8B452EF09F0E8
:1012A00054EF09F0A6EF09F0010E136E62EF09F09A
:1012B000D8900B360C360D360E360F3610361136EA
:1012C0001236132A12AE67EF09F069EF09F058EFF2
:1012D00009F0D890153616361736183619361A36DC
:1012E0001B361C360B50035C0C5004580D5005582F
:1012F0000E5006580F5007581050085811500958F2
:1013000012500A58D8A087EF09F089EF09F09AEF38
:1013100009F00B50035E0C50045A0D50055A0E5044
:10132000065A0F50075A1050085A1150095A1250B5
:101330000A5A1580D8901232113210320F320E3202
:101340000D320C320B32132E69EF09F01450D8B461
:10135000ACEF09F0AEEF09F0BEEF09F01C1E1B1E4A
:101360001A1E191E181E171E161E156C000E1622A8
:101370001722182219221A221B221C2215C003F040
:1013800016C004F017C005F018C006F019C007F029
:101390001AC008F01BC009F01CC00AF01200000EB1
:1013A000146E0ABED8EF09F0D6EF09F0EAEF09F0A3
:1013B0000A1E091E081E071E061E051E041E036CBB
:1013C000000E0422052206220722082209220A22F0
:1013D000010E146E12BEF1EF09F0EFEF09F001EF0C
:1013E0000AF0121E111E101E0F1E0E1E0D1E0C1EC8
:1013F0000B6C000E0C220D220E220F221022112245
:1014000012220B500C100D100E100F101010111096
:101410001210D8B40EEF0AF010EF0AF058EF0AF0ED
:10142000010E136E1EEF0AF0D8900B360C360D36F7
:101430000E360F36103611361236132A12AE23EF3F
:101440000AF025EF0AF014EF0AF00B50035C0C5081
:1014500004580D5005580E5006580F50075810509C
:1014600008581150095812500A58D8A03AEF0AF0FB
:101470003CEF0AF04CEF0AF00B50035E0C50045A9C
:101480000D50055A0E50065A0F50075A1050085A60
:101490001150095A12500A5AD89012321132103291
:1014A0000F320E320D320C320B32132E25EF0AF0B2
:1014B0001450D8B45EEF0AF060EF0AF070EF0AF053
:1014C0000A1E091E081E071E061E051E041E036CAA
:1014D000000E0422052206220722082209220A22DF
:1014E00003C003F004C004F005C005F006C006F018
:1014F00007C007F008C008F009C009F00AC00AF0E8
:10150000120043C0D9FF44C0DAFFDECFF6FFDDCFC3
:10151000F7FF0800F550250AD8A491EF0AF093EFE1
:101520000AF013EF0BF043C0D9FF44C0DAFFDE2A04
:10153000000EDD22000E0001D26F000ED16FD1C06F
:10154000D9F0D369D46943C0D9FF44C0DAFFDECFF4
:1015500051F0DDCF52F051C0F6FF52C0F7FF080046
:10156000F550640AD8B4B7EF0AF0B9EF0AF0C7EF44
:101570000AF051C0F6FF52C0F7FF0800F550690AA3
:10158000D8A4C5EF0AF0C7EF0AF00AEF0BF045C088
:10159000D9FF46C0DAFFDFCF47F0020EDE26DFCFED
:1015A00048F0000EDD2247C0D9FF48C0DAFFDECF89
:1015B00049F0DDCF4AF0000E4ABEFF0E4B6E4C6E76
:1015C0004D6E4E6E4F6E506E010E5124476E000EE2
:1015D0005220486E43C0D9FF44C0DAFF47C0DEFF47
:1015E00048C0DDFF41C01EF042C01FF049C020F0DE
:1015F0004AC021F04BC022F04CC023F04DC024F073
:101600004EC025F04FC026F050C027F007EC07F081
:1016100027EF0BF043C0D9FF44C0DAFFDE2A000EEB
:10162000DD2227EF0BF043C0D9FF44C0DAFFDECF45
:10163000F6FFDDCFF7FF0800F550036E046A41C0E6
:1016400005F042C006F028EC0BF00AEF0BF0120098
:1016500005500610D8B42FEF0BF031EF0BF03AEF36
:101660000BF005500610D8A438EF0BF03AEF0BF052
:101670003FEF0BF00350C9EC0EF08CEF0BF020EEB7
:1016800009F00550D9260650DA22DE50DE10D8B413
:101690004CEF0BF04EEF0BF069EF0BF020EE09F082
:1016A0000550D9260650DA2210EE03F00550E12647
:1016B0000650E222DE50E65CE650800A0B6EDE50F9
:1016C000800A0B58D8B067EF0BF069EF0BF08CEF86
:1016D0000BF020EE03F00550D9260650DA22DECFBB
:1016E00007F0DDCF08F005C0D9FF06C0DAFFDECF76
:1016F00009F0DDCF0AF007500924D96E08500A20FE
:10170000DA6E03C0DFFF20EE03F00550D926065045
:10171000DA22DE2A000EDD22120020EE02F0035053
:10172000D9260450DA22DECF09F0DDCF0AF020EE10
:1017300004F00350D9260450DA22DECF0BF0DDCFBF
:101740000CF020EE06F00350D9260450DA22DECF4A
:1017500007F0DDCF08F00B50095C0C500A58D8A0F8
:10176000B4EF0BF0B6EF0BF0C7EF0BF00750095CCE
:1017700008500A58D8A0BFEF0BF0C1EF0BF0C7EF2D
:101780000BF0000E066E010E056EE7EF0BF0095030
:101790000B5C0A500C58D8A0D0EF0BF0D2EF0BF036
:1017A000E3EF0BF007500B5C08500C58D8A0DBEFB0
:1017B0000BF0DDEF0BF0E3EF0BF0000E066E020E08
:1017C000056EE7EF0BF0000E066E030E056E05C00A
:1017D00003F006C004F01200CDEC0CF00EC0D9FFEF
:1017E0000FC0DAFF07C0DEFF08C0DDFF090E116E73
:1017F0001E0E106EE40EE82EFED7102EFCD7112E12
:10180000FAD700D0A5EC0CF020EE02F00E50D9264D
:101810000F50DA2207C0DEFF08C0DDFF090E116E8F
:101820001E0E106EE40EE82EFED7102EFCD7112EE1
:10183000FAD700D0F5EC0CF020EE04F00E50D926CB
:101840000F50DA2207C0DEFF08C0DDFF090E116E5F
:101850001E0E106EE40EE82EFED7102EFCD7112EB1
:10186000FAD700D01DEC0DF020EE06F00E50D92670
:101870000F50DA2207C0DEFF08C0DDFF120018BEDD
:1018800044EF0CF046EF0CF04CEF0CF017C01CF0DE
:1018900018C01DF050EF0CF0000E1D6E000E1C6EF7
:1018A000000E1B6E000E1A6E62EF0CF0000E046E3E
:1018B000200E036E13C005F014C006F028EC0BF0E8
:1018C0001A4A1B2A1C501A5C1B50800A196E1D50A4
:1018D000800A1958D8A06FEF0CF071EF0CF056EF9A
:1018E0000CF015C00CF016C00DF013C00EF014C0B3
:1018F0000FF0B3EC0DF01200640E00016A6F000EE1
:101900006B6F60C06CF061C06DF0000E706F000E08
:101910006F6F000E766F000E756F6C0E536E000EBB
:10192000546E62C055F063C056F06A0E576E000EDA
:10193000586E45EC0DF000016F516025D96E705165
:101940006121DA6E000EDF6E1200BFEC0EF0520E57
:10195000A9EC0EF0B60EA9EC0EF0B5EC0EF0530E9D
:10196000A9EC0EF0010ED5EC0DF0096E09500C6ECD
:101970000D6A000ED5EC0DF0096E09500B6E0A6A67
:101980000C500A100C6E0D500B100D6EBAEC0EF0D0
:101990000CC007F00DC008F01200BFEC0EF0520EA4
:1019A000A9EC0EF0B40EA9EC0EF0B5EC0EF0530E4F
:1019B000A9EC0EF0010ED5EC0DF0096E09500C6E7D
:1019C0000D6A000ED5EC0DF0096E09500B6E0A6A17
:1019D0000C500A100C6E0D500B100D6EBAEC0EF080
:1019E0000CC007F00DC008F01200BFEC0EF0520E54
:1019F000A9EC0EF0B80EA9EC0EF0B5EC0EF0530EFB
:101A0000A9EC0EF0010ED5EC0DF0096E09500C6E2C
:101A10000D6A000ED5EC0DF0096E09500B6E0A6AC6
:101A20000C500A100C6E0D500B100D6EBAEC0EF02F
:101A30000CC007F00DC008F01200BFEC0EF0520E03
:101A4000A9EC0EF0BA0EA9EC0EF0B5EC0EF0530EA8
:101A5000A9EC0EF0010ED5EC0DF0096E09500C6EDC
:101A60000D6A000ED5EC0DF0096E09500B6E0A6A76
:101A70000C500A100C6E0D500B100D6EBAEC0EF0DF
:101A80000CC007F00DC008F0120055C059F056C048
:101A90005AF059EF0DF053C041F054C042F0590EC6
:101AA000436E000E446E57C045F058C046F081ECBE
:101AB0000AF059C0F6FF5AC0F7FF0800F5500009B8
:101AC000D8A465EF0DF067EF0DF04BEF0DF0000EB1
:101AD000546E000E536E120045EC0EF0010E056EB2
:101AE000000E6EEC0EF03F0E076E550EE82EFED780
:101AF000072EFCD700F0030E056E000E6EEC0EF004
:101B0000D50E056E010E6EEC0EF0889284968498C8
:101B10008890869080827C867C8880807E8012007F
:101B200085948598839E879C7D947D987B9E7F9CE1
:101B3000BD508F0B3009BD6EE00EBE16BF50F00BCE
:101B40000109BF6E0350800DF304BC6EBD8E0A0EFA
:101B50000E01746F0B0E696F000EA36E000EA06E67
:101B6000A48EA18E1200000E126E000E116EC4EF34
:101B70000DF010C003F0046A0EC005F00FC006F0AF
:101B800028EC0BF0114A122A11500C24D96E125075
:101B90000D20DA6EDF50106E1050D8A4D2EF0DF089
:101BA000D4EF0DF0B9EF0DF01200056E5AEC0EF007
:101BB0000E01DA875AEC0EF0D5CE06F05AEC0EF094
:101BC0000550D8B4E6EF0DF0EAEF0DF0046A042AF0
:101BD000EBEF0DF0046A043A04460E01DA510418E2
:101BE000DF0B0418DA6FDA890650120016BE03EF15
:101BF0000EF0165006E11504D8B001EF0EF003EF19
:101C00000EF011EF0EF015C017F016C018F0171EE9
:101C1000181E174A182A17C015F018C016F015EF2D
:101C20000EF015C015F016C016F0120021EF0EF0E0
:101C300004C0D9FF05C0DAFFDF509DEC0EF0044A66
:101C4000052A04C0D9FF05C0DAFFDF50D8A42BEF66
:101C50000EF02DEF0EF018EF0EF0120001EE00F076
:101C60003C0EEE6AE806FDE100EEBDF03F0EEE6AC6
:101C7000E806FDE15C6A5B6A5D905D92000EF86EBD
:101C80000E0EF76E000145EF08F00E01D951F00B72
:101C90000809D96FD98B9F0ED66F848A848CA79B35
:101CA000A79D1D0E1D6F1E0E1C6F1C0E6F6F1B0E51
:101CB000706F12000E01D8B560EF0EF062EF0EF0FB
:101CC0005AEF0EF0DACE03F01F0E0316D8A46BEF16
:101CD0000EF06DEF0EF05AEF0EF01200066EBFEC34
:101CE0000EF0520EA9EC0EF006508009A9EC0EF091
:101CF0000550A9EC0EF0BAEC0EF01200D6501F0BF6
:101D00004009D66ED688D650F00B0709D66ED58816
:101D1000F60ED46E3B0ED36ED58E1200120E0E014F
:101D2000626F110E156FE997E895330EE56F000E9F
:101D3000E66FE789E88BE78F1200036E0E0137A587
:101D4000A4EF0EF0A6EF0EF09EEF0EF003C0E4FE3F
:101D50001200046E5AEC0EF004C0D5FE12000E0103
:101D6000298BF28CF29AF28E12005AEC0EF00E01D0
:101D7000DA8312005AEC0EF00E01DA8512005AECEA
:101D80000EF00E01DA8112000250D46E01C0D3FFB2
:041D9000120012002B
:020000040020DA
:10000000FF0FFF0FFF0FFF0FFF0FFF0FFF0FFF0F80
:020000040030CA
:0C000000AAFFFFFF9FFFFFFFFFFFFFFFB5
:00000001FF
