:040000001FEF00F0FE
:100008005E820E0133BB0BEF00F00DEF00F014EF32
:1000180000F08EB412EF00F014EF00F01DEF00F0C6
:100028000101F24BF32BDB0ED36E0B0ED46E0E01D7
:0A003800339B5E92110028EF14F0D4
:100E00000025642025642025642025642025642095
:100E10000D0A000034EF08F024C01AF025C01BF0C2
:100E200026C01CF027C01DF01AEC11F024C01AF0E7
:100E300025C01BF026C01CF027C01DF0BCEC11F033
:100E4000290E296E960E286E7F0EE82EFED7282ECC
:100E5000FCD7292EFAD700F024C01AF025C01BF0C9
:100E600026C01CF027C01DF083EC0FF024C01AF040
:100E700025C01BF026C01CF027C01DF0BCEC11F0F3
:100E800062EF08F024C01AF025C01BF026C01CF049
:100E900027C01DF01AEC11F024C01AF025C01BF079
:100EA00026C01CF027C01DF0BCEC11F0290E296EE5
:100EB000960E286E7F0EE82EFED7282EFCD7292E00
:100EC000FAD700F024C01AF025C01BF026C01CF091
:100ED00027C01DF0D5EC0FF036EF07F024C01AF054
:100EE00025C01BF026C01CF027C01DF01AEC11F025
:100EF00024C01AF025C01BF026C01CF027C01DF02E
:100F0000BCEC11F0290E296E960E286E7F0EE82E8D
:100F1000FED7282EFCD7292EFAD700F024C01AF0CD
:100F200025C01BF026C01CF027C01DF027EC10F0D8
:100F300036EF07F024C01AF025C01BF026C01CF0C5
:100F400027C01DF0C9EC10F024C01AF025C01BF01A
:100F500026C01CF027C01DF0BCEC11F020EF07F0FC
:100F600024C01AF025C01BF026C01CF027C01DF0BD
:100F7000C9EC10F024C01AF025C01BF026C01CF0EC
:100F800027C01DF0BCEC11F056EF07F024C01AF09A
:100F900025C01BF026C01CF027C01DF01AEC11F074
:100FA00024C01AF025C01BF026C01CF027C01DF07D
:100FB000BCEC11F0290E296E960E286E7F0EE82EDD
:100FC000FED7282EFCD7292EFAD700F024C01AF01D
:100FD00025C01BF026C01CF027C01DF078EC10F0D7
:100FE00036EF07F024C01AF025C01BF026C01CF015
:100FF00027C01DF01AEC11F024C01AF025C01BF018
:1010000026C01CF027C01DF0BCEC11F0290E296E83
:10101000960E286E7F0EE82EFED7282EFCD7292E9E
:10102000FAD700F024C01AF025C01BF026C01CF02F
:1010300027C01DF06BEC11F036EF07F024C01AF05A
:1010400025C01BF026C01CF027C01DF003EC12F0D9
:1010500024C01AF025C01BF026C01CF027C01DF0CC
:10106000BCEC11F062EF08F022C028F023C029F098
:101070002950000AD8B43FEF08F062EF08F028507A
:10108000000AD8B41EEF08F0010AD8B40CEF07F03C
:10109000030AD8B442EF07F0010AD8B46EEF07F0A4
:1010A000070AD8B49AEF07F0010AD8B4B0EF07F0F6
:1010B000030AD8B4C6EF07F0010AD8B4F2EF07F07C
:1010C00062EF08F012001EC034F01FC035F020C0DF
:1010D00036F021C037F022C038F023C039F024C0E8
:1010E0003AF025C03BF03BBE78EF08F07BEF08F00C
:1010F000010E7CEF08F0000E3E6E3E50D8B483EF38
:1011000008F085EF08F095EF08F03B1E3A1E391EF7
:10111000381E371E361E351E346C000E3522362220
:101120003722382239223A223B220001FEBFA3EFA8
:1011300008F0FE5106E1FD05D8B0A1EF08F0A3EFDD
:1011400008F0A9EF08F0000E316E010E306EADEF21
:1011500008F0FDC030F0FEC031F0F0C132F0F1C156
:1011600033F03E50D8B4B7EF08F0B9EF08F0D0EF45
:1011700008F03206D8A033063E50D8A4C2EF08F0DB
:10118000C4EF08F0CAEF08F0000E2F6E2B0E2E6E83
:10119000CEEF08F0000E2F6E2D0E2E6E2EC03EF0FC
:1011A000000E3D6E1F0E3C6E000E0201976F55EF54
:1011B00009F03C06D8A03D06780E3C24D96E020EFC
:1011C0003D20DA6E34C001F035C002F036C003F0C5
:1011D00037C004F038C005F039C006F03AC007F057
:1011E0003BC008F00A0E096E000E0A6E000E0B6E70
:1011F000000E0C6E000E0D6E000E0E6E000E0F6EC9
:10120000000E106E42EC0CF001C026F002C027F078
:1012100003C028F004C029F005C02AF006C02BF056
:1012200007C02CF008C02DF026C013F027C014F022
:1012300008EC14F01350300FDF6E3006D8A03106E2
:101240003206D8A0330634C001F035C002F036C0F3
:1012500003F037C004F038C005F039C006F03AC0DA
:1012600007F03BC008F00A0E096E000E0A6E000E71
:101270000B6E000E0C6E000E0D6E000E0E6E000E4C
:101280000F6E000E106E7EEC0BF001C034F002C049
:1012900035F003C036F004C037F005C038F006C0A2
:1012A00039F007C03AF008C03BF03DBE60EF09F0EE
:1012B0003D5008E13C04D8A060EF09F062EF09F06E
:1012C0007EEF09F0345035103610371038103910D1
:1012D0003A103B10D8A46FEF09F071EF09F0D9EF85
:1012E00008F031BE7EEF09F0315006E13004D8B08D
:1012F0007CEF09F07EEF09F0D9EF08F03E50D8B44A
:1013000084EF09F086EF09F091EF09F03C06D8A0D0
:101310003D06780E3C24D96E020E3D20DA6E3EC0AA
:10132000DFFF1CC011F01DC012F0780E3C24136EBC
:10133000020E3D20146E32C015F033C016F048EC9A
:1013400012F0120020EE02F00150D9260250DA22EB
:10135000DECF0DF0DDCF0EF020EE04F00150D926E7
:101360000250DA22DECF0FF0DDCF10F020EE06F0D3
:101370000150D9260250DA22DECF11F0DDCF12F073
:1013800020EE02F00350D9260450DA22DECF13F00B
:10139000DDCF14F020EE04F00350D9260450DA22F9
:1013A000DECF15F0DDCF16F020EE06F00350D92683
:1013B0000450DA22DECF17F0DDCF18F0000E0A6EEF
:1013C000EC0E1324056EFF0E1420066E0D50055C06
:1013D0000E500658D8B0EFEF09F0F1EF09F004EF26
:1013E0000AF0140E1324056E000E1420066E05502C
:1013F0000D5C06500E58D8B000EF0AF002EF0AF06C
:1014000004EF0AF0010E0A6E0A50D8A40AEF0AF09F
:101410000DEF0AF0010E0EEF0AF0000E076E000E3F
:101420000B6EEC0E1724056EFF0E1820066E115081
:10143000055C12500658D8B020EF0AF022EF0AF0EF
:1014400035EF0AF0140E1724056E000E1820066EF4
:101450000550115C06501258D8B031EF0AF033EF46
:101460000AF035EF0AF0010E0B6E0B50D8A43BEFDB
:101470000AF03EEF0AF0010E3FEF0AF0000E086E90
:10148000000E0C6EEC0E1524056EFF0E1620066E77
:101490000F50055C10500658D8B051EF0AF053EFCA
:1014A0000AF066EF0AF0140E1524056E000E1620E1
:1014B000066E05500F5C06501058D8B062EF0AF067
:1014C00064EF0AF066EF0AF0010E0C6E0C50D8A41F
:1014D0006CEF0AF06FEF0AF0010E70EF0AF0000EE9
:1014E000096E0750D8B477EF0AF079EF0AF08FEF62
:1014F0000AF00850D8B47FEF0AF081EF0AF08FEFBE
:101500000AF00950D8B487EF0AF089EF0AF08FEF9C
:101510000AF0000E026E010E016E93EF0AF0000E4B
:10152000026E000E016E120020EE01F00F50D9265F
:101530001050DA22DF50D8B4A0EF0AF0A2EF0AF080
:10154000D3EF0AF00FC0D9FF10C0DAFFDF50116EE1
:101550001150016E026A20EE07F00F50D92610508C
:10156000DA22DECF03F0DDCF04F082EC14F001C00C
:1015700007F002C008F0000E0A6E640E096E6FECF0
:101580000EF020EE07F00F50D9261050DA22DECFF1
:1015900012F0DDCF13F00750125C186E085013588C
:1015A000196EF6EF0AF00FC0D9FF10C0DAFFDF5056
:1015B000116E1150016E026A20EE07F00F50D9260D
:1015C0001050DA22DECF03F0DDCF04F082EC14F00D
:1015D00001C007F002C008F0000E0A6E640E096E2A
:1015E0006FEC0EF007C018F008C019F020EE02F002
:1015F0000F50D9261050DA22DECF11F0DDCF12F0D5
:1016000011C0D9FF12C0DAFF18C0DFFF20EE01F0D1
:101610000F50D9261050DA22DF50D8B412EF0BF059
:1016200014EF0BF049EF0BF020EE04F00F50D92629
:101630001050DA22DECF11F0DDCF12F011C0D9FF49
:1016400012C0DAFF10EE04F00F50E1261050E22233
:10165000E6CF13F0E5CF14F013C0E1FF14C0E2FFB2
:10166000E750156E10EE06F00F50E1261050E22202
:10167000E750166E010E176E162A41EF0BF0D89048
:101680001736162E3FEF0BF017501510DF6E7DEF5B
:101690000BF020EE04F00F50D9261050DA22DECFE6
:1016A00011F0DDCF12F011C0D9FF12C0DAFF10EE39
:1016B00004F00F50E1261050E222E6CF13F0E5CF00
:1016C00014F013C0E1FF14C0E2FFE750156E10EEF6
:1016D00006F00F50E1261050E222E750166E010E80
:1016E000176E162A76EF0BF0D8901736162E74EF79
:1016F0000BF01750FF0A1514DF6E1200000E126E69
:1017000010BE87EF0BF085EF0BF099EF0BF0101E7A
:101710000F1E0E1E0D1E0C1E0B1E0A1E096C000E47
:101720000A220B220C220D220E220F221022010E61
:10173000126E08BEA0EF0BF09EEF0BF0B2EF0BF0B5
:10174000081E071E061E051E041E031E021E016C37
:10175000000E02220322042205220622072208226A
:10176000010E121A20EE13F0070EDE6AE806FDE203
:1017700009500A100B100C100D100E100F10101045
:10178000D8B4C5EF0BF0C7EF0BF019EF0CF0010E5A
:10179000116ED5EF0BF0D89009360A360B360C36A1
:1017A0000D360E360F361036112A10AEDAEF0BF06A
:1017B000DCEF0BF0CBEF0BF0D89013361436153668
:1017C00016361736183619361A360950015C0A5083
:1017D00002580B5003580C5004580D5005580E5029
:1017E00006580F50075810500858D8A0FAEF0BF0C1
:1017F000FCEF0BF00DEF0CF00950015E0A50025A9D
:101800000B50035A0C50045A0D50055A0E50065AEC
:101810000F50075A1050085A1380D89010320F32C8
:101820000E320D320C320B320A320932112EDCEF3D
:101830000BF01250D8B41FEF0CF021EF0CF031EF89
:101840000CF01A1E191E181E171E161E151E141E29
:10185000136C000E142215221622172218221922A8
:101860001A2213C001F014C002F015C003F016C014
:1018700004F017C005F018C006F019C007F01AC030
:1018800008F01200000E126E08BE4BEF0CF049EF8C
:101890000CF05DEF0CF0081E071E061E051E041E50
:1018A000031E021E016C000E0222032204220522E6
:1018B000062207220822010E126E10BE64EF0CF001
:1018C00062EF0CF074EF0CF0101E0F1E0E1E0D1EBA
:1018D0000C1E0B1E0A1E096C000E0A220B220C2283
:1018E0000D220E220F22102209500A100B100C108C
:1018F0000D100E100F101010D8B481EF0CF083EF04
:101900000CF0CBEF0CF0010E116E91EF0CF0D890B3
:1019100009360A360B360C360D360E360F361036B3
:10192000112A10AE96EF0CF098EF0CF087EF0CF048
:101930000950015C0A5002580B5003580C500458CF
:101940000D5005580E5006580F50075810500858A3
:10195000D8A0ADEF0CF0AFEF0CF0BFEF0CF00950DA
:10196000015E0A50025A0B50035A0C50045A0D5093
:10197000055A0E50065A0F50075A1050085AD89060
:1019800010320F320E320D320C320B320A32093263
:10199000112E98EF0CF01250D8B4D1EF0CF0D3EF19
:1019A0000CF0E3EF0CF0081E071E061E051E041EB9
:1019B000031E021E016C000E0222032204220522D5
:1019C00006220722082201C001F002C002F003C073
:1019D00003F004C004F005C005F006C006F007C01F
:1019E00007F008C008F0120041C0D9FF42C0DAFF7A
:1019F000DECFF6FFDDCFF7FF000EF86E0800F550E2
:101A0000250AD8A406EF0DF008EF0DF08DEF0DF0CC
:101A100041C0D9FF42C0DAFFDE2A000EDD22000EEF
:101A20000101F16F000EF06FF0C159F00001FD6986
:101A3000FE6941C0D9FF42C0DAFFDECF4FF0DDCFF3
:101A400050F04FC0F6FF50C0F7FF000EF86E0800D0
:101A5000F550640AD8B42FEF0DF031EF0DF041EFDF
:101A60000DF04FC0F6FF50C0F7FF000EF86E0800F3
:101A7000F550690AD8A43FEF0DF041EF0DF084EF67
:101A80000DF043C0D9FF44C0DAFFDFCF45F0020EAE
:101A9000DE26DFCF46F0000EDD2245C0D9FF46C06E
:101AA000DAFFDECF47F0DDCF48F0000E48BEFF0E74
:101AB000496E4A6E4B6E4C6E4D6E4E6E010E4F244B
:101AC000456E000E5020466E41C0D9FF42C0DAFF7D
:101AD00045C0DEFF46C0DDFF3FC01CF040C01DF02A
:101AE00047C01EF048C01FF049C020F04AC021F096
:101AF0004BC022F04CC023F04DC024F04EC025F066
:101B000063EC08F0A3EF0DF041C0D9FF42C0DAFF4B
:101B1000DE2A000EDD22A3EF0DF041C0D9FF42C046
:101B2000DAFFDECFF6FFDDCFF7FF000EF86E08001C
:101B3000F550016E026A3FC003F040C004F00AECA9
:101B40000EF084EF0DF0120085EC12F0000E026E24
:101B5000140E016EC6EC13F0D0EC14F0A5EC14F0EA
:101B600059EC14F0B5EC14F0000E0101D36F000E27
:101B7000D46FA30ED56F0F0ED66F7D0ED76F0F0EDD
:101B8000D86F040ED96F000EDB6FC80EDA6F000E2F
:101B9000CA6F000ECB6FA00ECC6F0F0ECD6F7F0EF5
:101BA000CE6F0F0ECF6F060ED06F000ED26FC80E25
:101BB000D16FD30E0F6E010E106E94EC0AF0CA0EA8
:101BC0000F6E010E106E94EC0AF020EEDFF01D0E89
:101BD000DE6AE806FDE221EE64F01D0EDE6AE8062C
:101BE000FDE28EB6F6EF0DF0F8EF0DF0F1EF0DF02F
:101BF000000E236E010E226ED30E246E010E256E92
:101C0000CA0E266E010E276E0AEC07F0F1EF0DF0FA
:101C10001FEF00F003500410D8B411EF0EF013EFD3
:101C20000EF01CEF0EF003500410D8A41AEF0EF0C3
:101C30001CEF0EF021EF0EF00150F0EC14F06EEFFF
:101C40000EF020EE09F00350D9260450DA22DE50BF
:101C5000DE10D8B42EEF0EF030EF0EF04BEF0EF09A
:101C600020EE09F00350D9260450DA2210EE03F0DA
:101C70000350E1260450E222DE50E65CE650800A82
:101C8000096EDE50800A0958D8B049EF0EF04BEFCC
:101C90000EF06EEF0EF020EE03F00350D926045044
:101CA000DA22DECF05F0DDCF06F003C0D9FF04C095
:101CB000DAFFDECF07F0DDCF08F005500724D96E3C
:101CC00006500820DA6E01C0DFFF20EE03F003505B
:101CD000D9260450DA22DE2A000EDD221200000E80
:101CE0000C6E0ABE78EF0EF076EF0EF07EEF0EF07F
:101CF000096C0A1ED8B00A2A010E0C6E08BE85EFC8
:101D00000EF083EF0EF08BEF0EF0076C081ED8B0CC
:101D1000082A010E0C1A000E0E6E000E0D6E0950F0
:101D20000A10D8B496EF0EF098EF0EF0C0EF0EF058
:101D3000010E0B6EA0EF0EF0D89009360A360B2A72
:101D40000AAEA5EF0EF0A7EF0EF09CEF0EF0D890C4
:101D50000D360E360950075C0A500858D8A0B3EF6C
:101D60000EF0B5EF0EF0BAEF0EF00950075E0A5014
:101D7000085A0D80D8900A3209320B2EA7EF0EF0C8
:101D80000C50D8B4C6EF0EF0C8EF0EF0CCEF0EF04A
:101D90000D6C0E1ED8B00E2A0DC007F00EC008F054
:101DA000120020EE02F00150D9260250DA22DECFD6
:101DB00007F0DDCF08F020EE04F00150D9260250E4
:101DC000DA22DECF09F0DDCF0AF020EE06F0015076
:101DD000D9260250DA22DECF05F0DDCF06F0095019
:101DE000075C0A500858D8A0F8EF0EF0FAEF0EF092
:101DF0000BEF0FF00550075C06500858D8A003EF12
:101E00000FF005EF0FF00BEF0FF0000E046E010E58
:101E1000036E2BEF0FF00750095C08500A58D8A04A
:101E200014EF0FF016EF0FF027EF0FF00550095CDD
:101E300006500A58D8A01FEF0FF021EF0FF027EF40
:101E40000FF0000E046E020E036E2BEF0FF0000E6B
:101E5000046E030E036E03C001F004C002F0120012
:101E60002CEC13F00CC0D9FF0DC0DAFF05C0DEFF6B
:101E700006C0DDFF090E0F6E1E0E0E6EE40EE82E7C
:101E8000FED70E2EFCD70F2EFAD700D004EC13F09D
:101E900020EE02F00C50D9260D50DA2205C0DEFFEC
:101EA00006C0DDFF090E0F6E1E0E0E6EE40EE82E4C
:101EB000FED70E2EFCD70F2EFAD700D054EC13F01D
:101EC00020EE04F00C50D9260D50DA2205C0DEFFBA
:101ED00006C0DDFF090E0F6E1E0E0E6EE40EE82E1C
:101EE000FED70E2EFCD70F2EFAD700D07CEC13F0C5
:101EF00020EE06F00C50D9260D50DA2205C0DEFF88
:101F000006C0DDFF120020EE01F01A50D9261B504A
:101F1000DA22010EDF6E20EE01F01C50D9261D5092
:101F2000DA22000EDF6E000E216E000E206E1AC047
:101F3000D9FF1BC0DAFF20C0DFFF2050320F1CC0CA
:101F4000D9FF1DC0DAFFDF6E1AC00FF01BC010F002
:101F500094EC0AF01CC00FF01DC010F094EC0AF0D5
:101F6000350EE82EFED700F0020E2024206E000E63
:101F70002120216E21BEC6EF0FF0215009E1320E63
:101F8000205CD8A0C6EF0FF0C8EF0FF097EF0FF06E
:101F90000E0E1F6E650E1E6E870EE82EFED71E2ECD
:101FA000FCD71F2EFAD700F0120020EE01F01A50D5
:101FB000D9261B50DA22000EDF6E20EE01F01C50F5
:101FC000D9261D50DA22010EDF6E000E216E000EA2
:101FD000206E2050320F1AC0D9FF1BC0DAFFDF6E0F
:101FE0001CC0D9FF1DC0DAFF20C0DFFF1AC00FF0F0
:101FF0001BC010F094EC0AF01CC00FF01DC010F0D4
:1020000094EC0AF0350EE82EFED700F0020E2024E4
:10201000206E000E2120216E21BE18EF10F02150FD
:1020200009E1320E205CD8A018EF10F01AEF10F082
:10203000E9EF0FF00E0E1F6E650E1E6E870EE82E76
:10204000FED71E2EFCD71F2EFAD700F0120020EE6E
:1020500001F01A50D9261B50DA22010EDF6E20EE55
:1020600001F01C50D9261D50DA22000EDF6E000E42
:10207000216E000E206E1AC0D9FF1BC0DAFF20C0EF
:10208000DFFF2050320F1CC0D9FF1DC0DAFFDF6E0A
:102090001AC00FF01BC010F094EC0AF01CC00FF037
:1020A0001DC010F094EC0AF0350EE82EFED700F0BB
:1020B000020E2024206E000E2120216E21BE6AEF28
:1020C00010F0215009E1320E205CD8A06AEF10F028
:1020D0006CEF10F03BEF10F0180E1F6E8A0E1E6EA4
:1020E000E80EE82EFED71E2EFCD71F2EFAD71200C0
:1020F00020EE01F01A50D9261B50DA22010EDF6EB5
:1021000020EE01F01C50D9261D50DA22000EDF6EA1
:10211000000E216E000E206E1AC0D9FF1BC0DAFF20
:1021200020C0DFFF2050320F1CC0D9FF1DC0DAFFD6
:10213000DF6E1AC00FF01BC010F094EC0AF01CC048
:102140000FF01DC010F094EC0AF0350EE82EFED70B
:1021500000F0020E2024206E000E2120216E21BEF0
:10216000BBEF10F0215009E1320E205CD8A0BBEF8C
:1021700010F0BDEF10F08CEF10F0130E1F6EAC0ED0
:102180001E6E2A0EE82EFED71E2EFCD71F2EFAD763
:10219000120020EE01F01A50D9261B50DA22000E50
:1021A000DF6E20EE01F01C50D9261D50DA22000E01
:1021B000DF6E000E216E000E206E1AC0D9FF1BC00C
:1021C000DAFF20C0DFFF1CC0D9FF1DC0DAFF20C02E
:1021D000DFFF1AC00FF01BC010F094EC0AF01CC017
:1021E0000FF01DC010F094EC0AF0350EE82EFED76B
:1021F00000F0020E2024206E000E2120216E21BE50
:102200000BEF11F0215009E1330E205CD8A00BEF49
:1022100011F00DEF11F0DDEF10F05A0E1F6E490EA8
:102220001E6EE70EE82EFED71E2EFCD71F2EFAD705
:1022300000F0120020EE01F01A50D9261B50DA22CD
:10224000000EDF6E20EE01F01A50D9261B50DA2264
:10225000000EDF6E000E216E000E206E1AC0D9FF38
:102260001BC0DAFF20C0DFFF1CC0D9FF1DC0DAFF92
:1022700020C0DFFF1AC00FF01BC010F094EC0AF072
:102280001CC00FF01DC010F094EC0AF0350EE82EC3
:10229000FED700F0020E2024206E000E2120216EB9
:1022A00021BE5CEF11F0215009E1290E205CD8A07D
:1022B0005CEF11F05EEF11F02EEF11F0290E1F6EA2
:1022C000960E1E6E7F0EE82EFED71E2EFCD71F2EFA
:1022D000FAD700F0120020EE01F01A50D9261B5058
:1022E000DA22000EDF6E20EE01F01C50D9261D50C0
:1022F000DA22010EDF6E000E216E000E206E2050DD
:10230000320F1AC0D9FF1BC0DAFFDF6E1CC0D9FF25
:102310001DC0DAFF20C0DFFF1AC00FF01BC010F095
:1023200094EC0AF01CC00FF01DC010F094EC0AF001
:10233000350EE82EFED700F0020E2024206E000E8F
:102340002120216E21BEAEEF11F0215009E1320EA5
:10235000205CD8A0AEEF11F0B0EF11F07FEF11F0DC
:10236000130E1F6EAC0E1E6E2A0EE82EFED71E2E0A
:10237000FCD71F2EFAD7120020EE01F01A50D926F2
:102380001B50DA22000EDF6E20EE01F01C50D92621
:102390001D50DA22000EDF6E000E206E050E1F6E3D
:1023A0001AC0D9FF1BC0DAFF1FC0DFFF1CC0D9FF56
:1023B0001DC0DAFF1FC0DFFF1AC00FF01BC010F0F6
:1023C00094EC0AF01CC00FF01DC010F094EC0AF061
:1023D000D00E1E6ECA0EE82EFED71E2EFCD7FF0EA4
:1023E0001F241F6EFF0E2020206E20BE02EF12F071
:1023F000205006E11F04D8B000EF12F002EF12F0F7
:10240000D0EF11F0120020EE01F01A50D9261B5027
:10241000DA22010EDF6E20EE01F01C50D9261D508D
:10242000DA22010EDF6E000E1F6E000E1E6E1AC045
:10243000D9FF1BC0DAFF1EC0DFFF1CC0D9FF1DC0C3
:10244000DAFF1EC0DFFF1AC00FF01BC010F094ECC3
:102450000AF01CC00FF01DC010F094EC0AF06A0ED8
:10246000E82EFED700D0020E1E241E6E000E1F2086
:102470001F6E1FBE45EF12F01F5009E11F0E1E5CBC
:10248000D8A045EF12F047EF12F017EF12F012004C
:1024900016BE4DEF12F04FEF12F055EF12F015C0CF
:1024A0001AF016C01BF059EF12F0000E1B6E000E52
:1024B0001A6E000E196E000E186E6BEF12F0000E01
:1024C000026E200E016E11C003F012C004F00AEC7F
:1024D0000EF0184A192A1A50185C1950800A176E03
:1024E0001B50800A1758D8A078EF12F07AEF12F03C
:1024F0005FEF12F013C00AF014C00BF011C00CF023
:1025000012C00DF0A4EC13F0120059EC14F0010EFF
:10251000036E000E95EC14F03F0E056E550EE82E7E
:10252000FED7052EFCD700F0030E036E000E95ECCF
:1025300014F0D50E036E010E95EC14F0889284967B
:1025400084988890869080827C867C9880907E900B
:102550007C9E8096849E889686840E01B49586869D
:10256000B4971200640E00016E6F000E6F6F60C0B2
:1025700070F061C071F0000E746F000E736F000E8A
:102580007A6F000E796F700E516E000E526E62C03F
:1025900053F063C054F06E0E556E000E566EDBECB9
:1025A00012F0000173516025D96E74516121DA6E09
:1025B000000EDF6E120053C057F054C058F0EFEF1A
:1025C00012F051C03FF052C040F0570E416E000E65
:1025D000426E55C043F056C044F0F4EC0CF057C0C6
:1025E000F6FF58C0F7FF000EF86E0800F55000091E
:1025F000D8A4FDEF12F0FFEF12F0E1EF12F0000EA1
:10260000526E000E516E1200EBEC14F0520EDBEC29
:1026100014F0B60EDBEC14F0E1EC14F0530EDBEC2E
:1026200014F0010EE7EC13F0076E07500A6E0B6A08
:10263000000EE7EC13F0076E0750096E086A0A50A7
:1026400008100A6E0B5009100B6EE6EC14F00AC06D
:1026500005F00BC006F01200EBEC14F0520EDBECB0
:1026600014F0B40EDBEC14F0E1EC14F0530EDBECE0
:1026700014F0010EE7EC13F0076E07500A6E0B6AB8
:10268000000EE7EC13F0076E0750096E086A0A5057
:1026900008100A6E0B5009100B6EE6EC14F00AC01D
:1026A00005F00BC006F01200EBEC14F0520EDBEC60
:1026B00014F0B80EDBEC14F0E1EC14F0530EDBEC8C
:1026C00014F0010EE7EC13F0076E07500A6E0B6A68
:1026D000000EE7EC13F0076E0750096E086A0A5007
:1026E00008100A6E0B5009100B6EE6EC14F00AC0CD
:1026F00005F00BC006F01200EBEC14F0520EDBEC10
:1027000014F0BA0EDBEC14F0E1EC14F0530EDBEC39
:1027100014F0010EE7EC13F0076E07500A6E0B6A17
:10272000000EE7EC13F0076E0750096E086A0A50B6
:1027300008100A6E0B5009100B6EE6EC14F00AC07C
:1027400005F00BC006F01200000E106E000E0F6EAA
:10275000B5EF13F00EC001F0026A0CC003F00DC01B
:1027600004F00AEC0EF00F4A102A0F500A24D96E1A
:1027700010500B20DA6EDF500E6E0E50D8A4C3EF4F
:1027800013F0C5EF13F0AAEF13F0120085948598AB
:10279000839E879C7D947D987B9E7F9CBD508F0BF4
:1027A0003009BD6EE00EBE16BF50F00B0109BF6EC2
:1027B00001C0BCFFBD8E0A0E0E01746F0B0E696F57
:1027C000000EA36E000EA06EA48EA18E1200036EEA
:1027D0006EEC14F00E01DA876EEC14F0D5CE04F036
:1027E0006EEC14F00350D8B4F8EF13F0FCEF13F0D4
:1027F000026A022AFDEF13F0026A023A02460E0153
:10280000DA510218DF0B0218DA6FDA89045012006D
:1028100014BE15EF14F0145006E11304D8B013EFF2
:1028200014F015EF14F023EF14F013C015F014C0DA
:1028300016F0151E161E154A162A15C013F016C0DE
:1028400014F027EF14F013C013F014C014F01200AA
:1028500002EE00F0980EEE6AE806FDE101EEDCF013
:102860001C0EEE6AE806FDE10001FE6BFD6B5D6A81
:102870005C6A5B6A5A6A596A5E905E920001A4EFD4
:102880000DF04CEF14F002C0D9FF03C0DAFFDF50A7
:10289000C4EC14F0024A032A02C0D9FF03C0DAFFD5
:1028A000DF50D8A456EF14F058EF14F043EF14F0B3
:1028B00012000E01D951F00B0809D96FD98B9F0E68
:1028C000D66F848A848CA79BA79D1D0E1D6F1E0E3C
:1028D0001C6F1C0E6F6F1B0E706F12000E01D8B5AF
:1028E00074EF14F076EF14F06EEF14F0DACE01F01E
:1028F0001F0E0116D8A47FEF14F081EF14F06EEFD5
:1029000014F0120001500302F3CF05F0F4CF06F0EB
:1029100001500402F350062602500302F35006262B
:1029200005C001F006C002F01200046EEBEC14F0DA
:10293000520EDBEC14F004508009DBEC14F0035071
:10294000DBEC14F0E6EC14F01200D6501F0B40093B
:10295000D66ED688D650F00B0709D66ED588F60EFF
:10296000D46E3B0ED36ED58E1200120E0E01626F26
:10297000110E156FE997E895670EE56F000EE66F8B
:10298000E789E88BE78F1200016E0E0137A5CBEFC8
:1029900014F0CDEF14F0C5EF14F001C0E4FE120006
:1029A000F28AF28C0E01298B1F8B339B2B81219194
:1029B0003591F28E1200026E6EEC14F002C0D5FE5C
:1029C00012006EEC14F00E01DA8312006EEC14F0BB
:1029D0000E01DA8512006EEC14F00E01DA8112009D
:0229E0001200E3
:020000040020DA
:10000000FF0FFF0FFF0FFF0FFF0FFF0FFF0FFF0F80
:020000040030CA
:0C000000AAFFFFFF9FFFFFFFFFFFFFFFB5
:00000001FF
