:040000002AEF00F0F3
:100008005D820E0133AB0BEF00F00DEF00F026EF31
:1000180000F07DA412EF00F014EF00F01EEF00F0E6
:100028000001B41D016EB51D026E99EC10F07D94AF
:1000380026EF00F00001B61D016EB71D026E99ECA7
:1000480010F07D840E01339B5D92110065EF10F076
:100E0000002564202564202564202564200D0A0027
:010E100000E1
:100E120020C036F021C037F022C038F023C039F0AC
:100E220024C03AF025C03BF026C03CF027C03DF07C
:100E32003DBE1EEF07F021EF07F0010E22EF07F093
:100E4200000E406E4050D8B429EF07F02BEF07F0A8
:100E52003BEF07F03D1E3C1E3B1E3A1E391E381E5C
:100E6200371E366C000E3722382239223A223B22B4
:100E72003C223D220001B3BF49EF07F0B35106E126
:100E8200B205D8B047EF07F049EF07F04FEF07F090
:100E9200000E336E010E326E53EF07F0B2C032F025
:100EA200B3C033F0B0C034F0B1C035F04050D8B464
:100EB2005DEF07F05FEF07F076EF07F03406D8A09A
:100EC20035064050D8A468EF07F06AEF07F070EFDC
:100ED20007F0000E316E2B0E306E74EF07F0000E2D
:100EE200316E2D0E306E30C040F0000E3F6E1F0E80
:100EF2003E6E000EDA6FFAEF07F03E06D8A03F060C
:100F0200BB0E3E24D96E000E3F20DA6E36C003F0CF
:100F120037C004F038C005F039C006F03AC007F017
:100F22003BC008F03CC009F03DC00AF00A0E0B6E4F
:100F3200000E0C6E000E0D6E000E0E6E000E0F6E89
:100F4200000E106E000E116E000E126E28EC0BF0E9
:100F520003C028F004C029F005C02AF006C02BF017
:100F620007C02CF008C02DF009C02EF00AC02FF0E7
:100F720028C015F029C016F0C2EC0FF01550300F42
:100F8200DF6E3206D8A033063406D8A0350636C046
:100F920003F037C004F038C005F039C006F03AC09B
:100FA20007F03BC008F03CC009F03DC00AF00A0E51
:100FB2000B6E000E0C6E000E0D6E000E0E6E000E0D
:100FC2000F6E000E106E000E116E000E126E64ECAB
:100FD2000AF003C036F004C037F005C038F006C08E
:100FE20039F007C03AF008C03BF009C03CF00AC033
:100FF2003DF03FBE05EF08F03F5008E13E04D8A0A7
:1010020005EF08F007EF08F023EF08F0365037102D
:10101200381039103A103B103C103D10D8A414EF90
:1010220008F016EF08F07EEF07F033BE23EF08F06A
:10103200335006E13204D8B021EF08F023EF08F074
:101042007EEF07F04050D8B429EF08F02BEF08F0FC
:1010520036EF08F03E06D8A03F06BB0E3E24D96EFE
:10106200000E3F20DA6E40C0DFFF1EC013F01FC02B
:1010720014F0BB0E3E24156E000E3F20166E34C0D7
:1010820017F035C018F002EC0EF012003FEC0EF033
:10109200000E046E140E036E80EC0FF084EC10F060
:1010A20046EC10F0FAEC0FF056EC10F0000E0101D5
:1010B2008C6F000E8D6FA30E8E6F0F0E8F6F7D0ED5
:1010C200906F0F0E916F040E926F000E946FC80E08
:1010D200936F000E956F000E966FA00E976F0F0E16
:1010E200986F7F0E996F0F0E9A6F060E9B6F000E10
:1010F2009D6FC80E9C6F8C0E116E010E126E7AECF3
:1011020009F0950E116E010E126E7AEC09F0000EC6
:101112000101756F000E746F840E0E6E010E0F6E5C
:10112200AFEC0DF0000E0001DB6F010EDC6F010E63
:10113200DD6F0E0EDE6F84C1DFF085C1E0F086C187
:10114200E1F087C1E2F088C1E3F089C1E4F08AC12D
:10115200E5F08BC1E6F06CEC0EF0000E046E010EB1
:10116200056EE2EC0FF0010170057111D8A4BCEF1D
:1011720008F0BEEF08F0C4EF08F0724B732B000EBC
:10118200716F000E706F010E8EA6000E8EA4000EFF
:10119200E8B0CEEF08F0D3EF08F00001F46BF42BC7
:1011A200D5EF08F00001F46BF451D8A4DBEF08F09E
:1011B200DDEF08F0C4EF08F08EB4E2EF08F0E4EFE0
:1011C20008F0E7EF08F07C8E58EF09F0808658EFC0
:1011D20009F07CAEEFEF08F0F1EF08F03FEF09F015
:1011E2006E516F11D8B4F8EF08F0FAEF08F04CEF37
:1011F20009F07C0E0E6E010E0F6EAFEC0DF07C0E40
:10120200036E010E046E50EC0DF003C076F104C0C3
:1012120077F1D89001017835D96E7935DA6E320ED0
:10122200D926010EDA2276C1DEFF77C1DDFFD89022
:101232007835D96E7935DA6E500ED926010EDA225A
:1012420072C1DEFF73C1DDFF784B792B000E736F25
:10125200000E726F080E76197711D8B433EF09F0C9
:1012620035EF09F04CEF09F0000E6F6F000E6E6F54
:10127200000E756F010E746F4CEF09F080A644EFFB
:1012820009F046EF09F04CEF09F07C0E0E6E010EEC
:101292000F6EAFEC0DF0110E0001F56F3C0EF46F06
:1012A200CB0EE82EFED7F42FFCD7F52FFAD701018B
:1012B20074517511D8B460EF09F062EF09F0EAEFEA
:1012C20008F0000E7B6F000E7A6F7A4B7B2B7BBF90
:1012D20074EF09F07B5109E10F0E7A5DD8A074EF2B
:1012E20009F076EF09F066EF09F0B4EF08F02AEFA3
:1012F20000F020EE01F01150D9261250DA22DF5010
:10130200D8B486EF09F088EF09F0B9EF09F011C0FF
:10131200D9FF12C0DAFFDF50136E1350036E046A56
:1013220020EE07F01150D9261250DA22DECF05F056
:10133200DDCF06F023EC10F003C009F004C00AF080
:10134200000E0C6E640E0B6EEEEC0CF020EE07F04D
:101352001150D9261250DA22DECF14F0DDCF15F06B
:101362000950145C1A6E0A5015581B6EDCEF09F016
:1013720011C0D9FF12C0DAFFDF50136E1350036E93
:10138200046A20EE07F01150D9261250DA22DECF7D
:1013920005F0DDCF06F023EC10F003C009F004C025
:1013A2000AF0000E0C6E640E0B6EEEEC0CF009C02F
:1013B2001AF00AC01BF020EE02F01150D92612508A
:1013C200DA22DECF13F0DDCF14F013C0D9FF14C040
:1013D200DAFF1AC0DFFF20EE01F01150D9261250B9
:1013E200DA22DF50D8B4F8EF09F0FAEF09F02FEF64
:1013F2000AF020EE04F01150D9261250DA22DECF84
:1014020013F0DDCF14F013C0D9FF14C0DAFF10EED1
:1014120004F01150E1261250E222E6CF15F0E5CF9A
:1014220016F015C0E1FF16C0E2FFE750176E10EE8E
:1014320006F01150E1261250E222E750186E010E1A
:10144200196E182A27EF0AF0D8901936182E25EFB0
:101452000AF019501710DF6E63EF0AF020EE04F065
:101462001150D9261250DA22DECF13F0DDCF14F05C
:1014720013C0D9FF14C0DAFF10EE04F01150E126B8
:101482001250E222E6CF15F0E5CF16F015C0E1FFCB
:1014920016C0E2FFE750176E10EE06F01150E1267B
:1014A2001250E222E750186E010E196E182A5CEFF4
:1014B2000AF0D8901936182E5AEF0AF01950FF0A7E
:1014C2001714DF6E1200000E146E12BE6DEF0AF0DA
:1014D2006BEF0AF07FEF0AF0121E111E101E0F1E94
:1014E2000E1E0D1E0C1E0B6C000E0C220D220E2267
:1014F2000F22102211221222010E146E0ABE86EF52
:101502000AF084EF0AF098EF0AF00A1E091E081E7C
:10151200071E061E051E041E036C000E0422052271
:1015220006220722082209220A22010E141A20EE9C
:1015320015F0070EDE6AE806FDE20B500C100D10E6
:101542000E100F10101011101210D8B4ABEF0AF0D9
:10155200ADEF0AF0FFEF0AF0010E136EBBEF0AF0D7
:10156200D8900B360C360D360E360F361036113635
:101572001236132A12AEC0EF0AF0C2EF0AF0B1EF30
:101582000AF0D890153616361736183619361A3626
:101592001B361C360B50035C0C5004580D5005587A
:1015A2000E5006580F50075810500858115009583D
:1015B20012500A58D8A0E0EF0AF0E2EF0AF0F3EF77
:1015C2000AF00B50035E0C50045A0D50055A0E508F
:1015D200065A0F50075A1050085A1150095A125001
:1015E2000A5A1580D8901232113210320F320E324E
:1015F2000D320C320B32132EC2EF0AF01450D8B453
:1016020005EF0BF007EF0BF017EF0BF01C1E1B1E84
:101612001A1E191E181E171E161E156C000E1622F3
:101622001722182219221A221B221C2215C003F08B
:1016320016C004F017C005F018C006F019C007F074
:101642001AC008F01BC009F01CC00AF01200000EFC
:10165200146E0ABE31EF0BF02FEF0BF043EF0BF0DD
:101662000A1E091E081E071E061E051E041E036C06
:10167200000E0422052206220722082209220A223B
:10168200010E146E12BE4AEF0BF048EF0BF05AEF48
:101692000BF0121E111E101E0F1E0E1E0D1E0C1E12
:1016A2000B6C000E0C220D220E220F221022112290
:1016B20012220B500C100D100E100F1010101110E2
:1016C2001210D8B467EF0BF069EF0BF0B1EF0BF02B
:1016D200010E136E77EF0BF0D8900B360C360D36E9
:1016E2000E360F36103611361236132A12AE7CEF32
:1016F2000BF07EEF0BF06DEF0BF00B50035C0C5018
:1017020004580D5005580E5006580F5007581050E7
:1017120008581150095812500A58D8A093EF0BF0EC
:1017220095EF0BF0A5EF0BF00B50035E0C50045A33
:101732000D50055A0E50065A0F50075A1050085AAB
:101742001150095A12500A5AD890123211321032DC
:101752000F320E320D320C320B32132E7EEF0BF0A3
:101762001450D8B4B7EF0BF0B9EF0BF0C9EF0BF090
:101772000A1E091E081E071E061E051E041E036CF5
:10178200000E0422052206220722082209220A222A
:1017920003C003F004C004F005C005F006C006F063
:1017A20007C007F008C008F009C009F00AC00AF033
:1017B200120043C0D9FF44C0DAFFDECFF6FFDDCF0F
:1017C200F7FF000EF86E0800F550250AD8A4ECEFDA
:1017D2000BF0EEEF0BF072EF0CF043C0D9FF44C0F8
:1017E200DAFFDE2A000EDD22000E0001B16F000ECC
:1017F200B06FB0C0B8F0B269B36943C0D9FF44C09A
:10180200DAFFDECF51F0DDCF52F051C0F6FF52C009
:10181200F7FF000EF86E0800F550640AD8B414EF12
:101822000CF016EF0CF026EF0CF051C0F6FF52C090
:10183200F7FF000EF86E0800F550690AD8A424EFED
:101842000CF026EF0CF069EF0CF045C0D9FF46C052
:10185200DAFFDFCF47F0020EDE26DFCF48F0000EC0
:10186200DD2247C0D9FF48C0DAFFDECF49F0DDCF25
:101872004AF0000E4ABEFF0E4B6E4C6E4D6E4E6E1F
:101882004F6E506E010E5124476E000E5220486E6C
:1018920043C0D9FF44C0DAFF47C0DEFF48C0DDFFC6
:1018A20041C01EF042C01FF049C020F04AC021F0E2
:1018B2004BC022F04CC023F04DC024F04EC025F0A6
:1018C2004FC026F050C027F009EC07F088EF0CF06B
:1018D20043C0D9FF44C0DAFFDE2A000EDD2288EFC2
:1018E2000CF043C0D9FF44C0DAFFDECFF6FFDDCFF4
:1018F200F7FF000EF86E0800F550036E046A41C04F
:1019020005F042C006F089EC0CF069EF0CF0120011
:1019120005500610D8B490EF0CF092EF0CF09BEF4C
:101922000CF005500610D8A499EF0CF09BEF0CF0C8
:10193200A0EF0CF003509EEC10F0EDEF0CF020EE57
:1019420009F00550D9260650DA22DE50DE10D8B44E
:10195200ADEF0CF0AFEF0CF0CAEF0CF020EE09F097
:101962000550D9260650DA2210EE03F00550E12682
:101972000650E222DE50E65CE650800A0B6EDE5034
:10198200800A0B58D8B0C8EF0CF0CAEF0CF0EDEF9C
:101992000CF020EE03F00550D9260650DA22DECFF5
:1019A20007F0DDCF08F005C0D9FF06C0DAFFDECFB1
:1019B20009F0DDCF0AF007500924D96E08500A2039
:1019C200DA6E03C0DFFF20EE03F00550D926065081
:1019D200DA22DE2A000EDD221200000E0E6E0CBE8E
:1019E200F7EF0CF0F5EF0CF0FDEF0CF00B6C0C1EAA
:1019F200D8B00C2A010E0E6E0ABE04EF0DF002EFF3
:101A02000DF00AEF0DF0096C0A1ED8B00A2A010E79
:101A12000E1A000E106E000E0F6E0B500C10D8B482
:101A220015EF0DF017EF0DF03FEF0DF0010E0D6EFB
:101A32001FEF0DF0D8900B360C360D2A0CAE24EFAA
:101A42000DF026EF0DF01BEF0DF0D8900F3610368B
:101A52000B50095C0C500A58D8A032EF0DF034EF4D
:101A62000DF039EF0DF00B50095E0C500A5A0F8041
:101A7200D8900C320B320D2E26EF0DF00E50D8B44A
:101A820045EF0DF047EF0DF04BEF0DF00F6C101E10
:101A9200D8B0102A0FC009F010C00AF0120020EED0
:101AA20002F00350D9260450DA22DECF09F0DDCF4E
:101AB2000AF020EE04F00350D9260450DA22DECFD9
:101AC2000BF0DDCF0CF020EE06F00350D9260450C7
:101AD200DA22DECF07F0DDCF08F00B50095C0C50A4
:101AE2000A58D8A077EF0DF079EF0DF08AEF0DF0DC
:101AF2000750095C08500A58D8A082EF0DF084EF15
:101B02000DF08AEF0DF0000E066E010E056EAAEFC3
:101B12000DF009500B5C0A500C58D8A093EF0DF051
:101B220095EF0DF0A6EF0DF007500B5C08500C5826
:101B3200D8A09EEF0DF0A0EF0DF0A6EF0DF0000E75
:101B4200066E020E056EAAEF0DF0000E066E030E73
:101B5200056E05C003F006C004F01200E6EC0EF0BC
:101B62000EC0D9FF0FC0DAFF07C0DEFF08C0DDFFDD
:101B7200090E116E1E0E106EE40EE82EFED7102E08
:101B8200FCD7112EFAD700D0BEEC0EF020EE02F0F8
:101B92000E50D9260F50DA2207C0DEFF08C0DDFF43
:101BA200090E116E1E0E106EE40EE82EFED7102ED8
:101BB200FCD7112EFAD700D00EEC0FF020EE04F075
:101BC2000E50D9260F50DA2207C0DEFF08C0DDFF13
:101BD200090E116E1E0E106EE40EE82EFED7102EA8
:101BE200FCD7112EFAD700D036EC0FF020EE06F01B
:101BF2000E50D9260F50DA2207C0DEFF08C0DDFFE3
:101C0200120018BE07EF0EF009EF0EF00FEF0EF004
:101C120017C01CF018C01DF013EF0EF0000E1D6E61
:101C2200000E1C6E000E1B6E000E1A6E25EF0EF0DB
:101C3200000E046E200E036E13C005F014C006F0F1
:101C420089EC0CF01A4A1B2A1C501A5C1B50800AA1
:101C5200196E1D50800A1958D8A032EF0EF034EFD9
:101C62000EF019EF0EF015C00CF016C00DF013C0F7
:101C72000EF014C00FF05EEC0FF01200FAEC0FF051
:101C8200010E056E000E36EC10F03F0E076E550E7B
:101C9200E82EFED7072EFCD700F0030E056E000ECD
:101CA20036EC10F0D50E056E010E36EC10F088926F
:101CB200849684988890869080827C867C888080B6
:101CC2007E807C9E8096849E889686840E01B49542
:101CD2008686B4971200DF0E0001E76F000EE86FF0
:101CE200DBC0E9F0DCC0EAF0000EED6F000EEC6F35
:101CF200000EF36F000EF26FE90E536E000E546E7B
:101D0200DDC055F0DEC056F0E70E576E000E586E7D
:101D120095EC0EF00001EC51DB25D96EED51DC2182
:101D2200DA6E000EDF6E120055C059F056C05AF03E
:101D3200A9EF0EF053C041F054C042F0590E436E69
:101D4200000E446E57C045F058C046F0DAEC0BF076
:101D520059C0F6FF5AC0F7FF000EF86E0800F550A2
:101D62000009D8A4B7EF0EF0B9EF0EF09BEF0EF01A
:101D7200000E546E000E536E120094EC10F0520ED0
:101D82007EEC10F0B60E7EEC10F08AEC10F0530EE2
:101D92007EEC10F0010EA1EC0FF0096E09500C6EF2
:101DA2000D6A000EA1EC0FF0096E09500B6E0A6A63
:101DB2000C500A100C6E0D500B100D6E8FEC10F0C3
:101DC2000CC007F00DC008F0120094EC10F0520E97
:101DD2007EEC10F0B40E7EEC10F08AEC10F0530E94
:101DE2007EEC10F0010EA1EC0FF0096E09500C6EA2
:101DF2000D6A000EA1EC0FF0096E09500B6E0A6A13
:101E02000C500A100C6E0D500B100D6E8FEC10F072
:101E12000CC007F00DC008F0120094EC10F0520E46
:101E22007EEC10F0B80E7EEC10F08AEC10F0530E3F
:101E32007EEC10F0010EA1EC0FF0096E09500C6E51
:101E42000D6A000EA1EC0FF0096E09500B6E0A6AC2
:101E52000C500A100C6E0D500B100D6E8FEC10F022
:101E62000CC007F00DC008F0120094EC10F0520EF6
:101E72007EEC10F0BA0E7EEC10F08AEC10F0530EED
:101E82007EEC10F0010EA1EC0FF0096E09500C6E01
:101E92000D6A000EA1EC0FF0096E09500B6E0A6A72
:101EA2000C500A100C6E0D500B100D6E8FEC10F0D2
:101EB2000CC007F00DC008F01200000E126E000EEA
:101EC200116E6FEF0FF010C003F0046A0EC005F040
:101ED2000FC006F089EC0CF0114A122A11500C24A2
:101EE200D96E12500D20DA6EDF50106E1050D8A449
:101EF2007DEF0FF07FEF0FF064EF0FF0120085948B
:101F02008598839E879C7D947D987B9E7F9CBD5007
:101F12008F0B3009BD6EE00EBE16BF50F00B0109EB
:101F2200BF6E03C0BCFFBD8E0A0E0E01746F0B0E96
:101F3200696F000EA36E000EA06EA48EA18E120019
:101F4200056E0FEC10F00E01DA870FEC10F0D5CE13
:101F520006F00FEC10F00550D8B4B2EF0FF0B6EF68
:101F62000FF0046A042AB7EF0FF0046A043A044639
:101F72000E01DA510418DF0B0418DA6FDA89065001
:101F8200120016BECFEF0FF0165006E11504D8B0BE
:101F9200CDEF0FF0CFEF0FF0DDEF0FF015C017F020
:101FA20016C018F0171E181E174A182A17C015F067
:101FB20018C016F0E1EF0FF015C015F016C016F0BC
:101FC2001200EDEF0FF004C0D9FF05C0DAFFDF50B9
:101FD20072EC10F0044A052A04C0D9FF05C0DAFFEA
:101FE200DF50D8A4F7EF0FF0F9EF0FF0E4EF0FF0A6
:101FF20012000E01D951F00B0809D96FD98B9F0E2F
:10200200D66F848A848CA79BA79D1D0E1D6F1E0E02
:102012001C6F1C0E6F6F1B0E706F12000E01D8B575
:1020220015EF10F017EF10F00FEF10F0DACE03F00B
:102032001F0E0316D8A420EF10F022EF10F00FEFBE
:1020420010F0120003500502F3CF07F0F4CF08F0AE
:1020520003500602F350082604500502F3500826E6
:1020620007C003F008C004F01200066E94EC10F0F2
:10207200520E7EEC10F0065080097EEC10F00550F6
:102082007EEC10F08FEC10F01200D6501F0B4009BE
:10209200D66ED688D650F00B0709D66ED588F60EC6
:1020A200D46E3B0ED36ED58E1200120E0E01626FED
:1020B200110E156FE997E895670EE56F000EE66F52
:1020C200E789E88BE78F120000EE60F07B0EEE6A84
:1020D200E806FDE15C6A5B6A5D905D92000147EF94
:1020E20008F0036E0E0137A579EF10F07BEF10F0C8
:1020F20073EF10F003C0E4FE1200046E0FEC10F058
:1021020004C0D5FE12000E01298BF28CF29AF28ED7
:1021120012000FEC10F00E01DA8312000FEC10F037
:102122000E01DA8512000FEC10F00E01DA811200B6
:0C2132000250D46E01C0D3FF1200120056
:020000040020DA
:10000000FF0FFF0FFF0FFF0FFF0FFF0FFF0FFF0F80
:020000040030CA
:0C000000AAFFFFFF9FFFFFFFFFFFFFFFB5
:00000001FF
