:0400000028EF00F0F5
:100008003A820E0133AB0BEF00F00DEF00F024EF56
:1000180000F07DA412EF00F014EF00F01DEF00F0E7
:10002800321C016E331C026EFCEC02F07D9424EF4E
:1000380000F0341C016E351C026EFCEC02F07D846D
:100048000E01339B3A921100A1EF02F07C9E80963C
:10005800849E889686840E01B4958686B4975EEC55
:1000680002F0000E046E140E036E1AEC02F0E7ECB8
:1000780002F0C2EC02F078EC02F0D2EC02F0010ED1
:100088008EA6000E8EA4000EE8B04DEF00F051EFE2
:1000980000F0126A122A52EF00F0126A1250D8A425
:1000A80058EF00F05AEF00F043EF00F08EB45FEF26
:1000B80000F061EF00F074EF00F07CAE66EF00F046
:1000C8006AEF00F0126A122A6BEF00F0126A12321D
:1000D80012327C5012187F0B12187C6E8DEF00F0D4
:1000E8008EB679EF00F07BEF00F08DEF00F080A680
:1000F80080EF00F084EF00F0126A122A85EF00F01A
:10010800126A12461246124680501218F70B12183D
:10011800806E7CAE92EF00F094EF00F0ABEF00F051
:1001280014501510D8B49BEF00F09DEF00F0B8EF15
:1001380000F0160E0E6E000E0F6E27EC01F0160E74
:10014800036E000E046EC8EC00F0B8EF00F080A655
:10015800B0EF00F0B2EF00F0B8EF00F0160E0E6E40
:10016800000E0F6E27EC01F0110E136E3C0E126E8E
:10017800CB0EE82EFED7122EFCD7132EFAD700F09E
:100188008DEF00F028EF00F020EE02F00350D926A2
:100198000450DA22DECF09F0DDCF0AF020EE04F0B9
:1001A8000350D9260450DA22DECF0BF0DDCF0CF055
:1001B80020EE06F00350D9260450DA22DECF07F0ED
:1001C800DDCF08F00B50095C0C500A58D8A0EFEFAF
:1001D80000F0F1EF00F002EF01F00750095C085061
:1001E8000A58D8A0FAEF00F0FCEF00F002EF01F097
:1001F800000E066E010E056E22EF01F009500B5C31
:100208000A500C58D8A00BEF01F00DEF01F01EEFCB
:1002180001F007500B5C08500C58D8A016EF01F0FD
:1002280018EF01F01EEF01F0000E066E020E056ECB
:1002380022EF01F0000E066E030E056E05C003F0F6
:1002480006C004F01200A2EC01F00EC0D9FF0FC0E6
:10025800DAFF07C0DEFF08C0DDFF090E116E1E0EB3
:10026800106EE40EE82EFED7102EFCD7112EFAD70A
:1002780000D07AEC01F020EE02F00E50D9260F5093
:10028800DA2207C0DEFF08C0DDFF090E116E1E0E60
:10029800106EE40EE82EFED7102EFCD7112EFAD7DA
:1002A80000D0CAEC01F020EE04F00E50D9260F5011
:1002B800DA2207C0DEFF08C0DDFF090E116E1E0E30
:1002C800106EE40EE82EFED7102EFCD7112EFAD7AA
:1002D80000D0F2EC01F020EE06F00E50D9260F50B7
:1002E800DA2207C0DEFF08C0DDFF1200F7EC02F0DB
:1002F800520EE1EC02F0B60EE1EC02F0EDEC02F089
:10030800530EE1EC02F0010E3DEC02F0096E0950CB
:100318000C6E0D6A000E3DEC02F0096E09500B6E72
:100328000A6A0C500A100C6E0D500B100D6EF2EC90
:1003380002F00CC007F00DC008F01200F7EC02F054
:10034800520EE1EC02F0B40EE1EC02F0EDEC02F03A
:10035800530EE1EC02F0010E3DEC02F0096E09507B
:100368000C6E0D6A000E3DEC02F0096E09500B6E22
:100378000A6A0C500A100C6E0D500B100D6EF2EC40
:1003880002F00CC007F00DC008F01200F7EC02F004
:10039800520EE1EC02F0B80EE1EC02F0EDEC02F0E6
:1003A800530EE1EC02F0010E3DEC02F0096E09502B
:1003B8000C6E0D6A000E3DEC02F0096E09500B6ED2
:1003C8000A6A0C500A100C6E0D500B100D6EF2ECF0
:1003D80002F00CC007F00DC008F01200F7EC02F0B4
:1003E800520EE1EC02F0BA0EE1EC02F0EDEC02F094
:1003F800530EE1EC02F0010E3DEC02F0096E0950DB
:100408000C6E0D6A000E3DEC02F0096E09500B6E81
:100418000A6A0C500A100C6E0D500B100D6EF2EC9F
:1004280002F00CC007F00DC008F012008594859802
:10043800839E879C7D947D987B9E7F9CBD508F0B6F
:100448003009BD6EE00EBE16BF50F00B0109BF6E3D
:100458000350800DF304BC6EBD8E0A0E0E01746F3E
:100468000B0E696F000EA36E000EA06EA48EA18EF7
:100478001200056E8DEC02F00E01DA878DEC02F0A9
:10048800D5CE06F08DEC02F00550D8B44EEF02F050
:1004980052EF02F0046A042A53EF02F0046A043AA5
:1004A80004460E01DA510418DF0B0418DA6FDA89F2
:1004B8000650120078EC02F0010E056E000EB2EC48
:1004C80002F03F0E076E550EE82EFED7072EFCD71A
:1004D80000F0030E056E000EB2EC02F0D50E056EAC
:1004E800010EB2EC02F012000E01D951F00B08090E
:1004F800D96FD98B9F0ED66F848A848CA79BA79DB2
:100508001D0E1D6F1E0E1C6F1C0E6F6F1B0E706F65
:1005180012000E01D8B593EF02F095EF02F08DEFBF
:1005280002F0DACE03F01F0E0316D8A49EEF02F0F5
:10053800A0EF02F08DEF02F0120000EE60F03C0E2A
:10054800EE6AE806FDE100EE1EF01C0EEE6AE80613
:10055800FDE13A903A9200012AEF00F0066EF7ECBE
:1005680002F0520EE1EC02F006508009E1EC02F0D4
:100578000550E1EC02F0F2EC02F01200D6501F0B2D
:100588004009D66ED688D650F00B0709D66ED588A6
:10059800F60ED46E3B0ED36ED58E1200120E0E01DF
:1005A800626F110E156FE997E895330EE56F000E2F
:1005B800E66FE789E88BE78F1200046E8DEC02F096
:1005C80004C0D5FE12000E01298BF28CF29AF28E2D
:1005D80012008DEC02F00E01DA8312008DEC02F0AD
:1005E8000E01DA8512008DEC02F00E01DA8112009C
:0A05F8000250D46E01C0D3FF1200C0
:020000040020DA
:10000000FF0FFF0FFF0FFF0FFF0FFF0FFF0FFF0F80
:020000040030CA
:0C000000AAFFFFFF9FFFFFFFFFFFFFFFB5
:00000001FF
